{
	"AIRBNB.sol": {
		"airbnb": {
			"abi": [
				{
					"inputs": [],
					"stateMutability": "nonpayable",
					"type": "constructor"
				},
				{
					"anonymous": false,
					"inputs": [
						{
							"indexed": false,
							"internalType": "string[]",
							"name": "datesBooked",
							"type": "string[]"
						},
						{
							"indexed": false,
							"internalType": "uint256",
							"name": "id",
							"type": "uint256"
						},
						{
							"indexed": false,
							"internalType": "address",
							"name": "booker",
							"type": "address"
						},
						{
							"indexed": false,
							"internalType": "string",
							"name": "city",
							"type": "string"
						},
						{
							"indexed": false,
							"internalType": "string",
							"name": "imgUrl",
							"type": "string"
						}
					],
					"name": "newDatesBooked",
					"type": "event"
				},
				{
					"anonymous": false,
					"inputs": [
						{
							"indexed": false,
							"internalType": "string",
							"name": "name",
							"type": "string"
						},
						{
							"indexed": false,
							"internalType": "string",
							"name": "city",
							"type": "string"
						},
						{
							"indexed": false,
							"internalType": "string",
							"name": "lat",
							"type": "string"
						},
						{
							"indexed": false,
							"internalType": "string",
							"name": "long",
							"type": "string"
						},
						{
							"indexed": false,
							"internalType": "string",
							"name": "unoDescription",
							"type": "string"
						},
						{
							"indexed": false,
							"internalType": "string",
							"name": "dosDescription",
							"type": "string"
						},
						{
							"indexed": false,
							"internalType": "string",
							"name": "imgUrl",
							"type": "string"
						},
						{
							"indexed": false,
							"internalType": "uint256",
							"name": "maxGuests",
							"type": "uint256"
						},
						{
							"indexed": false,
							"internalType": "uint256",
							"name": "pricePerDay",
							"type": "uint256"
						},
						{
							"indexed": false,
							"internalType": "string[]",
							"name": "datesBooked",
							"type": "string[]"
						},
						{
							"indexed": false,
							"internalType": "uint256",
							"name": "id",
							"type": "uint256"
						},
						{
							"indexed": false,
							"internalType": "address",
							"name": "renter",
							"type": "address"
						}
					],
					"name": "rentalCreated",
					"type": "event"
				},
				{
					"inputs": [
						{
							"internalType": "uint256",
							"name": "id",
							"type": "uint256"
						},
						{
							"internalType": "string[]",
							"name": "newBookings",
							"type": "string[]"
						}
					],
					"name": "addDatesBooked",
					"outputs": [],
					"stateMutability": "payable",
					"type": "function"
				},
				{
					"inputs": [
						{
							"internalType": "string",
							"name": "name",
							"type": "string"
						},
						{
							"internalType": "string",
							"name": "city",
							"type": "string"
						},
						{
							"internalType": "string",
							"name": "lat",
							"type": "string"
						},
						{
							"internalType": "string",
							"name": "long",
							"type": "string"
						},
						{
							"internalType": "string",
							"name": "unoDescription",
							"type": "string"
						},
						{
							"internalType": "string",
							"name": "dosDescription",
							"type": "string"
						},
						{
							"internalType": "string",
							"name": "imgUrl",
							"type": "string"
						},
						{
							"internalType": "uint256",
							"name": "maxGuests",
							"type": "uint256"
						},
						{
							"internalType": "uint256",
							"name": "pricePerDay",
							"type": "uint256"
						},
						{
							"internalType": "string[]",
							"name": "datesBooked",
							"type": "string[]"
						}
					],
					"name": "addRentals",
					"outputs": [],
					"stateMutability": "nonpayable",
					"type": "function"
				},
				{
					"inputs": [
						{
							"internalType": "uint256",
							"name": "id",
							"type": "uint256"
						}
					],
					"name": "getRental",
					"outputs": [
						{
							"internalType": "string",
							"name": "",
							"type": "string"
						},
						{
							"internalType": "uint256",
							"name": "",
							"type": "uint256"
						},
						{
							"internalType": "string[]",
							"name": "",
							"type": "string[]"
						}
					],
					"stateMutability": "view",
					"type": "function"
				},
				{
					"inputs": [],
					"name": "owner",
					"outputs": [
						{
							"internalType": "address",
							"name": "",
							"type": "address"
						}
					],
					"stateMutability": "view",
					"type": "function"
				},
				{
					"inputs": [
						{
							"internalType": "uint256",
							"name": "",
							"type": "uint256"
						}
					],
					"name": "rentalIds",
					"outputs": [
						{
							"internalType": "uint256",
							"name": "",
							"type": "uint256"
						}
					],
					"stateMutability": "view",
					"type": "function"
				}
			],
			"devdoc": {
				"kind": "dev",
				"methods": {},
				"version": 1
			},
			"evm": {
				"assembly": "    /* \"AIRBNB.sol\":60:4011  contract airbnb {... */\n  mstore(0x40, 0x80)\n    /* \"AIRBNB.sol\":176:250  constructor() {... */\n  callvalue\n  dup1\n  iszero\n  tag_1\n  jumpi\n  0x00\n  dup1\n  revert\ntag_1:\n  pop\n    /* \"AIRBNB.sol\":211:212  0 */\n  0x00\n    /* \"AIRBNB.sol\":201:208  counter */\n  0x01\n    /* \"AIRBNB.sol\":201:212  counter = 0 */\n  dup2\n  swap1\n  sstore\n  pop\n    /* \"AIRBNB.sol\":231:241  msg.sender */\n  caller\n    /* \"AIRBNB.sol\":223:228  owner */\n  0x00\n  dup1\n    /* \"AIRBNB.sol\":223:241  owner = msg.sender */\n  0x0100\n  exp\n  dup2\n  sload\n  dup2\n  0xffffffffffffffffffffffffffffffffffffffff\n  mul\n  not\n  and\n  swap1\n  dup4\n  0xffffffffffffffffffffffffffffffffffffffff\n  and\n  mul\n  or\n  swap1\n  sstore\n  pop\n    /* \"AIRBNB.sol\":60:4011  contract airbnb {... */\n  dataSize(sub_0)\n  dup1\n  dataOffset(sub_0)\n  0x00\n  codecopy\n  0x00\n  return\nstop\n\nsub_0: assembly {\n        /* \"AIRBNB.sol\":60:4011  contract airbnb {... */\n      mstore(0x40, 0x80)\n      jumpi(tag_1, lt(calldatasize, 0x04))\n      shr(0xe0, calldataload(0x00))\n      dup1\n      0x2a23bb72\n      eq\n      tag_2\n      jumpi\n      dup1\n      0x652bd29e\n      eq\n      tag_3\n      jumpi\n      dup1\n      0x8da5cb5b\n      eq\n      tag_4\n      jumpi\n      dup1\n      0xdeb38e79\n      eq\n      tag_5\n      jumpi\n      dup1\n      0xebfa74c9\n      eq\n      tag_6\n      jumpi\n    tag_1:\n      0x00\n      dup1\n      revert\n        /* \"AIRBNB.sol\":3070:3749  function addDatesBooked(uint256 id, string[] memory newBookings) public payable {... */\n    tag_2:\n      tag_7\n      0x04\n      dup1\n      calldatasize\n      sub\n      dup2\n      add\n      swap1\n      tag_8\n      swap2\n      swap1\n      tag_9\n      jump\t// in\n    tag_8:\n      tag_10\n      jump\t// in\n    tag_7:\n      stop\n        /* \"AIRBNB.sol\":3757:4008  function getRental(uint256 id) public view returns (string memory, uint256, string[] memory){... */\n    tag_3:\n      callvalue\n      dup1\n      iszero\n      tag_11\n      jumpi\n      0x00\n      dup1\n      revert\n    tag_11:\n      pop\n      tag_12\n      0x04\n      dup1\n      calldatasize\n      sub\n      dup2\n      add\n      swap1\n      tag_13\n      swap2\n      swap1\n      tag_14\n      jump\t// in\n    tag_13:\n      tag_15\n      jump\t// in\n    tag_12:\n      mload(0x40)\n      tag_16\n      swap4\n      swap3\n      swap2\n      swap1\n      tag_17\n      jump\t// in\n    tag_16:\n      mload(0x40)\n      dup1\n      swap2\n      sub\n      swap1\n      return\n        /* \"AIRBNB.sol\":85:105  address public owner */\n    tag_4:\n      callvalue\n      dup1\n      iszero\n      tag_18\n      jumpi\n      0x00\n      dup1\n      revert\n    tag_18:\n      pop\n      tag_19\n      tag_20\n      jump\t// in\n    tag_19:\n      mload(0x40)\n      tag_21\n      swap2\n      swap1\n      tag_22\n      jump\t// in\n    tag_21:\n      mload(0x40)\n      dup1\n      swap2\n      sub\n      swap1\n      return\n        /* \"AIRBNB.sol\":1191:2584  function addRentals(... */\n    tag_5:\n      callvalue\n      dup1\n      iszero\n      tag_23\n      jumpi\n      0x00\n      dup1\n      revert\n    tag_23:\n      pop\n      tag_24\n      0x04\n      dup1\n      calldatasize\n      sub\n      dup2\n      add\n      swap1\n      tag_25\n      swap2\n      swap1\n      tag_26\n      jump\t// in\n    tag_25:\n      tag_27\n      jump\t// in\n    tag_24:\n      stop\n        /* \"AIRBNB.sol\":1154:1180  uint256[] public rentalIds */\n    tag_6:\n      callvalue\n      dup1\n      iszero\n      tag_28\n      jumpi\n      0x00\n      dup1\n      revert\n    tag_28:\n      pop\n      tag_29\n      0x04\n      dup1\n      calldatasize\n      sub\n      dup2\n      add\n      swap1\n      tag_30\n      swap2\n      swap1\n      tag_14\n      jump\t// in\n    tag_30:\n      tag_31\n      jump\t// in\n    tag_29:\n      mload(0x40)\n      tag_32\n      swap2\n      swap1\n      tag_33\n      jump\t// in\n    tag_32:\n      mload(0x40)\n      dup1\n      swap2\n      sub\n      swap1\n      return\n        /* \"AIRBNB.sol\":3070:3749  function addDatesBooked(uint256 id, string[] memory newBookings) public payable {... */\n    tag_10:\n        /* \"AIRBNB.sol\":3184:3191  counter */\n      sload(0x01)\n        /* \"AIRBNB.sol\":3179:3181  id */\n      dup3\n        /* \"AIRBNB.sol\":3179:3191  id < counter */\n      lt\n        /* \"AIRBNB.sol\":3171:3210  require(id < counter, \"No such Rental\") */\n      tag_35\n      jumpi\n      mload(0x40)\n      0x08c379a000000000000000000000000000000000000000000000000000000000\n      dup2\n      mstore\n      0x04\n      add\n      tag_36\n      swap1\n      tag_37\n      jump\t// in\n    tag_36:\n      mload(0x40)\n      dup1\n      swap2\n      sub\n      swap1\n      revert\n    tag_35:\n        /* \"AIRBNB.sol\":3229:3259  checkBookings(id, newBookings) */\n      tag_38\n        /* \"AIRBNB.sol\":3243:3245  id */\n      dup3\n        /* \"AIRBNB.sol\":3247:3258  newBookings */\n      dup3\n        /* \"AIRBNB.sol\":3229:3242  checkBookings */\n      tag_39\n        /* \"AIRBNB.sol\":3229:3259  checkBookings(id, newBookings) */\n      jump\t// in\n    tag_38:\n        /* \"AIRBNB.sol\":3221:3297  require(checkBookings(id, newBookings), \"Already Booked For Requested Date\") */\n      tag_40\n      jumpi\n      mload(0x40)\n      0x08c379a000000000000000000000000000000000000000000000000000000000\n      dup2\n      mstore\n      0x04\n      add\n      tag_41\n      swap1\n      tag_42\n      jump\t// in\n    tag_41:\n      mload(0x40)\n      dup1\n      swap2\n      sub\n      swap1\n      revert\n    tag_40:\n        /* \"AIRBNB.sol\":3366:3377  newBookings */\n      dup1\n        /* \"AIRBNB.sol\":3366:3384  newBookings.length */\n      mload\n        /* \"AIRBNB.sol\":3356:3363  1 ether */\n      0x0de0b6b3a7640000\n        /* \"AIRBNB.sol\":3330:3337  rentals */\n      0x02\n        /* \"AIRBNB.sol\":3330:3341  rentals[id] */\n      0x00\n        /* \"AIRBNB.sol\":3338:3340  id */\n      dup6\n        /* \"AIRBNB.sol\":3330:3341  rentals[id] */\n      dup2\n      mstore\n      0x20\n      add\n      swap1\n      dup2\n      mstore\n      0x20\n      add\n      0x00\n      keccak256\n        /* \"AIRBNB.sol\":3330:3353  rentals[id].pricePerDay */\n      0x08\n      add\n      sload\n        /* \"AIRBNB.sol\":3330:3363  rentals[id].pricePerDay * 1 ether */\n      tag_43\n      swap2\n      swap1\n      tag_44\n      jump\t// in\n    tag_43:\n        /* \"AIRBNB.sol\":3330:3384  rentals[id].pricePerDay * 1 ether * newBookings.length */\n      tag_45\n      swap2\n      swap1\n      tag_44\n      jump\t// in\n    tag_45:\n        /* \"AIRBNB.sol\":3316:3325  msg.value */\n      callvalue\n        /* \"AIRBNB.sol\":3316:3385  msg.value == (rentals[id].pricePerDay * 1 ether * newBookings.length) */\n      eq\n        /* \"AIRBNB.sol\":3308:3455  require(msg.value == (rentals[id].pricePerDay * 1 ether * newBookings.length) , \"Please submit the asking price in order to complete the purchase\") */\n      tag_46\n      jumpi\n      mload(0x40)\n      0x08c379a000000000000000000000000000000000000000000000000000000000\n      dup2\n      mstore\n      0x04\n      add\n      tag_47\n      swap1\n      tag_48\n      jump\t// in\n    tag_47:\n      mload(0x40)\n      dup1\n      swap2\n      sub\n      swap1\n      revert\n    tag_46:\n        /* \"AIRBNB.sol\":3477:3483  uint i */\n      0x00\n        /* \"AIRBNB.sol\":3472:3589  for (uint i = 0; i < newBookings.length; i++) {... */\n    tag_49:\n        /* \"AIRBNB.sol\":3493:3504  newBookings */\n      dup2\n        /* \"AIRBNB.sol\":3493:3511  newBookings.length */\n      mload\n        /* \"AIRBNB.sol\":3489:3490  i */\n      dup2\n        /* \"AIRBNB.sol\":3489:3511  i < newBookings.length */\n      lt\n        /* \"AIRBNB.sol\":3472:3589  for (uint i = 0; i < newBookings.length; i++) {... */\n      iszero\n      tag_50\n      jumpi\n        /* \"AIRBNB.sol\":3533:3540  rentals */\n      0x02\n        /* \"AIRBNB.sol\":3533:3544  rentals[id] */\n      0x00\n        /* \"AIRBNB.sol\":3541:3543  id */\n      dup5\n        /* \"AIRBNB.sol\":3533:3544  rentals[id] */\n      dup2\n      mstore\n      0x20\n      add\n      swap1\n      dup2\n      mstore\n      0x20\n      add\n      0x00\n      keccak256\n        /* \"AIRBNB.sol\":3533:3556  rentals[id].datesBooked */\n      0x09\n      add\n        /* \"AIRBNB.sol\":3562:3573  newBookings */\n      dup3\n        /* \"AIRBNB.sol\":3574:3575  i */\n      dup3\n        /* \"AIRBNB.sol\":3562:3576  newBookings[i] */\n      dup2\n      mload\n      dup2\n      lt\n      tag_52\n      jumpi\n      tag_53\n      tag_54\n      jump\t// in\n    tag_53:\n    tag_52:\n      0x20\n      mul\n      0x20\n      add\n      add\n      mload\n        /* \"AIRBNB.sol\":3533:3577  rentals[id].datesBooked.push(newBookings[i]) */\n      swap1\n      dup1\n      0x01\n      dup2\n      sload\n      add\n      dup1\n      dup3\n      sstore\n      dup1\n      swap2\n      pop\n      pop\n      0x01\n      swap1\n      sub\n      swap1\n      0x00\n      mstore\n      keccak256(0x00, 0x20)\n      add\n      0x00\n      swap1\n      swap2\n      swap1\n      swap2\n      swap1\n      swap2\n      pop\n      swap1\n      dup2\n      tag_56\n      swap2\n      swap1\n      tag_57\n      jump\t// in\n    tag_56:\n      pop\n        /* \"AIRBNB.sol\":3513:3516  i++ */\n      dup1\n      dup1\n      tag_58\n      swap1\n      tag_59\n      jump\t// in\n    tag_58:\n      swap2\n      pop\n      pop\n        /* \"AIRBNB.sol\":3472:3589  for (uint i = 0; i < newBookings.length; i++) {... */\n      jump(tag_49)\n    tag_50:\n      pop\n        /* \"AIRBNB.sol\":3611:3616  owner */\n      0x00\n      dup1\n      sload\n      swap1\n      0x0100\n      exp\n      swap1\n      div\n      0xffffffffffffffffffffffffffffffffffffffff\n      and\n        /* \"AIRBNB.sol\":3603:3626  payable(owner).transfer */\n      0xffffffffffffffffffffffffffffffffffffffff\n      and\n        /* \"AIRBNB.sol\":3603:3637  payable(owner).transfer(msg.value) */\n      0x08fc\n        /* \"AIRBNB.sol\":3627:3636  msg.value */\n      callvalue\n        /* \"AIRBNB.sol\":3603:3637  payable(owner).transfer(msg.value) */\n      swap1\n      dup2\n      iszero\n      mul\n      swap1\n      mload(0x40)\n      0x00\n      mload(0x40)\n      dup1\n      dup4\n      sub\n      dup2\n      dup6\n      dup9\n      dup9\n      call\n      swap4\n      pop\n      pop\n      pop\n      pop\n      iszero\n      dup1\n      iszero\n      tag_61\n      jumpi\n      returndatasize\n      0x00\n      dup1\n      returndatacopy\n      revert(0x00, returndatasize)\n    tag_61:\n      pop\n        /* \"AIRBNB.sol\":3653:3735  newDatesBooked(newBookings, id, msg.sender, rentals[id].city,  rentals[id].imgUrl) */\n      0xdfcc683ac35013d595a2db07bcb6601a1bbc6c91dad13117fd60299c875c61b4\n        /* \"AIRBNB.sol\":3668:3679  newBookings */\n      dup2\n        /* \"AIRBNB.sol\":3681:3683  id */\n      dup4\n        /* \"AIRBNB.sol\":3685:3695  msg.sender */\n      caller\n        /* \"AIRBNB.sol\":3697:3704  rentals */\n      0x02\n        /* \"AIRBNB.sol\":3697:3708  rentals[id] */\n      0x00\n        /* \"AIRBNB.sol\":3705:3707  id */\n      dup8\n        /* \"AIRBNB.sol\":3697:3708  rentals[id] */\n      dup2\n      mstore\n      0x20\n      add\n      swap1\n      dup2\n      mstore\n      0x20\n      add\n      0x00\n      keccak256\n        /* \"AIRBNB.sol\":3697:3713  rentals[id].city */\n      0x01\n      add\n        /* \"AIRBNB.sol\":3716:3723  rentals */\n      0x02\n        /* \"AIRBNB.sol\":3716:3727  rentals[id] */\n      0x00\n        /* \"AIRBNB.sol\":3724:3726  id */\n      dup9\n        /* \"AIRBNB.sol\":3716:3727  rentals[id] */\n      dup2\n      mstore\n      0x20\n      add\n      swap1\n      dup2\n      mstore\n      0x20\n      add\n      0x00\n      keccak256\n        /* \"AIRBNB.sol\":3716:3734  rentals[id].imgUrl */\n      0x06\n      add\n        /* \"AIRBNB.sol\":3653:3735  newDatesBooked(newBookings, id, msg.sender, rentals[id].city,  rentals[id].imgUrl) */\n      mload(0x40)\n      tag_62\n      swap6\n      swap5\n      swap4\n      swap3\n      swap2\n      swap1\n      tag_63\n      jump\t// in\n    tag_62:\n      mload(0x40)\n      dup1\n      swap2\n      sub\n      swap1\n      log1\n        /* \"AIRBNB.sol\":3070:3749  function addDatesBooked(uint256 id, string[] memory newBookings) public payable {... */\n      pop\n      pop\n      jump\t// out\n        /* \"AIRBNB.sol\":3757:4008  function getRental(uint256 id) public view returns (string memory, uint256, string[] memory){... */\n    tag_15:\n        /* \"AIRBNB.sol\":3809:3822  string memory */\n      0x60\n        /* \"AIRBNB.sol\":3824:3831  uint256 */\n      0x00\n        /* \"AIRBNB.sol\":3833:3848  string[] memory */\n      0x60\n        /* \"AIRBNB.sol\":3873:3880  counter */\n      sload(0x01)\n        /* \"AIRBNB.sol\":3868:3870  id */\n      dup5\n        /* \"AIRBNB.sol\":3868:3880  id < counter */\n      lt\n        /* \"AIRBNB.sol\":3860:3899  require(id < counter, \"No such Rental\") */\n      tag_65\n      jumpi\n      mload(0x40)\n      0x08c379a000000000000000000000000000000000000000000000000000000000\n      dup2\n      mstore\n      0x04\n      add\n      tag_66\n      swap1\n      tag_37\n      jump\t// in\n    tag_66:\n      mload(0x40)\n      dup1\n      swap2\n      sub\n      swap1\n      revert\n    tag_65:\n        /* \"AIRBNB.sol\":3912:3932  rentalInfo storage s */\n      0x00\n        /* \"AIRBNB.sol\":3935:3942  rentals */\n      0x02\n        /* \"AIRBNB.sol\":3935:3946  rentals[id] */\n      0x00\n        /* \"AIRBNB.sol\":3943:3945  id */\n      dup7\n        /* \"AIRBNB.sol\":3935:3946  rentals[id] */\n      dup2\n      mstore\n      0x20\n      add\n      swap1\n      dup2\n      mstore\n      0x20\n      add\n      0x00\n      keccak256\n        /* \"AIRBNB.sol\":3912:3946  rentalInfo storage s = rentals[id] */\n      swap1\n      pop\n        /* \"AIRBNB.sol\":3965:3966  s */\n      dup1\n        /* \"AIRBNB.sol\":3965:3971  s.name */\n      0x00\n      add\n        /* \"AIRBNB.sol\":3972:3973  s */\n      dup2\n        /* \"AIRBNB.sol\":3972:3985  s.pricePerDay */\n      0x08\n      add\n      sload\n        /* \"AIRBNB.sol\":3986:3987  s */\n      dup3\n        /* \"AIRBNB.sol\":3986:3999  s.datesBooked */\n      0x09\n      add\n        /* \"AIRBNB.sol\":3957:4000  return (s.name,s.pricePerDay,s.datesBooked) */\n      dup3\n      dup1\n      sload\n      tag_67\n      swap1\n      tag_68\n      jump\t// in\n    tag_67:\n      dup1\n      0x1f\n      add\n      0x20\n      dup1\n      swap2\n      div\n      mul\n      0x20\n      add\n      mload(0x40)\n      swap1\n      dup2\n      add\n      0x40\n      mstore\n      dup1\n      swap3\n      swap2\n      swap1\n      dup2\n      dup2\n      mstore\n      0x20\n      add\n      dup3\n      dup1\n      sload\n      tag_69\n      swap1\n      tag_68\n      jump\t// in\n    tag_69:\n      dup1\n      iszero\n      tag_70\n      jumpi\n      dup1\n      0x1f\n      lt\n      tag_71\n      jumpi\n      0x0100\n      dup1\n      dup4\n      sload\n      div\n      mul\n      dup4\n      mstore\n      swap2\n      0x20\n      add\n      swap2\n      jump(tag_70)\n    tag_71:\n      dup3\n      add\n      swap2\n      swap1\n      0x00\n      mstore\n      keccak256(0x00, 0x20)\n      swap1\n    tag_72:\n      dup2\n      sload\n      dup2\n      mstore\n      swap1\n      0x01\n      add\n      swap1\n      0x20\n      add\n      dup1\n      dup4\n      gt\n      tag_72\n      jumpi\n      dup3\n      swap1\n      sub\n      0x1f\n      and\n      dup3\n      add\n      swap2\n    tag_70:\n      pop\n      pop\n      pop\n      pop\n      pop\n      swap3\n      pop\n      dup1\n      dup1\n      sload\n      dup1\n      0x20\n      mul\n      0x20\n      add\n      mload(0x40)\n      swap1\n      dup2\n      add\n      0x40\n      mstore\n      dup1\n      swap3\n      swap2\n      swap1\n      dup2\n      dup2\n      mstore\n      0x20\n      add\n      0x00\n      swap1\n    tag_73:\n      dup3\n      dup3\n      lt\n      iszero\n      tag_74\n      jumpi\n      dup4\n      dup3\n      swap1\n      0x00\n      mstore\n      keccak256(0x00, 0x20)\n      add\n      dup1\n      sload\n      tag_76\n      swap1\n      tag_68\n      jump\t// in\n    tag_76:\n      dup1\n      0x1f\n      add\n      0x20\n      dup1\n      swap2\n      div\n      mul\n      0x20\n      add\n      mload(0x40)\n      swap1\n      dup2\n      add\n      0x40\n      mstore\n      dup1\n      swap3\n      swap2\n      swap1\n      dup2\n      dup2\n      mstore\n      0x20\n      add\n      dup3\n      dup1\n      sload\n      tag_77\n      swap1\n      tag_68\n      jump\t// in\n    tag_77:\n      dup1\n      iszero\n      tag_78\n      jumpi\n      dup1\n      0x1f\n      lt\n      tag_79\n      jumpi\n      0x0100\n      dup1\n      dup4\n      sload\n      div\n      mul\n      dup4\n      mstore\n      swap2\n      0x20\n      add\n      swap2\n      jump(tag_78)\n    tag_79:\n      dup3\n      add\n      swap2\n      swap1\n      0x00\n      mstore\n      keccak256(0x00, 0x20)\n      swap1\n    tag_80:\n      dup2\n      sload\n      dup2\n      mstore\n      swap1\n      0x01\n      add\n      swap1\n      0x20\n      add\n      dup1\n      dup4\n      gt\n      tag_80\n      jumpi\n      dup3\n      swap1\n      sub\n      0x1f\n      and\n      dup3\n      add\n      swap2\n    tag_78:\n      pop\n      pop\n      pop\n      pop\n      pop\n      dup2\n      mstore\n      0x20\n      add\n      swap1\n      0x01\n      add\n      swap1\n      jump(tag_73)\n    tag_74:\n      pop\n      pop\n      pop\n      pop\n      swap1\n      pop\n      swap4\n      pop\n      swap4\n      pop\n      swap4\n      pop\n      pop\n        /* \"AIRBNB.sol\":3757:4008  function getRental(uint256 id) public view returns (string memory, uint256, string[] memory){... */\n      swap2\n      swap4\n      swap1\n      swap3\n      pop\n      jump\t// out\n        /* \"AIRBNB.sol\":85:105  address public owner */\n    tag_20:\n      0x00\n      dup1\n      sload\n      swap1\n      0x0100\n      exp\n      swap1\n      div\n      0xffffffffffffffffffffffffffffffffffffffff\n      and\n      dup2\n      jump\t// out\n        /* \"AIRBNB.sol\":1191:2584  function addRentals(... */\n    tag_27:\n        /* \"AIRBNB.sol\":1578:1583  owner */\n      0x00\n      dup1\n      sload\n      swap1\n      0x0100\n      exp\n      swap1\n      div\n      0xffffffffffffffffffffffffffffffffffffffff\n      and\n        /* \"AIRBNB.sol\":1564:1583  msg.sender == owner */\n      0xffffffffffffffffffffffffffffffffffffffff\n      and\n        /* \"AIRBNB.sol\":1564:1574  msg.sender */\n      caller\n        /* \"AIRBNB.sol\":1564:1583  msg.sender == owner */\n      0xffffffffffffffffffffffffffffffffffffffff\n      and\n      eq\n        /* \"AIRBNB.sol\":1556:1635  require(msg.sender == owner, \"Only owner of smart contract can put up rentals\") */\n      tag_82\n      jumpi\n      mload(0x40)\n      0x08c379a000000000000000000000000000000000000000000000000000000000\n      dup2\n      mstore\n      0x04\n      add\n      tag_83\n      swap1\n      tag_84\n      jump\t// in\n    tag_83:\n      mload(0x40)\n      dup1\n      swap2\n      sub\n      swap1\n      revert\n    tag_82:\n        /* \"AIRBNB.sol\":1646:1674  rentalInfo storage newRental */\n      0x00\n        /* \"AIRBNB.sol\":1677:1684  rentals */\n      0x02\n        /* \"AIRBNB.sol\":1677:1693  rentals[counter] */\n      0x00\n        /* \"AIRBNB.sol\":1685:1692  counter */\n      sload(0x01)\n        /* \"AIRBNB.sol\":1677:1693  rentals[counter] */\n      dup2\n      mstore\n      0x20\n      add\n      swap1\n      dup2\n      mstore\n      0x20\n      add\n      0x00\n      keccak256\n        /* \"AIRBNB.sol\":1646:1693  rentalInfo storage newRental = rentals[counter] */\n      swap1\n      pop\n        /* \"AIRBNB.sol\":1721:1725  name */\n      dup11\n        /* \"AIRBNB.sol\":1704:1713  newRental */\n      dup2\n        /* \"AIRBNB.sol\":1704:1718  newRental.name */\n      0x00\n      add\n        /* \"AIRBNB.sol\":1704:1725  newRental.name = name */\n      swap1\n      dup2\n      tag_85\n      swap2\n      swap1\n      tag_57\n      jump\t// in\n    tag_85:\n      pop\n        /* \"AIRBNB.sol\":1753:1757  city */\n      dup10\n        /* \"AIRBNB.sol\":1736:1745  newRental */\n      dup2\n        /* \"AIRBNB.sol\":1736:1750  newRental.city */\n      0x01\n      add\n        /* \"AIRBNB.sol\":1736:1757  newRental.city = city */\n      swap1\n      dup2\n      tag_86\n      swap2\n      swap1\n      tag_57\n      jump\t// in\n    tag_86:\n      pop\n        /* \"AIRBNB.sol\":1784:1787  lat */\n      dup9\n        /* \"AIRBNB.sol\":1768:1777  newRental */\n      dup2\n        /* \"AIRBNB.sol\":1768:1781  newRental.lat */\n      0x02\n      add\n        /* \"AIRBNB.sol\":1768:1787  newRental.lat = lat */\n      swap1\n      dup2\n      tag_87\n      swap2\n      swap1\n      tag_57\n      jump\t// in\n    tag_87:\n      pop\n        /* \"AIRBNB.sol\":1815:1819  long */\n      dup8\n        /* \"AIRBNB.sol\":1798:1807  newRental */\n      dup2\n        /* \"AIRBNB.sol\":1798:1812  newRental.long */\n      0x03\n      add\n        /* \"AIRBNB.sol\":1798:1819  newRental.long = long */\n      swap1\n      dup2\n      tag_88\n      swap2\n      swap1\n      tag_57\n      jump\t// in\n    tag_88:\n      pop\n        /* \"AIRBNB.sol\":1857:1871  unoDescription */\n      dup7\n        /* \"AIRBNB.sol\":1830:1839  newRental */\n      dup2\n        /* \"AIRBNB.sol\":1830:1854  newRental.unoDescription */\n      0x04\n      add\n        /* \"AIRBNB.sol\":1830:1871  newRental.unoDescription = unoDescription */\n      swap1\n      dup2\n      tag_89\n      swap2\n      swap1\n      tag_57\n      jump\t// in\n    tag_89:\n      pop\n        /* \"AIRBNB.sol\":1909:1923  dosDescription */\n      dup6\n        /* \"AIRBNB.sol\":1882:1891  newRental */\n      dup2\n        /* \"AIRBNB.sol\":1882:1906  newRental.dosDescription */\n      0x05\n      add\n        /* \"AIRBNB.sol\":1882:1923  newRental.dosDescription = dosDescription */\n      swap1\n      dup2\n      tag_90\n      swap2\n      swap1\n      tag_57\n      jump\t// in\n    tag_90:\n      pop\n        /* \"AIRBNB.sol\":1953:1959  imgUrl */\n      dup5\n        /* \"AIRBNB.sol\":1934:1943  newRental */\n      dup2\n        /* \"AIRBNB.sol\":1934:1950  newRental.imgUrl */\n      0x06\n      add\n        /* \"AIRBNB.sol\":1934:1959  newRental.imgUrl = imgUrl */\n      swap1\n      dup2\n      tag_91\n      swap2\n      swap1\n      tag_57\n      jump\t// in\n    tag_91:\n      pop\n        /* \"AIRBNB.sol\":1992:2001  maxGuests */\n      dup4\n        /* \"AIRBNB.sol\":1970:1979  newRental */\n      dup2\n        /* \"AIRBNB.sol\":1970:1989  newRental.maxGuests */\n      0x07\n      add\n        /* \"AIRBNB.sol\":1970:2001  newRental.maxGuests = maxGuests */\n      dup2\n      swap1\n      sstore\n      pop\n        /* \"AIRBNB.sol\":2036:2047  pricePerDay */\n      dup3\n        /* \"AIRBNB.sol\":2012:2021  newRental */\n      dup2\n        /* \"AIRBNB.sol\":2012:2033  newRental.pricePerDay */\n      0x08\n      add\n        /* \"AIRBNB.sol\":2012:2047  newRental.pricePerDay = pricePerDay */\n      dup2\n      swap1\n      sstore\n      pop\n        /* \"AIRBNB.sol\":2082:2093  datesBooked */\n      dup2\n        /* \"AIRBNB.sol\":2058:2067  newRental */\n      dup2\n        /* \"AIRBNB.sol\":2058:2079  newRental.datesBooked */\n      0x09\n      add\n        /* \"AIRBNB.sol\":2058:2093  newRental.datesBooked = datesBooked */\n      swap1\n      dup1\n      mload\n      swap1\n      0x20\n      add\n      swap1\n      tag_92\n      swap3\n      swap2\n      swap1\n      tag_93\n      jump\t// in\n    tag_92:\n      pop\n        /* \"AIRBNB.sol\":2119:2126  counter */\n      sload(0x01)\n        /* \"AIRBNB.sol\":2104:2113  newRental */\n      dup2\n        /* \"AIRBNB.sol\":2104:2116  newRental.id */\n      0x0a\n      add\n        /* \"AIRBNB.sol\":2104:2126  newRental.id = counter */\n      dup2\n      swap1\n      sstore\n      pop\n        /* \"AIRBNB.sol\":2156:2161  owner */\n      0x00\n      dup1\n      sload\n      swap1\n      0x0100\n      exp\n      swap1\n      div\n      0xffffffffffffffffffffffffffffffffffffffff\n      and\n        /* \"AIRBNB.sol\":2137:2146  newRental */\n      dup2\n        /* \"AIRBNB.sol\":2137:2153  newRental.renter */\n      0x0b\n      add\n      0x00\n        /* \"AIRBNB.sol\":2137:2161  newRental.renter = owner */\n      0x0100\n      exp\n      dup2\n      sload\n      dup2\n      0xffffffffffffffffffffffffffffffffffffffff\n      mul\n      not\n      and\n      swap1\n      dup4\n      0xffffffffffffffffffffffffffffffffffffffff\n      and\n      mul\n      or\n      swap1\n      sstore\n      pop\n        /* \"AIRBNB.sol\":2172:2181  rentalIds */\n      0x03\n        /* \"AIRBNB.sol\":2187:2194  counter */\n      sload(0x01)\n        /* \"AIRBNB.sol\":2172:2195  rentalIds.push(counter) */\n      swap1\n      dup1\n      0x01\n      dup2\n      sload\n      add\n      dup1\n      dup3\n      sstore\n      dup1\n      swap2\n      pop\n      pop\n      0x01\n      swap1\n      sub\n      swap1\n      0x00\n      mstore\n      keccak256(0x00, 0x20)\n      add\n      0x00\n      swap1\n      swap2\n      swap1\n      swap2\n      swap1\n      swap2\n      pop\n      sstore\n        /* \"AIRBNB.sol\":2211:2556  rentalCreated(... */\n      0xc06f078c3c74d235829af3e011ff5aae487c78ef8d3acca688417ed86ff14591\n        /* \"AIRBNB.sol\":2243:2247  name */\n      dup12\n        /* \"AIRBNB.sol\":2267:2271  city */\n      dup12\n        /* \"AIRBNB.sol\":2291:2294  lat */\n      dup12\n        /* \"AIRBNB.sol\":2314:2318  long */\n      dup12\n        /* \"AIRBNB.sol\":2338:2352  unoDescription */\n      dup12\n        /* \"AIRBNB.sol\":2372:2386  dosDescription */\n      dup12\n        /* \"AIRBNB.sol\":2406:2412  imgUrl */\n      dup12\n        /* \"AIRBNB.sol\":2432:2441  maxGuests */\n      dup12\n        /* \"AIRBNB.sol\":2461:2472  pricePerDay */\n      dup12\n        /* \"AIRBNB.sol\":2492:2503  datesBooked */\n      dup12\n        /* \"AIRBNB.sol\":2523:2530  counter */\n      sload(0x01)\n        /* \"AIRBNB.sol\":2550:2555  owner */\n      0x00\n      dup1\n      sload\n      swap1\n      0x0100\n      exp\n      swap1\n      div\n      0xffffffffffffffffffffffffffffffffffffffff\n      and\n        /* \"AIRBNB.sol\":2211:2556  rentalCreated(... */\n      mload(0x40)\n      tag_95\n      swap13\n      swap12\n      swap11\n      swap10\n      swap9\n      swap8\n      swap7\n      swap6\n      swap5\n      swap4\n      swap3\n      swap2\n      swap1\n      tag_96\n      jump\t// in\n    tag_95:\n      mload(0x40)\n      dup1\n      swap2\n      sub\n      swap1\n      log1\n        /* \"AIRBNB.sol\":2567:2574  counter */\n      0x01\n      0x00\n        /* \"AIRBNB.sol\":2567:2576  counter++ */\n      dup2\n      sload\n      dup1\n      swap3\n      swap2\n      swap1\n      tag_97\n      swap1\n      tag_59\n      jump\t// in\n    tag_97:\n      swap2\n      swap1\n      pop\n      sstore\n      pop\n        /* \"AIRBNB.sol\":1545:2584  {... */\n      pop\n        /* \"AIRBNB.sol\":1191:2584  function addRentals(... */\n      pop\n      pop\n      pop\n      pop\n      pop\n      pop\n      pop\n      pop\n      pop\n      pop\n      jump\t// out\n        /* \"AIRBNB.sol\":1154:1180  uint256[] public rentalIds */\n    tag_31:\n      0x03\n      dup2\n      dup2\n      sload\n      dup2\n      lt\n      tag_98\n      jumpi\n      0x00\n      dup1\n      revert\n    tag_98:\n      swap1\n      0x00\n      mstore\n      keccak256(0x00, 0x20)\n      add\n      0x00\n      swap2\n      pop\n      swap1\n      pop\n      sload\n      dup2\n      jump\t// out\n        /* \"AIRBNB.sol\":2592:3060  function checkBookings(uint256 id, string[] memory newBookings) private view returns (bool){... */\n    tag_39:\n        /* \"AIRBNB.sol\":2678:2682  bool */\n      0x00\n        /* \"AIRBNB.sol\":2709:2715  uint i */\n      dup1\n        /* \"AIRBNB.sol\":2718:2719  0 */\n      0x00\n        /* \"AIRBNB.sol\":2709:2719  uint i = 0 */\n      swap1\n      pop\n        /* \"AIRBNB.sol\":2704:3031  for (uint i = 0; i < newBookings.length; i++) {... */\n    tag_101:\n        /* \"AIRBNB.sol\":2725:2736  newBookings */\n      dup3\n        /* \"AIRBNB.sol\":2725:2743  newBookings.length */\n      mload\n        /* \"AIRBNB.sol\":2721:2722  i */\n      dup2\n        /* \"AIRBNB.sol\":2721:2743  i < newBookings.length */\n      lt\n        /* \"AIRBNB.sol\":2704:3031  for (uint i = 0; i < newBookings.length; i++) {... */\n      iszero\n      tag_102\n      jumpi\n        /* \"AIRBNB.sol\":2770:2776  uint j */\n      0x00\n        /* \"AIRBNB.sol\":2765:3020  for (uint j = 0; j < rentals[id].datesBooked.length; j++) {... */\n    tag_104:\n        /* \"AIRBNB.sol\":2786:2793  rentals */\n      0x02\n        /* \"AIRBNB.sol\":2786:2797  rentals[id] */\n      0x00\n        /* \"AIRBNB.sol\":2794:2796  id */\n      dup7\n        /* \"AIRBNB.sol\":2786:2797  rentals[id] */\n      dup2\n      mstore\n      0x20\n      add\n      swap1\n      dup2\n      mstore\n      0x20\n      add\n      0x00\n      keccak256\n        /* \"AIRBNB.sol\":2786:2809  rentals[id].datesBooked */\n      0x09\n      add\n        /* \"AIRBNB.sol\":2786:2816  rentals[id].datesBooked.length */\n      dup1\n      sload\n      swap1\n      pop\n        /* \"AIRBNB.sol\":2782:2783  j */\n      dup2\n        /* \"AIRBNB.sol\":2782:2816  j < rentals[id].datesBooked.length */\n      lt\n        /* \"AIRBNB.sol\":2765:3020  for (uint j = 0; j < rentals[id].datesBooked.length; j++) {... */\n      iszero\n      tag_105\n      jumpi\n        /* \"AIRBNB.sol\":2932:2943  newBookings */\n      dup4\n        /* \"AIRBNB.sol\":2944:2945  i */\n      dup3\n        /* \"AIRBNB.sol\":2932:2946  newBookings[i] */\n      dup2\n      mload\n      dup2\n      lt\n      tag_107\n      jumpi\n      tag_108\n      tag_54\n      jump\t// in\n    tag_108:\n    tag_107:\n      0x20\n      mul\n      0x20\n      add\n      add\n      mload\n        /* \"AIRBNB.sol\":2915:2947  abi.encodePacked(newBookings[i]) */\n      add(0x20, mload(0x40))\n      tag_109\n      swap2\n      swap1\n      tag_110\n      jump\t// in\n    tag_109:\n      mload(0x40)\n      0x20\n      dup2\n      dup4\n      sub\n      sub\n      dup2\n      mstore\n      swap1\n      0x40\n      mstore\n        /* \"AIRBNB.sol\":2905:2948  keccak256(abi.encodePacked(newBookings[i])) */\n      dup1\n      mload\n      swap1\n      0x20\n      add\n      keccak256\n        /* \"AIRBNB.sol\":2873:2880  rentals */\n      0x02\n        /* \"AIRBNB.sol\":2873:2884  rentals[id] */\n      0x00\n        /* \"AIRBNB.sol\":2881:2883  id */\n      dup8\n        /* \"AIRBNB.sol\":2873:2884  rentals[id] */\n      dup2\n      mstore\n      0x20\n      add\n      swap1\n      dup2\n      mstore\n      0x20\n      add\n      0x00\n      keccak256\n        /* \"AIRBNB.sol\":2873:2896  rentals[id].datesBooked */\n      0x09\n      add\n        /* \"AIRBNB.sol\":2897:2898  j */\n      dup3\n        /* \"AIRBNB.sol\":2873:2899  rentals[id].datesBooked[j] */\n      dup2\n      sload\n      dup2\n      lt\n      tag_111\n      jumpi\n      tag_112\n      tag_54\n      jump\t// in\n    tag_112:\n    tag_111:\n      swap1\n      0x00\n      mstore\n      keccak256(0x00, 0x20)\n      add\n        /* \"AIRBNB.sol\":2856:2900  abi.encodePacked(rentals[id].datesBooked[j]) */\n      add(0x20, mload(0x40))\n      tag_114\n      swap2\n      swap1\n      tag_115\n      jump\t// in\n    tag_114:\n      mload(0x40)\n      0x20\n      dup2\n      dup4\n      sub\n      sub\n      dup2\n      mstore\n      swap1\n      0x40\n      mstore\n        /* \"AIRBNB.sol\":2846:2901  keccak256(abi.encodePacked(rentals[id].datesBooked[j])) */\n      dup1\n      mload\n      swap1\n      0x20\n      add\n      keccak256\n        /* \"AIRBNB.sol\":2846:2948  keccak256(abi.encodePacked(rentals[id].datesBooked[j])) == keccak256(abi.encodePacked(newBookings[i])) */\n      sub\n        /* \"AIRBNB.sol\":2842:3005  if (keccak256(abi.encodePacked(rentals[id].datesBooked[j])) == keccak256(abi.encodePacked(newBookings[i]))) {... */\n      tag_116\n      jumpi\n        /* \"AIRBNB.sol\":2980:2985  false */\n      0x00\n        /* \"AIRBNB.sol\":2973:2985  return false */\n      swap3\n      pop\n      pop\n      pop\n      jump(tag_100)\n        /* \"AIRBNB.sol\":2842:3005  if (keccak256(abi.encodePacked(rentals[id].datesBooked[j])) == keccak256(abi.encodePacked(newBookings[i]))) {... */\n    tag_116:\n        /* \"AIRBNB.sol\":2818:2821  j++ */\n      dup1\n      dup1\n      tag_117\n      swap1\n      tag_59\n      jump\t// in\n    tag_117:\n      swap2\n      pop\n      pop\n        /* \"AIRBNB.sol\":2765:3020  for (uint j = 0; j < rentals[id].datesBooked.length; j++) {... */\n      jump(tag_104)\n    tag_105:\n      pop\n        /* \"AIRBNB.sol\":2745:2748  i++ */\n      dup1\n      dup1\n      tag_118\n      swap1\n      tag_59\n      jump\t// in\n    tag_118:\n      swap2\n      pop\n      pop\n        /* \"AIRBNB.sol\":2704:3031  for (uint i = 0; i < newBookings.length; i++) {... */\n      jump(tag_101)\n    tag_102:\n      pop\n        /* \"AIRBNB.sol\":3048:3052  true */\n      0x01\n        /* \"AIRBNB.sol\":3041:3052  return true */\n      swap1\n      pop\n        /* \"AIRBNB.sol\":2592:3060  function checkBookings(uint256 id, string[] memory newBookings) private view returns (bool){... */\n    tag_100:\n      swap3\n      swap2\n      pop\n      pop\n      jump\t// out\n    tag_93:\n      dup3\n      dup1\n      sload\n      dup3\n      dup3\n      sstore\n      swap1\n      0x00\n      mstore\n      keccak256(0x00, 0x20)\n      swap1\n      dup2\n      add\n      swap3\n      dup3\n      iszero\n      tag_119\n      jumpi\n      swap2\n      0x20\n      mul\n      dup3\n      add\n    tag_120:\n      dup3\n      dup2\n      gt\n      iszero\n      tag_121\n      jumpi\n      dup3\n      mload\n      dup3\n      swap1\n      dup2\n      tag_122\n      swap2\n      swap1\n      tag_57\n      jump\t// in\n    tag_122:\n      pop\n      swap2\n      0x20\n      add\n      swap2\n      swap1\n      0x01\n      add\n      swap1\n      jump(tag_120)\n    tag_121:\n    tag_119:\n      pop\n      swap1\n      pop\n      tag_123\n      swap2\n      swap1\n      tag_124\n      jump\t// in\n    tag_123:\n      pop\n      swap1\n      jump\t// out\n    tag_124:\n    tag_125:\n      dup1\n      dup3\n      gt\n      iszero\n      tag_126\n      jumpi\n      0x00\n      dup2\n      dup2\n      tag_127\n      swap2\n      swap1\n      tag_128\n      jump\t// in\n    tag_127:\n      pop\n      0x01\n      add\n      jump(tag_125)\n    tag_126:\n      pop\n      swap1\n      jump\t// out\n    tag_128:\n      pop\n      dup1\n      sload\n      tag_129\n      swap1\n      tag_68\n      jump\t// in\n    tag_129:\n      0x00\n      dup3\n      sstore\n      dup1\n      0x1f\n      lt\n      tag_131\n      jumpi\n      pop\n      jump(tag_130)\n    tag_131:\n      0x1f\n      add\n      0x20\n      swap1\n      div\n      swap1\n      0x00\n      mstore\n      keccak256(0x00, 0x20)\n      swap1\n      dup2\n      add\n      swap1\n      tag_132\n      swap2\n      swap1\n      tag_133\n      jump\t// in\n    tag_132:\n    tag_130:\n      pop\n      jump\t// out\n    tag_133:\n    tag_134:\n      dup1\n      dup3\n      gt\n      iszero\n      tag_135\n      jumpi\n      0x00\n      dup2\n      0x00\n      swap1\n      sstore\n      pop\n      0x01\n      add\n      jump(tag_134)\n    tag_135:\n      pop\n      swap1\n      jump\t// out\n        /* \"#utility.yul\":7:82   */\n    tag_136:\n        /* \"#utility.yul\":40:46   */\n      0x00\n        /* \"#utility.yul\":73:75   */\n      0x40\n        /* \"#utility.yul\":67:76   */\n      mload\n        /* \"#utility.yul\":57:76   */\n      swap1\n      pop\n        /* \"#utility.yul\":7:82   */\n      swap1\n      jump\t// out\n        /* \"#utility.yul\":88:205   */\n    tag_137:\n        /* \"#utility.yul\":197:198   */\n      0x00\n        /* \"#utility.yul\":194:195   */\n      dup1\n        /* \"#utility.yul\":187:199   */\n      revert\n        /* \"#utility.yul\":211:328   */\n    tag_138:\n        /* \"#utility.yul\":320:321   */\n      0x00\n        /* \"#utility.yul\":317:318   */\n      dup1\n        /* \"#utility.yul\":310:322   */\n      revert\n        /* \"#utility.yul\":334:411   */\n    tag_139:\n        /* \"#utility.yul\":371:378   */\n      0x00\n        /* \"#utility.yul\":400:405   */\n      dup2\n        /* \"#utility.yul\":389:405   */\n      swap1\n      pop\n        /* \"#utility.yul\":334:411   */\n      swap2\n      swap1\n      pop\n      jump\t// out\n        /* \"#utility.yul\":417:539   */\n    tag_140:\n        /* \"#utility.yul\":490:514   */\n      tag_207\n        /* \"#utility.yul\":508:513   */\n      dup2\n        /* \"#utility.yul\":490:514   */\n      tag_139\n      jump\t// in\n    tag_207:\n        /* \"#utility.yul\":483:488   */\n      dup2\n        /* \"#utility.yul\":480:515   */\n      eq\n        /* \"#utility.yul\":470:533   */\n      tag_208\n      jumpi\n        /* \"#utility.yul\":529:530   */\n      0x00\n        /* \"#utility.yul\":526:527   */\n      dup1\n        /* \"#utility.yul\":519:531   */\n      revert\n        /* \"#utility.yul\":470:533   */\n    tag_208:\n        /* \"#utility.yul\":417:539   */\n      pop\n      jump\t// out\n        /* \"#utility.yul\":545:684   */\n    tag_141:\n        /* \"#utility.yul\":591:596   */\n      0x00\n        /* \"#utility.yul\":629:635   */\n      dup2\n        /* \"#utility.yul\":616:636   */\n      calldataload\n        /* \"#utility.yul\":607:636   */\n      swap1\n      pop\n        /* \"#utility.yul\":645:678   */\n      tag_210\n        /* \"#utility.yul\":672:677   */\n      dup2\n        /* \"#utility.yul\":645:678   */\n      tag_140\n      jump\t// in\n    tag_210:\n        /* \"#utility.yul\":545:684   */\n      swap3\n      swap2\n      pop\n      pop\n      jump\t// out\n        /* \"#utility.yul\":690:807   */\n    tag_142:\n        /* \"#utility.yul\":799:800   */\n      0x00\n        /* \"#utility.yul\":796:797   */\n      dup1\n        /* \"#utility.yul\":789:801   */\n      revert\n        /* \"#utility.yul\":813:915   */\n    tag_143:\n        /* \"#utility.yul\":854:860   */\n      0x00\n        /* \"#utility.yul\":905:907   */\n      0x1f\n        /* \"#utility.yul\":901:908   */\n      not\n        /* \"#utility.yul\":896:898   */\n      0x1f\n        /* \"#utility.yul\":889:894   */\n      dup4\n        /* \"#utility.yul\":885:899   */\n      add\n        /* \"#utility.yul\":881:909   */\n      and\n        /* \"#utility.yul\":871:909   */\n      swap1\n      pop\n        /* \"#utility.yul\":813:915   */\n      swap2\n      swap1\n      pop\n      jump\t// out\n        /* \"#utility.yul\":921:1101   */\n    tag_144:\n        /* \"#utility.yul\":969:1046   */\n      0x4e487b7100000000000000000000000000000000000000000000000000000000\n        /* \"#utility.yul\":966:967   */\n      0x00\n        /* \"#utility.yul\":959:1047   */\n      mstore\n        /* \"#utility.yul\":1066:1070   */\n      0x41\n        /* \"#utility.yul\":1063:1064   */\n      0x04\n        /* \"#utility.yul\":1056:1071   */\n      mstore\n        /* \"#utility.yul\":1090:1094   */\n      0x24\n        /* \"#utility.yul\":1087:1088   */\n      0x00\n        /* \"#utility.yul\":1080:1095   */\n      revert\n        /* \"#utility.yul\":1107:1388   */\n    tag_145:\n        /* \"#utility.yul\":1190:1217   */\n      tag_215\n        /* \"#utility.yul\":1212:1216   */\n      dup3\n        /* \"#utility.yul\":1190:1217   */\n      tag_143\n      jump\t// in\n    tag_215:\n        /* \"#utility.yul\":1182:1188   */\n      dup2\n        /* \"#utility.yul\":1178:1218   */\n      add\n        /* \"#utility.yul\":1320:1326   */\n      dup2\n        /* \"#utility.yul\":1308:1318   */\n      dup2\n        /* \"#utility.yul\":1305:1327   */\n      lt\n        /* \"#utility.yul\":1284:1302   */\n      0xffffffffffffffff\n        /* \"#utility.yul\":1272:1282   */\n      dup3\n        /* \"#utility.yul\":1269:1303   */\n      gt\n        /* \"#utility.yul\":1266:1328   */\n      or\n        /* \"#utility.yul\":1263:1351   */\n      iszero\n      tag_216\n      jumpi\n        /* \"#utility.yul\":1331:1349   */\n      tag_217\n      tag_144\n      jump\t// in\n    tag_217:\n        /* \"#utility.yul\":1263:1351   */\n    tag_216:\n        /* \"#utility.yul\":1371:1381   */\n      dup1\n        /* \"#utility.yul\":1367:1369   */\n      0x40\n        /* \"#utility.yul\":1360:1382   */\n      mstore\n        /* \"#utility.yul\":1150:1388   */\n      pop\n        /* \"#utility.yul\":1107:1388   */\n      pop\n      pop\n      jump\t// out\n        /* \"#utility.yul\":1394:1523   */\n    tag_146:\n        /* \"#utility.yul\":1428:1434   */\n      0x00\n        /* \"#utility.yul\":1455:1475   */\n      tag_219\n      tag_136\n      jump\t// in\n    tag_219:\n        /* \"#utility.yul\":1445:1475   */\n      swap1\n      pop\n        /* \"#utility.yul\":1484:1517   */\n      tag_220\n        /* \"#utility.yul\":1512:1516   */\n      dup3\n        /* \"#utility.yul\":1504:1510   */\n      dup3\n        /* \"#utility.yul\":1484:1517   */\n      tag_145\n      jump\t// in\n    tag_220:\n        /* \"#utility.yul\":1394:1523   */\n      swap2\n      swap1\n      pop\n      jump\t// out\n        /* \"#utility.yul\":1529:1850   */\n    tag_147:\n        /* \"#utility.yul\":1616:1620   */\n      0x00\n        /* \"#utility.yul\":1706:1724   */\n      0xffffffffffffffff\n        /* \"#utility.yul\":1698:1704   */\n      dup3\n        /* \"#utility.yul\":1695:1725   */\n      gt\n        /* \"#utility.yul\":1692:1748   */\n      iszero\n      tag_222\n      jumpi\n        /* \"#utility.yul\":1728:1746   */\n      tag_223\n      tag_144\n      jump\t// in\n    tag_223:\n        /* \"#utility.yul\":1692:1748   */\n    tag_222:\n        /* \"#utility.yul\":1778:1782   */\n      0x20\n        /* \"#utility.yul\":1770:1776   */\n      dup3\n        /* \"#utility.yul\":1766:1783   */\n      mul\n        /* \"#utility.yul\":1758:1783   */\n      swap1\n      pop\n        /* \"#utility.yul\":1838:1842   */\n      0x20\n        /* \"#utility.yul\":1832:1836   */\n      dup2\n        /* \"#utility.yul\":1828:1843   */\n      add\n        /* \"#utility.yul\":1820:1843   */\n      swap1\n      pop\n        /* \"#utility.yul\":1529:1850   */\n      swap2\n      swap1\n      pop\n      jump\t// out\n        /* \"#utility.yul\":1856:1973   */\n    tag_148:\n        /* \"#utility.yul\":1965:1966   */\n      0x00\n        /* \"#utility.yul\":1962:1963   */\n      dup1\n        /* \"#utility.yul\":1955:1967   */\n      revert\n        /* \"#utility.yul\":1979:2096   */\n    tag_149:\n        /* \"#utility.yul\":2088:2089   */\n      0x00\n        /* \"#utility.yul\":2085:2086   */\n      dup1\n        /* \"#utility.yul\":2078:2090   */\n      revert\n        /* \"#utility.yul\":2102:2410   */\n    tag_150:\n        /* \"#utility.yul\":2164:2168   */\n      0x00\n        /* \"#utility.yul\":2254:2272   */\n      0xffffffffffffffff\n        /* \"#utility.yul\":2246:2252   */\n      dup3\n        /* \"#utility.yul\":2243:2273   */\n      gt\n        /* \"#utility.yul\":2240:2296   */\n      iszero\n      tag_227\n      jumpi\n        /* \"#utility.yul\":2276:2294   */\n      tag_228\n      tag_144\n      jump\t// in\n    tag_228:\n        /* \"#utility.yul\":2240:2296   */\n    tag_227:\n        /* \"#utility.yul\":2314:2343   */\n      tag_229\n        /* \"#utility.yul\":2336:2342   */\n      dup3\n        /* \"#utility.yul\":2314:2343   */\n      tag_143\n      jump\t// in\n    tag_229:\n        /* \"#utility.yul\":2306:2343   */\n      swap1\n      pop\n        /* \"#utility.yul\":2398:2402   */\n      0x20\n        /* \"#utility.yul\":2392:2396   */\n      dup2\n        /* \"#utility.yul\":2388:2403   */\n      add\n        /* \"#utility.yul\":2380:2403   */\n      swap1\n      pop\n        /* \"#utility.yul\":2102:2410   */\n      swap2\n      swap1\n      pop\n      jump\t// out\n        /* \"#utility.yul\":2416:2570   */\n    tag_151:\n        /* \"#utility.yul\":2500:2506   */\n      dup3\n        /* \"#utility.yul\":2495:2498   */\n      dup2\n        /* \"#utility.yul\":2490:2493   */\n      dup4\n        /* \"#utility.yul\":2477:2507   */\n      calldatacopy\n        /* \"#utility.yul\":2562:2563   */\n      0x00\n        /* \"#utility.yul\":2553:2559   */\n      dup4\n        /* \"#utility.yul\":2548:2551   */\n      dup4\n        /* \"#utility.yul\":2544:2560   */\n      add\n        /* \"#utility.yul\":2537:2564   */\n      mstore\n        /* \"#utility.yul\":2416:2570   */\n      pop\n      pop\n      pop\n      jump\t// out\n        /* \"#utility.yul\":2576:2988   */\n    tag_152:\n        /* \"#utility.yul\":2654:2659   */\n      0x00\n        /* \"#utility.yul\":2679:2745   */\n      tag_232\n        /* \"#utility.yul\":2695:2744   */\n      tag_233\n        /* \"#utility.yul\":2737:2743   */\n      dup5\n        /* \"#utility.yul\":2695:2744   */\n      tag_150\n      jump\t// in\n    tag_233:\n        /* \"#utility.yul\":2679:2745   */\n      tag_146\n      jump\t// in\n    tag_232:\n        /* \"#utility.yul\":2670:2745   */\n      swap1\n      pop\n        /* \"#utility.yul\":2768:2774   */\n      dup3\n        /* \"#utility.yul\":2761:2766   */\n      dup2\n        /* \"#utility.yul\":2754:2775   */\n      mstore\n        /* \"#utility.yul\":2806:2810   */\n      0x20\n        /* \"#utility.yul\":2799:2804   */\n      dup2\n        /* \"#utility.yul\":2795:2811   */\n      add\n        /* \"#utility.yul\":2844:2847   */\n      dup5\n        /* \"#utility.yul\":2835:2841   */\n      dup5\n        /* \"#utility.yul\":2830:2833   */\n      dup5\n        /* \"#utility.yul\":2826:2842   */\n      add\n        /* \"#utility.yul\":2823:2848   */\n      gt\n        /* \"#utility.yul\":2820:2932   */\n      iszero\n      tag_234\n      jumpi\n        /* \"#utility.yul\":2851:2930   */\n      tag_235\n      tag_149\n      jump\t// in\n    tag_235:\n        /* \"#utility.yul\":2820:2932   */\n    tag_234:\n        /* \"#utility.yul\":2941:2982   */\n      tag_236\n        /* \"#utility.yul\":2975:2981   */\n      dup5\n        /* \"#utility.yul\":2970:2973   */\n      dup3\n        /* \"#utility.yul\":2965:2968   */\n      dup6\n        /* \"#utility.yul\":2941:2982   */\n      tag_151\n      jump\t// in\n    tag_236:\n        /* \"#utility.yul\":2660:2988   */\n      pop\n        /* \"#utility.yul\":2576:2988   */\n      swap4\n      swap3\n      pop\n      pop\n      pop\n      jump\t// out\n        /* \"#utility.yul\":3008:3348   */\n    tag_153:\n        /* \"#utility.yul\":3064:3069   */\n      0x00\n        /* \"#utility.yul\":3113:3116   */\n      dup3\n        /* \"#utility.yul\":3106:3110   */\n      0x1f\n        /* \"#utility.yul\":3098:3104   */\n      dup4\n        /* \"#utility.yul\":3094:3111   */\n      add\n        /* \"#utility.yul\":3090:3117   */\n      slt\n        /* \"#utility.yul\":3080:3202   */\n      tag_238\n      jumpi\n        /* \"#utility.yul\":3121:3200   */\n      tag_239\n      tag_142\n      jump\t// in\n    tag_239:\n        /* \"#utility.yul\":3080:3202   */\n    tag_238:\n        /* \"#utility.yul\":3238:3244   */\n      dup2\n        /* \"#utility.yul\":3225:3245   */\n      calldataload\n        /* \"#utility.yul\":3263:3342   */\n      tag_240\n        /* \"#utility.yul\":3338:3341   */\n      dup5\n        /* \"#utility.yul\":3330:3336   */\n      dup3\n        /* \"#utility.yul\":3323:3327   */\n      0x20\n        /* \"#utility.yul\":3315:3321   */\n      dup7\n        /* \"#utility.yul\":3311:3328   */\n      add\n        /* \"#utility.yul\":3263:3342   */\n      tag_152\n      jump\t// in\n    tag_240:\n        /* \"#utility.yul\":3254:3342   */\n      swap2\n      pop\n        /* \"#utility.yul\":3070:3348   */\n      pop\n        /* \"#utility.yul\":3008:3348   */\n      swap3\n      swap2\n      pop\n      pop\n      jump\t// out\n        /* \"#utility.yul\":3370:4315   */\n    tag_154:\n        /* \"#utility.yul\":3476:3481   */\n      0x00\n        /* \"#utility.yul\":3501:3592   */\n      tag_242\n        /* \"#utility.yul\":3517:3591   */\n      tag_243\n        /* \"#utility.yul\":3584:3590   */\n      dup5\n        /* \"#utility.yul\":3517:3591   */\n      tag_147\n      jump\t// in\n    tag_243:\n        /* \"#utility.yul\":3501:3592   */\n      tag_146\n      jump\t// in\n    tag_242:\n        /* \"#utility.yul\":3492:3592   */\n      swap1\n      pop\n        /* \"#utility.yul\":3612:3617   */\n      dup1\n        /* \"#utility.yul\":3641:3647   */\n      dup4\n        /* \"#utility.yul\":3634:3639   */\n      dup3\n        /* \"#utility.yul\":3627:3648   */\n      mstore\n        /* \"#utility.yul\":3675:3679   */\n      0x20\n        /* \"#utility.yul\":3668:3673   */\n      dup3\n        /* \"#utility.yul\":3664:3680   */\n      add\n        /* \"#utility.yul\":3657:3680   */\n      swap1\n      pop\n        /* \"#utility.yul\":3728:3732   */\n      0x20\n        /* \"#utility.yul\":3720:3726   */\n      dup5\n        /* \"#utility.yul\":3716:3733   */\n      mul\n        /* \"#utility.yul\":3708:3714   */\n      dup4\n        /* \"#utility.yul\":3704:3734   */\n      add\n        /* \"#utility.yul\":3757:3760   */\n      dup6\n        /* \"#utility.yul\":3749:3755   */\n      dup2\n        /* \"#utility.yul\":3746:3761   */\n      gt\n        /* \"#utility.yul\":3743:3865   */\n      iszero\n      tag_244\n      jumpi\n        /* \"#utility.yul\":3776:3855   */\n      tag_245\n      tag_148\n      jump\t// in\n    tag_245:\n        /* \"#utility.yul\":3743:3865   */\n    tag_244:\n        /* \"#utility.yul\":3891:3897   */\n      dup4\n        /* \"#utility.yul\":3874:4309   */\n    tag_246:\n        /* \"#utility.yul\":3908:3914   */\n      dup2\n        /* \"#utility.yul\":3903:3906   */\n      dup2\n        /* \"#utility.yul\":3900:3915   */\n      lt\n        /* \"#utility.yul\":3874:4309   */\n      iszero\n      tag_248\n      jumpi\n        /* \"#utility.yul\":3997:4000   */\n      dup1\n        /* \"#utility.yul\":3984:4001   */\n      calldataload\n        /* \"#utility.yul\":4033:4051   */\n      0xffffffffffffffff\n        /* \"#utility.yul\":4020:4031   */\n      dup2\n        /* \"#utility.yul\":4017:4052   */\n      gt\n        /* \"#utility.yul\":4014:4136   */\n      iszero\n      tag_249\n      jumpi\n        /* \"#utility.yul\":4055:4134   */\n      tag_250\n      tag_142\n      jump\t// in\n    tag_250:\n        /* \"#utility.yul\":4014:4136   */\n    tag_249:\n        /* \"#utility.yul\":4179:4190   */\n      dup1\n        /* \"#utility.yul\":4171:4177   */\n      dup7\n        /* \"#utility.yul\":4167:4191   */\n      add\n        /* \"#utility.yul\":4217:4264   */\n      tag_251\n        /* \"#utility.yul\":4260:4263   */\n      dup10\n        /* \"#utility.yul\":4248:4258   */\n      dup3\n        /* \"#utility.yul\":4217:4264   */\n      tag_153\n      jump\t// in\n    tag_251:\n        /* \"#utility.yul\":4212:4215   */\n      dup6\n        /* \"#utility.yul\":4205:4265   */\n      mstore\n        /* \"#utility.yul\":4294:4298   */\n      0x20\n        /* \"#utility.yul\":4289:4292   */\n      dup6\n        /* \"#utility.yul\":4285:4299   */\n      add\n        /* \"#utility.yul\":4278:4299   */\n      swap5\n      pop\n        /* \"#utility.yul\":3950:4309   */\n      pop\n      pop\n        /* \"#utility.yul\":3934:3938   */\n      0x20\n        /* \"#utility.yul\":3929:3932   */\n      dup2\n        /* \"#utility.yul\":3925:3939   */\n      add\n        /* \"#utility.yul\":3918:3939   */\n      swap1\n      pop\n        /* \"#utility.yul\":3874:4309   */\n      jump(tag_246)\n    tag_248:\n        /* \"#utility.yul\":3878:3899   */\n      pop\n        /* \"#utility.yul\":3482:4315   */\n      pop\n      pop\n        /* \"#utility.yul\":3370:4315   */\n      swap4\n      swap3\n      pop\n      pop\n      pop\n      jump\t// out\n        /* \"#utility.yul\":4337:4727   */\n    tag_155:\n        /* \"#utility.yul\":4418:4423   */\n      0x00\n        /* \"#utility.yul\":4467:4470   */\n      dup3\n        /* \"#utility.yul\":4460:4464   */\n      0x1f\n        /* \"#utility.yul\":4452:4458   */\n      dup4\n        /* \"#utility.yul\":4448:4465   */\n      add\n        /* \"#utility.yul\":4444:4471   */\n      slt\n        /* \"#utility.yul\":4434:4556   */\n      tag_253\n      jumpi\n        /* \"#utility.yul\":4475:4554   */\n      tag_254\n      tag_142\n      jump\t// in\n    tag_254:\n        /* \"#utility.yul\":4434:4556   */\n    tag_253:\n        /* \"#utility.yul\":4592:4598   */\n      dup2\n        /* \"#utility.yul\":4579:4599   */\n      calldataload\n        /* \"#utility.yul\":4617:4721   */\n      tag_255\n        /* \"#utility.yul\":4717:4720   */\n      dup5\n        /* \"#utility.yul\":4709:4715   */\n      dup3\n        /* \"#utility.yul\":4702:4706   */\n      0x20\n        /* \"#utility.yul\":4694:4700   */\n      dup7\n        /* \"#utility.yul\":4690:4707   */\n      add\n        /* \"#utility.yul\":4617:4721   */\n      tag_154\n      jump\t// in\n    tag_255:\n        /* \"#utility.yul\":4608:4721   */\n      swap2\n      pop\n        /* \"#utility.yul\":4424:4727   */\n      pop\n        /* \"#utility.yul\":4337:4727   */\n      swap3\n      swap2\n      pop\n      pop\n      jump\t// out\n        /* \"#utility.yul\":4733:5437   */\n    tag_9:\n        /* \"#utility.yul\":4836:4842   */\n      0x00\n        /* \"#utility.yul\":4844:4850   */\n      dup1\n        /* \"#utility.yul\":4893:4895   */\n      0x40\n        /* \"#utility.yul\":4881:4890   */\n      dup4\n        /* \"#utility.yul\":4872:4879   */\n      dup6\n        /* \"#utility.yul\":4868:4891   */\n      sub\n        /* \"#utility.yul\":4864:4896   */\n      slt\n        /* \"#utility.yul\":4861:4980   */\n      iszero\n      tag_257\n      jumpi\n        /* \"#utility.yul\":4899:4978   */\n      tag_258\n      tag_137\n      jump\t// in\n    tag_258:\n        /* \"#utility.yul\":4861:4980   */\n    tag_257:\n        /* \"#utility.yul\":5019:5020   */\n      0x00\n        /* \"#utility.yul\":5044:5097   */\n      tag_259\n        /* \"#utility.yul\":5089:5096   */\n      dup6\n        /* \"#utility.yul\":5080:5086   */\n      dup3\n        /* \"#utility.yul\":5069:5078   */\n      dup7\n        /* \"#utility.yul\":5065:5087   */\n      add\n        /* \"#utility.yul\":5044:5097   */\n      tag_141\n      jump\t// in\n    tag_259:\n        /* \"#utility.yul\":5034:5097   */\n      swap3\n      pop\n        /* \"#utility.yul\":4990:5107   */\n      pop\n        /* \"#utility.yul\":5174:5176   */\n      0x20\n        /* \"#utility.yul\":5163:5172   */\n      dup4\n        /* \"#utility.yul\":5159:5177   */\n      add\n        /* \"#utility.yul\":5146:5178   */\n      calldataload\n        /* \"#utility.yul\":5205:5223   */\n      0xffffffffffffffff\n        /* \"#utility.yul\":5197:5203   */\n      dup2\n        /* \"#utility.yul\":5194:5224   */\n      gt\n        /* \"#utility.yul\":5191:5308   */\n      iszero\n      tag_260\n      jumpi\n        /* \"#utility.yul\":5227:5306   */\n      tag_261\n      tag_138\n      jump\t// in\n    tag_261:\n        /* \"#utility.yul\":5191:5308   */\n    tag_260:\n        /* \"#utility.yul\":5332:5420   */\n      tag_262\n        /* \"#utility.yul\":5412:5419   */\n      dup6\n        /* \"#utility.yul\":5403:5409   */\n      dup3\n        /* \"#utility.yul\":5392:5401   */\n      dup7\n        /* \"#utility.yul\":5388:5410   */\n      add\n        /* \"#utility.yul\":5332:5420   */\n      tag_155\n      jump\t// in\n    tag_262:\n        /* \"#utility.yul\":5322:5420   */\n      swap2\n      pop\n        /* \"#utility.yul\":5117:5430   */\n      pop\n        /* \"#utility.yul\":4733:5437   */\n      swap3\n      pop\n      swap3\n      swap1\n      pop\n      jump\t// out\n        /* \"#utility.yul\":5443:5772   */\n    tag_14:\n        /* \"#utility.yul\":5502:5508   */\n      0x00\n        /* \"#utility.yul\":5551:5553   */\n      0x20\n        /* \"#utility.yul\":5539:5548   */\n      dup3\n        /* \"#utility.yul\":5530:5537   */\n      dup5\n        /* \"#utility.yul\":5526:5549   */\n      sub\n        /* \"#utility.yul\":5522:5554   */\n      slt\n        /* \"#utility.yul\":5519:5638   */\n      iszero\n      tag_264\n      jumpi\n        /* \"#utility.yul\":5557:5636   */\n      tag_265\n      tag_137\n      jump\t// in\n    tag_265:\n        /* \"#utility.yul\":5519:5638   */\n    tag_264:\n        /* \"#utility.yul\":5677:5678   */\n      0x00\n        /* \"#utility.yul\":5702:5755   */\n      tag_266\n        /* \"#utility.yul\":5747:5754   */\n      dup5\n        /* \"#utility.yul\":5738:5744   */\n      dup3\n        /* \"#utility.yul\":5727:5736   */\n      dup6\n        /* \"#utility.yul\":5723:5745   */\n      add\n        /* \"#utility.yul\":5702:5755   */\n      tag_141\n      jump\t// in\n    tag_266:\n        /* \"#utility.yul\":5692:5755   */\n      swap2\n      pop\n        /* \"#utility.yul\":5648:5765   */\n      pop\n        /* \"#utility.yul\":5443:5772   */\n      swap3\n      swap2\n      pop\n      pop\n      jump\t// out\n        /* \"#utility.yul\":5778:5877   */\n    tag_156:\n        /* \"#utility.yul\":5830:5836   */\n      0x00\n        /* \"#utility.yul\":5864:5869   */\n      dup2\n        /* \"#utility.yul\":5858:5870   */\n      mload\n        /* \"#utility.yul\":5848:5870   */\n      swap1\n      pop\n        /* \"#utility.yul\":5778:5877   */\n      swap2\n      swap1\n      pop\n      jump\t// out\n        /* \"#utility.yul\":5883:6052   */\n    tag_157:\n        /* \"#utility.yul\":5967:5978   */\n      0x00\n        /* \"#utility.yul\":6001:6007   */\n      dup3\n        /* \"#utility.yul\":5996:5999   */\n      dup3\n        /* \"#utility.yul\":5989:6008   */\n      mstore\n        /* \"#utility.yul\":6041:6045   */\n      0x20\n        /* \"#utility.yul\":6036:6039   */\n      dup3\n        /* \"#utility.yul\":6032:6046   */\n      add\n        /* \"#utility.yul\":6017:6046   */\n      swap1\n      pop\n        /* \"#utility.yul\":5883:6052   */\n      swap3\n      swap2\n      pop\n      pop\n      jump\t// out\n        /* \"#utility.yul\":6058:6365   */\n    tag_158:\n        /* \"#utility.yul\":6126:6127   */\n      0x00\n        /* \"#utility.yul\":6136:6249   */\n    tag_270:\n        /* \"#utility.yul\":6150:6156   */\n      dup4\n        /* \"#utility.yul\":6147:6148   */\n      dup2\n        /* \"#utility.yul\":6144:6157   */\n      lt\n        /* \"#utility.yul\":6136:6249   */\n      iszero\n      tag_272\n      jumpi\n        /* \"#utility.yul\":6235:6236   */\n      dup1\n        /* \"#utility.yul\":6230:6233   */\n      dup3\n        /* \"#utility.yul\":6226:6237   */\n      add\n        /* \"#utility.yul\":6220:6238   */\n      mload\n        /* \"#utility.yul\":6216:6217   */\n      dup2\n        /* \"#utility.yul\":6211:6214   */\n      dup5\n        /* \"#utility.yul\":6207:6218   */\n      add\n        /* \"#utility.yul\":6200:6239   */\n      mstore\n        /* \"#utility.yul\":6172:6174   */\n      0x20\n        /* \"#utility.yul\":6169:6170   */\n      dup2\n        /* \"#utility.yul\":6165:6175   */\n      add\n        /* \"#utility.yul\":6160:6175   */\n      swap1\n      pop\n        /* \"#utility.yul\":6136:6249   */\n      jump(tag_270)\n    tag_272:\n        /* \"#utility.yul\":6267:6273   */\n      dup4\n        /* \"#utility.yul\":6264:6265   */\n      dup2\n        /* \"#utility.yul\":6261:6274   */\n      gt\n        /* \"#utility.yul\":6258:6359   */\n      iszero\n      tag_273\n      jumpi\n        /* \"#utility.yul\":6347:6348   */\n      0x00\n        /* \"#utility.yul\":6338:6344   */\n      dup5\n        /* \"#utility.yul\":6333:6336   */\n      dup5\n        /* \"#utility.yul\":6329:6345   */\n      add\n        /* \"#utility.yul\":6322:6349   */\n      mstore\n        /* \"#utility.yul\":6258:6359   */\n    tag_273:\n        /* \"#utility.yul\":6107:6365   */\n      pop\n        /* \"#utility.yul\":6058:6365   */\n      pop\n      pop\n      pop\n      jump\t// out\n        /* \"#utility.yul\":6371:6735   */\n    tag_159:\n        /* \"#utility.yul\":6459:6462   */\n      0x00\n        /* \"#utility.yul\":6487:6526   */\n      tag_275\n        /* \"#utility.yul\":6520:6525   */\n      dup3\n        /* \"#utility.yul\":6487:6526   */\n      tag_156\n      jump\t// in\n    tag_275:\n        /* \"#utility.yul\":6542:6613   */\n      tag_276\n        /* \"#utility.yul\":6606:6612   */\n      dup2\n        /* \"#utility.yul\":6601:6604   */\n      dup6\n        /* \"#utility.yul\":6542:6613   */\n      tag_157\n      jump\t// in\n    tag_276:\n        /* \"#utility.yul\":6535:6613   */\n      swap4\n      pop\n        /* \"#utility.yul\":6622:6674   */\n      tag_277\n        /* \"#utility.yul\":6667:6673   */\n      dup2\n        /* \"#utility.yul\":6662:6665   */\n      dup6\n        /* \"#utility.yul\":6655:6659   */\n      0x20\n        /* \"#utility.yul\":6648:6653   */\n      dup7\n        /* \"#utility.yul\":6644:6660   */\n      add\n        /* \"#utility.yul\":6622:6674   */\n      tag_158\n      jump\t// in\n    tag_277:\n        /* \"#utility.yul\":6699:6728   */\n      tag_278\n        /* \"#utility.yul\":6721:6727   */\n      dup2\n        /* \"#utility.yul\":6699:6728   */\n      tag_143\n      jump\t// in\n    tag_278:\n        /* \"#utility.yul\":6694:6697   */\n      dup5\n        /* \"#utility.yul\":6690:6729   */\n      add\n        /* \"#utility.yul\":6683:6729   */\n      swap2\n      pop\n        /* \"#utility.yul\":6463:6735   */\n      pop\n        /* \"#utility.yul\":6371:6735   */\n      swap3\n      swap2\n      pop\n      pop\n      jump\t// out\n        /* \"#utility.yul\":6741:6859   */\n    tag_160:\n        /* \"#utility.yul\":6828:6852   */\n      tag_280\n        /* \"#utility.yul\":6846:6851   */\n      dup2\n        /* \"#utility.yul\":6828:6852   */\n      tag_139\n      jump\t// in\n    tag_280:\n        /* \"#utility.yul\":6823:6826   */\n      dup3\n        /* \"#utility.yul\":6816:6853   */\n      mstore\n        /* \"#utility.yul\":6741:6859   */\n      pop\n      pop\n      jump\t// out\n        /* \"#utility.yul\":6865:6989   */\n    tag_161:\n        /* \"#utility.yul\":6942:6948   */\n      0x00\n        /* \"#utility.yul\":6976:6981   */\n      dup2\n        /* \"#utility.yul\":6970:6982   */\n      mload\n        /* \"#utility.yul\":6960:6982   */\n      swap1\n      pop\n        /* \"#utility.yul\":6865:6989   */\n      swap2\n      swap1\n      pop\n      jump\t// out\n        /* \"#utility.yul\":6995:7189   */\n    tag_162:\n        /* \"#utility.yul\":7104:7115   */\n      0x00\n        /* \"#utility.yul\":7138:7144   */\n      dup3\n        /* \"#utility.yul\":7133:7136   */\n      dup3\n        /* \"#utility.yul\":7126:7145   */\n      mstore\n        /* \"#utility.yul\":7178:7182   */\n      0x20\n        /* \"#utility.yul\":7173:7176   */\n      dup3\n        /* \"#utility.yul\":7169:7183   */\n      add\n        /* \"#utility.yul\":7154:7183   */\n      swap1\n      pop\n        /* \"#utility.yul\":6995:7189   */\n      swap3\n      swap2\n      pop\n      pop\n      jump\t// out\n        /* \"#utility.yul\":7195:7337   */\n    tag_163:\n        /* \"#utility.yul\":7272:7276   */\n      0x00\n        /* \"#utility.yul\":7295:7298   */\n      dup2\n        /* \"#utility.yul\":7287:7298   */\n      swap1\n      pop\n        /* \"#utility.yul\":7325:7329   */\n      0x20\n        /* \"#utility.yul\":7320:7323   */\n      dup3\n        /* \"#utility.yul\":7316:7330   */\n      add\n        /* \"#utility.yul\":7308:7330   */\n      swap1\n      pop\n        /* \"#utility.yul\":7195:7337   */\n      swap2\n      swap1\n      pop\n      jump\t// out\n        /* \"#utility.yul\":7343:7502   */\n    tag_164:\n        /* \"#utility.yul\":7417:7428   */\n      0x00\n        /* \"#utility.yul\":7451:7457   */\n      dup3\n        /* \"#utility.yul\":7446:7449   */\n      dup3\n        /* \"#utility.yul\":7439:7458   */\n      mstore\n        /* \"#utility.yul\":7491:7495   */\n      0x20\n        /* \"#utility.yul\":7486:7489   */\n      dup3\n        /* \"#utility.yul\":7482:7496   */\n      add\n        /* \"#utility.yul\":7467:7496   */\n      swap1\n      pop\n        /* \"#utility.yul\":7343:7502   */\n      swap3\n      swap2\n      pop\n      pop\n      jump\t// out\n        /* \"#utility.yul\":7508:7852   */\n    tag_165:\n        /* \"#utility.yul\":7586:7589   */\n      0x00\n        /* \"#utility.yul\":7614:7653   */\n      tag_286\n        /* \"#utility.yul\":7647:7652   */\n      dup3\n        /* \"#utility.yul\":7614:7653   */\n      tag_156\n      jump\t// in\n    tag_286:\n        /* \"#utility.yul\":7669:7730   */\n      tag_287\n        /* \"#utility.yul\":7723:7729   */\n      dup2\n        /* \"#utility.yul\":7718:7721   */\n      dup6\n        /* \"#utility.yul\":7669:7730   */\n      tag_164\n      jump\t// in\n    tag_287:\n        /* \"#utility.yul\":7662:7730   */\n      swap4\n      pop\n        /* \"#utility.yul\":7739:7791   */\n      tag_288\n        /* \"#utility.yul\":7784:7790   */\n      dup2\n        /* \"#utility.yul\":7779:7782   */\n      dup6\n        /* \"#utility.yul\":7772:7776   */\n      0x20\n        /* \"#utility.yul\":7765:7770   */\n      dup7\n        /* \"#utility.yul\":7761:7777   */\n      add\n        /* \"#utility.yul\":7739:7791   */\n      tag_158\n      jump\t// in\n    tag_288:\n        /* \"#utility.yul\":7816:7845   */\n      tag_289\n        /* \"#utility.yul\":7838:7844   */\n      dup2\n        /* \"#utility.yul\":7816:7845   */\n      tag_143\n      jump\t// in\n    tag_289:\n        /* \"#utility.yul\":7811:7814   */\n      dup5\n        /* \"#utility.yul\":7807:7846   */\n      add\n        /* \"#utility.yul\":7800:7846   */\n      swap2\n      pop\n        /* \"#utility.yul\":7590:7852   */\n      pop\n        /* \"#utility.yul\":7508:7852   */\n      swap3\n      swap2\n      pop\n      pop\n      jump\t// out\n        /* \"#utility.yul\":7858:8054   */\n    tag_166:\n        /* \"#utility.yul\":7947:7957   */\n      0x00\n        /* \"#utility.yul\":7982:8048   */\n      tag_291\n        /* \"#utility.yul\":8044:8047   */\n      dup4\n        /* \"#utility.yul\":8036:8042   */\n      dup4\n        /* \"#utility.yul\":7982:8048   */\n      tag_165\n      jump\t// in\n    tag_291:\n        /* \"#utility.yul\":7968:8048   */\n      swap1\n      pop\n        /* \"#utility.yul\":7858:8054   */\n      swap3\n      swap2\n      pop\n      pop\n      jump\t// out\n        /* \"#utility.yul\":8060:8183   */\n    tag_167:\n        /* \"#utility.yul\":8140:8144   */\n      0x00\n        /* \"#utility.yul\":8172:8176   */\n      0x20\n        /* \"#utility.yul\":8167:8170   */\n      dup3\n        /* \"#utility.yul\":8163:8177   */\n      add\n        /* \"#utility.yul\":8155:8177   */\n      swap1\n      pop\n        /* \"#utility.yul\":8060:8183   */\n      swap2\n      swap1\n      pop\n      jump\t// out\n        /* \"#utility.yul\":8217:9208   */\n    tag_168:\n        /* \"#utility.yul\":8356:8359   */\n      0x00\n        /* \"#utility.yul\":8385:8449   */\n      tag_294\n        /* \"#utility.yul\":8443:8448   */\n      dup3\n        /* \"#utility.yul\":8385:8449   */\n      tag_161\n      jump\t// in\n    tag_294:\n        /* \"#utility.yul\":8465:8561   */\n      tag_295\n        /* \"#utility.yul\":8554:8560   */\n      dup2\n        /* \"#utility.yul\":8549:8552   */\n      dup6\n        /* \"#utility.yul\":8465:8561   */\n      tag_162\n      jump\t// in\n    tag_295:\n        /* \"#utility.yul\":8458:8561   */\n      swap4\n      pop\n        /* \"#utility.yul\":8587:8590   */\n      dup4\n        /* \"#utility.yul\":8632:8636   */\n      0x20\n        /* \"#utility.yul\":8624:8630   */\n      dup3\n        /* \"#utility.yul\":8620:8637   */\n      mul\n        /* \"#utility.yul\":8615:8618   */\n      dup6\n        /* \"#utility.yul\":8611:8638   */\n      add\n        /* \"#utility.yul\":8662:8728   */\n      tag_296\n        /* \"#utility.yul\":8722:8727   */\n      dup6\n        /* \"#utility.yul\":8662:8728   */\n      tag_163\n      jump\t// in\n    tag_296:\n        /* \"#utility.yul\":8751:8758   */\n      dup1\n        /* \"#utility.yul\":8782:8783   */\n      0x00\n        /* \"#utility.yul\":8767:9163   */\n    tag_297:\n        /* \"#utility.yul\":8792:8798   */\n      dup6\n        /* \"#utility.yul\":8789:8790   */\n      dup2\n        /* \"#utility.yul\":8786:8799   */\n      lt\n        /* \"#utility.yul\":8767:9163   */\n      iszero\n      tag_299\n      jumpi\n        /* \"#utility.yul\":8863:8872   */\n      dup5\n        /* \"#utility.yul\":8857:8861   */\n      dup5\n        /* \"#utility.yul\":8853:8873   */\n      sub\n        /* \"#utility.yul\":8848:8851   */\n      dup10\n        /* \"#utility.yul\":8841:8874   */\n      mstore\n        /* \"#utility.yul\":8914:8920   */\n      dup2\n        /* \"#utility.yul\":8908:8921   */\n      mload\n        /* \"#utility.yul\":8942:9026   */\n      tag_300\n        /* \"#utility.yul\":9021:9025   */\n      dup6\n        /* \"#utility.yul\":9006:9019   */\n      dup3\n        /* \"#utility.yul\":8942:9026   */\n      tag_166\n      jump\t// in\n    tag_300:\n        /* \"#utility.yul\":8934:9026   */\n      swap5\n      pop\n        /* \"#utility.yul\":9049:9119   */\n      tag_301\n        /* \"#utility.yul\":9112:9118   */\n      dup4\n        /* \"#utility.yul\":9049:9119   */\n      tag_167\n      jump\t// in\n    tag_301:\n        /* \"#utility.yul\":9039:9119   */\n      swap3\n      pop\n        /* \"#utility.yul\":9148:9152   */\n      0x20\n        /* \"#utility.yul\":9143:9146   */\n      dup11\n        /* \"#utility.yul\":9139:9153   */\n      add\n        /* \"#utility.yul\":9132:9153   */\n      swap10\n      pop\n        /* \"#utility.yul\":8827:9163   */\n      pop\n        /* \"#utility.yul\":8814:8815   */\n      0x01\n        /* \"#utility.yul\":8811:8812   */\n      dup2\n        /* \"#utility.yul\":8807:8816   */\n      add\n        /* \"#utility.yul\":8802:8816   */\n      swap1\n      pop\n        /* \"#utility.yul\":8767:9163   */\n      jump(tag_297)\n    tag_299:\n        /* \"#utility.yul\":8771:8785   */\n      pop\n        /* \"#utility.yul\":9179:9183   */\n      dup3\n        /* \"#utility.yul\":9172:9183   */\n      swap8\n      pop\n        /* \"#utility.yul\":9199:9202   */\n      dup8\n        /* \"#utility.yul\":9192:9202   */\n      swap6\n      pop\n        /* \"#utility.yul\":8361:9208   */\n      pop\n      pop\n      pop\n      pop\n      pop\n        /* \"#utility.yul\":8217:9208   */\n      swap3\n      swap2\n      pop\n      pop\n      jump\t// out\n        /* \"#utility.yul\":9214:9938   */\n    tag_17:\n        /* \"#utility.yul\":9453:9457   */\n      0x00\n        /* \"#utility.yul\":9491:9493   */\n      0x60\n        /* \"#utility.yul\":9480:9489   */\n      dup3\n        /* \"#utility.yul\":9476:9494   */\n      add\n        /* \"#utility.yul\":9468:9494   */\n      swap1\n      pop\n        /* \"#utility.yul\":9540:9549   */\n      dup2\n        /* \"#utility.yul\":9534:9538   */\n      dup2\n        /* \"#utility.yul\":9530:9550   */\n      sub\n        /* \"#utility.yul\":9526:9527   */\n      0x00\n        /* \"#utility.yul\":9515:9524   */\n      dup4\n        /* \"#utility.yul\":9511:9528   */\n      add\n        /* \"#utility.yul\":9504:9551   */\n      mstore\n        /* \"#utility.yul\":9568:9646   */\n      tag_303\n        /* \"#utility.yul\":9641:9645   */\n      dup2\n        /* \"#utility.yul\":9632:9638   */\n      dup7\n        /* \"#utility.yul\":9568:9646   */\n      tag_159\n      jump\t// in\n    tag_303:\n        /* \"#utility.yul\":9560:9646   */\n      swap1\n      pop\n        /* \"#utility.yul\":9656:9728   */\n      tag_304\n        /* \"#utility.yul\":9724:9726   */\n      0x20\n        /* \"#utility.yul\":9713:9722   */\n      dup4\n        /* \"#utility.yul\":9709:9727   */\n      add\n        /* \"#utility.yul\":9700:9706   */\n      dup6\n        /* \"#utility.yul\":9656:9728   */\n      tag_160\n      jump\t// in\n    tag_304:\n        /* \"#utility.yul\":9775:9784   */\n      dup2\n        /* \"#utility.yul\":9769:9773   */\n      dup2\n        /* \"#utility.yul\":9765:9785   */\n      sub\n        /* \"#utility.yul\":9760:9762   */\n      0x40\n        /* \"#utility.yul\":9749:9758   */\n      dup4\n        /* \"#utility.yul\":9745:9763   */\n      add\n        /* \"#utility.yul\":9738:9786   */\n      mstore\n        /* \"#utility.yul\":9803:9931   */\n      tag_305\n        /* \"#utility.yul\":9926:9930   */\n      dup2\n        /* \"#utility.yul\":9917:9923   */\n      dup5\n        /* \"#utility.yul\":9803:9931   */\n      tag_168\n      jump\t// in\n    tag_305:\n        /* \"#utility.yul\":9795:9931   */\n      swap1\n      pop\n        /* \"#utility.yul\":9214:9938   */\n      swap5\n      swap4\n      pop\n      pop\n      pop\n      pop\n      jump\t// out\n        /* \"#utility.yul\":9944:10070   */\n    tag_169:\n        /* \"#utility.yul\":9981:9988   */\n      0x00\n        /* \"#utility.yul\":10021:10063   */\n      0xffffffffffffffffffffffffffffffffffffffff\n        /* \"#utility.yul\":10014:10019   */\n      dup3\n        /* \"#utility.yul\":10010:10064   */\n      and\n        /* \"#utility.yul\":9999:10064   */\n      swap1\n      pop\n        /* \"#utility.yul\":9944:10070   */\n      swap2\n      swap1\n      pop\n      jump\t// out\n        /* \"#utility.yul\":10076:10172   */\n    tag_170:\n        /* \"#utility.yul\":10113:10120   */\n      0x00\n        /* \"#utility.yul\":10142:10166   */\n      tag_308\n        /* \"#utility.yul\":10160:10165   */\n      dup3\n        /* \"#utility.yul\":10142:10166   */\n      tag_169\n      jump\t// in\n    tag_308:\n        /* \"#utility.yul\":10131:10166   */\n      swap1\n      pop\n        /* \"#utility.yul\":10076:10172   */\n      swap2\n      swap1\n      pop\n      jump\t// out\n        /* \"#utility.yul\":10178:10296   */\n    tag_171:\n        /* \"#utility.yul\":10265:10289   */\n      tag_310\n        /* \"#utility.yul\":10283:10288   */\n      dup2\n        /* \"#utility.yul\":10265:10289   */\n      tag_170\n      jump\t// in\n    tag_310:\n        /* \"#utility.yul\":10260:10263   */\n      dup3\n        /* \"#utility.yul\":10253:10290   */\n      mstore\n        /* \"#utility.yul\":10178:10296   */\n      pop\n      pop\n      jump\t// out\n        /* \"#utility.yul\":10302:10524   */\n    tag_22:\n        /* \"#utility.yul\":10395:10399   */\n      0x00\n        /* \"#utility.yul\":10433:10435   */\n      0x20\n        /* \"#utility.yul\":10422:10431   */\n      dup3\n        /* \"#utility.yul\":10418:10436   */\n      add\n        /* \"#utility.yul\":10410:10436   */\n      swap1\n      pop\n        /* \"#utility.yul\":10446:10517   */\n      tag_312\n        /* \"#utility.yul\":10514:10515   */\n      0x00\n        /* \"#utility.yul\":10503:10512   */\n      dup4\n        /* \"#utility.yul\":10499:10516   */\n      add\n        /* \"#utility.yul\":10490:10496   */\n      dup5\n        /* \"#utility.yul\":10446:10517   */\n      tag_171\n      jump\t// in\n    tag_312:\n        /* \"#utility.yul\":10302:10524   */\n      swap3\n      swap2\n      pop\n      pop\n      jump\t// out\n        /* \"#utility.yul\":10530:13661   */\n    tag_26:\n        /* \"#utility.yul\":10775:10781   */\n      0x00\n        /* \"#utility.yul\":10783:10789   */\n      dup1\n        /* \"#utility.yul\":10791:10797   */\n      0x00\n        /* \"#utility.yul\":10799:10805   */\n      dup1\n        /* \"#utility.yul\":10807:10813   */\n      0x00\n        /* \"#utility.yul\":10815:10821   */\n      dup1\n        /* \"#utility.yul\":10823:10829   */\n      0x00\n        /* \"#utility.yul\":10831:10837   */\n      dup1\n        /* \"#utility.yul\":10839:10845   */\n      0x00\n        /* \"#utility.yul\":10847:10853   */\n      dup1\n        /* \"#utility.yul\":10896:10899   */\n      0x0140\n        /* \"#utility.yul\":10884:10893   */\n      dup12\n        /* \"#utility.yul\":10875:10882   */\n      dup14\n        /* \"#utility.yul\":10871:10894   */\n      sub\n        /* \"#utility.yul\":10867:10900   */\n      slt\n        /* \"#utility.yul\":10864:10984   */\n      iszero\n      tag_314\n      jumpi\n        /* \"#utility.yul\":10903:10982   */\n      tag_315\n      tag_137\n      jump\t// in\n    tag_315:\n        /* \"#utility.yul\":10864:10984   */\n    tag_314:\n        /* \"#utility.yul\":11051:11052   */\n      0x00\n        /* \"#utility.yul\":11040:11049   */\n      dup12\n        /* \"#utility.yul\":11036:11053   */\n      add\n        /* \"#utility.yul\":11023:11054   */\n      calldataload\n        /* \"#utility.yul\":11081:11099   */\n      0xffffffffffffffff\n        /* \"#utility.yul\":11073:11079   */\n      dup2\n        /* \"#utility.yul\":11070:11100   */\n      gt\n        /* \"#utility.yul\":11067:11184   */\n      iszero\n      tag_316\n      jumpi\n        /* \"#utility.yul\":11103:11182   */\n      tag_317\n      tag_138\n      jump\t// in\n    tag_317:\n        /* \"#utility.yul\":11067:11184   */\n    tag_316:\n        /* \"#utility.yul\":11208:11271   */\n      tag_318\n        /* \"#utility.yul\":11263:11270   */\n      dup14\n        /* \"#utility.yul\":11254:11260   */\n      dup3\n        /* \"#utility.yul\":11243:11252   */\n      dup15\n        /* \"#utility.yul\":11239:11261   */\n      add\n        /* \"#utility.yul\":11208:11271   */\n      tag_153\n      jump\t// in\n    tag_318:\n        /* \"#utility.yul\":11198:11271   */\n      swap11\n      pop\n        /* \"#utility.yul\":10994:11281   */\n      pop\n        /* \"#utility.yul\":11348:11350   */\n      0x20\n        /* \"#utility.yul\":11337:11346   */\n      dup12\n        /* \"#utility.yul\":11333:11351   */\n      add\n        /* \"#utility.yul\":11320:11352   */\n      calldataload\n        /* \"#utility.yul\":11379:11397   */\n      0xffffffffffffffff\n        /* \"#utility.yul\":11371:11377   */\n      dup2\n        /* \"#utility.yul\":11368:11398   */\n      gt\n        /* \"#utility.yul\":11365:11482   */\n      iszero\n      tag_319\n      jumpi\n        /* \"#utility.yul\":11401:11480   */\n      tag_320\n      tag_138\n      jump\t// in\n    tag_320:\n        /* \"#utility.yul\":11365:11482   */\n    tag_319:\n        /* \"#utility.yul\":11506:11569   */\n      tag_321\n        /* \"#utility.yul\":11561:11568   */\n      dup14\n        /* \"#utility.yul\":11552:11558   */\n      dup3\n        /* \"#utility.yul\":11541:11550   */\n      dup15\n        /* \"#utility.yul\":11537:11559   */\n      add\n        /* \"#utility.yul\":11506:11569   */\n      tag_153\n      jump\t// in\n    tag_321:\n        /* \"#utility.yul\":11496:11569   */\n      swap10\n      pop\n        /* \"#utility.yul\":11291:11579   */\n      pop\n        /* \"#utility.yul\":11646:11648   */\n      0x40\n        /* \"#utility.yul\":11635:11644   */\n      dup12\n        /* \"#utility.yul\":11631:11649   */\n      add\n        /* \"#utility.yul\":11618:11650   */\n      calldataload\n        /* \"#utility.yul\":11677:11695   */\n      0xffffffffffffffff\n        /* \"#utility.yul\":11669:11675   */\n      dup2\n        /* \"#utility.yul\":11666:11696   */\n      gt\n        /* \"#utility.yul\":11663:11780   */\n      iszero\n      tag_322\n      jumpi\n        /* \"#utility.yul\":11699:11778   */\n      tag_323\n      tag_138\n      jump\t// in\n    tag_323:\n        /* \"#utility.yul\":11663:11780   */\n    tag_322:\n        /* \"#utility.yul\":11804:11867   */\n      tag_324\n        /* \"#utility.yul\":11859:11866   */\n      dup14\n        /* \"#utility.yul\":11850:11856   */\n      dup3\n        /* \"#utility.yul\":11839:11848   */\n      dup15\n        /* \"#utility.yul\":11835:11857   */\n      add\n        /* \"#utility.yul\":11804:11867   */\n      tag_153\n      jump\t// in\n    tag_324:\n        /* \"#utility.yul\":11794:11867   */\n      swap9\n      pop\n        /* \"#utility.yul\":11589:11877   */\n      pop\n        /* \"#utility.yul\":11944:11946   */\n      0x60\n        /* \"#utility.yul\":11933:11942   */\n      dup12\n        /* \"#utility.yul\":11929:11947   */\n      add\n        /* \"#utility.yul\":11916:11948   */\n      calldataload\n        /* \"#utility.yul\":11975:11993   */\n      0xffffffffffffffff\n        /* \"#utility.yul\":11967:11973   */\n      dup2\n        /* \"#utility.yul\":11964:11994   */\n      gt\n        /* \"#utility.yul\":11961:12078   */\n      iszero\n      tag_325\n      jumpi\n        /* \"#utility.yul\":11997:12076   */\n      tag_326\n      tag_138\n      jump\t// in\n    tag_326:\n        /* \"#utility.yul\":11961:12078   */\n    tag_325:\n        /* \"#utility.yul\":12102:12165   */\n      tag_327\n        /* \"#utility.yul\":12157:12164   */\n      dup14\n        /* \"#utility.yul\":12148:12154   */\n      dup3\n        /* \"#utility.yul\":12137:12146   */\n      dup15\n        /* \"#utility.yul\":12133:12155   */\n      add\n        /* \"#utility.yul\":12102:12165   */\n      tag_153\n      jump\t// in\n    tag_327:\n        /* \"#utility.yul\":12092:12165   */\n      swap8\n      pop\n        /* \"#utility.yul\":11887:12175   */\n      pop\n        /* \"#utility.yul\":12242:12245   */\n      0x80\n        /* \"#utility.yul\":12231:12240   */\n      dup12\n        /* \"#utility.yul\":12227:12246   */\n      add\n        /* \"#utility.yul\":12214:12247   */\n      calldataload\n        /* \"#utility.yul\":12274:12292   */\n      0xffffffffffffffff\n        /* \"#utility.yul\":12266:12272   */\n      dup2\n        /* \"#utility.yul\":12263:12293   */\n      gt\n        /* \"#utility.yul\":12260:12377   */\n      iszero\n      tag_328\n      jumpi\n        /* \"#utility.yul\":12296:12375   */\n      tag_329\n      tag_138\n      jump\t// in\n    tag_329:\n        /* \"#utility.yul\":12260:12377   */\n    tag_328:\n        /* \"#utility.yul\":12401:12464   */\n      tag_330\n        /* \"#utility.yul\":12456:12463   */\n      dup14\n        /* \"#utility.yul\":12447:12453   */\n      dup3\n        /* \"#utility.yul\":12436:12445   */\n      dup15\n        /* \"#utility.yul\":12432:12454   */\n      add\n        /* \"#utility.yul\":12401:12464   */\n      tag_153\n      jump\t// in\n    tag_330:\n        /* \"#utility.yul\":12391:12464   */\n      swap7\n      pop\n        /* \"#utility.yul\":12185:12474   */\n      pop\n        /* \"#utility.yul\":12541:12544   */\n      0xa0\n        /* \"#utility.yul\":12530:12539   */\n      dup12\n        /* \"#utility.yul\":12526:12545   */\n      add\n        /* \"#utility.yul\":12513:12546   */\n      calldataload\n        /* \"#utility.yul\":12573:12591   */\n      0xffffffffffffffff\n        /* \"#utility.yul\":12565:12571   */\n      dup2\n        /* \"#utility.yul\":12562:12592   */\n      gt\n        /* \"#utility.yul\":12559:12676   */\n      iszero\n      tag_331\n      jumpi\n        /* \"#utility.yul\":12595:12674   */\n      tag_332\n      tag_138\n      jump\t// in\n    tag_332:\n        /* \"#utility.yul\":12559:12676   */\n    tag_331:\n        /* \"#utility.yul\":12700:12763   */\n      tag_333\n        /* \"#utility.yul\":12755:12762   */\n      dup14\n        /* \"#utility.yul\":12746:12752   */\n      dup3\n        /* \"#utility.yul\":12735:12744   */\n      dup15\n        /* \"#utility.yul\":12731:12753   */\n      add\n        /* \"#utility.yul\":12700:12763   */\n      tag_153\n      jump\t// in\n    tag_333:\n        /* \"#utility.yul\":12690:12763   */\n      swap6\n      pop\n        /* \"#utility.yul\":12484:12773   */\n      pop\n        /* \"#utility.yul\":12840:12843   */\n      0xc0\n        /* \"#utility.yul\":12829:12838   */\n      dup12\n        /* \"#utility.yul\":12825:12844   */\n      add\n        /* \"#utility.yul\":12812:12845   */\n      calldataload\n        /* \"#utility.yul\":12872:12890   */\n      0xffffffffffffffff\n        /* \"#utility.yul\":12864:12870   */\n      dup2\n        /* \"#utility.yul\":12861:12891   */\n      gt\n        /* \"#utility.yul\":12858:12975   */\n      iszero\n      tag_334\n      jumpi\n        /* \"#utility.yul\":12894:12973   */\n      tag_335\n      tag_138\n      jump\t// in\n    tag_335:\n        /* \"#utility.yul\":12858:12975   */\n    tag_334:\n        /* \"#utility.yul\":12999:13062   */\n      tag_336\n        /* \"#utility.yul\":13054:13061   */\n      dup14\n        /* \"#utility.yul\":13045:13051   */\n      dup3\n        /* \"#utility.yul\":13034:13043   */\n      dup15\n        /* \"#utility.yul\":13030:13052   */\n      add\n        /* \"#utility.yul\":12999:13062   */\n      tag_153\n      jump\t// in\n    tag_336:\n        /* \"#utility.yul\":12989:13062   */\n      swap5\n      pop\n        /* \"#utility.yul\":12783:13072   */\n      pop\n        /* \"#utility.yul\":13111:13114   */\n      0xe0\n        /* \"#utility.yul\":13138:13191   */\n      tag_337\n        /* \"#utility.yul\":13183:13190   */\n      dup14\n        /* \"#utility.yul\":13174:13180   */\n      dup3\n        /* \"#utility.yul\":13163:13172   */\n      dup15\n        /* \"#utility.yul\":13159:13181   */\n      add\n        /* \"#utility.yul\":13138:13191   */\n      tag_141\n      jump\t// in\n    tag_337:\n        /* \"#utility.yul\":13128:13191   */\n      swap4\n      pop\n        /* \"#utility.yul\":13082:13201   */\n      pop\n        /* \"#utility.yul\":13240:13243   */\n      0x0100\n        /* \"#utility.yul\":13267:13320   */\n      tag_338\n        /* \"#utility.yul\":13312:13319   */\n      dup14\n        /* \"#utility.yul\":13303:13309   */\n      dup3\n        /* \"#utility.yul\":13292:13301   */\n      dup15\n        /* \"#utility.yul\":13288:13310   */\n      add\n        /* \"#utility.yul\":13267:13320   */\n      tag_141\n      jump\t// in\n    tag_338:\n        /* \"#utility.yul\":13257:13320   */\n      swap3\n      pop\n        /* \"#utility.yul\":13211:13330   */\n      pop\n        /* \"#utility.yul\":13397:13400   */\n      0x0120\n        /* \"#utility.yul\":13386:13395   */\n      dup12\n        /* \"#utility.yul\":13382:13401   */\n      add\n        /* \"#utility.yul\":13369:13402   */\n      calldataload\n        /* \"#utility.yul\":13429:13447   */\n      0xffffffffffffffff\n        /* \"#utility.yul\":13421:13427   */\n      dup2\n        /* \"#utility.yul\":13418:13448   */\n      gt\n        /* \"#utility.yul\":13415:13532   */\n      iszero\n      tag_339\n      jumpi\n        /* \"#utility.yul\":13451:13530   */\n      tag_340\n      tag_138\n      jump\t// in\n    tag_340:\n        /* \"#utility.yul\":13415:13532   */\n    tag_339:\n        /* \"#utility.yul\":13556:13644   */\n      tag_341\n        /* \"#utility.yul\":13636:13643   */\n      dup14\n        /* \"#utility.yul\":13627:13633   */\n      dup3\n        /* \"#utility.yul\":13616:13625   */\n      dup15\n        /* \"#utility.yul\":13612:13634   */\n      add\n        /* \"#utility.yul\":13556:13644   */\n      tag_155\n      jump\t// in\n    tag_341:\n        /* \"#utility.yul\":13546:13644   */\n      swap2\n      pop\n        /* \"#utility.yul\":13340:13654   */\n      pop\n        /* \"#utility.yul\":10530:13661   */\n      swap3\n      swap6\n      swap9\n      swap12\n      swap2\n      swap5\n      swap8\n      swap11\n      pop\n      swap3\n      swap6\n      swap9\n      pop\n      jump\t// out\n        /* \"#utility.yul\":13667:13889   */\n    tag_33:\n        /* \"#utility.yul\":13760:13764   */\n      0x00\n        /* \"#utility.yul\":13798:13800   */\n      0x20\n        /* \"#utility.yul\":13787:13796   */\n      dup3\n        /* \"#utility.yul\":13783:13801   */\n      add\n        /* \"#utility.yul\":13775:13801   */\n      swap1\n      pop\n        /* \"#utility.yul\":13811:13882   */\n      tag_343\n        /* \"#utility.yul\":13879:13880   */\n      0x00\n        /* \"#utility.yul\":13868:13877   */\n      dup4\n        /* \"#utility.yul\":13864:13881   */\n      add\n        /* \"#utility.yul\":13855:13861   */\n      dup5\n        /* \"#utility.yul\":13811:13882   */\n      tag_160\n      jump\t// in\n    tag_343:\n        /* \"#utility.yul\":13667:13889   */\n      swap3\n      swap2\n      pop\n      pop\n      jump\t// out\n        /* \"#utility.yul\":13895:14059   */\n    tag_172:\n        /* \"#utility.yul\":14035:14051   */\n      0x4e6f20737563682052656e74616c000000000000000000000000000000000000\n        /* \"#utility.yul\":14031:14032   */\n      0x00\n        /* \"#utility.yul\":14023:14029   */\n      dup3\n        /* \"#utility.yul\":14019:14033   */\n      add\n        /* \"#utility.yul\":14012:14052   */\n      mstore\n        /* \"#utility.yul\":13895:14059   */\n      pop\n      jump\t// out\n        /* \"#utility.yul\":14065:14431   */\n    tag_173:\n        /* \"#utility.yul\":14207:14210   */\n      0x00\n        /* \"#utility.yul\":14228:14295   */\n      tag_346\n        /* \"#utility.yul\":14292:14294   */\n      0x0e\n        /* \"#utility.yul\":14287:14290   */\n      dup4\n        /* \"#utility.yul\":14228:14295   */\n      tag_157\n      jump\t// in\n    tag_346:\n        /* \"#utility.yul\":14221:14295   */\n      swap2\n      pop\n        /* \"#utility.yul\":14304:14397   */\n      tag_347\n        /* \"#utility.yul\":14393:14396   */\n      dup3\n        /* \"#utility.yul\":14304:14397   */\n      tag_172\n      jump\t// in\n    tag_347:\n        /* \"#utility.yul\":14422:14424   */\n      0x20\n        /* \"#utility.yul\":14417:14420   */\n      dup3\n        /* \"#utility.yul\":14413:14425   */\n      add\n        /* \"#utility.yul\":14406:14425   */\n      swap1\n      pop\n        /* \"#utility.yul\":14065:14431   */\n      swap2\n      swap1\n      pop\n      jump\t// out\n        /* \"#utility.yul\":14437:14856   */\n    tag_37:\n        /* \"#utility.yul\":14603:14607   */\n      0x00\n        /* \"#utility.yul\":14641:14643   */\n      0x20\n        /* \"#utility.yul\":14630:14639   */\n      dup3\n        /* \"#utility.yul\":14626:14644   */\n      add\n        /* \"#utility.yul\":14618:14644   */\n      swap1\n      pop\n        /* \"#utility.yul\":14690:14699   */\n      dup2\n        /* \"#utility.yul\":14684:14688   */\n      dup2\n        /* \"#utility.yul\":14680:14700   */\n      sub\n        /* \"#utility.yul\":14676:14677   */\n      0x00\n        /* \"#utility.yul\":14665:14674   */\n      dup4\n        /* \"#utility.yul\":14661:14678   */\n      add\n        /* \"#utility.yul\":14654:14701   */\n      mstore\n        /* \"#utility.yul\":14718:14849   */\n      tag_349\n        /* \"#utility.yul\":14844:14848   */\n      dup2\n        /* \"#utility.yul\":14718:14849   */\n      tag_173\n      jump\t// in\n    tag_349:\n        /* \"#utility.yul\":14710:14849   */\n      swap1\n      pop\n        /* \"#utility.yul\":14437:14856   */\n      swap2\n      swap1\n      pop\n      jump\t// out\n        /* \"#utility.yul\":14862:15082   */\n    tag_174:\n        /* \"#utility.yul\":15002:15036   */\n      0x416c726561647920426f6f6b656420466f722052657175657374656420446174\n        /* \"#utility.yul\":14998:14999   */\n      0x00\n        /* \"#utility.yul\":14990:14996   */\n      dup3\n        /* \"#utility.yul\":14986:15000   */\n      add\n        /* \"#utility.yul\":14979:15037   */\n      mstore\n        /* \"#utility.yul\":15071:15074   */\n      0x6500000000000000000000000000000000000000000000000000000000000000\n        /* \"#utility.yul\":15066:15068   */\n      0x20\n        /* \"#utility.yul\":15058:15064   */\n      dup3\n        /* \"#utility.yul\":15054:15069   */\n      add\n        /* \"#utility.yul\":15047:15075   */\n      mstore\n        /* \"#utility.yul\":14862:15082   */\n      pop\n      jump\t// out\n        /* \"#utility.yul\":15088:15454   */\n    tag_175:\n        /* \"#utility.yul\":15230:15233   */\n      0x00\n        /* \"#utility.yul\":15251:15318   */\n      tag_352\n        /* \"#utility.yul\":15315:15317   */\n      0x21\n        /* \"#utility.yul\":15310:15313   */\n      dup4\n        /* \"#utility.yul\":15251:15318   */\n      tag_157\n      jump\t// in\n    tag_352:\n        /* \"#utility.yul\":15244:15318   */\n      swap2\n      pop\n        /* \"#utility.yul\":15327:15420   */\n      tag_353\n        /* \"#utility.yul\":15416:15419   */\n      dup3\n        /* \"#utility.yul\":15327:15420   */\n      tag_174\n      jump\t// in\n    tag_353:\n        /* \"#utility.yul\":15445:15447   */\n      0x40\n        /* \"#utility.yul\":15440:15443   */\n      dup3\n        /* \"#utility.yul\":15436:15448   */\n      add\n        /* \"#utility.yul\":15429:15448   */\n      swap1\n      pop\n        /* \"#utility.yul\":15088:15454   */\n      swap2\n      swap1\n      pop\n      jump\t// out\n        /* \"#utility.yul\":15460:15879   */\n    tag_42:\n        /* \"#utility.yul\":15626:15630   */\n      0x00\n        /* \"#utility.yul\":15664:15666   */\n      0x20\n        /* \"#utility.yul\":15653:15662   */\n      dup3\n        /* \"#utility.yul\":15649:15667   */\n      add\n        /* \"#utility.yul\":15641:15667   */\n      swap1\n      pop\n        /* \"#utility.yul\":15713:15722   */\n      dup2\n        /* \"#utility.yul\":15707:15711   */\n      dup2\n        /* \"#utility.yul\":15703:15723   */\n      sub\n        /* \"#utility.yul\":15699:15700   */\n      0x00\n        /* \"#utility.yul\":15688:15697   */\n      dup4\n        /* \"#utility.yul\":15684:15701   */\n      add\n        /* \"#utility.yul\":15677:15724   */\n      mstore\n        /* \"#utility.yul\":15741:15872   */\n      tag_355\n        /* \"#utility.yul\":15867:15871   */\n      dup2\n        /* \"#utility.yul\":15741:15872   */\n      tag_175\n      jump\t// in\n    tag_355:\n        /* \"#utility.yul\":15733:15872   */\n      swap1\n      pop\n        /* \"#utility.yul\":15460:15879   */\n      swap2\n      swap1\n      pop\n      jump\t// out\n        /* \"#utility.yul\":15885:16065   */\n    tag_176:\n        /* \"#utility.yul\":15933:16010   */\n      0x4e487b7100000000000000000000000000000000000000000000000000000000\n        /* \"#utility.yul\":15930:15931   */\n      0x00\n        /* \"#utility.yul\":15923:16011   */\n      mstore\n        /* \"#utility.yul\":16030:16034   */\n      0x11\n        /* \"#utility.yul\":16027:16028   */\n      0x04\n        /* \"#utility.yul\":16020:16035   */\n      mstore\n        /* \"#utility.yul\":16054:16058   */\n      0x24\n        /* \"#utility.yul\":16051:16052   */\n      0x00\n        /* \"#utility.yul\":16044:16059   */\n      revert\n        /* \"#utility.yul\":16071:16419   */\n    tag_44:\n        /* \"#utility.yul\":16111:16118   */\n      0x00\n        /* \"#utility.yul\":16134:16154   */\n      tag_358\n        /* \"#utility.yul\":16152:16153   */\n      dup3\n        /* \"#utility.yul\":16134:16154   */\n      tag_139\n      jump\t// in\n    tag_358:\n        /* \"#utility.yul\":16129:16154   */\n      swap2\n      pop\n        /* \"#utility.yul\":16168:16188   */\n      tag_359\n        /* \"#utility.yul\":16186:16187   */\n      dup4\n        /* \"#utility.yul\":16168:16188   */\n      tag_139\n      jump\t// in\n    tag_359:\n        /* \"#utility.yul\":16163:16188   */\n      swap3\n      pop\n        /* \"#utility.yul\":16356:16357   */\n      dup2\n        /* \"#utility.yul\":16288:16354   */\n      0xffffffffffffffffffffffffffffffffffffffffffffffffffffffffffffffff\n        /* \"#utility.yul\":16284:16358   */\n      div\n        /* \"#utility.yul\":16281:16282   */\n      dup4\n        /* \"#utility.yul\":16278:16359   */\n      gt\n        /* \"#utility.yul\":16273:16274   */\n      dup3\n        /* \"#utility.yul\":16266:16275   */\n      iszero\n        /* \"#utility.yul\":16259:16276   */\n      iszero\n        /* \"#utility.yul\":16255:16360   */\n      and\n        /* \"#utility.yul\":16252:16383   */\n      iszero\n      tag_360\n      jumpi\n        /* \"#utility.yul\":16363:16381   */\n      tag_361\n      tag_176\n      jump\t// in\n    tag_361:\n        /* \"#utility.yul\":16252:16383   */\n    tag_360:\n        /* \"#utility.yul\":16411:16412   */\n      dup3\n        /* \"#utility.yul\":16408:16409   */\n      dup3\n        /* \"#utility.yul\":16404:16413   */\n      mul\n        /* \"#utility.yul\":16393:16413   */\n      swap1\n      pop\n        /* \"#utility.yul\":16071:16419   */\n      swap3\n      swap2\n      pop\n      pop\n      jump\t// out\n        /* \"#utility.yul\":16425:16676   */\n    tag_177:\n        /* \"#utility.yul\":16565:16599   */\n      0x506c65617365207375626d6974207468652061736b696e672070726963652069\n        /* \"#utility.yul\":16561:16562   */\n      0x00\n        /* \"#utility.yul\":16553:16559   */\n      dup3\n        /* \"#utility.yul\":16549:16563   */\n      add\n        /* \"#utility.yul\":16542:16600   */\n      mstore\n        /* \"#utility.yul\":16634:16668   */\n      0x6e206f7264657220746f20636f6d706c65746520746865207075726368617365\n        /* \"#utility.yul\":16629:16631   */\n      0x20\n        /* \"#utility.yul\":16621:16627   */\n      dup3\n        /* \"#utility.yul\":16617:16632   */\n      add\n        /* \"#utility.yul\":16610:16669   */\n      mstore\n        /* \"#utility.yul\":16425:16676   */\n      pop\n      jump\t// out\n        /* \"#utility.yul\":16682:17048   */\n    tag_178:\n        /* \"#utility.yul\":16824:16827   */\n      0x00\n        /* \"#utility.yul\":16845:16912   */\n      tag_364\n        /* \"#utility.yul\":16909:16911   */\n      0x40\n        /* \"#utility.yul\":16904:16907   */\n      dup4\n        /* \"#utility.yul\":16845:16912   */\n      tag_157\n      jump\t// in\n    tag_364:\n        /* \"#utility.yul\":16838:16912   */\n      swap2\n      pop\n        /* \"#utility.yul\":16921:17014   */\n      tag_365\n        /* \"#utility.yul\":17010:17013   */\n      dup3\n        /* \"#utility.yul\":16921:17014   */\n      tag_177\n      jump\t// in\n    tag_365:\n        /* \"#utility.yul\":17039:17041   */\n      0x40\n        /* \"#utility.yul\":17034:17037   */\n      dup3\n        /* \"#utility.yul\":17030:17042   */\n      add\n        /* \"#utility.yul\":17023:17042   */\n      swap1\n      pop\n        /* \"#utility.yul\":16682:17048   */\n      swap2\n      swap1\n      pop\n      jump\t// out\n        /* \"#utility.yul\":17054:17473   */\n    tag_48:\n        /* \"#utility.yul\":17220:17224   */\n      0x00\n        /* \"#utility.yul\":17258:17260   */\n      0x20\n        /* \"#utility.yul\":17247:17256   */\n      dup3\n        /* \"#utility.yul\":17243:17261   */\n      add\n        /* \"#utility.yul\":17235:17261   */\n      swap1\n      pop\n        /* \"#utility.yul\":17307:17316   */\n      dup2\n        /* \"#utility.yul\":17301:17305   */\n      dup2\n        /* \"#utility.yul\":17297:17317   */\n      sub\n        /* \"#utility.yul\":17293:17294   */\n      0x00\n        /* \"#utility.yul\":17282:17291   */\n      dup4\n        /* \"#utility.yul\":17278:17295   */\n      add\n        /* \"#utility.yul\":17271:17318   */\n      mstore\n        /* \"#utility.yul\":17335:17466   */\n      tag_367\n        /* \"#utility.yul\":17461:17465   */\n      dup2\n        /* \"#utility.yul\":17335:17466   */\n      tag_178\n      jump\t// in\n    tag_367:\n        /* \"#utility.yul\":17327:17466   */\n      swap1\n      pop\n        /* \"#utility.yul\":17054:17473   */\n      swap2\n      swap1\n      pop\n      jump\t// out\n        /* \"#utility.yul\":17479:17659   */\n    tag_54:\n        /* \"#utility.yul\":17527:17604   */\n      0x4e487b7100000000000000000000000000000000000000000000000000000000\n        /* \"#utility.yul\":17524:17525   */\n      0x00\n        /* \"#utility.yul\":17517:17605   */\n      mstore\n        /* \"#utility.yul\":17624:17628   */\n      0x32\n        /* \"#utility.yul\":17621:17622   */\n      0x04\n        /* \"#utility.yul\":17614:17629   */\n      mstore\n        /* \"#utility.yul\":17648:17652   */\n      0x24\n        /* \"#utility.yul\":17645:17646   */\n      0x00\n        /* \"#utility.yul\":17638:17653   */\n      revert\n        /* \"#utility.yul\":17665:17845   */\n    tag_179:\n        /* \"#utility.yul\":17713:17790   */\n      0x4e487b7100000000000000000000000000000000000000000000000000000000\n        /* \"#utility.yul\":17710:17711   */\n      0x00\n        /* \"#utility.yul\":17703:17791   */\n      mstore\n        /* \"#utility.yul\":17810:17814   */\n      0x22\n        /* \"#utility.yul\":17807:17808   */\n      0x04\n        /* \"#utility.yul\":17800:17815   */\n      mstore\n        /* \"#utility.yul\":17834:17838   */\n      0x24\n        /* \"#utility.yul\":17831:17832   */\n      0x00\n        /* \"#utility.yul\":17824:17839   */\n      revert\n        /* \"#utility.yul\":17851:18171   */\n    tag_68:\n        /* \"#utility.yul\":17895:17901   */\n      0x00\n        /* \"#utility.yul\":17932:17933   */\n      0x02\n        /* \"#utility.yul\":17926:17930   */\n      dup3\n        /* \"#utility.yul\":17922:17934   */\n      div\n        /* \"#utility.yul\":17912:17934   */\n      swap1\n      pop\n        /* \"#utility.yul\":17979:17980   */\n      0x01\n        /* \"#utility.yul\":17973:17977   */\n      dup3\n        /* \"#utility.yul\":17969:17981   */\n      and\n        /* \"#utility.yul\":18000:18018   */\n      dup1\n        /* \"#utility.yul\":17990:18071   */\n      tag_371\n      jumpi\n        /* \"#utility.yul\":18056:18060   */\n      0x7f\n        /* \"#utility.yul\":18048:18054   */\n      dup3\n        /* \"#utility.yul\":18044:18061   */\n      and\n        /* \"#utility.yul\":18034:18061   */\n      swap2\n      pop\n        /* \"#utility.yul\":17990:18071   */\n    tag_371:\n        /* \"#utility.yul\":18118:18120   */\n      0x20\n        /* \"#utility.yul\":18110:18116   */\n      dup3\n        /* \"#utility.yul\":18107:18121   */\n      lt\n        /* \"#utility.yul\":18087:18105   */\n      dup2\n        /* \"#utility.yul\":18084:18122   */\n      sub\n        /* \"#utility.yul\":18081:18165   */\n      tag_372\n      jumpi\n        /* \"#utility.yul\":18137:18155   */\n      tag_373\n      tag_179\n      jump\t// in\n    tag_373:\n        /* \"#utility.yul\":18081:18165   */\n    tag_372:\n        /* \"#utility.yul\":17902:18171   */\n      pop\n        /* \"#utility.yul\":17851:18171   */\n      swap2\n      swap1\n      pop\n      jump\t// out\n        /* \"#utility.yul\":18177:18318   */\n    tag_180:\n        /* \"#utility.yul\":18226:18230   */\n      0x00\n        /* \"#utility.yul\":18249:18252   */\n      dup2\n        /* \"#utility.yul\":18241:18252   */\n      swap1\n      pop\n        /* \"#utility.yul\":18272:18275   */\n      dup2\n        /* \"#utility.yul\":18269:18270   */\n      0x00\n        /* \"#utility.yul\":18262:18276   */\n      mstore\n        /* \"#utility.yul\":18306:18310   */\n      0x20\n        /* \"#utility.yul\":18303:18304   */\n      0x00\n        /* \"#utility.yul\":18293:18311   */\n      keccak256\n        /* \"#utility.yul\":18285:18311   */\n      swap1\n      pop\n        /* \"#utility.yul\":18177:18318   */\n      swap2\n      swap1\n      pop\n      jump\t// out\n        /* \"#utility.yul\":18324:18417   */\n    tag_181:\n        /* \"#utility.yul\":18361:18367   */\n      0x00\n        /* \"#utility.yul\":18408:18410   */\n      0x20\n        /* \"#utility.yul\":18403:18405   */\n      0x1f\n        /* \"#utility.yul\":18396:18401   */\n      dup4\n        /* \"#utility.yul\":18392:18406   */\n      add\n        /* \"#utility.yul\":18388:18411   */\n      div\n        /* \"#utility.yul\":18378:18411   */\n      swap1\n      pop\n        /* \"#utility.yul\":18324:18417   */\n      swap2\n      swap1\n      pop\n      jump\t// out\n        /* \"#utility.yul\":18423:18530   */\n    tag_182:\n        /* \"#utility.yul\":18467:18475   */\n      0x00\n        /* \"#utility.yul\":18517:18522   */\n      dup3\n        /* \"#utility.yul\":18511:18515   */\n      dup3\n        /* \"#utility.yul\":18507:18523   */\n      shl\n        /* \"#utility.yul\":18486:18523   */\n      swap1\n      pop\n        /* \"#utility.yul\":18423:18530   */\n      swap3\n      swap2\n      pop\n      pop\n      jump\t// out\n        /* \"#utility.yul\":18536:18929   */\n    tag_183:\n        /* \"#utility.yul\":18605:18611   */\n      0x00\n        /* \"#utility.yul\":18655:18656   */\n      0x08\n        /* \"#utility.yul\":18643:18653   */\n      dup4\n        /* \"#utility.yul\":18639:18657   */\n      mul\n        /* \"#utility.yul\":18678:18775   */\n      tag_378\n        /* \"#utility.yul\":18708:18774   */\n      0xffffffffffffffffffffffffffffffffffffffffffffffffffffffffffffffff\n        /* \"#utility.yul\":18697:18706   */\n      dup3\n        /* \"#utility.yul\":18678:18775   */\n      tag_182\n      jump\t// in\n    tag_378:\n        /* \"#utility.yul\":18796:18835   */\n      tag_379\n        /* \"#utility.yul\":18826:18834   */\n      dup7\n        /* \"#utility.yul\":18815:18824   */\n      dup4\n        /* \"#utility.yul\":18796:18835   */\n      tag_182\n      jump\t// in\n    tag_379:\n        /* \"#utility.yul\":18784:18835   */\n      swap6\n      pop\n        /* \"#utility.yul\":18868:18872   */\n      dup1\n        /* \"#utility.yul\":18864:18873   */\n      not\n        /* \"#utility.yul\":18857:18862   */\n      dup5\n        /* \"#utility.yul\":18853:18874   */\n      and\n        /* \"#utility.yul\":18844:18874   */\n      swap4\n      pop\n        /* \"#utility.yul\":18917:18921   */\n      dup1\n        /* \"#utility.yul\":18907:18915   */\n      dup7\n        /* \"#utility.yul\":18903:18922   */\n      and\n        /* \"#utility.yul\":18896:18901   */\n      dup5\n        /* \"#utility.yul\":18893:18923   */\n      or\n        /* \"#utility.yul\":18883:18923   */\n      swap3\n      pop\n        /* \"#utility.yul\":18612:18929   */\n      pop\n      pop\n        /* \"#utility.yul\":18536:18929   */\n      swap4\n      swap3\n      pop\n      pop\n      pop\n      jump\t// out\n        /* \"#utility.yul\":18935:18995   */\n    tag_184:\n        /* \"#utility.yul\":18963:18966   */\n      0x00\n        /* \"#utility.yul\":18984:18989   */\n      dup2\n        /* \"#utility.yul\":18977:18989   */\n      swap1\n      pop\n        /* \"#utility.yul\":18935:18995   */\n      swap2\n      swap1\n      pop\n      jump\t// out\n        /* \"#utility.yul\":19001:19143   */\n    tag_185:\n        /* \"#utility.yul\":19051:19060   */\n      0x00\n        /* \"#utility.yul\":19084:19137   */\n      tag_382\n        /* \"#utility.yul\":19102:19136   */\n      tag_383\n        /* \"#utility.yul\":19111:19135   */\n      tag_384\n        /* \"#utility.yul\":19129:19134   */\n      dup5\n        /* \"#utility.yul\":19111:19135   */\n      tag_139\n      jump\t// in\n    tag_384:\n        /* \"#utility.yul\":19102:19136   */\n      tag_184\n      jump\t// in\n    tag_383:\n        /* \"#utility.yul\":19084:19137   */\n      tag_139\n      jump\t// in\n    tag_382:\n        /* \"#utility.yul\":19071:19137   */\n      swap1\n      pop\n        /* \"#utility.yul\":19001:19143   */\n      swap2\n      swap1\n      pop\n      jump\t// out\n        /* \"#utility.yul\":19149:19224   */\n    tag_186:\n        /* \"#utility.yul\":19192:19195   */\n      0x00\n        /* \"#utility.yul\":19213:19218   */\n      dup2\n        /* \"#utility.yul\":19206:19218   */\n      swap1\n      pop\n        /* \"#utility.yul\":19149:19224   */\n      swap2\n      swap1\n      pop\n      jump\t// out\n        /* \"#utility.yul\":19230:19499   */\n    tag_187:\n        /* \"#utility.yul\":19340:19379   */\n      tag_387\n        /* \"#utility.yul\":19371:19378   */\n      dup4\n        /* \"#utility.yul\":19340:19379   */\n      tag_185\n      jump\t// in\n    tag_387:\n        /* \"#utility.yul\":19401:19492   */\n      tag_388\n        /* \"#utility.yul\":19450:19491   */\n      tag_389\n        /* \"#utility.yul\":19474:19490   */\n      dup3\n        /* \"#utility.yul\":19450:19491   */\n      tag_186\n      jump\t// in\n    tag_389:\n        /* \"#utility.yul\":19442:19448   */\n      dup5\n        /* \"#utility.yul\":19435:19439   */\n      dup5\n        /* \"#utility.yul\":19429:19440   */\n      sload\n        /* \"#utility.yul\":19401:19492   */\n      tag_183\n      jump\t// in\n    tag_388:\n        /* \"#utility.yul\":19395:19399   */\n      dup3\n        /* \"#utility.yul\":19388:19493   */\n      sstore\n        /* \"#utility.yul\":19306:19499   */\n      pop\n        /* \"#utility.yul\":19230:19499   */\n      pop\n      pop\n      pop\n      jump\t// out\n        /* \"#utility.yul\":19505:19578   */\n    tag_188:\n        /* \"#utility.yul\":19550:19553   */\n      0x00\n        /* \"#utility.yul\":19505:19578   */\n      swap1\n      jump\t// out\n        /* \"#utility.yul\":19584:19773   */\n    tag_189:\n        /* \"#utility.yul\":19661:19693   */\n      tag_392\n      tag_188\n      jump\t// in\n    tag_392:\n        /* \"#utility.yul\":19702:19767   */\n      tag_393\n        /* \"#utility.yul\":19760:19766   */\n      dup2\n        /* \"#utility.yul\":19752:19758   */\n      dup5\n        /* \"#utility.yul\":19746:19750   */\n      dup5\n        /* \"#utility.yul\":19702:19767   */\n      tag_187\n      jump\t// in\n    tag_393:\n        /* \"#utility.yul\":19637:19773   */\n      pop\n        /* \"#utility.yul\":19584:19773   */\n      pop\n      pop\n      jump\t// out\n        /* \"#utility.yul\":19779:19965   */\n    tag_190:\n        /* \"#utility.yul\":19839:19959   */\n    tag_395:\n        /* \"#utility.yul\":19856:19859   */\n      dup2\n        /* \"#utility.yul\":19849:19854   */\n      dup2\n        /* \"#utility.yul\":19846:19860   */\n      lt\n        /* \"#utility.yul\":19839:19959   */\n      iszero\n      tag_397\n      jumpi\n        /* \"#utility.yul\":19910:19949   */\n      tag_398\n        /* \"#utility.yul\":19947:19948   */\n      0x00\n        /* \"#utility.yul\":19940:19945   */\n      dup3\n        /* \"#utility.yul\":19910:19949   */\n      tag_189\n      jump\t// in\n    tag_398:\n        /* \"#utility.yul\":19883:19884   */\n      0x01\n        /* \"#utility.yul\":19876:19881   */\n      dup2\n        /* \"#utility.yul\":19872:19885   */\n      add\n        /* \"#utility.yul\":19863:19885   */\n      swap1\n      pop\n        /* \"#utility.yul\":19839:19959   */\n      jump(tag_395)\n    tag_397:\n        /* \"#utility.yul\":19779:19965   */\n      pop\n      pop\n      jump\t// out\n        /* \"#utility.yul\":19971:20514   */\n    tag_191:\n        /* \"#utility.yul\":20072:20074   */\n      0x1f\n        /* \"#utility.yul\":20067:20070   */\n      dup3\n        /* \"#utility.yul\":20064:20075   */\n      gt\n        /* \"#utility.yul\":20061:20507   */\n      iszero\n      tag_400\n      jumpi\n        /* \"#utility.yul\":20106:20144   */\n      tag_401\n        /* \"#utility.yul\":20138:20143   */\n      dup2\n        /* \"#utility.yul\":20106:20144   */\n      tag_180\n      jump\t// in\n    tag_401:\n        /* \"#utility.yul\":20190:20219   */\n      tag_402\n        /* \"#utility.yul\":20208:20218   */\n      dup5\n        /* \"#utility.yul\":20190:20219   */\n      tag_181\n      jump\t// in\n    tag_402:\n        /* \"#utility.yul\":20180:20188   */\n      dup2\n        /* \"#utility.yul\":20176:20220   */\n      add\n        /* \"#utility.yul\":20373:20375   */\n      0x20\n        /* \"#utility.yul\":20361:20371   */\n      dup6\n        /* \"#utility.yul\":20358:20376   */\n      lt\n        /* \"#utility.yul\":20355:20404   */\n      iszero\n      tag_403\n      jumpi\n        /* \"#utility.yul\":20394:20402   */\n      dup2\n        /* \"#utility.yul\":20379:20402   */\n      swap1\n      pop\n        /* \"#utility.yul\":20355:20404   */\n    tag_403:\n        /* \"#utility.yul\":20417:20497   */\n      tag_404\n        /* \"#utility.yul\":20473:20495   */\n      tag_405\n        /* \"#utility.yul\":20491:20494   */\n      dup6\n        /* \"#utility.yul\":20473:20495   */\n      tag_181\n      jump\t// in\n    tag_405:\n        /* \"#utility.yul\":20463:20471   */\n      dup4\n        /* \"#utility.yul\":20459:20496   */\n      add\n        /* \"#utility.yul\":20446:20457   */\n      dup3\n        /* \"#utility.yul\":20417:20497   */\n      tag_190\n      jump\t// in\n    tag_404:\n        /* \"#utility.yul\":20076:20507   */\n      pop\n      pop\n        /* \"#utility.yul\":20061:20507   */\n    tag_400:\n        /* \"#utility.yul\":19971:20514   */\n      pop\n      pop\n      pop\n      jump\t// out\n        /* \"#utility.yul\":20520:20637   */\n    tag_192:\n        /* \"#utility.yul\":20574:20582   */\n      0x00\n        /* \"#utility.yul\":20624:20629   */\n      dup3\n        /* \"#utility.yul\":20618:20622   */\n      dup3\n        /* \"#utility.yul\":20614:20630   */\n      shr\n        /* \"#utility.yul\":20593:20630   */\n      swap1\n      pop\n        /* \"#utility.yul\":20520:20637   */\n      swap3\n      swap2\n      pop\n      pop\n      jump\t// out\n        /* \"#utility.yul\":20643:20812   */\n    tag_193:\n        /* \"#utility.yul\":20687:20693   */\n      0x00\n        /* \"#utility.yul\":20720:20771   */\n      tag_408\n        /* \"#utility.yul\":20768:20769   */\n      0x00\n        /* \"#utility.yul\":20764:20770   */\n      not\n        /* \"#utility.yul\":20756:20761   */\n      dup5\n        /* \"#utility.yul\":20753:20754   */\n      0x08\n        /* \"#utility.yul\":20749:20762   */\n      mul\n        /* \"#utility.yul\":20720:20771   */\n      tag_192\n      jump\t// in\n    tag_408:\n        /* \"#utility.yul\":20716:20772   */\n      not\n        /* \"#utility.yul\":20801:20805   */\n      dup1\n        /* \"#utility.yul\":20795:20799   */\n      dup4\n        /* \"#utility.yul\":20791:20806   */\n      and\n        /* \"#utility.yul\":20781:20806   */\n      swap2\n      pop\n        /* \"#utility.yul\":20694:20812   */\n      pop\n        /* \"#utility.yul\":20643:20812   */\n      swap3\n      swap2\n      pop\n      pop\n      jump\t// out\n        /* \"#utility.yul\":20817:21112   */\n    tag_194:\n        /* \"#utility.yul\":20893:20897   */\n      0x00\n        /* \"#utility.yul\":21039:21068   */\n      tag_410\n        /* \"#utility.yul\":21064:21067   */\n      dup4\n        /* \"#utility.yul\":21058:21062   */\n      dup4\n        /* \"#utility.yul\":21039:21068   */\n      tag_193\n      jump\t// in\n    tag_410:\n        /* \"#utility.yul\":21031:21068   */\n      swap2\n      pop\n        /* \"#utility.yul\":21101:21104   */\n      dup3\n        /* \"#utility.yul\":21098:21099   */\n      0x02\n        /* \"#utility.yul\":21094:21105   */\n      mul\n        /* \"#utility.yul\":21088:21092   */\n      dup3\n        /* \"#utility.yul\":21085:21106   */\n      or\n        /* \"#utility.yul\":21077:21106   */\n      swap1\n      pop\n        /* \"#utility.yul\":20817:21112   */\n      swap3\n      swap2\n      pop\n      pop\n      jump\t// out\n        /* \"#utility.yul\":21117:22512   */\n    tag_57:\n        /* \"#utility.yul\":21234:21271   */\n      tag_412\n        /* \"#utility.yul\":21267:21270   */\n      dup3\n        /* \"#utility.yul\":21234:21271   */\n      tag_156\n      jump\t// in\n    tag_412:\n        /* \"#utility.yul\":21336:21354   */\n      0xffffffffffffffff\n        /* \"#utility.yul\":21328:21334   */\n      dup2\n        /* \"#utility.yul\":21325:21355   */\n      gt\n        /* \"#utility.yul\":21322:21378   */\n      iszero\n      tag_413\n      jumpi\n        /* \"#utility.yul\":21358:21376   */\n      tag_414\n      tag_144\n      jump\t// in\n    tag_414:\n        /* \"#utility.yul\":21322:21378   */\n    tag_413:\n        /* \"#utility.yul\":21402:21440   */\n      tag_415\n        /* \"#utility.yul\":21434:21438   */\n      dup3\n        /* \"#utility.yul\":21428:21439   */\n      sload\n        /* \"#utility.yul\":21402:21440   */\n      tag_68\n      jump\t// in\n    tag_415:\n        /* \"#utility.yul\":21487:21554   */\n      tag_416\n        /* \"#utility.yul\":21547:21553   */\n      dup3\n        /* \"#utility.yul\":21539:21545   */\n      dup3\n        /* \"#utility.yul\":21533:21537   */\n      dup6\n        /* \"#utility.yul\":21487:21554   */\n      tag_191\n      jump\t// in\n    tag_416:\n        /* \"#utility.yul\":21581:21582   */\n      0x00\n        /* \"#utility.yul\":21605:21609   */\n      0x20\n        /* \"#utility.yul\":21592:21609   */\n      swap1\n      pop\n        /* \"#utility.yul\":21637:21639   */\n      0x1f\n        /* \"#utility.yul\":21629:21635   */\n      dup4\n        /* \"#utility.yul\":21626:21640   */\n      gt\n        /* \"#utility.yul\":21654:21655   */\n      0x01\n        /* \"#utility.yul\":21649:22267   */\n      dup2\n      eq\n      tag_418\n      jumpi\n        /* \"#utility.yul\":22311:22312   */\n      0x00\n        /* \"#utility.yul\":22328:22334   */\n      dup5\n        /* \"#utility.yul\":22325:22402   */\n      iszero\n      tag_419\n      jumpi\n        /* \"#utility.yul\":22377:22386   */\n      dup3\n        /* \"#utility.yul\":22372:22375   */\n      dup8\n        /* \"#utility.yul\":22368:22387   */\n      add\n        /* \"#utility.yul\":22362:22388   */\n      mload\n        /* \"#utility.yul\":22353:22388   */\n      swap1\n      pop\n        /* \"#utility.yul\":22325:22402   */\n    tag_419:\n        /* \"#utility.yul\":22428:22495   */\n      tag_420\n        /* \"#utility.yul\":22488:22494   */\n      dup6\n        /* \"#utility.yul\":22481:22486   */\n      dup3\n        /* \"#utility.yul\":22428:22495   */\n      tag_194\n      jump\t// in\n    tag_420:\n        /* \"#utility.yul\":22422:22426   */\n      dup7\n        /* \"#utility.yul\":22415:22496   */\n      sstore\n        /* \"#utility.yul\":22284:22506   */\n      pop\n        /* \"#utility.yul\":21619:22506   */\n      jump(tag_417)\n        /* \"#utility.yul\":21649:22267   */\n    tag_418:\n        /* \"#utility.yul\":21701:21705   */\n      0x1f\n        /* \"#utility.yul\":21697:21706   */\n      not\n        /* \"#utility.yul\":21689:21695   */\n      dup5\n        /* \"#utility.yul\":21685:21707   */\n      and\n        /* \"#utility.yul\":21735:21772   */\n      tag_421\n        /* \"#utility.yul\":21767:21771   */\n      dup7\n        /* \"#utility.yul\":21735:21772   */\n      tag_180\n      jump\t// in\n    tag_421:\n        /* \"#utility.yul\":21794:21795   */\n      0x00\n        /* \"#utility.yul\":21808:22016   */\n    tag_422:\n        /* \"#utility.yul\":21822:21829   */\n      dup3\n        /* \"#utility.yul\":21819:21820   */\n      dup2\n        /* \"#utility.yul\":21816:21830   */\n      lt\n        /* \"#utility.yul\":21808:22016   */\n      iszero\n      tag_424\n      jumpi\n        /* \"#utility.yul\":21901:21910   */\n      dup5\n        /* \"#utility.yul\":21896:21899   */\n      dup10\n        /* \"#utility.yul\":21892:21911   */\n      add\n        /* \"#utility.yul\":21886:21912   */\n      mload\n        /* \"#utility.yul\":21878:21884   */\n      dup3\n        /* \"#utility.yul\":21871:21913   */\n      sstore\n        /* \"#utility.yul\":21952:21953   */\n      0x01\n        /* \"#utility.yul\":21944:21950   */\n      dup3\n        /* \"#utility.yul\":21940:21954   */\n      add\n        /* \"#utility.yul\":21930:21954   */\n      swap2\n      pop\n        /* \"#utility.yul\":21999:22001   */\n      0x20\n        /* \"#utility.yul\":21988:21997   */\n      dup6\n        /* \"#utility.yul\":21984:22002   */\n      add\n        /* \"#utility.yul\":21971:22002   */\n      swap5\n      pop\n        /* \"#utility.yul\":21845:21849   */\n      0x20\n        /* \"#utility.yul\":21842:21843   */\n      dup2\n        /* \"#utility.yul\":21838:21850   */\n      add\n        /* \"#utility.yul\":21833:21850   */\n      swap1\n      pop\n        /* \"#utility.yul\":21808:22016   */\n      jump(tag_422)\n    tag_424:\n        /* \"#utility.yul\":22044:22050   */\n      dup7\n        /* \"#utility.yul\":22035:22042   */\n      dup4\n        /* \"#utility.yul\":22032:22051   */\n      lt\n        /* \"#utility.yul\":22029:22208   */\n      iszero\n      tag_425\n      jumpi\n        /* \"#utility.yul\":22102:22111   */\n      dup5\n        /* \"#utility.yul\":22097:22100   */\n      dup10\n        /* \"#utility.yul\":22093:22112   */\n      add\n        /* \"#utility.yul\":22087:22113   */\n      mload\n        /* \"#utility.yul\":22145:22193   */\n      tag_426\n        /* \"#utility.yul\":22187:22191   */\n      0x1f\n        /* \"#utility.yul\":22179:22185   */\n      dup10\n        /* \"#utility.yul\":22175:22192   */\n      and\n        /* \"#utility.yul\":22164:22173   */\n      dup3\n        /* \"#utility.yul\":22145:22193   */\n      tag_193\n      jump\t// in\n    tag_426:\n        /* \"#utility.yul\":22137:22143   */\n      dup4\n        /* \"#utility.yul\":22130:22194   */\n      sstore\n        /* \"#utility.yul\":22052:22208   */\n      pop\n        /* \"#utility.yul\":22029:22208   */\n    tag_425:\n        /* \"#utility.yul\":22254:22255   */\n      0x01\n        /* \"#utility.yul\":22250:22251   */\n      0x02\n        /* \"#utility.yul\":22242:22248   */\n      dup9\n        /* \"#utility.yul\":22238:22252   */\n      mul\n        /* \"#utility.yul\":22234:22256   */\n      add\n        /* \"#utility.yul\":22228:22232   */\n      dup9\n        /* \"#utility.yul\":22221:22257   */\n      sstore\n        /* \"#utility.yul\":21656:22267   */\n      pop\n      pop\n      pop\n        /* \"#utility.yul\":21619:22506   */\n    tag_417:\n      pop\n        /* \"#utility.yul\":21209:22512   */\n      pop\n      pop\n      pop\n        /* \"#utility.yul\":21117:22512   */\n      pop\n      pop\n      jump\t// out\n        /* \"#utility.yul\":22518:22751   */\n    tag_59:\n        /* \"#utility.yul\":22557:22560   */\n      0x00\n        /* \"#utility.yul\":22580:22604   */\n      tag_428\n        /* \"#utility.yul\":22598:22603   */\n      dup3\n        /* \"#utility.yul\":22580:22604   */\n      tag_139\n      jump\t// in\n    tag_428:\n        /* \"#utility.yul\":22571:22604   */\n      swap2\n      pop\n        /* \"#utility.yul\":22626:22692   */\n      0xffffffffffffffffffffffffffffffffffffffffffffffffffffffffffffffff\n        /* \"#utility.yul\":22619:22624   */\n      dup3\n        /* \"#utility.yul\":22616:22693   */\n      sub\n        /* \"#utility.yul\":22613:22716   */\n      tag_429\n      jumpi\n        /* \"#utility.yul\":22696:22714   */\n      tag_430\n      tag_176\n      jump\t// in\n    tag_430:\n        /* \"#utility.yul\":22613:22716   */\n    tag_429:\n        /* \"#utility.yul\":22743:22744   */\n      0x01\n        /* \"#utility.yul\":22736:22741   */\n      dup3\n        /* \"#utility.yul\":22732:22745   */\n      add\n        /* \"#utility.yul\":22725:22745   */\n      swap1\n      pop\n        /* \"#utility.yul\":22518:22751   */\n      swap2\n      swap1\n      pop\n      jump\t// out\n        /* \"#utility.yul\":22781:23612   */\n    tag_195:\n        /* \"#utility.yul\":22866:22869   */\n      0x00\n        /* \"#utility.yul\":22903:22908   */\n      dup2\n        /* \"#utility.yul\":22897:22909   */\n      sload\n        /* \"#utility.yul\":22932:22968   */\n      tag_432\n        /* \"#utility.yul\":22958:22967   */\n      dup2\n        /* \"#utility.yul\":22932:22968   */\n      tag_68\n      jump\t// in\n    tag_432:\n        /* \"#utility.yul\":22984:23055   */\n      tag_433\n        /* \"#utility.yul\":23048:23054   */\n      dup2\n        /* \"#utility.yul\":23043:23046   */\n      dup7\n        /* \"#utility.yul\":22984:23055   */\n      tag_157\n      jump\t// in\n    tag_433:\n        /* \"#utility.yul\":22977:23055   */\n      swap5\n      pop\n        /* \"#utility.yul\":23086:23087   */\n      0x01\n        /* \"#utility.yul\":23075:23084   */\n      dup3\n        /* \"#utility.yul\":23071:23088   */\n      and\n        /* \"#utility.yul\":23102:23103   */\n      0x00\n        /* \"#utility.yul\":23097:23261   */\n      dup2\n      eq\n      tag_435\n      jumpi\n        /* \"#utility.yul\":23275:23276   */\n      0x01\n        /* \"#utility.yul\":23270:23606   */\n      dup2\n      eq\n      tag_436\n      jumpi\n        /* \"#utility.yul\":23064:23606   */\n      jump(tag_434)\n        /* \"#utility.yul\":23097:23261   */\n    tag_435:\n        /* \"#utility.yul\":23181:23185   */\n      0xff\n        /* \"#utility.yul\":23177:23186   */\n      not\n        /* \"#utility.yul\":23166:23175   */\n      dup4\n        /* \"#utility.yul\":23162:23187   */\n      and\n        /* \"#utility.yul\":23157:23160   */\n      dup7\n        /* \"#utility.yul\":23150:23188   */\n      mstore\n        /* \"#utility.yul\":23241:23247   */\n      dup2\n        /* \"#utility.yul\":23234:23248   */\n      iszero\n        /* \"#utility.yul\":23227:23249   */\n      iszero\n        /* \"#utility.yul\":23221:23225   */\n      0x20\n        /* \"#utility.yul\":23217:23250   */\n      mul\n        /* \"#utility.yul\":23212:23215   */\n      dup7\n        /* \"#utility.yul\":23208:23251   */\n      add\n        /* \"#utility.yul\":23201:23251   */\n      swap4\n      pop\n        /* \"#utility.yul\":23097:23261   */\n      jump(tag_434)\n        /* \"#utility.yul\":23270:23606   */\n    tag_436:\n        /* \"#utility.yul\":23337:23375   */\n      tag_437\n        /* \"#utility.yul\":23369:23374   */\n      dup6\n        /* \"#utility.yul\":23337:23375   */\n      tag_180\n      jump\t// in\n    tag_437:\n        /* \"#utility.yul\":23397:23398   */\n      0x00\n        /* \"#utility.yul\":23411:23565   */\n    tag_438:\n        /* \"#utility.yul\":23425:23431   */\n      dup4\n        /* \"#utility.yul\":23422:23423   */\n      dup2\n        /* \"#utility.yul\":23419:23432   */\n      lt\n        /* \"#utility.yul\":23411:23565   */\n      iszero\n      tag_440\n      jumpi\n        /* \"#utility.yul\":23499:23506   */\n      dup2\n        /* \"#utility.yul\":23493:23507   */\n      sload\n        /* \"#utility.yul\":23489:23490   */\n      dup2\n        /* \"#utility.yul\":23484:23487   */\n      dup10\n        /* \"#utility.yul\":23480:23491   */\n      add\n        /* \"#utility.yul\":23473:23508   */\n      mstore\n        /* \"#utility.yul\":23549:23550   */\n      0x01\n        /* \"#utility.yul\":23540:23547   */\n      dup3\n        /* \"#utility.yul\":23536:23551   */\n      add\n        /* \"#utility.yul\":23525:23551   */\n      swap2\n      pop\n        /* \"#utility.yul\":23447:23451   */\n      0x20\n        /* \"#utility.yul\":23444:23445   */\n      dup2\n        /* \"#utility.yul\":23440:23452   */\n      add\n        /* \"#utility.yul\":23435:23452   */\n      swap1\n      pop\n        /* \"#utility.yul\":23411:23565   */\n      jump(tag_438)\n    tag_440:\n        /* \"#utility.yul\":23594:23595   */\n      dup1\n        /* \"#utility.yul\":23589:23592   */\n      dup9\n        /* \"#utility.yul\":23585:23596   */\n      add\n        /* \"#utility.yul\":23578:23596   */\n      swap6\n      pop\n        /* \"#utility.yul\":23277:23606   */\n      pop\n      pop\n        /* \"#utility.yul\":23064:23606   */\n    tag_434:\n      pop\n        /* \"#utility.yul\":22870:23612   */\n      pop\n      pop\n        /* \"#utility.yul\":22781:23612   */\n      swap3\n      swap2\n      pop\n      pop\n      jump\t// out\n        /* \"#utility.yul\":23618:24643   */\n    tag_63:\n        /* \"#utility.yul\":23927:23931   */\n      0x00\n        /* \"#utility.yul\":23965:23968   */\n      0xa0\n        /* \"#utility.yul\":23954:23963   */\n      dup3\n        /* \"#utility.yul\":23950:23969   */\n      add\n        /* \"#utility.yul\":23942:23969   */\n      swap1\n      pop\n        /* \"#utility.yul\":24015:24024   */\n      dup2\n        /* \"#utility.yul\":24009:24013   */\n      dup2\n        /* \"#utility.yul\":24005:24025   */\n      sub\n        /* \"#utility.yul\":24001:24002   */\n      0x00\n        /* \"#utility.yul\":23990:23999   */\n      dup4\n        /* \"#utility.yul\":23986:24003   */\n      add\n        /* \"#utility.yul\":23979:24026   */\n      mstore\n        /* \"#utility.yul\":24043:24171   */\n      tag_442\n        /* \"#utility.yul\":24166:24170   */\n      dup2\n        /* \"#utility.yul\":24157:24163   */\n      dup9\n        /* \"#utility.yul\":24043:24171   */\n      tag_168\n      jump\t// in\n    tag_442:\n        /* \"#utility.yul\":24035:24171   */\n      swap1\n      pop\n        /* \"#utility.yul\":24181:24253   */\n      tag_443\n        /* \"#utility.yul\":24249:24251   */\n      0x20\n        /* \"#utility.yul\":24238:24247   */\n      dup4\n        /* \"#utility.yul\":24234:24252   */\n      add\n        /* \"#utility.yul\":24225:24231   */\n      dup8\n        /* \"#utility.yul\":24181:24253   */\n      tag_160\n      jump\t// in\n    tag_443:\n        /* \"#utility.yul\":24263:24335   */\n      tag_444\n        /* \"#utility.yul\":24331:24333   */\n      0x40\n        /* \"#utility.yul\":24320:24329   */\n      dup4\n        /* \"#utility.yul\":24316:24334   */\n      add\n        /* \"#utility.yul\":24307:24313   */\n      dup7\n        /* \"#utility.yul\":24263:24335   */\n      tag_171\n      jump\t// in\n    tag_444:\n        /* \"#utility.yul\":24382:24391   */\n      dup2\n        /* \"#utility.yul\":24376:24380   */\n      dup2\n        /* \"#utility.yul\":24372:24392   */\n      sub\n        /* \"#utility.yul\":24367:24369   */\n      0x60\n        /* \"#utility.yul\":24356:24365   */\n      dup4\n        /* \"#utility.yul\":24352:24370   */\n      add\n        /* \"#utility.yul\":24345:24393   */\n      mstore\n        /* \"#utility.yul\":24410:24485   */\n      tag_445\n        /* \"#utility.yul\":24480:24484   */\n      dup2\n        /* \"#utility.yul\":24471:24477   */\n      dup6\n        /* \"#utility.yul\":24410:24485   */\n      tag_195\n      jump\t// in\n    tag_445:\n        /* \"#utility.yul\":24402:24485   */\n      swap1\n      pop\n        /* \"#utility.yul\":24533:24542   */\n      dup2\n        /* \"#utility.yul\":24527:24531   */\n      dup2\n        /* \"#utility.yul\":24523:24543   */\n      sub\n        /* \"#utility.yul\":24517:24520   */\n      0x80\n        /* \"#utility.yul\":24506:24515   */\n      dup4\n        /* \"#utility.yul\":24502:24521   */\n      add\n        /* \"#utility.yul\":24495:24544   */\n      mstore\n        /* \"#utility.yul\":24561:24636   */\n      tag_446\n        /* \"#utility.yul\":24631:24635   */\n      dup2\n        /* \"#utility.yul\":24622:24628   */\n      dup5\n        /* \"#utility.yul\":24561:24636   */\n      tag_195\n      jump\t// in\n    tag_446:\n        /* \"#utility.yul\":24553:24636   */\n      swap1\n      pop\n        /* \"#utility.yul\":23618:24643   */\n      swap7\n      swap6\n      pop\n      pop\n      pop\n      pop\n      pop\n      pop\n      jump\t// out\n        /* \"#utility.yul\":24649:24883   */\n    tag_196:\n        /* \"#utility.yul\":24789:24823   */\n      0x4f6e6c79206f776e6572206f6620736d61727420636f6e74726163742063616e\n        /* \"#utility.yul\":24785:24786   */\n      0x00\n        /* \"#utility.yul\":24777:24783   */\n      dup3\n        /* \"#utility.yul\":24773:24787   */\n      add\n        /* \"#utility.yul\":24766:24824   */\n      mstore\n        /* \"#utility.yul\":24858:24875   */\n      0x207075742075702072656e74616c730000000000000000000000000000000000\n        /* \"#utility.yul\":24853:24855   */\n      0x20\n        /* \"#utility.yul\":24845:24851   */\n      dup3\n        /* \"#utility.yul\":24841:24856   */\n      add\n        /* \"#utility.yul\":24834:24876   */\n      mstore\n        /* \"#utility.yul\":24649:24883   */\n      pop\n      jump\t// out\n        /* \"#utility.yul\":24889:25255   */\n    tag_197:\n        /* \"#utility.yul\":25031:25034   */\n      0x00\n        /* \"#utility.yul\":25052:25119   */\n      tag_449\n        /* \"#utility.yul\":25116:25118   */\n      0x2f\n        /* \"#utility.yul\":25111:25114   */\n      dup4\n        /* \"#utility.yul\":25052:25119   */\n      tag_157\n      jump\t// in\n    tag_449:\n        /* \"#utility.yul\":25045:25119   */\n      swap2\n      pop\n        /* \"#utility.yul\":25128:25221   */\n      tag_450\n        /* \"#utility.yul\":25217:25220   */\n      dup3\n        /* \"#utility.yul\":25128:25221   */\n      tag_196\n      jump\t// in\n    tag_450:\n        /* \"#utility.yul\":25246:25248   */\n      0x40\n        /* \"#utility.yul\":25241:25244   */\n      dup3\n        /* \"#utility.yul\":25237:25249   */\n      add\n        /* \"#utility.yul\":25230:25249   */\n      swap1\n      pop\n        /* \"#utility.yul\":24889:25255   */\n      swap2\n      swap1\n      pop\n      jump\t// out\n        /* \"#utility.yul\":25261:25680   */\n    tag_84:\n        /* \"#utility.yul\":25427:25431   */\n      0x00\n        /* \"#utility.yul\":25465:25467   */\n      0x20\n        /* \"#utility.yul\":25454:25463   */\n      dup3\n        /* \"#utility.yul\":25450:25468   */\n      add\n        /* \"#utility.yul\":25442:25468   */\n      swap1\n      pop\n        /* \"#utility.yul\":25514:25523   */\n      dup2\n        /* \"#utility.yul\":25508:25512   */\n      dup2\n        /* \"#utility.yul\":25504:25524   */\n      sub\n        /* \"#utility.yul\":25500:25501   */\n      0x00\n        /* \"#utility.yul\":25489:25498   */\n      dup4\n        /* \"#utility.yul\":25485:25502   */\n      add\n        /* \"#utility.yul\":25478:25525   */\n      mstore\n        /* \"#utility.yul\":25542:25673   */\n      tag_452\n        /* \"#utility.yul\":25668:25672   */\n      dup2\n        /* \"#utility.yul\":25542:25673   */\n      tag_197\n      jump\t// in\n    tag_452:\n        /* \"#utility.yul\":25534:25673   */\n      swap1\n      pop\n        /* \"#utility.yul\":25261:25680   */\n      swap2\n      swap1\n      pop\n      jump\t// out\n        /* \"#utility.yul\":25686:27959   */\n    tag_96:\n        /* \"#utility.yul\":26299:26303   */\n      0x00\n        /* \"#utility.yul\":26337:26340   */\n      0x0180\n        /* \"#utility.yul\":26326:26335   */\n      dup3\n        /* \"#utility.yul\":26322:26341   */\n      add\n        /* \"#utility.yul\":26314:26341   */\n      swap1\n      pop\n        /* \"#utility.yul\":26387:26396   */\n      dup2\n        /* \"#utility.yul\":26381:26385   */\n      dup2\n        /* \"#utility.yul\":26377:26397   */\n      sub\n        /* \"#utility.yul\":26373:26374   */\n      0x00\n        /* \"#utility.yul\":26362:26371   */\n      dup4\n        /* \"#utility.yul\":26358:26375   */\n      add\n        /* \"#utility.yul\":26351:26398   */\n      mstore\n        /* \"#utility.yul\":26415:26493   */\n      tag_454\n        /* \"#utility.yul\":26488:26492   */\n      dup2\n        /* \"#utility.yul\":26479:26485   */\n      dup16\n        /* \"#utility.yul\":26415:26493   */\n      tag_159\n      jump\t// in\n    tag_454:\n        /* \"#utility.yul\":26407:26493   */\n      swap1\n      pop\n        /* \"#utility.yul\":26540:26549   */\n      dup2\n        /* \"#utility.yul\":26534:26538   */\n      dup2\n        /* \"#utility.yul\":26530:26550   */\n      sub\n        /* \"#utility.yul\":26525:26527   */\n      0x20\n        /* \"#utility.yul\":26514:26523   */\n      dup4\n        /* \"#utility.yul\":26510:26528   */\n      add\n        /* \"#utility.yul\":26503:26551   */\n      mstore\n        /* \"#utility.yul\":26568:26646   */\n      tag_455\n        /* \"#utility.yul\":26641:26645   */\n      dup2\n        /* \"#utility.yul\":26632:26638   */\n      dup15\n        /* \"#utility.yul\":26568:26646   */\n      tag_159\n      jump\t// in\n    tag_455:\n        /* \"#utility.yul\":26560:26646   */\n      swap1\n      pop\n        /* \"#utility.yul\":26693:26702   */\n      dup2\n        /* \"#utility.yul\":26687:26691   */\n      dup2\n        /* \"#utility.yul\":26683:26703   */\n      sub\n        /* \"#utility.yul\":26678:26680   */\n      0x40\n        /* \"#utility.yul\":26667:26676   */\n      dup4\n        /* \"#utility.yul\":26663:26681   */\n      add\n        /* \"#utility.yul\":26656:26704   */\n      mstore\n        /* \"#utility.yul\":26721:26799   */\n      tag_456\n        /* \"#utility.yul\":26794:26798   */\n      dup2\n        /* \"#utility.yul\":26785:26791   */\n      dup14\n        /* \"#utility.yul\":26721:26799   */\n      tag_159\n      jump\t// in\n    tag_456:\n        /* \"#utility.yul\":26713:26799   */\n      swap1\n      pop\n        /* \"#utility.yul\":26846:26855   */\n      dup2\n        /* \"#utility.yul\":26840:26844   */\n      dup2\n        /* \"#utility.yul\":26836:26856   */\n      sub\n        /* \"#utility.yul\":26831:26833   */\n      0x60\n        /* \"#utility.yul\":26820:26829   */\n      dup4\n        /* \"#utility.yul\":26816:26834   */\n      add\n        /* \"#utility.yul\":26809:26857   */\n      mstore\n        /* \"#utility.yul\":26874:26952   */\n      tag_457\n        /* \"#utility.yul\":26947:26951   */\n      dup2\n        /* \"#utility.yul\":26938:26944   */\n      dup13\n        /* \"#utility.yul\":26874:26952   */\n      tag_159\n      jump\t// in\n    tag_457:\n        /* \"#utility.yul\":26866:26952   */\n      swap1\n      pop\n        /* \"#utility.yul\":27000:27009   */\n      dup2\n        /* \"#utility.yul\":26994:26998   */\n      dup2\n        /* \"#utility.yul\":26990:27010   */\n      sub\n        /* \"#utility.yul\":26984:26987   */\n      0x80\n        /* \"#utility.yul\":26973:26982   */\n      dup4\n        /* \"#utility.yul\":26969:26988   */\n      add\n        /* \"#utility.yul\":26962:27011   */\n      mstore\n        /* \"#utility.yul\":27028:27106   */\n      tag_458\n        /* \"#utility.yul\":27101:27105   */\n      dup2\n        /* \"#utility.yul\":27092:27098   */\n      dup12\n        /* \"#utility.yul\":27028:27106   */\n      tag_159\n      jump\t// in\n    tag_458:\n        /* \"#utility.yul\":27020:27106   */\n      swap1\n      pop\n        /* \"#utility.yul\":27154:27163   */\n      dup2\n        /* \"#utility.yul\":27148:27152   */\n      dup2\n        /* \"#utility.yul\":27144:27164   */\n      sub\n        /* \"#utility.yul\":27138:27141   */\n      0xa0\n        /* \"#utility.yul\":27127:27136   */\n      dup4\n        /* \"#utility.yul\":27123:27142   */\n      add\n        /* \"#utility.yul\":27116:27165   */\n      mstore\n        /* \"#utility.yul\":27182:27260   */\n      tag_459\n        /* \"#utility.yul\":27255:27259   */\n      dup2\n        /* \"#utility.yul\":27246:27252   */\n      dup11\n        /* \"#utility.yul\":27182:27260   */\n      tag_159\n      jump\t// in\n    tag_459:\n        /* \"#utility.yul\":27174:27260   */\n      swap1\n      pop\n        /* \"#utility.yul\":27308:27317   */\n      dup2\n        /* \"#utility.yul\":27302:27306   */\n      dup2\n        /* \"#utility.yul\":27298:27318   */\n      sub\n        /* \"#utility.yul\":27292:27295   */\n      0xc0\n        /* \"#utility.yul\":27281:27290   */\n      dup4\n        /* \"#utility.yul\":27277:27296   */\n      add\n        /* \"#utility.yul\":27270:27319   */\n      mstore\n        /* \"#utility.yul\":27336:27414   */\n      tag_460\n        /* \"#utility.yul\":27409:27413   */\n      dup2\n        /* \"#utility.yul\":27400:27406   */\n      dup10\n        /* \"#utility.yul\":27336:27414   */\n      tag_159\n      jump\t// in\n    tag_460:\n        /* \"#utility.yul\":27328:27414   */\n      swap1\n      pop\n        /* \"#utility.yul\":27424:27497   */\n      tag_461\n        /* \"#utility.yul\":27492:27495   */\n      0xe0\n        /* \"#utility.yul\":27481:27490   */\n      dup4\n        /* \"#utility.yul\":27477:27496   */\n      add\n        /* \"#utility.yul\":27468:27474   */\n      dup9\n        /* \"#utility.yul\":27424:27497   */\n      tag_160\n      jump\t// in\n    tag_461:\n        /* \"#utility.yul\":27507:27580   */\n      tag_462\n        /* \"#utility.yul\":27575:27578   */\n      0x0100\n        /* \"#utility.yul\":27564:27573   */\n      dup4\n        /* \"#utility.yul\":27560:27579   */\n      add\n        /* \"#utility.yul\":27551:27557   */\n      dup8\n        /* \"#utility.yul\":27507:27580   */\n      tag_160\n      jump\t// in\n    tag_462:\n        /* \"#utility.yul\":27628:27637   */\n      dup2\n        /* \"#utility.yul\":27622:27626   */\n      dup2\n        /* \"#utility.yul\":27618:27638   */\n      sub\n        /* \"#utility.yul\":27612:27615   */\n      0x0120\n        /* \"#utility.yul\":27601:27610   */\n      dup4\n        /* \"#utility.yul\":27597:27616   */\n      add\n        /* \"#utility.yul\":27590:27639   */\n      mstore\n        /* \"#utility.yul\":27656:27784   */\n      tag_463\n        /* \"#utility.yul\":27779:27783   */\n      dup2\n        /* \"#utility.yul\":27770:27776   */\n      dup7\n        /* \"#utility.yul\":27656:27784   */\n      tag_168\n      jump\t// in\n    tag_463:\n        /* \"#utility.yul\":27648:27784   */\n      swap1\n      pop\n        /* \"#utility.yul\":27794:27868   */\n      tag_464\n        /* \"#utility.yul\":27863:27866   */\n      0x0140\n        /* \"#utility.yul\":27852:27861   */\n      dup4\n        /* \"#utility.yul\":27848:27867   */\n      add\n        /* \"#utility.yul\":27838:27845   */\n      dup6\n        /* \"#utility.yul\":27794:27868   */\n      tag_160\n      jump\t// in\n    tag_464:\n        /* \"#utility.yul\":27878:27952   */\n      tag_465\n        /* \"#utility.yul\":27947:27950   */\n      0x0160\n        /* \"#utility.yul\":27936:27945   */\n      dup4\n        /* \"#utility.yul\":27932:27951   */\n      add\n        /* \"#utility.yul\":27922:27929   */\n      dup5\n        /* \"#utility.yul\":27878:27952   */\n      tag_171\n      jump\t// in\n    tag_465:\n        /* \"#utility.yul\":25686:27959   */\n      swap14\n      swap13\n      pop\n      pop\n      pop\n      pop\n      pop\n      pop\n      pop\n      pop\n      pop\n      pop\n      pop\n      pop\n      pop\n      jump\t// out\n        /* \"#utility.yul\":27965:28113   */\n    tag_198:\n        /* \"#utility.yul\":28067:28078   */\n      0x00\n        /* \"#utility.yul\":28104:28107   */\n      dup2\n        /* \"#utility.yul\":28089:28107   */\n      swap1\n      pop\n        /* \"#utility.yul\":27965:28113   */\n      swap3\n      swap2\n      pop\n      pop\n      jump\t// out\n        /* \"#utility.yul\":28119:28496   */\n    tag_199:\n        /* \"#utility.yul\":28225:28228   */\n      0x00\n        /* \"#utility.yul\":28253:28292   */\n      tag_468\n        /* \"#utility.yul\":28286:28291   */\n      dup3\n        /* \"#utility.yul\":28253:28292   */\n      tag_156\n      jump\t// in\n    tag_468:\n        /* \"#utility.yul\":28308:28397   */\n      tag_469\n        /* \"#utility.yul\":28390:28396   */\n      dup2\n        /* \"#utility.yul\":28385:28388   */\n      dup6\n        /* \"#utility.yul\":28308:28397   */\n      tag_198\n      jump\t// in\n    tag_469:\n        /* \"#utility.yul\":28301:28397   */\n      swap4\n      pop\n        /* \"#utility.yul\":28406:28458   */\n      tag_470\n        /* \"#utility.yul\":28451:28457   */\n      dup2\n        /* \"#utility.yul\":28446:28449   */\n      dup6\n        /* \"#utility.yul\":28439:28443   */\n      0x20\n        /* \"#utility.yul\":28432:28437   */\n      dup7\n        /* \"#utility.yul\":28428:28444   */\n      add\n        /* \"#utility.yul\":28406:28458   */\n      tag_158\n      jump\t// in\n    tag_470:\n        /* \"#utility.yul\":28483:28489   */\n      dup1\n        /* \"#utility.yul\":28478:28481   */\n      dup5\n        /* \"#utility.yul\":28474:28490   */\n      add\n        /* \"#utility.yul\":28467:28490   */\n      swap2\n      pop\n        /* \"#utility.yul\":28229:28496   */\n      pop\n        /* \"#utility.yul\":28119:28496   */\n      swap3\n      swap2\n      pop\n      pop\n      jump\t// out\n        /* \"#utility.yul\":28502:28777   */\n    tag_110:\n        /* \"#utility.yul\":28634:28637   */\n      0x00\n        /* \"#utility.yul\":28656:28751   */\n      tag_472\n        /* \"#utility.yul\":28747:28750   */\n      dup3\n        /* \"#utility.yul\":28738:28744   */\n      dup5\n        /* \"#utility.yul\":28656:28751   */\n      tag_199\n      jump\t// in\n    tag_472:\n        /* \"#utility.yul\":28649:28751   */\n      swap2\n      pop\n        /* \"#utility.yul\":28768:28771   */\n      dup2\n        /* \"#utility.yul\":28761:28771   */\n      swap1\n      pop\n        /* \"#utility.yul\":28502:28777   */\n      swap3\n      swap2\n      pop\n      pop\n      jump\t// out\n        /* \"#utility.yul\":28807:29681   */\n    tag_200:\n        /* \"#utility.yul\":28910:28913   */\n      0x00\n        /* \"#utility.yul\":28947:28952   */\n      dup2\n        /* \"#utility.yul\":28941:28953   */\n      sload\n        /* \"#utility.yul\":28976:29012   */\n      tag_474\n        /* \"#utility.yul\":29002:29011   */\n      dup2\n        /* \"#utility.yul\":28976:29012   */\n      tag_68\n      jump\t// in\n    tag_474:\n        /* \"#utility.yul\":29028:29117   */\n      tag_475\n        /* \"#utility.yul\":29110:29116   */\n      dup2\n        /* \"#utility.yul\":29105:29108   */\n      dup7\n        /* \"#utility.yul\":29028:29117   */\n      tag_198\n      jump\t// in\n    tag_475:\n        /* \"#utility.yul\":29021:29117   */\n      swap5\n      pop\n        /* \"#utility.yul\":29148:29149   */\n      0x01\n        /* \"#utility.yul\":29137:29146   */\n      dup3\n        /* \"#utility.yul\":29133:29150   */\n      and\n        /* \"#utility.yul\":29164:29165   */\n      0x00\n        /* \"#utility.yul\":29159:29325   */\n      dup2\n      eq\n      tag_477\n      jumpi\n        /* \"#utility.yul\":29339:29340   */\n      0x01\n        /* \"#utility.yul\":29334:29675   */\n      dup2\n      eq\n      tag_478\n      jumpi\n        /* \"#utility.yul\":29126:29675   */\n      jump(tag_476)\n        /* \"#utility.yul\":29159:29325   */\n    tag_477:\n        /* \"#utility.yul\":29243:29247   */\n      0xff\n        /* \"#utility.yul\":29239:29248   */\n      not\n        /* \"#utility.yul\":29228:29237   */\n      dup4\n        /* \"#utility.yul\":29224:29249   */\n      and\n        /* \"#utility.yul\":29219:29222   */\n      dup7\n        /* \"#utility.yul\":29212:29250   */\n      mstore\n        /* \"#utility.yul\":29305:29311   */\n      dup2\n        /* \"#utility.yul\":29298:29312   */\n      iszero\n        /* \"#utility.yul\":29291:29313   */\n      iszero\n        /* \"#utility.yul\":29283:29289   */\n      dup3\n        /* \"#utility.yul\":29279:29314   */\n      mul\n        /* \"#utility.yul\":29274:29277   */\n      dup7\n        /* \"#utility.yul\":29270:29315   */\n      add\n        /* \"#utility.yul\":29263:29315   */\n      swap4\n      pop\n        /* \"#utility.yul\":29159:29325   */\n      jump(tag_476)\n        /* \"#utility.yul\":29334:29675   */\n    tag_478:\n        /* \"#utility.yul\":29401:29439   */\n      tag_479\n        /* \"#utility.yul\":29433:29438   */\n      dup6\n        /* \"#utility.yul\":29401:29439   */\n      tag_180\n      jump\t// in\n    tag_479:\n        /* \"#utility.yul\":29461:29462   */\n      0x00\n        /* \"#utility.yul\":29475:29629   */\n    tag_480:\n        /* \"#utility.yul\":29489:29495   */\n      dup4\n        /* \"#utility.yul\":29486:29487   */\n      dup2\n        /* \"#utility.yul\":29483:29496   */\n      lt\n        /* \"#utility.yul\":29475:29629   */\n      iszero\n      tag_482\n      jumpi\n        /* \"#utility.yul\":29563:29570   */\n      dup2\n        /* \"#utility.yul\":29557:29571   */\n      sload\n        /* \"#utility.yul\":29553:29554   */\n      dup2\n        /* \"#utility.yul\":29548:29551   */\n      dup10\n        /* \"#utility.yul\":29544:29555   */\n      add\n        /* \"#utility.yul\":29537:29572   */\n      mstore\n        /* \"#utility.yul\":29613:29614   */\n      0x01\n        /* \"#utility.yul\":29604:29611   */\n      dup3\n        /* \"#utility.yul\":29600:29615   */\n      add\n        /* \"#utility.yul\":29589:29615   */\n      swap2\n      pop\n        /* \"#utility.yul\":29511:29515   */\n      0x20\n        /* \"#utility.yul\":29508:29509   */\n      dup2\n        /* \"#utility.yul\":29504:29516   */\n      add\n        /* \"#utility.yul\":29499:29516   */\n      swap1\n      pop\n        /* \"#utility.yul\":29475:29629   */\n      jump(tag_480)\n    tag_482:\n        /* \"#utility.yul\":29658:29664   */\n      dup4\n        /* \"#utility.yul\":29653:29656   */\n      dup9\n        /* \"#utility.yul\":29649:29665   */\n      add\n        /* \"#utility.yul\":29642:29665   */\n      swap6\n      pop\n        /* \"#utility.yul\":29341:29675   */\n      pop\n      pop\n        /* \"#utility.yul\":29126:29675   */\n    tag_476:\n      pop\n        /* \"#utility.yul\":28914:29681   */\n      pop\n      pop\n        /* \"#utility.yul\":28807:29681   */\n      swap3\n      swap2\n      pop\n      pop\n      jump\t// out\n        /* \"#utility.yul\":29687:29956   */\n    tag_115:\n        /* \"#utility.yul\":29816:29819   */\n      0x00\n        /* \"#utility.yul\":29838:29930   */\n      tag_484\n        /* \"#utility.yul\":29926:29929   */\n      dup3\n        /* \"#utility.yul\":29917:29923   */\n      dup5\n        /* \"#utility.yul\":29838:29930   */\n      tag_200\n      jump\t// in\n    tag_484:\n        /* \"#utility.yul\":29831:29930   */\n      swap2\n      pop\n        /* \"#utility.yul\":29947:29950   */\n      dup2\n        /* \"#utility.yul\":29940:29950   */\n      swap1\n      pop\n        /* \"#utility.yul\":29687:29956   */\n      swap3\n      swap2\n      pop\n      pop\n      jump\t// out\n\n    auxdata: 0xa2646970667358221220925a84ca9cf172714feb4ed8e6f03727f80178f548b25e51b7cd6b4729cffc5364736f6c634300080f0033\n}\n",
				"bytecode": {
					"linkReferences": {},
					"object": "608060405234801561001057600080fd5b506000600181905550336000806101000a81548173ffffffffffffffffffffffffffffffffffffffff021916908373ffffffffffffffffffffffffffffffffffffffff160217905550611a3f806100686000396000f3fe60806040526004361061004a5760003560e01c80632a23bb721461004f578063652bd29e1461006b5780638da5cb5b146100aa578063deb38e79146100d5578063ebfa74c9146100fe575b600080fd5b61006960048036038101906100649190610c97565b61013b565b005b34801561007757600080fd5b50610092600480360381019061008d9190610cf3565b610396565b6040516100a193929190610ec3565b60405180910390f35b3480156100b657600080fd5b506100bf610571565b6040516100cc9190610f49565b60405180910390f35b3480156100e157600080fd5b506100fc60048036038101906100f79190610f64565b610595565b005b34801561010a57600080fd5b5061012560048036038101906101209190610cf3565b610812565b6040516101329190611123565b60405180910390f35b600154821061017f576040517f08c379a00000000000000000000000000000000000000000000000000000000081526004016101769061118a565b60405180910390fd5b6101898282610836565b6101c8576040517f08c379a00000000000000000000000000000000000000000000000000000000081526004016101bf9061121c565b60405180910390fd5b8051670de0b6b3a764000060026000858152602001908152602001600020600801546101f4919061126b565b6101fe919061126b565b341461023f576040517f08c379a000000000000000000000000000000000000000000000000000000000815260040161023690611337565b60405180910390fd5b60005b81518110156102c1576002600084815260200190815260200160002060090182828151811061027457610273611357565b5b60200260200101519080600181540180825580915050600190039060005260206000200160009091909190915090816102ad9190611592565b5080806102b990611664565b915050610242565b5060008054906101000a900473ffffffffffffffffffffffffffffffffffffffff1673ffffffffffffffffffffffffffffffffffffffff166108fc349081150290604051600060405180830381858888f19350505050158015610328573d6000803e3d6000fd5b507fdfcc683ac35013d595a2db07bcb6601a1bbc6c91dad13117fd60299c875c61b4818333600260008781526020019081526020016000206001016002600088815260200190815260200160002060060160405161038a959493929190611730565b60405180910390a15050565b60606000606060015484106103e0576040517f08c379a00000000000000000000000000000000000000000000000000000000081526004016103d79061118a565b60405180910390fd5b600060026000868152602001908152602001600020905080600001816008015482600901828054610410906113b5565b80601f016020809104026020016040519081016040528092919081815260200182805461043c906113b5565b80156104895780601f1061045e57610100808354040283529160200191610489565b820191906000526020600020905b81548152906001019060200180831161046c57829003601f168201915b5050505050925080805480602002602001604051908101604052809291908181526020016000905b8282101561055d5783829060005260206000200180546104d0906113b5565b80601f01602080910402602001604051908101604052809291908181526020018280546104fc906113b5565b80156105495780601f1061051e57610100808354040283529160200191610549565b820191906000526020600020905b81548152906001019060200180831161052c57829003601f168201915b5050505050815260200190600101906104b1565b505050509050935093509350509193909250565b60008054906101000a900473ffffffffffffffffffffffffffffffffffffffff1681565b60008054906101000a900473ffffffffffffffffffffffffffffffffffffffff1673ffffffffffffffffffffffffffffffffffffffff163373ffffffffffffffffffffffffffffffffffffffff1614610623576040517f08c379a000000000000000000000000000000000000000000000000000000000815260040161061a9061180a565b60405180910390fd5b600060026000600154815260200190815260200160002090508a81600001908161064d9190611592565b508981600101908161065f9190611592565b50888160020190816106719190611592565b50878160030190816106839190611592565b50868160040190816106959190611592565b50858160050190816106a79190611592565b50848160060190816106b99190611592565b50838160070181905550828160080181905550818160090190805190602001906106e4929190610947565b5060015481600a018190555060008054906101000a900473ffffffffffffffffffffffffffffffffffffffff1681600b0160006101000a81548173ffffffffffffffffffffffffffffffffffffffff021916908373ffffffffffffffffffffffffffffffffffffffff160217905550600360015490806001815401808255809150506001900390600052602060002001600090919091909150557fc06f078c3c74d235829af3e011ff5aae487c78ef8d3acca688417ed86ff145918b8b8b8b8b8b8b8b8b8b60015460008054906101000a900473ffffffffffffffffffffffffffffffffffffffff166040516107e59c9b9a9998979695949392919061182a565b60405180910390a16001600081548092919061080090611664565b91905055505050505050505050505050565b6003818154811061082257600080fd5b906000526020600020016000915090505481565b600080600090505b825181101561093b5760005b60026000868152602001908152602001600020600901805490508110156109275783828151811061087e5761087d611357565b5b60200260200101516040516020016108969190611958565b604051602081830303815290604052805190602001206002600087815260200190815260200160002060090182815481106108d4576108d3611357565b5b906000526020600020016040516020016108ee91906119f2565b604051602081830303815290604052805190602001200361091457600092505050610941565b808061091f90611664565b91505061084a565b50808061093390611664565b91505061083e565b50600190505b92915050565b82805482825590600052602060002090810192821561098f579160200282015b8281111561098e57825182908161097e9190611592565b5091602001919060010190610967565b5b50905061099c91906109a0565b5090565b5b808211156109c057600081816109b791906109c4565b506001016109a1565b5090565b5080546109d0906113b5565b6000825580601f106109e25750610a01565b601f016020900490600052602060002090810190610a009190610a04565b5b50565b5b80821115610a1d576000816000905550600101610a05565b5090565b6000604051905090565b600080fd5b600080fd5b6000819050919050565b610a4881610a35565b8114610a5357600080fd5b50565b600081359050610a6581610a3f565b92915050565b600080fd5b6000601f19601f8301169050919050565b7f4e487b7100000000000000000000000000000000000000000000000000000000600052604160045260246000fd5b610ab982610a70565b810181811067ffffffffffffffff82111715610ad857610ad7610a81565b5b80604052505050565b6000610aeb610a21565b9050610af78282610ab0565b919050565b600067ffffffffffffffff821115610b1757610b16610a81565b5b602082029050602081019050919050565b600080fd5b600080fd5b600067ffffffffffffffff821115610b4d57610b4c610a81565b5b610b5682610a70565b9050602081019050919050565b82818337600083830152505050565b6000610b85610b8084610b32565b610ae1565b905082815260208101848484011115610ba157610ba0610b2d565b5b610bac848285610b63565b509392505050565b600082601f830112610bc957610bc8610a6b565b5b8135610bd9848260208601610b72565b91505092915050565b6000610bf5610bf084610afc565b610ae1565b90508083825260208201905060208402830185811115610c1857610c17610b28565b5b835b81811015610c5f57803567ffffffffffffffff811115610c3d57610c3c610a6b565b5b808601610c4a8982610bb4565b85526020850194505050602081019050610c1a565b5050509392505050565b600082601f830112610c7e57610c7d610a6b565b5b8135610c8e848260208601610be2565b91505092915050565b60008060408385031215610cae57610cad610a2b565b5b6000610cbc85828601610a56565b925050602083013567ffffffffffffffff811115610cdd57610cdc610a30565b5b610ce985828601610c69565b9150509250929050565b600060208284031215610d0957610d08610a2b565b5b6000610d1784828501610a56565b91505092915050565b600081519050919050565b600082825260208201905092915050565b60005b83811015610d5a578082015181840152602081019050610d3f565b83811115610d69576000848401525b50505050565b6000610d7a82610d20565b610d848185610d2b565b9350610d94818560208601610d3c565b610d9d81610a70565b840191505092915050565b610db181610a35565b82525050565b600081519050919050565b600082825260208201905092915050565b6000819050602082019050919050565b600082825260208201905092915050565b6000610dff82610d20565b610e098185610de3565b9350610e19818560208601610d3c565b610e2281610a70565b840191505092915050565b6000610e398383610df4565b905092915050565b6000602082019050919050565b6000610e5982610db7565b610e638185610dc2565b935083602082028501610e7585610dd3565b8060005b85811015610eb15784840389528151610e928582610e2d565b9450610e9d83610e41565b925060208a01995050600181019050610e79565b50829750879550505050505092915050565b60006060820190508181036000830152610edd8186610d6f565b9050610eec6020830185610da8565b8181036040830152610efe8184610e4e565b9050949350505050565b600073ffffffffffffffffffffffffffffffffffffffff82169050919050565b6000610f3382610f08565b9050919050565b610f4381610f28565b82525050565b6000602082019050610f5e6000830184610f3a565b92915050565b6000806000806000806000806000806101408b8d031215610f8857610f87610a2b565b5b60008b013567ffffffffffffffff811115610fa657610fa5610a30565b5b610fb28d828e01610bb4565b9a505060208b013567ffffffffffffffff811115610fd357610fd2610a30565b5b610fdf8d828e01610bb4565b99505060408b013567ffffffffffffffff81111561100057610fff610a30565b5b61100c8d828e01610bb4565b98505060608b013567ffffffffffffffff81111561102d5761102c610a30565b5b6110398d828e01610bb4565b97505060808b013567ffffffffffffffff81111561105a57611059610a30565b5b6110668d828e01610bb4565b96505060a08b013567ffffffffffffffff81111561108757611086610a30565b5b6110938d828e01610bb4565b95505060c08b013567ffffffffffffffff8111156110b4576110b3610a30565b5b6110c08d828e01610bb4565b94505060e06110d18d828e01610a56565b9350506101006110e38d828e01610a56565b9250506101208b013567ffffffffffffffff81111561110557611104610a30565b5b6111118d828e01610c69565b9150509295989b9194979a5092959850565b60006020820190506111386000830184610da8565b92915050565b7f4e6f20737563682052656e74616c000000000000000000000000000000000000600082015250565b6000611174600e83610d2b565b915061117f8261113e565b602082019050919050565b600060208201905081810360008301526111a381611167565b9050919050565b7f416c726561647920426f6f6b656420466f72205265717565737465642044617460008201527f6500000000000000000000000000000000000000000000000000000000000000602082015250565b6000611206602183610d2b565b9150611211826111aa565b604082019050919050565b60006020820190508181036000830152611235816111f9565b9050919050565b7f4e487b7100000000000000000000000000000000000000000000000000000000600052601160045260246000fd5b600061127682610a35565b915061128183610a35565b9250817fffffffffffffffffffffffffffffffffffffffffffffffffffffffffffffffff04831182151516156112ba576112b961123c565b5b828202905092915050565b7f506c65617365207375626d6974207468652061736b696e67207072696365206960008201527f6e206f7264657220746f20636f6d706c65746520746865207075726368617365602082015250565b6000611321604083610d2b565b915061132c826112c5565b604082019050919050565b6000602082019050818103600083015261135081611314565b9050919050565b7f4e487b7100000000000000000000000000000000000000000000000000000000600052603260045260246000fd5b7f4e487b7100000000000000000000000000000000000000000000000000000000600052602260045260246000fd5b600060028204905060018216806113cd57607f821691505b6020821081036113e0576113df611386565b5b50919050565b60008190508160005260206000209050919050565b60006020601f8301049050919050565b600082821b905092915050565b6000600883026114487fffffffffffffffffffffffffffffffffffffffffffffffffffffffffffffffff8261140b565b611452868361140b565b95508019841693508086168417925050509392505050565b6000819050919050565b600061148f61148a61148584610a35565b61146a565b610a35565b9050919050565b6000819050919050565b6114a983611474565b6114bd6114b582611496565b848454611418565b825550505050565b600090565b6114d26114c5565b6114dd8184846114a0565b505050565b5b81811015611501576114f66000826114ca565b6001810190506114e3565b5050565b601f82111561154657611517816113e6565b611520846113fb565b8101602085101561152f578190505b61154361153b856113fb565b8301826114e2565b50505b505050565b600082821c905092915050565b60006115696000198460080261154b565b1980831691505092915050565b60006115828383611558565b9150826002028217905092915050565b61159b82610d20565b67ffffffffffffffff8111156115b4576115b3610a81565b5b6115be82546113b5565b6115c9828285611505565b600060209050601f8311600181146115fc57600084156115ea578287015190505b6115f48582611576565b86555061165c565b601f19841661160a866113e6565b60005b828110156116325784890151825560018201915060208501945060208101905061160d565b8683101561164f578489015161164b601f891682611558565b8355505b6001600288020188555050505b505050505050565b600061166f82610a35565b91507fffffffffffffffffffffffffffffffffffffffffffffffffffffffffffffffff82036116a1576116a061123c565b5b600182019050919050565b600081546116b9816113b5565b6116c38186610d2b565b945060018216600081146116de57600181146116f457611727565b60ff198316865281151560200286019350611727565b6116fd856113e6565b60005b8381101561171f57815481890152600182019150602081019050611700565b808801955050505b50505092915050565b600060a082019050818103600083015261174a8188610e4e565b90506117596020830187610da8565b6117666040830186610f3a565b818103606083015261177881856116ac565b9050818103608083015261178c81846116ac565b90509695505050505050565b7f4f6e6c79206f776e6572206f6620736d61727420636f6e74726163742063616e60008201527f207075742075702072656e74616c730000000000000000000000000000000000602082015250565b60006117f4602f83610d2b565b91506117ff82611798565b604082019050919050565b60006020820190508181036000830152611823816117e7565b9050919050565b6000610180820190508181036000830152611845818f610d6f565b90508181036020830152611859818e610d6f565b9050818103604083015261186d818d610d6f565b90508181036060830152611881818c610d6f565b90508181036080830152611895818b610d6f565b905081810360a08301526118a9818a610d6f565b905081810360c08301526118bd8189610d6f565b90506118cc60e0830188610da8565b6118da610100830187610da8565b8181036101208301526118ed8186610e4e565b90506118fd610140830185610da8565b61190b610160830184610f3a565b9d9c50505050505050505050505050565b600081905092915050565b600061193282610d20565b61193c818561191c565b935061194c818560208601610d3c565b80840191505092915050565b60006119648284611927565b915081905092915050565b6000815461197c816113b5565b611986818661191c565b945060018216600081146119a157600181146119b6576119e9565b60ff19831686528115158202860193506119e9565b6119bf856113e6565b60005b838110156119e1578154818901526001820191506020810190506119c2565b838801955050505b50505092915050565b60006119fe828461196f565b91508190509291505056fea2646970667358221220925a84ca9cf172714feb4ed8e6f03727f80178f548b25e51b7cd6b4729cffc5364736f6c634300080f0033",
					"opcodes": "PUSH1 0x80 PUSH1 0x40 MSTORE CALLVALUE DUP1 ISZERO PUSH2 0x10 JUMPI PUSH1 0x0 DUP1 REVERT JUMPDEST POP PUSH1 0x0 PUSH1 0x1 DUP2 SWAP1 SSTORE POP CALLER PUSH1 0x0 DUP1 PUSH2 0x100 EXP DUP2 SLOAD DUP2 PUSH20 0xFFFFFFFFFFFFFFFFFFFFFFFFFFFFFFFFFFFFFFFF MUL NOT AND SWAP1 DUP4 PUSH20 0xFFFFFFFFFFFFFFFFFFFFFFFFFFFFFFFFFFFFFFFF AND MUL OR SWAP1 SSTORE POP PUSH2 0x1A3F DUP1 PUSH2 0x68 PUSH1 0x0 CODECOPY PUSH1 0x0 RETURN INVALID PUSH1 0x80 PUSH1 0x40 MSTORE PUSH1 0x4 CALLDATASIZE LT PUSH2 0x4A JUMPI PUSH1 0x0 CALLDATALOAD PUSH1 0xE0 SHR DUP1 PUSH4 0x2A23BB72 EQ PUSH2 0x4F JUMPI DUP1 PUSH4 0x652BD29E EQ PUSH2 0x6B JUMPI DUP1 PUSH4 0x8DA5CB5B EQ PUSH2 0xAA JUMPI DUP1 PUSH4 0xDEB38E79 EQ PUSH2 0xD5 JUMPI DUP1 PUSH4 0xEBFA74C9 EQ PUSH2 0xFE JUMPI JUMPDEST PUSH1 0x0 DUP1 REVERT JUMPDEST PUSH2 0x69 PUSH1 0x4 DUP1 CALLDATASIZE SUB DUP2 ADD SWAP1 PUSH2 0x64 SWAP2 SWAP1 PUSH2 0xC97 JUMP JUMPDEST PUSH2 0x13B JUMP JUMPDEST STOP JUMPDEST CALLVALUE DUP1 ISZERO PUSH2 0x77 JUMPI PUSH1 0x0 DUP1 REVERT JUMPDEST POP PUSH2 0x92 PUSH1 0x4 DUP1 CALLDATASIZE SUB DUP2 ADD SWAP1 PUSH2 0x8D SWAP2 SWAP1 PUSH2 0xCF3 JUMP JUMPDEST PUSH2 0x396 JUMP JUMPDEST PUSH1 0x40 MLOAD PUSH2 0xA1 SWAP4 SWAP3 SWAP2 SWAP1 PUSH2 0xEC3 JUMP JUMPDEST PUSH1 0x40 MLOAD DUP1 SWAP2 SUB SWAP1 RETURN JUMPDEST CALLVALUE DUP1 ISZERO PUSH2 0xB6 JUMPI PUSH1 0x0 DUP1 REVERT JUMPDEST POP PUSH2 0xBF PUSH2 0x571 JUMP JUMPDEST PUSH1 0x40 MLOAD PUSH2 0xCC SWAP2 SWAP1 PUSH2 0xF49 JUMP JUMPDEST PUSH1 0x40 MLOAD DUP1 SWAP2 SUB SWAP1 RETURN JUMPDEST CALLVALUE DUP1 ISZERO PUSH2 0xE1 JUMPI PUSH1 0x0 DUP1 REVERT JUMPDEST POP PUSH2 0xFC PUSH1 0x4 DUP1 CALLDATASIZE SUB DUP2 ADD SWAP1 PUSH2 0xF7 SWAP2 SWAP1 PUSH2 0xF64 JUMP JUMPDEST PUSH2 0x595 JUMP JUMPDEST STOP JUMPDEST CALLVALUE DUP1 ISZERO PUSH2 0x10A JUMPI PUSH1 0x0 DUP1 REVERT JUMPDEST POP PUSH2 0x125 PUSH1 0x4 DUP1 CALLDATASIZE SUB DUP2 ADD SWAP1 PUSH2 0x120 SWAP2 SWAP1 PUSH2 0xCF3 JUMP JUMPDEST PUSH2 0x812 JUMP JUMPDEST PUSH1 0x40 MLOAD PUSH2 0x132 SWAP2 SWAP1 PUSH2 0x1123 JUMP JUMPDEST PUSH1 0x40 MLOAD DUP1 SWAP2 SUB SWAP1 RETURN JUMPDEST PUSH1 0x1 SLOAD DUP3 LT PUSH2 0x17F JUMPI PUSH1 0x40 MLOAD PUSH32 0x8C379A000000000000000000000000000000000000000000000000000000000 DUP2 MSTORE PUSH1 0x4 ADD PUSH2 0x176 SWAP1 PUSH2 0x118A JUMP JUMPDEST PUSH1 0x40 MLOAD DUP1 SWAP2 SUB SWAP1 REVERT JUMPDEST PUSH2 0x189 DUP3 DUP3 PUSH2 0x836 JUMP JUMPDEST PUSH2 0x1C8 JUMPI PUSH1 0x40 MLOAD PUSH32 0x8C379A000000000000000000000000000000000000000000000000000000000 DUP2 MSTORE PUSH1 0x4 ADD PUSH2 0x1BF SWAP1 PUSH2 0x121C JUMP JUMPDEST PUSH1 0x40 MLOAD DUP1 SWAP2 SUB SWAP1 REVERT JUMPDEST DUP1 MLOAD PUSH8 0xDE0B6B3A7640000 PUSH1 0x2 PUSH1 0x0 DUP6 DUP2 MSTORE PUSH1 0x20 ADD SWAP1 DUP2 MSTORE PUSH1 0x20 ADD PUSH1 0x0 KECCAK256 PUSH1 0x8 ADD SLOAD PUSH2 0x1F4 SWAP2 SWAP1 PUSH2 0x126B JUMP JUMPDEST PUSH2 0x1FE SWAP2 SWAP1 PUSH2 0x126B JUMP JUMPDEST CALLVALUE EQ PUSH2 0x23F JUMPI PUSH1 0x40 MLOAD PUSH32 0x8C379A000000000000000000000000000000000000000000000000000000000 DUP2 MSTORE PUSH1 0x4 ADD PUSH2 0x236 SWAP1 PUSH2 0x1337 JUMP JUMPDEST PUSH1 0x40 MLOAD DUP1 SWAP2 SUB SWAP1 REVERT JUMPDEST PUSH1 0x0 JUMPDEST DUP2 MLOAD DUP2 LT ISZERO PUSH2 0x2C1 JUMPI PUSH1 0x2 PUSH1 0x0 DUP5 DUP2 MSTORE PUSH1 0x20 ADD SWAP1 DUP2 MSTORE PUSH1 0x20 ADD PUSH1 0x0 KECCAK256 PUSH1 0x9 ADD DUP3 DUP3 DUP2 MLOAD DUP2 LT PUSH2 0x274 JUMPI PUSH2 0x273 PUSH2 0x1357 JUMP JUMPDEST JUMPDEST PUSH1 0x20 MUL PUSH1 0x20 ADD ADD MLOAD SWAP1 DUP1 PUSH1 0x1 DUP2 SLOAD ADD DUP1 DUP3 SSTORE DUP1 SWAP2 POP POP PUSH1 0x1 SWAP1 SUB SWAP1 PUSH1 0x0 MSTORE PUSH1 0x20 PUSH1 0x0 KECCAK256 ADD PUSH1 0x0 SWAP1 SWAP2 SWAP1 SWAP2 SWAP1 SWAP2 POP SWAP1 DUP2 PUSH2 0x2AD SWAP2 SWAP1 PUSH2 0x1592 JUMP JUMPDEST POP DUP1 DUP1 PUSH2 0x2B9 SWAP1 PUSH2 0x1664 JUMP JUMPDEST SWAP2 POP POP PUSH2 0x242 JUMP JUMPDEST POP PUSH1 0x0 DUP1 SLOAD SWAP1 PUSH2 0x100 EXP SWAP1 DIV PUSH20 0xFFFFFFFFFFFFFFFFFFFFFFFFFFFFFFFFFFFFFFFF AND PUSH20 0xFFFFFFFFFFFFFFFFFFFFFFFFFFFFFFFFFFFFFFFF AND PUSH2 0x8FC CALLVALUE SWAP1 DUP2 ISZERO MUL SWAP1 PUSH1 0x40 MLOAD PUSH1 0x0 PUSH1 0x40 MLOAD DUP1 DUP4 SUB DUP2 DUP6 DUP9 DUP9 CALL SWAP4 POP POP POP POP ISZERO DUP1 ISZERO PUSH2 0x328 JUMPI RETURNDATASIZE PUSH1 0x0 DUP1 RETURNDATACOPY RETURNDATASIZE PUSH1 0x0 REVERT JUMPDEST POP PUSH32 0xDFCC683AC35013D595A2DB07BCB6601A1BBC6C91DAD13117FD60299C875C61B4 DUP2 DUP4 CALLER PUSH1 0x2 PUSH1 0x0 DUP8 DUP2 MSTORE PUSH1 0x20 ADD SWAP1 DUP2 MSTORE PUSH1 0x20 ADD PUSH1 0x0 KECCAK256 PUSH1 0x1 ADD PUSH1 0x2 PUSH1 0x0 DUP9 DUP2 MSTORE PUSH1 0x20 ADD SWAP1 DUP2 MSTORE PUSH1 0x20 ADD PUSH1 0x0 KECCAK256 PUSH1 0x6 ADD PUSH1 0x40 MLOAD PUSH2 0x38A SWAP6 SWAP5 SWAP4 SWAP3 SWAP2 SWAP1 PUSH2 0x1730 JUMP JUMPDEST PUSH1 0x40 MLOAD DUP1 SWAP2 SUB SWAP1 LOG1 POP POP JUMP JUMPDEST PUSH1 0x60 PUSH1 0x0 PUSH1 0x60 PUSH1 0x1 SLOAD DUP5 LT PUSH2 0x3E0 JUMPI PUSH1 0x40 MLOAD PUSH32 0x8C379A000000000000000000000000000000000000000000000000000000000 DUP2 MSTORE PUSH1 0x4 ADD PUSH2 0x3D7 SWAP1 PUSH2 0x118A JUMP JUMPDEST PUSH1 0x40 MLOAD DUP1 SWAP2 SUB SWAP1 REVERT JUMPDEST PUSH1 0x0 PUSH1 0x2 PUSH1 0x0 DUP7 DUP2 MSTORE PUSH1 0x20 ADD SWAP1 DUP2 MSTORE PUSH1 0x20 ADD PUSH1 0x0 KECCAK256 SWAP1 POP DUP1 PUSH1 0x0 ADD DUP2 PUSH1 0x8 ADD SLOAD DUP3 PUSH1 0x9 ADD DUP3 DUP1 SLOAD PUSH2 0x410 SWAP1 PUSH2 0x13B5 JUMP JUMPDEST DUP1 PUSH1 0x1F ADD PUSH1 0x20 DUP1 SWAP2 DIV MUL PUSH1 0x20 ADD PUSH1 0x40 MLOAD SWAP1 DUP2 ADD PUSH1 0x40 MSTORE DUP1 SWAP3 SWAP2 SWAP1 DUP2 DUP2 MSTORE PUSH1 0x20 ADD DUP3 DUP1 SLOAD PUSH2 0x43C SWAP1 PUSH2 0x13B5 JUMP JUMPDEST DUP1 ISZERO PUSH2 0x489 JUMPI DUP1 PUSH1 0x1F LT PUSH2 0x45E JUMPI PUSH2 0x100 DUP1 DUP4 SLOAD DIV MUL DUP4 MSTORE SWAP2 PUSH1 0x20 ADD SWAP2 PUSH2 0x489 JUMP JUMPDEST DUP3 ADD SWAP2 SWAP1 PUSH1 0x0 MSTORE PUSH1 0x20 PUSH1 0x0 KECCAK256 SWAP1 JUMPDEST DUP2 SLOAD DUP2 MSTORE SWAP1 PUSH1 0x1 ADD SWAP1 PUSH1 0x20 ADD DUP1 DUP4 GT PUSH2 0x46C JUMPI DUP3 SWAP1 SUB PUSH1 0x1F AND DUP3 ADD SWAP2 JUMPDEST POP POP POP POP POP SWAP3 POP DUP1 DUP1 SLOAD DUP1 PUSH1 0x20 MUL PUSH1 0x20 ADD PUSH1 0x40 MLOAD SWAP1 DUP2 ADD PUSH1 0x40 MSTORE DUP1 SWAP3 SWAP2 SWAP1 DUP2 DUP2 MSTORE PUSH1 0x20 ADD PUSH1 0x0 SWAP1 JUMPDEST DUP3 DUP3 LT ISZERO PUSH2 0x55D JUMPI DUP4 DUP3 SWAP1 PUSH1 0x0 MSTORE PUSH1 0x20 PUSH1 0x0 KECCAK256 ADD DUP1 SLOAD PUSH2 0x4D0 SWAP1 PUSH2 0x13B5 JUMP JUMPDEST DUP1 PUSH1 0x1F ADD PUSH1 0x20 DUP1 SWAP2 DIV MUL PUSH1 0x20 ADD PUSH1 0x40 MLOAD SWAP1 DUP2 ADD PUSH1 0x40 MSTORE DUP1 SWAP3 SWAP2 SWAP1 DUP2 DUP2 MSTORE PUSH1 0x20 ADD DUP3 DUP1 SLOAD PUSH2 0x4FC SWAP1 PUSH2 0x13B5 JUMP JUMPDEST DUP1 ISZERO PUSH2 0x549 JUMPI DUP1 PUSH1 0x1F LT PUSH2 0x51E JUMPI PUSH2 0x100 DUP1 DUP4 SLOAD DIV MUL DUP4 MSTORE SWAP2 PUSH1 0x20 ADD SWAP2 PUSH2 0x549 JUMP JUMPDEST DUP3 ADD SWAP2 SWAP1 PUSH1 0x0 MSTORE PUSH1 0x20 PUSH1 0x0 KECCAK256 SWAP1 JUMPDEST DUP2 SLOAD DUP2 MSTORE SWAP1 PUSH1 0x1 ADD SWAP1 PUSH1 0x20 ADD DUP1 DUP4 GT PUSH2 0x52C JUMPI DUP3 SWAP1 SUB PUSH1 0x1F AND DUP3 ADD SWAP2 JUMPDEST POP POP POP POP POP DUP2 MSTORE PUSH1 0x20 ADD SWAP1 PUSH1 0x1 ADD SWAP1 PUSH2 0x4B1 JUMP JUMPDEST POP POP POP POP SWAP1 POP SWAP4 POP SWAP4 POP SWAP4 POP POP SWAP2 SWAP4 SWAP1 SWAP3 POP JUMP JUMPDEST PUSH1 0x0 DUP1 SLOAD SWAP1 PUSH2 0x100 EXP SWAP1 DIV PUSH20 0xFFFFFFFFFFFFFFFFFFFFFFFFFFFFFFFFFFFFFFFF AND DUP2 JUMP JUMPDEST PUSH1 0x0 DUP1 SLOAD SWAP1 PUSH2 0x100 EXP SWAP1 DIV PUSH20 0xFFFFFFFFFFFFFFFFFFFFFFFFFFFFFFFFFFFFFFFF AND PUSH20 0xFFFFFFFFFFFFFFFFFFFFFFFFFFFFFFFFFFFFFFFF AND CALLER PUSH20 0xFFFFFFFFFFFFFFFFFFFFFFFFFFFFFFFFFFFFFFFF AND EQ PUSH2 0x623 JUMPI PUSH1 0x40 MLOAD PUSH32 0x8C379A000000000000000000000000000000000000000000000000000000000 DUP2 MSTORE PUSH1 0x4 ADD PUSH2 0x61A SWAP1 PUSH2 0x180A JUMP JUMPDEST PUSH1 0x40 MLOAD DUP1 SWAP2 SUB SWAP1 REVERT JUMPDEST PUSH1 0x0 PUSH1 0x2 PUSH1 0x0 PUSH1 0x1 SLOAD DUP2 MSTORE PUSH1 0x20 ADD SWAP1 DUP2 MSTORE PUSH1 0x20 ADD PUSH1 0x0 KECCAK256 SWAP1 POP DUP11 DUP2 PUSH1 0x0 ADD SWAP1 DUP2 PUSH2 0x64D SWAP2 SWAP1 PUSH2 0x1592 JUMP JUMPDEST POP DUP10 DUP2 PUSH1 0x1 ADD SWAP1 DUP2 PUSH2 0x65F SWAP2 SWAP1 PUSH2 0x1592 JUMP JUMPDEST POP DUP9 DUP2 PUSH1 0x2 ADD SWAP1 DUP2 PUSH2 0x671 SWAP2 SWAP1 PUSH2 0x1592 JUMP JUMPDEST POP DUP8 DUP2 PUSH1 0x3 ADD SWAP1 DUP2 PUSH2 0x683 SWAP2 SWAP1 PUSH2 0x1592 JUMP JUMPDEST POP DUP7 DUP2 PUSH1 0x4 ADD SWAP1 DUP2 PUSH2 0x695 SWAP2 SWAP1 PUSH2 0x1592 JUMP JUMPDEST POP DUP6 DUP2 PUSH1 0x5 ADD SWAP1 DUP2 PUSH2 0x6A7 SWAP2 SWAP1 PUSH2 0x1592 JUMP JUMPDEST POP DUP5 DUP2 PUSH1 0x6 ADD SWAP1 DUP2 PUSH2 0x6B9 SWAP2 SWAP1 PUSH2 0x1592 JUMP JUMPDEST POP DUP4 DUP2 PUSH1 0x7 ADD DUP2 SWAP1 SSTORE POP DUP3 DUP2 PUSH1 0x8 ADD DUP2 SWAP1 SSTORE POP DUP2 DUP2 PUSH1 0x9 ADD SWAP1 DUP1 MLOAD SWAP1 PUSH1 0x20 ADD SWAP1 PUSH2 0x6E4 SWAP3 SWAP2 SWAP1 PUSH2 0x947 JUMP JUMPDEST POP PUSH1 0x1 SLOAD DUP2 PUSH1 0xA ADD DUP2 SWAP1 SSTORE POP PUSH1 0x0 DUP1 SLOAD SWAP1 PUSH2 0x100 EXP SWAP1 DIV PUSH20 0xFFFFFFFFFFFFFFFFFFFFFFFFFFFFFFFFFFFFFFFF AND DUP2 PUSH1 0xB ADD PUSH1 0x0 PUSH2 0x100 EXP DUP2 SLOAD DUP2 PUSH20 0xFFFFFFFFFFFFFFFFFFFFFFFFFFFFFFFFFFFFFFFF MUL NOT AND SWAP1 DUP4 PUSH20 0xFFFFFFFFFFFFFFFFFFFFFFFFFFFFFFFFFFFFFFFF AND MUL OR SWAP1 SSTORE POP PUSH1 0x3 PUSH1 0x1 SLOAD SWAP1 DUP1 PUSH1 0x1 DUP2 SLOAD ADD DUP1 DUP3 SSTORE DUP1 SWAP2 POP POP PUSH1 0x1 SWAP1 SUB SWAP1 PUSH1 0x0 MSTORE PUSH1 0x20 PUSH1 0x0 KECCAK256 ADD PUSH1 0x0 SWAP1 SWAP2 SWAP1 SWAP2 SWAP1 SWAP2 POP SSTORE PUSH32 0xC06F078C3C74D235829AF3E011FF5AAE487C78EF8D3ACCA688417ED86FF14591 DUP12 DUP12 DUP12 DUP12 DUP12 DUP12 DUP12 DUP12 DUP12 DUP12 PUSH1 0x1 SLOAD PUSH1 0x0 DUP1 SLOAD SWAP1 PUSH2 0x100 EXP SWAP1 DIV PUSH20 0xFFFFFFFFFFFFFFFFFFFFFFFFFFFFFFFFFFFFFFFF AND PUSH1 0x40 MLOAD PUSH2 0x7E5 SWAP13 SWAP12 SWAP11 SWAP10 SWAP9 SWAP8 SWAP7 SWAP6 SWAP5 SWAP4 SWAP3 SWAP2 SWAP1 PUSH2 0x182A JUMP JUMPDEST PUSH1 0x40 MLOAD DUP1 SWAP2 SUB SWAP1 LOG1 PUSH1 0x1 PUSH1 0x0 DUP2 SLOAD DUP1 SWAP3 SWAP2 SWAP1 PUSH2 0x800 SWAP1 PUSH2 0x1664 JUMP JUMPDEST SWAP2 SWAP1 POP SSTORE POP POP POP POP POP POP POP POP POP POP POP POP JUMP JUMPDEST PUSH1 0x3 DUP2 DUP2 SLOAD DUP2 LT PUSH2 0x822 JUMPI PUSH1 0x0 DUP1 REVERT JUMPDEST SWAP1 PUSH1 0x0 MSTORE PUSH1 0x20 PUSH1 0x0 KECCAK256 ADD PUSH1 0x0 SWAP2 POP SWAP1 POP SLOAD DUP2 JUMP JUMPDEST PUSH1 0x0 DUP1 PUSH1 0x0 SWAP1 POP JUMPDEST DUP3 MLOAD DUP2 LT ISZERO PUSH2 0x93B JUMPI PUSH1 0x0 JUMPDEST PUSH1 0x2 PUSH1 0x0 DUP7 DUP2 MSTORE PUSH1 0x20 ADD SWAP1 DUP2 MSTORE PUSH1 0x20 ADD PUSH1 0x0 KECCAK256 PUSH1 0x9 ADD DUP1 SLOAD SWAP1 POP DUP2 LT ISZERO PUSH2 0x927 JUMPI DUP4 DUP3 DUP2 MLOAD DUP2 LT PUSH2 0x87E JUMPI PUSH2 0x87D PUSH2 0x1357 JUMP JUMPDEST JUMPDEST PUSH1 0x20 MUL PUSH1 0x20 ADD ADD MLOAD PUSH1 0x40 MLOAD PUSH1 0x20 ADD PUSH2 0x896 SWAP2 SWAP1 PUSH2 0x1958 JUMP JUMPDEST PUSH1 0x40 MLOAD PUSH1 0x20 DUP2 DUP4 SUB SUB DUP2 MSTORE SWAP1 PUSH1 0x40 MSTORE DUP1 MLOAD SWAP1 PUSH1 0x20 ADD KECCAK256 PUSH1 0x2 PUSH1 0x0 DUP8 DUP2 MSTORE PUSH1 0x20 ADD SWAP1 DUP2 MSTORE PUSH1 0x20 ADD PUSH1 0x0 KECCAK256 PUSH1 0x9 ADD DUP3 DUP2 SLOAD DUP2 LT PUSH2 0x8D4 JUMPI PUSH2 0x8D3 PUSH2 0x1357 JUMP JUMPDEST JUMPDEST SWAP1 PUSH1 0x0 MSTORE PUSH1 0x20 PUSH1 0x0 KECCAK256 ADD PUSH1 0x40 MLOAD PUSH1 0x20 ADD PUSH2 0x8EE SWAP2 SWAP1 PUSH2 0x19F2 JUMP JUMPDEST PUSH1 0x40 MLOAD PUSH1 0x20 DUP2 DUP4 SUB SUB DUP2 MSTORE SWAP1 PUSH1 0x40 MSTORE DUP1 MLOAD SWAP1 PUSH1 0x20 ADD KECCAK256 SUB PUSH2 0x914 JUMPI PUSH1 0x0 SWAP3 POP POP POP PUSH2 0x941 JUMP JUMPDEST DUP1 DUP1 PUSH2 0x91F SWAP1 PUSH2 0x1664 JUMP JUMPDEST SWAP2 POP POP PUSH2 0x84A JUMP JUMPDEST POP DUP1 DUP1 PUSH2 0x933 SWAP1 PUSH2 0x1664 JUMP JUMPDEST SWAP2 POP POP PUSH2 0x83E JUMP JUMPDEST POP PUSH1 0x1 SWAP1 POP JUMPDEST SWAP3 SWAP2 POP POP JUMP JUMPDEST DUP3 DUP1 SLOAD DUP3 DUP3 SSTORE SWAP1 PUSH1 0x0 MSTORE PUSH1 0x20 PUSH1 0x0 KECCAK256 SWAP1 DUP2 ADD SWAP3 DUP3 ISZERO PUSH2 0x98F JUMPI SWAP2 PUSH1 0x20 MUL DUP3 ADD JUMPDEST DUP3 DUP2 GT ISZERO PUSH2 0x98E JUMPI DUP3 MLOAD DUP3 SWAP1 DUP2 PUSH2 0x97E SWAP2 SWAP1 PUSH2 0x1592 JUMP JUMPDEST POP SWAP2 PUSH1 0x20 ADD SWAP2 SWAP1 PUSH1 0x1 ADD SWAP1 PUSH2 0x967 JUMP JUMPDEST JUMPDEST POP SWAP1 POP PUSH2 0x99C SWAP2 SWAP1 PUSH2 0x9A0 JUMP JUMPDEST POP SWAP1 JUMP JUMPDEST JUMPDEST DUP1 DUP3 GT ISZERO PUSH2 0x9C0 JUMPI PUSH1 0x0 DUP2 DUP2 PUSH2 0x9B7 SWAP2 SWAP1 PUSH2 0x9C4 JUMP JUMPDEST POP PUSH1 0x1 ADD PUSH2 0x9A1 JUMP JUMPDEST POP SWAP1 JUMP JUMPDEST POP DUP1 SLOAD PUSH2 0x9D0 SWAP1 PUSH2 0x13B5 JUMP JUMPDEST PUSH1 0x0 DUP3 SSTORE DUP1 PUSH1 0x1F LT PUSH2 0x9E2 JUMPI POP PUSH2 0xA01 JUMP JUMPDEST PUSH1 0x1F ADD PUSH1 0x20 SWAP1 DIV SWAP1 PUSH1 0x0 MSTORE PUSH1 0x20 PUSH1 0x0 KECCAK256 SWAP1 DUP2 ADD SWAP1 PUSH2 0xA00 SWAP2 SWAP1 PUSH2 0xA04 JUMP JUMPDEST JUMPDEST POP JUMP JUMPDEST JUMPDEST DUP1 DUP3 GT ISZERO PUSH2 0xA1D JUMPI PUSH1 0x0 DUP2 PUSH1 0x0 SWAP1 SSTORE POP PUSH1 0x1 ADD PUSH2 0xA05 JUMP JUMPDEST POP SWAP1 JUMP JUMPDEST PUSH1 0x0 PUSH1 0x40 MLOAD SWAP1 POP SWAP1 JUMP JUMPDEST PUSH1 0x0 DUP1 REVERT JUMPDEST PUSH1 0x0 DUP1 REVERT JUMPDEST PUSH1 0x0 DUP2 SWAP1 POP SWAP2 SWAP1 POP JUMP JUMPDEST PUSH2 0xA48 DUP2 PUSH2 0xA35 JUMP JUMPDEST DUP2 EQ PUSH2 0xA53 JUMPI PUSH1 0x0 DUP1 REVERT JUMPDEST POP JUMP JUMPDEST PUSH1 0x0 DUP2 CALLDATALOAD SWAP1 POP PUSH2 0xA65 DUP2 PUSH2 0xA3F JUMP JUMPDEST SWAP3 SWAP2 POP POP JUMP JUMPDEST PUSH1 0x0 DUP1 REVERT JUMPDEST PUSH1 0x0 PUSH1 0x1F NOT PUSH1 0x1F DUP4 ADD AND SWAP1 POP SWAP2 SWAP1 POP JUMP JUMPDEST PUSH32 0x4E487B7100000000000000000000000000000000000000000000000000000000 PUSH1 0x0 MSTORE PUSH1 0x41 PUSH1 0x4 MSTORE PUSH1 0x24 PUSH1 0x0 REVERT JUMPDEST PUSH2 0xAB9 DUP3 PUSH2 0xA70 JUMP JUMPDEST DUP2 ADD DUP2 DUP2 LT PUSH8 0xFFFFFFFFFFFFFFFF DUP3 GT OR ISZERO PUSH2 0xAD8 JUMPI PUSH2 0xAD7 PUSH2 0xA81 JUMP JUMPDEST JUMPDEST DUP1 PUSH1 0x40 MSTORE POP POP POP JUMP JUMPDEST PUSH1 0x0 PUSH2 0xAEB PUSH2 0xA21 JUMP JUMPDEST SWAP1 POP PUSH2 0xAF7 DUP3 DUP3 PUSH2 0xAB0 JUMP JUMPDEST SWAP2 SWAP1 POP JUMP JUMPDEST PUSH1 0x0 PUSH8 0xFFFFFFFFFFFFFFFF DUP3 GT ISZERO PUSH2 0xB17 JUMPI PUSH2 0xB16 PUSH2 0xA81 JUMP JUMPDEST JUMPDEST PUSH1 0x20 DUP3 MUL SWAP1 POP PUSH1 0x20 DUP2 ADD SWAP1 POP SWAP2 SWAP1 POP JUMP JUMPDEST PUSH1 0x0 DUP1 REVERT JUMPDEST PUSH1 0x0 DUP1 REVERT JUMPDEST PUSH1 0x0 PUSH8 0xFFFFFFFFFFFFFFFF DUP3 GT ISZERO PUSH2 0xB4D JUMPI PUSH2 0xB4C PUSH2 0xA81 JUMP JUMPDEST JUMPDEST PUSH2 0xB56 DUP3 PUSH2 0xA70 JUMP JUMPDEST SWAP1 POP PUSH1 0x20 DUP2 ADD SWAP1 POP SWAP2 SWAP1 POP JUMP JUMPDEST DUP3 DUP2 DUP4 CALLDATACOPY PUSH1 0x0 DUP4 DUP4 ADD MSTORE POP POP POP JUMP JUMPDEST PUSH1 0x0 PUSH2 0xB85 PUSH2 0xB80 DUP5 PUSH2 0xB32 JUMP JUMPDEST PUSH2 0xAE1 JUMP JUMPDEST SWAP1 POP DUP3 DUP2 MSTORE PUSH1 0x20 DUP2 ADD DUP5 DUP5 DUP5 ADD GT ISZERO PUSH2 0xBA1 JUMPI PUSH2 0xBA0 PUSH2 0xB2D JUMP JUMPDEST JUMPDEST PUSH2 0xBAC DUP5 DUP3 DUP6 PUSH2 0xB63 JUMP JUMPDEST POP SWAP4 SWAP3 POP POP POP JUMP JUMPDEST PUSH1 0x0 DUP3 PUSH1 0x1F DUP4 ADD SLT PUSH2 0xBC9 JUMPI PUSH2 0xBC8 PUSH2 0xA6B JUMP JUMPDEST JUMPDEST DUP2 CALLDATALOAD PUSH2 0xBD9 DUP5 DUP3 PUSH1 0x20 DUP7 ADD PUSH2 0xB72 JUMP JUMPDEST SWAP2 POP POP SWAP3 SWAP2 POP POP JUMP JUMPDEST PUSH1 0x0 PUSH2 0xBF5 PUSH2 0xBF0 DUP5 PUSH2 0xAFC JUMP JUMPDEST PUSH2 0xAE1 JUMP JUMPDEST SWAP1 POP DUP1 DUP4 DUP3 MSTORE PUSH1 0x20 DUP3 ADD SWAP1 POP PUSH1 0x20 DUP5 MUL DUP4 ADD DUP6 DUP2 GT ISZERO PUSH2 0xC18 JUMPI PUSH2 0xC17 PUSH2 0xB28 JUMP JUMPDEST JUMPDEST DUP4 JUMPDEST DUP2 DUP2 LT ISZERO PUSH2 0xC5F JUMPI DUP1 CALLDATALOAD PUSH8 0xFFFFFFFFFFFFFFFF DUP2 GT ISZERO PUSH2 0xC3D JUMPI PUSH2 0xC3C PUSH2 0xA6B JUMP JUMPDEST JUMPDEST DUP1 DUP7 ADD PUSH2 0xC4A DUP10 DUP3 PUSH2 0xBB4 JUMP JUMPDEST DUP6 MSTORE PUSH1 0x20 DUP6 ADD SWAP5 POP POP POP PUSH1 0x20 DUP2 ADD SWAP1 POP PUSH2 0xC1A JUMP JUMPDEST POP POP POP SWAP4 SWAP3 POP POP POP JUMP JUMPDEST PUSH1 0x0 DUP3 PUSH1 0x1F DUP4 ADD SLT PUSH2 0xC7E JUMPI PUSH2 0xC7D PUSH2 0xA6B JUMP JUMPDEST JUMPDEST DUP2 CALLDATALOAD PUSH2 0xC8E DUP5 DUP3 PUSH1 0x20 DUP7 ADD PUSH2 0xBE2 JUMP JUMPDEST SWAP2 POP POP SWAP3 SWAP2 POP POP JUMP JUMPDEST PUSH1 0x0 DUP1 PUSH1 0x40 DUP4 DUP6 SUB SLT ISZERO PUSH2 0xCAE JUMPI PUSH2 0xCAD PUSH2 0xA2B JUMP JUMPDEST JUMPDEST PUSH1 0x0 PUSH2 0xCBC DUP6 DUP3 DUP7 ADD PUSH2 0xA56 JUMP JUMPDEST SWAP3 POP POP PUSH1 0x20 DUP4 ADD CALLDATALOAD PUSH8 0xFFFFFFFFFFFFFFFF DUP2 GT ISZERO PUSH2 0xCDD JUMPI PUSH2 0xCDC PUSH2 0xA30 JUMP JUMPDEST JUMPDEST PUSH2 0xCE9 DUP6 DUP3 DUP7 ADD PUSH2 0xC69 JUMP JUMPDEST SWAP2 POP POP SWAP3 POP SWAP3 SWAP1 POP JUMP JUMPDEST PUSH1 0x0 PUSH1 0x20 DUP3 DUP5 SUB SLT ISZERO PUSH2 0xD09 JUMPI PUSH2 0xD08 PUSH2 0xA2B JUMP JUMPDEST JUMPDEST PUSH1 0x0 PUSH2 0xD17 DUP5 DUP3 DUP6 ADD PUSH2 0xA56 JUMP JUMPDEST SWAP2 POP POP SWAP3 SWAP2 POP POP JUMP JUMPDEST PUSH1 0x0 DUP2 MLOAD SWAP1 POP SWAP2 SWAP1 POP JUMP JUMPDEST PUSH1 0x0 DUP3 DUP3 MSTORE PUSH1 0x20 DUP3 ADD SWAP1 POP SWAP3 SWAP2 POP POP JUMP JUMPDEST PUSH1 0x0 JUMPDEST DUP4 DUP2 LT ISZERO PUSH2 0xD5A JUMPI DUP1 DUP3 ADD MLOAD DUP2 DUP5 ADD MSTORE PUSH1 0x20 DUP2 ADD SWAP1 POP PUSH2 0xD3F JUMP JUMPDEST DUP4 DUP2 GT ISZERO PUSH2 0xD69 JUMPI PUSH1 0x0 DUP5 DUP5 ADD MSTORE JUMPDEST POP POP POP POP JUMP JUMPDEST PUSH1 0x0 PUSH2 0xD7A DUP3 PUSH2 0xD20 JUMP JUMPDEST PUSH2 0xD84 DUP2 DUP6 PUSH2 0xD2B JUMP JUMPDEST SWAP4 POP PUSH2 0xD94 DUP2 DUP6 PUSH1 0x20 DUP7 ADD PUSH2 0xD3C JUMP JUMPDEST PUSH2 0xD9D DUP2 PUSH2 0xA70 JUMP JUMPDEST DUP5 ADD SWAP2 POP POP SWAP3 SWAP2 POP POP JUMP JUMPDEST PUSH2 0xDB1 DUP2 PUSH2 0xA35 JUMP JUMPDEST DUP3 MSTORE POP POP JUMP JUMPDEST PUSH1 0x0 DUP2 MLOAD SWAP1 POP SWAP2 SWAP1 POP JUMP JUMPDEST PUSH1 0x0 DUP3 DUP3 MSTORE PUSH1 0x20 DUP3 ADD SWAP1 POP SWAP3 SWAP2 POP POP JUMP JUMPDEST PUSH1 0x0 DUP2 SWAP1 POP PUSH1 0x20 DUP3 ADD SWAP1 POP SWAP2 SWAP1 POP JUMP JUMPDEST PUSH1 0x0 DUP3 DUP3 MSTORE PUSH1 0x20 DUP3 ADD SWAP1 POP SWAP3 SWAP2 POP POP JUMP JUMPDEST PUSH1 0x0 PUSH2 0xDFF DUP3 PUSH2 0xD20 JUMP JUMPDEST PUSH2 0xE09 DUP2 DUP6 PUSH2 0xDE3 JUMP JUMPDEST SWAP4 POP PUSH2 0xE19 DUP2 DUP6 PUSH1 0x20 DUP7 ADD PUSH2 0xD3C JUMP JUMPDEST PUSH2 0xE22 DUP2 PUSH2 0xA70 JUMP JUMPDEST DUP5 ADD SWAP2 POP POP SWAP3 SWAP2 POP POP JUMP JUMPDEST PUSH1 0x0 PUSH2 0xE39 DUP4 DUP4 PUSH2 0xDF4 JUMP JUMPDEST SWAP1 POP SWAP3 SWAP2 POP POP JUMP JUMPDEST PUSH1 0x0 PUSH1 0x20 DUP3 ADD SWAP1 POP SWAP2 SWAP1 POP JUMP JUMPDEST PUSH1 0x0 PUSH2 0xE59 DUP3 PUSH2 0xDB7 JUMP JUMPDEST PUSH2 0xE63 DUP2 DUP6 PUSH2 0xDC2 JUMP JUMPDEST SWAP4 POP DUP4 PUSH1 0x20 DUP3 MUL DUP6 ADD PUSH2 0xE75 DUP6 PUSH2 0xDD3 JUMP JUMPDEST DUP1 PUSH1 0x0 JUMPDEST DUP6 DUP2 LT ISZERO PUSH2 0xEB1 JUMPI DUP5 DUP5 SUB DUP10 MSTORE DUP2 MLOAD PUSH2 0xE92 DUP6 DUP3 PUSH2 0xE2D JUMP JUMPDEST SWAP5 POP PUSH2 0xE9D DUP4 PUSH2 0xE41 JUMP JUMPDEST SWAP3 POP PUSH1 0x20 DUP11 ADD SWAP10 POP POP PUSH1 0x1 DUP2 ADD SWAP1 POP PUSH2 0xE79 JUMP JUMPDEST POP DUP3 SWAP8 POP DUP8 SWAP6 POP POP POP POP POP POP SWAP3 SWAP2 POP POP JUMP JUMPDEST PUSH1 0x0 PUSH1 0x60 DUP3 ADD SWAP1 POP DUP2 DUP2 SUB PUSH1 0x0 DUP4 ADD MSTORE PUSH2 0xEDD DUP2 DUP7 PUSH2 0xD6F JUMP JUMPDEST SWAP1 POP PUSH2 0xEEC PUSH1 0x20 DUP4 ADD DUP6 PUSH2 0xDA8 JUMP JUMPDEST DUP2 DUP2 SUB PUSH1 0x40 DUP4 ADD MSTORE PUSH2 0xEFE DUP2 DUP5 PUSH2 0xE4E JUMP JUMPDEST SWAP1 POP SWAP5 SWAP4 POP POP POP POP JUMP JUMPDEST PUSH1 0x0 PUSH20 0xFFFFFFFFFFFFFFFFFFFFFFFFFFFFFFFFFFFFFFFF DUP3 AND SWAP1 POP SWAP2 SWAP1 POP JUMP JUMPDEST PUSH1 0x0 PUSH2 0xF33 DUP3 PUSH2 0xF08 JUMP JUMPDEST SWAP1 POP SWAP2 SWAP1 POP JUMP JUMPDEST PUSH2 0xF43 DUP2 PUSH2 0xF28 JUMP JUMPDEST DUP3 MSTORE POP POP JUMP JUMPDEST PUSH1 0x0 PUSH1 0x20 DUP3 ADD SWAP1 POP PUSH2 0xF5E PUSH1 0x0 DUP4 ADD DUP5 PUSH2 0xF3A JUMP JUMPDEST SWAP3 SWAP2 POP POP JUMP JUMPDEST PUSH1 0x0 DUP1 PUSH1 0x0 DUP1 PUSH1 0x0 DUP1 PUSH1 0x0 DUP1 PUSH1 0x0 DUP1 PUSH2 0x140 DUP12 DUP14 SUB SLT ISZERO PUSH2 0xF88 JUMPI PUSH2 0xF87 PUSH2 0xA2B JUMP JUMPDEST JUMPDEST PUSH1 0x0 DUP12 ADD CALLDATALOAD PUSH8 0xFFFFFFFFFFFFFFFF DUP2 GT ISZERO PUSH2 0xFA6 JUMPI PUSH2 0xFA5 PUSH2 0xA30 JUMP JUMPDEST JUMPDEST PUSH2 0xFB2 DUP14 DUP3 DUP15 ADD PUSH2 0xBB4 JUMP JUMPDEST SWAP11 POP POP PUSH1 0x20 DUP12 ADD CALLDATALOAD PUSH8 0xFFFFFFFFFFFFFFFF DUP2 GT ISZERO PUSH2 0xFD3 JUMPI PUSH2 0xFD2 PUSH2 0xA30 JUMP JUMPDEST JUMPDEST PUSH2 0xFDF DUP14 DUP3 DUP15 ADD PUSH2 0xBB4 JUMP JUMPDEST SWAP10 POP POP PUSH1 0x40 DUP12 ADD CALLDATALOAD PUSH8 0xFFFFFFFFFFFFFFFF DUP2 GT ISZERO PUSH2 0x1000 JUMPI PUSH2 0xFFF PUSH2 0xA30 JUMP JUMPDEST JUMPDEST PUSH2 0x100C DUP14 DUP3 DUP15 ADD PUSH2 0xBB4 JUMP JUMPDEST SWAP9 POP POP PUSH1 0x60 DUP12 ADD CALLDATALOAD PUSH8 0xFFFFFFFFFFFFFFFF DUP2 GT ISZERO PUSH2 0x102D JUMPI PUSH2 0x102C PUSH2 0xA30 JUMP JUMPDEST JUMPDEST PUSH2 0x1039 DUP14 DUP3 DUP15 ADD PUSH2 0xBB4 JUMP JUMPDEST SWAP8 POP POP PUSH1 0x80 DUP12 ADD CALLDATALOAD PUSH8 0xFFFFFFFFFFFFFFFF DUP2 GT ISZERO PUSH2 0x105A JUMPI PUSH2 0x1059 PUSH2 0xA30 JUMP JUMPDEST JUMPDEST PUSH2 0x1066 DUP14 DUP3 DUP15 ADD PUSH2 0xBB4 JUMP JUMPDEST SWAP7 POP POP PUSH1 0xA0 DUP12 ADD CALLDATALOAD PUSH8 0xFFFFFFFFFFFFFFFF DUP2 GT ISZERO PUSH2 0x1087 JUMPI PUSH2 0x1086 PUSH2 0xA30 JUMP JUMPDEST JUMPDEST PUSH2 0x1093 DUP14 DUP3 DUP15 ADD PUSH2 0xBB4 JUMP JUMPDEST SWAP6 POP POP PUSH1 0xC0 DUP12 ADD CALLDATALOAD PUSH8 0xFFFFFFFFFFFFFFFF DUP2 GT ISZERO PUSH2 0x10B4 JUMPI PUSH2 0x10B3 PUSH2 0xA30 JUMP JUMPDEST JUMPDEST PUSH2 0x10C0 DUP14 DUP3 DUP15 ADD PUSH2 0xBB4 JUMP JUMPDEST SWAP5 POP POP PUSH1 0xE0 PUSH2 0x10D1 DUP14 DUP3 DUP15 ADD PUSH2 0xA56 JUMP JUMPDEST SWAP4 POP POP PUSH2 0x100 PUSH2 0x10E3 DUP14 DUP3 DUP15 ADD PUSH2 0xA56 JUMP JUMPDEST SWAP3 POP POP PUSH2 0x120 DUP12 ADD CALLDATALOAD PUSH8 0xFFFFFFFFFFFFFFFF DUP2 GT ISZERO PUSH2 0x1105 JUMPI PUSH2 0x1104 PUSH2 0xA30 JUMP JUMPDEST JUMPDEST PUSH2 0x1111 DUP14 DUP3 DUP15 ADD PUSH2 0xC69 JUMP JUMPDEST SWAP2 POP POP SWAP3 SWAP6 SWAP9 SWAP12 SWAP2 SWAP5 SWAP8 SWAP11 POP SWAP3 SWAP6 SWAP9 POP JUMP JUMPDEST PUSH1 0x0 PUSH1 0x20 DUP3 ADD SWAP1 POP PUSH2 0x1138 PUSH1 0x0 DUP4 ADD DUP5 PUSH2 0xDA8 JUMP JUMPDEST SWAP3 SWAP2 POP POP JUMP JUMPDEST PUSH32 0x4E6F20737563682052656E74616C000000000000000000000000000000000000 PUSH1 0x0 DUP3 ADD MSTORE POP JUMP JUMPDEST PUSH1 0x0 PUSH2 0x1174 PUSH1 0xE DUP4 PUSH2 0xD2B JUMP JUMPDEST SWAP2 POP PUSH2 0x117F DUP3 PUSH2 0x113E JUMP JUMPDEST PUSH1 0x20 DUP3 ADD SWAP1 POP SWAP2 SWAP1 POP JUMP JUMPDEST PUSH1 0x0 PUSH1 0x20 DUP3 ADD SWAP1 POP DUP2 DUP2 SUB PUSH1 0x0 DUP4 ADD MSTORE PUSH2 0x11A3 DUP2 PUSH2 0x1167 JUMP JUMPDEST SWAP1 POP SWAP2 SWAP1 POP JUMP JUMPDEST PUSH32 0x416C726561647920426F6F6B656420466F722052657175657374656420446174 PUSH1 0x0 DUP3 ADD MSTORE PUSH32 0x6500000000000000000000000000000000000000000000000000000000000000 PUSH1 0x20 DUP3 ADD MSTORE POP JUMP JUMPDEST PUSH1 0x0 PUSH2 0x1206 PUSH1 0x21 DUP4 PUSH2 0xD2B JUMP JUMPDEST SWAP2 POP PUSH2 0x1211 DUP3 PUSH2 0x11AA JUMP JUMPDEST PUSH1 0x40 DUP3 ADD SWAP1 POP SWAP2 SWAP1 POP JUMP JUMPDEST PUSH1 0x0 PUSH1 0x20 DUP3 ADD SWAP1 POP DUP2 DUP2 SUB PUSH1 0x0 DUP4 ADD MSTORE PUSH2 0x1235 DUP2 PUSH2 0x11F9 JUMP JUMPDEST SWAP1 POP SWAP2 SWAP1 POP JUMP JUMPDEST PUSH32 0x4E487B7100000000000000000000000000000000000000000000000000000000 PUSH1 0x0 MSTORE PUSH1 0x11 PUSH1 0x4 MSTORE PUSH1 0x24 PUSH1 0x0 REVERT JUMPDEST PUSH1 0x0 PUSH2 0x1276 DUP3 PUSH2 0xA35 JUMP JUMPDEST SWAP2 POP PUSH2 0x1281 DUP4 PUSH2 0xA35 JUMP JUMPDEST SWAP3 POP DUP2 PUSH32 0xFFFFFFFFFFFFFFFFFFFFFFFFFFFFFFFFFFFFFFFFFFFFFFFFFFFFFFFFFFFFFFFF DIV DUP4 GT DUP3 ISZERO ISZERO AND ISZERO PUSH2 0x12BA JUMPI PUSH2 0x12B9 PUSH2 0x123C JUMP JUMPDEST JUMPDEST DUP3 DUP3 MUL SWAP1 POP SWAP3 SWAP2 POP POP JUMP JUMPDEST PUSH32 0x506C65617365207375626D6974207468652061736B696E672070726963652069 PUSH1 0x0 DUP3 ADD MSTORE PUSH32 0x6E206F7264657220746F20636F6D706C65746520746865207075726368617365 PUSH1 0x20 DUP3 ADD MSTORE POP JUMP JUMPDEST PUSH1 0x0 PUSH2 0x1321 PUSH1 0x40 DUP4 PUSH2 0xD2B JUMP JUMPDEST SWAP2 POP PUSH2 0x132C DUP3 PUSH2 0x12C5 JUMP JUMPDEST PUSH1 0x40 DUP3 ADD SWAP1 POP SWAP2 SWAP1 POP JUMP JUMPDEST PUSH1 0x0 PUSH1 0x20 DUP3 ADD SWAP1 POP DUP2 DUP2 SUB PUSH1 0x0 DUP4 ADD MSTORE PUSH2 0x1350 DUP2 PUSH2 0x1314 JUMP JUMPDEST SWAP1 POP SWAP2 SWAP1 POP JUMP JUMPDEST PUSH32 0x4E487B7100000000000000000000000000000000000000000000000000000000 PUSH1 0x0 MSTORE PUSH1 0x32 PUSH1 0x4 MSTORE PUSH1 0x24 PUSH1 0x0 REVERT JUMPDEST PUSH32 0x4E487B7100000000000000000000000000000000000000000000000000000000 PUSH1 0x0 MSTORE PUSH1 0x22 PUSH1 0x4 MSTORE PUSH1 0x24 PUSH1 0x0 REVERT JUMPDEST PUSH1 0x0 PUSH1 0x2 DUP3 DIV SWAP1 POP PUSH1 0x1 DUP3 AND DUP1 PUSH2 0x13CD JUMPI PUSH1 0x7F DUP3 AND SWAP2 POP JUMPDEST PUSH1 0x20 DUP3 LT DUP2 SUB PUSH2 0x13E0 JUMPI PUSH2 0x13DF PUSH2 0x1386 JUMP JUMPDEST JUMPDEST POP SWAP2 SWAP1 POP JUMP JUMPDEST PUSH1 0x0 DUP2 SWAP1 POP DUP2 PUSH1 0x0 MSTORE PUSH1 0x20 PUSH1 0x0 KECCAK256 SWAP1 POP SWAP2 SWAP1 POP JUMP JUMPDEST PUSH1 0x0 PUSH1 0x20 PUSH1 0x1F DUP4 ADD DIV SWAP1 POP SWAP2 SWAP1 POP JUMP JUMPDEST PUSH1 0x0 DUP3 DUP3 SHL SWAP1 POP SWAP3 SWAP2 POP POP JUMP JUMPDEST PUSH1 0x0 PUSH1 0x8 DUP4 MUL PUSH2 0x1448 PUSH32 0xFFFFFFFFFFFFFFFFFFFFFFFFFFFFFFFFFFFFFFFFFFFFFFFFFFFFFFFFFFFFFFFF DUP3 PUSH2 0x140B JUMP JUMPDEST PUSH2 0x1452 DUP7 DUP4 PUSH2 0x140B JUMP JUMPDEST SWAP6 POP DUP1 NOT DUP5 AND SWAP4 POP DUP1 DUP7 AND DUP5 OR SWAP3 POP POP POP SWAP4 SWAP3 POP POP POP JUMP JUMPDEST PUSH1 0x0 DUP2 SWAP1 POP SWAP2 SWAP1 POP JUMP JUMPDEST PUSH1 0x0 PUSH2 0x148F PUSH2 0x148A PUSH2 0x1485 DUP5 PUSH2 0xA35 JUMP JUMPDEST PUSH2 0x146A JUMP JUMPDEST PUSH2 0xA35 JUMP JUMPDEST SWAP1 POP SWAP2 SWAP1 POP JUMP JUMPDEST PUSH1 0x0 DUP2 SWAP1 POP SWAP2 SWAP1 POP JUMP JUMPDEST PUSH2 0x14A9 DUP4 PUSH2 0x1474 JUMP JUMPDEST PUSH2 0x14BD PUSH2 0x14B5 DUP3 PUSH2 0x1496 JUMP JUMPDEST DUP5 DUP5 SLOAD PUSH2 0x1418 JUMP JUMPDEST DUP3 SSTORE POP POP POP POP JUMP JUMPDEST PUSH1 0x0 SWAP1 JUMP JUMPDEST PUSH2 0x14D2 PUSH2 0x14C5 JUMP JUMPDEST PUSH2 0x14DD DUP2 DUP5 DUP5 PUSH2 0x14A0 JUMP JUMPDEST POP POP POP JUMP JUMPDEST JUMPDEST DUP2 DUP2 LT ISZERO PUSH2 0x1501 JUMPI PUSH2 0x14F6 PUSH1 0x0 DUP3 PUSH2 0x14CA JUMP JUMPDEST PUSH1 0x1 DUP2 ADD SWAP1 POP PUSH2 0x14E3 JUMP JUMPDEST POP POP JUMP JUMPDEST PUSH1 0x1F DUP3 GT ISZERO PUSH2 0x1546 JUMPI PUSH2 0x1517 DUP2 PUSH2 0x13E6 JUMP JUMPDEST PUSH2 0x1520 DUP5 PUSH2 0x13FB JUMP JUMPDEST DUP2 ADD PUSH1 0x20 DUP6 LT ISZERO PUSH2 0x152F JUMPI DUP2 SWAP1 POP JUMPDEST PUSH2 0x1543 PUSH2 0x153B DUP6 PUSH2 0x13FB JUMP JUMPDEST DUP4 ADD DUP3 PUSH2 0x14E2 JUMP JUMPDEST POP POP JUMPDEST POP POP POP JUMP JUMPDEST PUSH1 0x0 DUP3 DUP3 SHR SWAP1 POP SWAP3 SWAP2 POP POP JUMP JUMPDEST PUSH1 0x0 PUSH2 0x1569 PUSH1 0x0 NOT DUP5 PUSH1 0x8 MUL PUSH2 0x154B JUMP JUMPDEST NOT DUP1 DUP4 AND SWAP2 POP POP SWAP3 SWAP2 POP POP JUMP JUMPDEST PUSH1 0x0 PUSH2 0x1582 DUP4 DUP4 PUSH2 0x1558 JUMP JUMPDEST SWAP2 POP DUP3 PUSH1 0x2 MUL DUP3 OR SWAP1 POP SWAP3 SWAP2 POP POP JUMP JUMPDEST PUSH2 0x159B DUP3 PUSH2 0xD20 JUMP JUMPDEST PUSH8 0xFFFFFFFFFFFFFFFF DUP2 GT ISZERO PUSH2 0x15B4 JUMPI PUSH2 0x15B3 PUSH2 0xA81 JUMP JUMPDEST JUMPDEST PUSH2 0x15BE DUP3 SLOAD PUSH2 0x13B5 JUMP JUMPDEST PUSH2 0x15C9 DUP3 DUP3 DUP6 PUSH2 0x1505 JUMP JUMPDEST PUSH1 0x0 PUSH1 0x20 SWAP1 POP PUSH1 0x1F DUP4 GT PUSH1 0x1 DUP2 EQ PUSH2 0x15FC JUMPI PUSH1 0x0 DUP5 ISZERO PUSH2 0x15EA JUMPI DUP3 DUP8 ADD MLOAD SWAP1 POP JUMPDEST PUSH2 0x15F4 DUP6 DUP3 PUSH2 0x1576 JUMP JUMPDEST DUP7 SSTORE POP PUSH2 0x165C JUMP JUMPDEST PUSH1 0x1F NOT DUP5 AND PUSH2 0x160A DUP7 PUSH2 0x13E6 JUMP JUMPDEST PUSH1 0x0 JUMPDEST DUP3 DUP2 LT ISZERO PUSH2 0x1632 JUMPI DUP5 DUP10 ADD MLOAD DUP3 SSTORE PUSH1 0x1 DUP3 ADD SWAP2 POP PUSH1 0x20 DUP6 ADD SWAP5 POP PUSH1 0x20 DUP2 ADD SWAP1 POP PUSH2 0x160D JUMP JUMPDEST DUP7 DUP4 LT ISZERO PUSH2 0x164F JUMPI DUP5 DUP10 ADD MLOAD PUSH2 0x164B PUSH1 0x1F DUP10 AND DUP3 PUSH2 0x1558 JUMP JUMPDEST DUP4 SSTORE POP JUMPDEST PUSH1 0x1 PUSH1 0x2 DUP9 MUL ADD DUP9 SSTORE POP POP POP JUMPDEST POP POP POP POP POP POP JUMP JUMPDEST PUSH1 0x0 PUSH2 0x166F DUP3 PUSH2 0xA35 JUMP JUMPDEST SWAP2 POP PUSH32 0xFFFFFFFFFFFFFFFFFFFFFFFFFFFFFFFFFFFFFFFFFFFFFFFFFFFFFFFFFFFFFFFF DUP3 SUB PUSH2 0x16A1 JUMPI PUSH2 0x16A0 PUSH2 0x123C JUMP JUMPDEST JUMPDEST PUSH1 0x1 DUP3 ADD SWAP1 POP SWAP2 SWAP1 POP JUMP JUMPDEST PUSH1 0x0 DUP2 SLOAD PUSH2 0x16B9 DUP2 PUSH2 0x13B5 JUMP JUMPDEST PUSH2 0x16C3 DUP2 DUP7 PUSH2 0xD2B JUMP JUMPDEST SWAP5 POP PUSH1 0x1 DUP3 AND PUSH1 0x0 DUP2 EQ PUSH2 0x16DE JUMPI PUSH1 0x1 DUP2 EQ PUSH2 0x16F4 JUMPI PUSH2 0x1727 JUMP JUMPDEST PUSH1 0xFF NOT DUP4 AND DUP7 MSTORE DUP2 ISZERO ISZERO PUSH1 0x20 MUL DUP7 ADD SWAP4 POP PUSH2 0x1727 JUMP JUMPDEST PUSH2 0x16FD DUP6 PUSH2 0x13E6 JUMP JUMPDEST PUSH1 0x0 JUMPDEST DUP4 DUP2 LT ISZERO PUSH2 0x171F JUMPI DUP2 SLOAD DUP2 DUP10 ADD MSTORE PUSH1 0x1 DUP3 ADD SWAP2 POP PUSH1 0x20 DUP2 ADD SWAP1 POP PUSH2 0x1700 JUMP JUMPDEST DUP1 DUP9 ADD SWAP6 POP POP POP JUMPDEST POP POP POP SWAP3 SWAP2 POP POP JUMP JUMPDEST PUSH1 0x0 PUSH1 0xA0 DUP3 ADD SWAP1 POP DUP2 DUP2 SUB PUSH1 0x0 DUP4 ADD MSTORE PUSH2 0x174A DUP2 DUP9 PUSH2 0xE4E JUMP JUMPDEST SWAP1 POP PUSH2 0x1759 PUSH1 0x20 DUP4 ADD DUP8 PUSH2 0xDA8 JUMP JUMPDEST PUSH2 0x1766 PUSH1 0x40 DUP4 ADD DUP7 PUSH2 0xF3A JUMP JUMPDEST DUP2 DUP2 SUB PUSH1 0x60 DUP4 ADD MSTORE PUSH2 0x1778 DUP2 DUP6 PUSH2 0x16AC JUMP JUMPDEST SWAP1 POP DUP2 DUP2 SUB PUSH1 0x80 DUP4 ADD MSTORE PUSH2 0x178C DUP2 DUP5 PUSH2 0x16AC JUMP JUMPDEST SWAP1 POP SWAP7 SWAP6 POP POP POP POP POP POP JUMP JUMPDEST PUSH32 0x4F6E6C79206F776E6572206F6620736D61727420636F6E74726163742063616E PUSH1 0x0 DUP3 ADD MSTORE PUSH32 0x207075742075702072656E74616C730000000000000000000000000000000000 PUSH1 0x20 DUP3 ADD MSTORE POP JUMP JUMPDEST PUSH1 0x0 PUSH2 0x17F4 PUSH1 0x2F DUP4 PUSH2 0xD2B JUMP JUMPDEST SWAP2 POP PUSH2 0x17FF DUP3 PUSH2 0x1798 JUMP JUMPDEST PUSH1 0x40 DUP3 ADD SWAP1 POP SWAP2 SWAP1 POP JUMP JUMPDEST PUSH1 0x0 PUSH1 0x20 DUP3 ADD SWAP1 POP DUP2 DUP2 SUB PUSH1 0x0 DUP4 ADD MSTORE PUSH2 0x1823 DUP2 PUSH2 0x17E7 JUMP JUMPDEST SWAP1 POP SWAP2 SWAP1 POP JUMP JUMPDEST PUSH1 0x0 PUSH2 0x180 DUP3 ADD SWAP1 POP DUP2 DUP2 SUB PUSH1 0x0 DUP4 ADD MSTORE PUSH2 0x1845 DUP2 DUP16 PUSH2 0xD6F JUMP JUMPDEST SWAP1 POP DUP2 DUP2 SUB PUSH1 0x20 DUP4 ADD MSTORE PUSH2 0x1859 DUP2 DUP15 PUSH2 0xD6F JUMP JUMPDEST SWAP1 POP DUP2 DUP2 SUB PUSH1 0x40 DUP4 ADD MSTORE PUSH2 0x186D DUP2 DUP14 PUSH2 0xD6F JUMP JUMPDEST SWAP1 POP DUP2 DUP2 SUB PUSH1 0x60 DUP4 ADD MSTORE PUSH2 0x1881 DUP2 DUP13 PUSH2 0xD6F JUMP JUMPDEST SWAP1 POP DUP2 DUP2 SUB PUSH1 0x80 DUP4 ADD MSTORE PUSH2 0x1895 DUP2 DUP12 PUSH2 0xD6F JUMP JUMPDEST SWAP1 POP DUP2 DUP2 SUB PUSH1 0xA0 DUP4 ADD MSTORE PUSH2 0x18A9 DUP2 DUP11 PUSH2 0xD6F JUMP JUMPDEST SWAP1 POP DUP2 DUP2 SUB PUSH1 0xC0 DUP4 ADD MSTORE PUSH2 0x18BD DUP2 DUP10 PUSH2 0xD6F JUMP JUMPDEST SWAP1 POP PUSH2 0x18CC PUSH1 0xE0 DUP4 ADD DUP9 PUSH2 0xDA8 JUMP JUMPDEST PUSH2 0x18DA PUSH2 0x100 DUP4 ADD DUP8 PUSH2 0xDA8 JUMP JUMPDEST DUP2 DUP2 SUB PUSH2 0x120 DUP4 ADD MSTORE PUSH2 0x18ED DUP2 DUP7 PUSH2 0xE4E JUMP JUMPDEST SWAP1 POP PUSH2 0x18FD PUSH2 0x140 DUP4 ADD DUP6 PUSH2 0xDA8 JUMP JUMPDEST PUSH2 0x190B PUSH2 0x160 DUP4 ADD DUP5 PUSH2 0xF3A JUMP JUMPDEST SWAP14 SWAP13 POP POP POP POP POP POP POP POP POP POP POP POP POP JUMP JUMPDEST PUSH1 0x0 DUP2 SWAP1 POP SWAP3 SWAP2 POP POP JUMP JUMPDEST PUSH1 0x0 PUSH2 0x1932 DUP3 PUSH2 0xD20 JUMP JUMPDEST PUSH2 0x193C DUP2 DUP6 PUSH2 0x191C JUMP JUMPDEST SWAP4 POP PUSH2 0x194C DUP2 DUP6 PUSH1 0x20 DUP7 ADD PUSH2 0xD3C JUMP JUMPDEST DUP1 DUP5 ADD SWAP2 POP POP SWAP3 SWAP2 POP POP JUMP JUMPDEST PUSH1 0x0 PUSH2 0x1964 DUP3 DUP5 PUSH2 0x1927 JUMP JUMPDEST SWAP2 POP DUP2 SWAP1 POP SWAP3 SWAP2 POP POP JUMP JUMPDEST PUSH1 0x0 DUP2 SLOAD PUSH2 0x197C DUP2 PUSH2 0x13B5 JUMP JUMPDEST PUSH2 0x1986 DUP2 DUP7 PUSH2 0x191C JUMP JUMPDEST SWAP5 POP PUSH1 0x1 DUP3 AND PUSH1 0x0 DUP2 EQ PUSH2 0x19A1 JUMPI PUSH1 0x1 DUP2 EQ PUSH2 0x19B6 JUMPI PUSH2 0x19E9 JUMP JUMPDEST PUSH1 0xFF NOT DUP4 AND DUP7 MSTORE DUP2 ISZERO ISZERO DUP3 MUL DUP7 ADD SWAP4 POP PUSH2 0x19E9 JUMP JUMPDEST PUSH2 0x19BF DUP6 PUSH2 0x13E6 JUMP JUMPDEST PUSH1 0x0 JUMPDEST DUP4 DUP2 LT ISZERO PUSH2 0x19E1 JUMPI DUP2 SLOAD DUP2 DUP10 ADD MSTORE PUSH1 0x1 DUP3 ADD SWAP2 POP PUSH1 0x20 DUP2 ADD SWAP1 POP PUSH2 0x19C2 JUMP JUMPDEST DUP4 DUP9 ADD SWAP6 POP POP POP JUMPDEST POP POP POP SWAP3 SWAP2 POP POP JUMP JUMPDEST PUSH1 0x0 PUSH2 0x19FE DUP3 DUP5 PUSH2 0x196F JUMP JUMPDEST SWAP2 POP DUP2 SWAP1 POP SWAP3 SWAP2 POP POP JUMP INVALID LOG2 PUSH5 0x6970667358 0x22 SLT KECCAK256 SWAP3 GAS DUP5 0xCA SWAP13 CALL PUSH19 0x714FEB4ED8E6F03727F80178F548B25E51B7CD PUSH12 0x4729CFFC5364736F6C634300 ADDMOD 0xF STOP CALLER "
				},
				"gasEstimates": {
					"creation": {
						"codeDepositCost": "1343800",
						"executionCost": "30677",
						"totalCost": "1374477"
					},
					"external": {
						"addDatesBooked(uint256,string[])": "infinite",
						"addRentals(string,string,string,string,string,string,string,uint256,uint256,string[])": "infinite",
						"getRental(uint256)": "infinite",
						"owner()": "2533",
						"rentalIds(uint256)": "infinite"
					},
					"internal": {
						"checkBookings(uint256,string memory[] memory)": "infinite"
					}
				},
				"methodIdentifiers": {
					"addDatesBooked(uint256,string[])": "2a23bb72",
					"addRentals(string,string,string,string,string,string,string,uint256,uint256,string[])": "deb38e79",
					"getRental(uint256)": "652bd29e",
					"owner()": "8da5cb5b",
					"rentalIds(uint256)": "ebfa74c9"
				}
			},
			"storageLayout": {
				"storage": [
					{
						"astId": 3,
						"contract": "AIRBNB.sol:airbnb",
						"label": "owner",
						"offset": 0,
						"slot": "0",
						"type": "t_address"
					},
					{
						"astId": 5,
						"contract": "AIRBNB.sol:airbnb",
						"label": "counter",
						"offset": 0,
						"slot": "1",
						"type": "t_uint256"
					},
					{
						"astId": 89,
						"contract": "AIRBNB.sol:airbnb",
						"label": "rentals",
						"offset": 0,
						"slot": "2",
						"type": "t_mapping(t_uint256,t_struct(rentalInfo)44_storage)"
					},
					{
						"astId": 92,
						"contract": "AIRBNB.sol:airbnb",
						"label": "rentalIds",
						"offset": 0,
						"slot": "3",
						"type": "t_array(t_uint256)dyn_storage"
					}
				],
				"types": {
					"t_address": {
						"encoding": "inplace",
						"label": "address",
						"numberOfBytes": "20"
					},
					"t_array(t_string_storage)dyn_storage": {
						"base": "t_string_storage",
						"encoding": "dynamic_array",
						"label": "string[]",
						"numberOfBytes": "32"
					},
					"t_array(t_uint256)dyn_storage": {
						"base": "t_uint256",
						"encoding": "dynamic_array",
						"label": "uint256[]",
						"numberOfBytes": "32"
					},
					"t_mapping(t_uint256,t_struct(rentalInfo)44_storage)": {
						"encoding": "mapping",
						"key": "t_uint256",
						"label": "mapping(uint256 => struct airbnb.rentalInfo)",
						"numberOfBytes": "32",
						"value": "t_struct(rentalInfo)44_storage"
					},
					"t_string_storage": {
						"encoding": "bytes",
						"label": "string",
						"numberOfBytes": "32"
					},
					"t_struct(rentalInfo)44_storage": {
						"encoding": "inplace",
						"label": "struct airbnb.rentalInfo",
						"members": [
							{
								"astId": 20,
								"contract": "AIRBNB.sol:airbnb",
								"label": "name",
								"offset": 0,
								"slot": "0",
								"type": "t_string_storage"
							},
							{
								"astId": 22,
								"contract": "AIRBNB.sol:airbnb",
								"label": "city",
								"offset": 0,
								"slot": "1",
								"type": "t_string_storage"
							},
							{
								"astId": 24,
								"contract": "AIRBNB.sol:airbnb",
								"label": "lat",
								"offset": 0,
								"slot": "2",
								"type": "t_string_storage"
							},
							{
								"astId": 26,
								"contract": "AIRBNB.sol:airbnb",
								"label": "long",
								"offset": 0,
								"slot": "3",
								"type": "t_string_storage"
							},
							{
								"astId": 28,
								"contract": "AIRBNB.sol:airbnb",
								"label": "unoDescription",
								"offset": 0,
								"slot": "4",
								"type": "t_string_storage"
							},
							{
								"astId": 30,
								"contract": "AIRBNB.sol:airbnb",
								"label": "dosDescription",
								"offset": 0,
								"slot": "5",
								"type": "t_string_storage"
							},
							{
								"astId": 32,
								"contract": "AIRBNB.sol:airbnb",
								"label": "imgUrl",
								"offset": 0,
								"slot": "6",
								"type": "t_string_storage"
							},
							{
								"astId": 34,
								"contract": "AIRBNB.sol:airbnb",
								"label": "maxGuests",
								"offset": 0,
								"slot": "7",
								"type": "t_uint256"
							},
							{
								"astId": 36,
								"contract": "AIRBNB.sol:airbnb",
								"label": "pricePerDay",
								"offset": 0,
								"slot": "8",
								"type": "t_uint256"
							},
							{
								"astId": 39,
								"contract": "AIRBNB.sol:airbnb",
								"label": "datesBooked",
								"offset": 0,
								"slot": "9",
								"type": "t_array(t_string_storage)dyn_storage"
							},
							{
								"astId": 41,
								"contract": "AIRBNB.sol:airbnb",
								"label": "id",
								"offset": 0,
								"slot": "10",
								"type": "t_uint256"
							},
							{
								"astId": 43,
								"contract": "AIRBNB.sol:airbnb",
								"label": "renter",
								"offset": 0,
								"slot": "11",
								"type": "t_address"
							}
						],
						"numberOfBytes": "384"
					},
					"t_uint256": {
						"encoding": "inplace",
						"label": "uint256",
						"numberOfBytes": "32"
					}
				}
			},
			"userdoc": {
				"kind": "user",
				"methods": {},
				"version": 1
			}
		}
	}
}