{
	"AIRBNB.sol": {
		"airbnb": {
			"abi": [
				{
					"inputs": [],
					"stateMutability": "nonpayable",
					"type": "constructor"
				},
				{
					"anonymous": false,
					"inputs": [
						{
							"indexed": false,
							"internalType": "string[]",
							"name": "datesBooked",
							"type": "string[]"
						},
						{
							"indexed": false,
							"internalType": "uint256",
							"name": "id",
							"type": "uint256"
						},
						{
							"indexed": false,
							"internalType": "address",
							"name": "booker",
							"type": "address"
						},
						{
							"indexed": false,
							"internalType": "string",
							"name": "city",
							"type": "string"
						},
						{
							"indexed": false,
							"internalType": "string",
							"name": "imgUrl",
							"type": "string"
						}
					],
					"name": "newDatesBooked",
					"type": "event"
				},
				{
					"anonymous": false,
					"inputs": [
						{
							"indexed": false,
							"internalType": "string",
							"name": "name",
							"type": "string"
						},
						{
							"indexed": false,
							"internalType": "string",
							"name": "city",
							"type": "string"
						},
						{
							"indexed": false,
							"internalType": "string",
							"name": "lat",
							"type": "string"
						},
						{
							"indexed": false,
							"internalType": "string",
							"name": "long",
							"type": "string"
						},
						{
							"indexed": false,
							"internalType": "string",
							"name": "unoDescription",
							"type": "string"
						},
						{
							"indexed": false,
							"internalType": "string",
							"name": "dosDescription",
							"type": "string"
						},
						{
							"indexed": false,
							"internalType": "string",
							"name": "imgUrl",
							"type": "string"
						},
						{
							"indexed": false,
							"internalType": "uint256",
							"name": "maxGuests",
							"type": "uint256"
						},
						{
							"indexed": false,
							"internalType": "uint256",
							"name": "pricePerDay",
							"type": "uint256"
						},
						{
							"indexed": false,
							"internalType": "string[]",
							"name": "datesBooked",
							"type": "string[]"
						},
						{
							"indexed": false,
							"internalType": "uint256",
							"name": "id",
							"type": "uint256"
						},
						{
							"indexed": false,
							"internalType": "address",
							"name": "renter",
							"type": "address"
						}
					],
					"name": "rentalCreated",
					"type": "event"
				},
				{
					"inputs": [
						{
							"internalType": "uint256",
							"name": "id",
							"type": "uint256"
						},
						{
							"internalType": "string[]",
							"name": "newBookings",
							"type": "string[]"
						}
					],
					"name": "addDatesBooked",
					"outputs": [],
					"stateMutability": "payable",
					"type": "function"
				},
				{
					"inputs": [
						{
							"internalType": "string",
							"name": "name",
							"type": "string"
						},
						{
							"internalType": "string",
							"name": "city",
							"type": "string"
						},
						{
							"internalType": "string",
							"name": "lat",
							"type": "string"
						},
						{
							"internalType": "string",
							"name": "long",
							"type": "string"
						},
						{
							"internalType": "string",
							"name": "unoDescription",
							"type": "string"
						},
						{
							"internalType": "string",
							"name": "dosDescription",
							"type": "string"
						},
						{
							"internalType": "string",
							"name": "imgUrl",
							"type": "string"
						},
						{
							"internalType": "uint256",
							"name": "maxGuests",
							"type": "uint256"
						},
						{
							"internalType": "uint256",
							"name": "pricePerDay",
							"type": "uint256"
						},
						{
							"internalType": "string[]",
							"name": "datesBooked",
							"type": "string[]"
						}
					],
					"name": "addRentals",
					"outputs": [],
					"stateMutability": "nonpayable",
					"type": "function"
				},
				{
					"inputs": [
						{
							"internalType": "uint256",
							"name": "id",
							"type": "uint256"
						}
					],
					"name": "getRental",
					"outputs": [
						{
							"internalType": "string",
							"name": "",
							"type": "string"
						},
						{
							"internalType": "uint256",
							"name": "",
							"type": "uint256"
						},
						{
							"internalType": "string[]",
							"name": "",
							"type": "string[]"
						}
					],
					"stateMutability": "view",
					"type": "function"
				},
				{
					"inputs": [],
					"name": "owner",
					"outputs": [
						{
							"internalType": "address",
							"name": "",
							"type": "address"
						}
					],
					"stateMutability": "view",
					"type": "function"
				},
				{
					"inputs": [
						{
							"internalType": "uint256",
							"name": "",
							"type": "uint256"
						}
					],
					"name": "rentalIds",
					"outputs": [
						{
							"internalType": "uint256",
							"name": "",
							"type": "uint256"
						}
					],
					"stateMutability": "view",
					"type": "function"
				}
			],
			"devdoc": {
				"kind": "dev",
				"methods": {},
				"version": 1
			},
			"evm": {
				"assembly": "    /* \"AIRBNB.sol\":60:4011  contract airbnb {\r... */\n  mstore(0x40, 0x80)\n    /* \"AIRBNB.sol\":176:250  constructor() {\r... */\n  callvalue\n  dup1\n  iszero\n  tag_1\n  jumpi\n  0x00\n  dup1\n  revert\ntag_1:\n  pop\n    /* \"AIRBNB.sol\":211:212  0 */\n  0x00\n    /* \"AIRBNB.sol\":201:208  counter */\n  0x01\n    /* \"AIRBNB.sol\":201:212  counter = 0 */\n  dup2\n  swap1\n  sstore\n  pop\n    /* \"AIRBNB.sol\":231:241  msg.sender */\n  caller\n    /* \"AIRBNB.sol\":223:228  owner */\n  0x00\n  dup1\n    /* \"AIRBNB.sol\":223:241  owner = msg.sender */\n  0x0100\n  exp\n  dup2\n  sload\n  dup2\n  0xffffffffffffffffffffffffffffffffffffffff\n  mul\n  not\n  and\n  swap1\n  dup4\n  0xffffffffffffffffffffffffffffffffffffffff\n  and\n  mul\n  or\n  swap1\n  sstore\n  pop\n    /* \"AIRBNB.sol\":60:4011  contract airbnb {\r... */\n  dataSize(sub_0)\n  dup1\n  dataOffset(sub_0)\n  0x00\n  codecopy\n  0x00\n  return\nstop\n\nsub_0: assembly {\n        /* \"AIRBNB.sol\":60:4011  contract airbnb {\r... */\n      mstore(0x40, 0x80)\n      jumpi(tag_1, lt(calldatasize, 0x04))\n      shr(0xe0, calldataload(0x00))\n      dup1\n      0x2a23bb72\n      eq\n      tag_2\n      jumpi\n      dup1\n      0x652bd29e\n      eq\n      tag_3\n      jumpi\n      dup1\n      0x8da5cb5b\n      eq\n      tag_4\n      jumpi\n      dup1\n      0xdeb38e79\n      eq\n      tag_5\n      jumpi\n      dup1\n      0xebfa74c9\n      eq\n      tag_6\n      jumpi\n    tag_1:\n      0x00\n      dup1\n      revert\n        /* \"AIRBNB.sol\":3070:3749  function addDatesBooked(uint256 id, string[] memory newBookings) public payable {\r... */\n    tag_2:\n      tag_7\n      0x04\n      dup1\n      calldatasize\n      sub\n      dup2\n      add\n      swap1\n      tag_8\n      swap2\n      swap1\n      tag_9\n      jump\t// in\n    tag_8:\n      tag_10\n      jump\t// in\n    tag_7:\n      stop\n        /* \"AIRBNB.sol\":3757:4008  function getRental(uint256 id) public view returns (string memory, uint256, string[] memory){\r... */\n    tag_3:\n      callvalue\n      dup1\n      iszero\n      tag_11\n      jumpi\n      0x00\n      dup1\n      revert\n    tag_11:\n      pop\n      tag_12\n      0x04\n      dup1\n      calldatasize\n      sub\n      dup2\n      add\n      swap1\n      tag_13\n      swap2\n      swap1\n      tag_14\n      jump\t// in\n    tag_13:\n      tag_15\n      jump\t// in\n    tag_12:\n      mload(0x40)\n      tag_16\n      swap4\n      swap3\n      swap2\n      swap1\n      tag_17\n      jump\t// in\n    tag_16:\n      mload(0x40)\n      dup1\n      swap2\n      sub\n      swap1\n      return\n        /* \"AIRBNB.sol\":85:105  address public owner */\n    tag_4:\n      callvalue\n      dup1\n      iszero\n      tag_18\n      jumpi\n      0x00\n      dup1\n      revert\n    tag_18:\n      pop\n      tag_19\n      tag_20\n      jump\t// in\n    tag_19:\n      mload(0x40)\n      tag_21\n      swap2\n      swap1\n      tag_22\n      jump\t// in\n    tag_21:\n      mload(0x40)\n      dup1\n      swap2\n      sub\n      swap1\n      return\n        /* \"AIRBNB.sol\":1191:2584  function addRentals(\r... */\n    tag_5:\n      callvalue\n      dup1\n      iszero\n      tag_23\n      jumpi\n      0x00\n      dup1\n      revert\n    tag_23:\n      pop\n      tag_24\n      0x04\n      dup1\n      calldatasize\n      sub\n      dup2\n      add\n      swap1\n      tag_25\n      swap2\n      swap1\n      tag_26\n      jump\t// in\n    tag_25:\n      tag_27\n      jump\t// in\n    tag_24:\n      stop\n        /* \"AIRBNB.sol\":1154:1180  uint256[] public rentalIds */\n    tag_6:\n      callvalue\n      dup1\n      iszero\n      tag_28\n      jumpi\n      0x00\n      dup1\n      revert\n    tag_28:\n      pop\n      tag_29\n      0x04\n      dup1\n      calldatasize\n      sub\n      dup2\n      add\n      swap1\n      tag_30\n      swap2\n      swap1\n      tag_14\n      jump\t// in\n    tag_30:\n      tag_31\n      jump\t// in\n    tag_29:\n      mload(0x40)\n      tag_32\n      swap2\n      swap1\n      tag_33\n      jump\t// in\n    tag_32:\n      mload(0x40)\n      dup1\n      swap2\n      sub\n      swap1\n      return\n        /* \"AIRBNB.sol\":3070:3749  function addDatesBooked(uint256 id, string[] memory newBookings) public payable {\r... */\n    tag_10:\n        /* \"AIRBNB.sol\":3184:3191  counter */\n      sload(0x01)\n        /* \"AIRBNB.sol\":3179:3181  id */\n      dup3\n        /* \"AIRBNB.sol\":3179:3191  id < counter */\n      lt\n        /* \"AIRBNB.sol\":3171:3210  require(id < counter, \"No such Rental\") */\n      tag_35\n      jumpi\n      mload(0x40)\n      0x08c379a000000000000000000000000000000000000000000000000000000000\n      dup2\n      mstore\n      0x04\n      add\n      tag_36\n      swap1\n      tag_37\n      jump\t// in\n    tag_36:\n      mload(0x40)\n      dup1\n      swap2\n      sub\n      swap1\n      revert\n    tag_35:\n        /* \"AIRBNB.sol\":3229:3259  checkBookings(id, newBookings) */\n      tag_38\n        /* \"AIRBNB.sol\":3243:3245  id */\n      dup3\n        /* \"AIRBNB.sol\":3247:3258  newBookings */\n      dup3\n        /* \"AIRBNB.sol\":3229:3242  checkBookings */\n      tag_39\n        /* \"AIRBNB.sol\":3229:3259  checkBookings(id, newBookings) */\n      jump\t// in\n    tag_38:\n        /* \"AIRBNB.sol\":3221:3297  require(checkBookings(id, newBookings), \"Already Booked For Requested Date\") */\n      tag_40\n      jumpi\n      mload(0x40)\n      0x08c379a000000000000000000000000000000000000000000000000000000000\n      dup2\n      mstore\n      0x04\n      add\n      tag_41\n      swap1\n      tag_42\n      jump\t// in\n    tag_41:\n      mload(0x40)\n      dup1\n      swap2\n      sub\n      swap1\n      revert\n    tag_40:\n        /* \"AIRBNB.sol\":3366:3377  newBookings */\n      dup1\n        /* \"AIRBNB.sol\":3366:3384  newBookings.length */\n      mload\n        /* \"AIRBNB.sol\":3356:3363  1 ether */\n      0x0de0b6b3a7640000\n        /* \"AIRBNB.sol\":3330:3337  rentals */\n      0x02\n        /* \"AIRBNB.sol\":3330:3341  rentals[id] */\n      0x00\n        /* \"AIRBNB.sol\":3338:3340  id */\n      dup6\n        /* \"AIRBNB.sol\":3330:3341  rentals[id] */\n      dup2\n      mstore\n      0x20\n      add\n      swap1\n      dup2\n      mstore\n      0x20\n      add\n      0x00\n      keccak256\n        /* \"AIRBNB.sol\":3330:3353  rentals[id].pricePerDay */\n      0x08\n      add\n      sload\n        /* \"AIRBNB.sol\":3330:3363  rentals[id].pricePerDay * 1 ether */\n      tag_43\n      swap2\n      swap1\n      tag_44\n      jump\t// in\n    tag_43:\n        /* \"AIRBNB.sol\":3330:3384  rentals[id].pricePerDay * 1 ether * newBookings.length */\n      tag_45\n      swap2\n      swap1\n      tag_44\n      jump\t// in\n    tag_45:\n        /* \"AIRBNB.sol\":3316:3325  msg.value */\n      callvalue\n        /* \"AIRBNB.sol\":3316:3385  msg.value == (rentals[id].pricePerDay * 1 ether * newBookings.length) */\n      eq\n        /* \"AIRBNB.sol\":3308:3455  require(msg.value == (rentals[id].pricePerDay * 1 ether * newBookings.length) , \"Please submit the asking price in order to complete the purchase\") */\n      tag_46\n      jumpi\n      mload(0x40)\n      0x08c379a000000000000000000000000000000000000000000000000000000000\n      dup2\n      mstore\n      0x04\n      add\n      tag_47\n      swap1\n      tag_48\n      jump\t// in\n    tag_47:\n      mload(0x40)\n      dup1\n      swap2\n      sub\n      swap1\n      revert\n    tag_46:\n        /* \"AIRBNB.sol\":3477:3483  uint i */\n      0x00\n        /* \"AIRBNB.sol\":3472:3589  for (uint i = 0; i < newBookings.length; i++) {\r... */\n    tag_49:\n        /* \"AIRBNB.sol\":3493:3504  newBookings */\n      dup2\n        /* \"AIRBNB.sol\":3493:3511  newBookings.length */\n      mload\n        /* \"AIRBNB.sol\":3489:3490  i */\n      dup2\n        /* \"AIRBNB.sol\":3489:3511  i < newBookings.length */\n      lt\n        /* \"AIRBNB.sol\":3472:3589  for (uint i = 0; i < newBookings.length; i++) {\r... */\n      iszero\n      tag_50\n      jumpi\n        /* \"AIRBNB.sol\":3533:3540  rentals */\n      0x02\n        /* \"AIRBNB.sol\":3533:3544  rentals[id] */\n      0x00\n        /* \"AIRBNB.sol\":3541:3543  id */\n      dup5\n        /* \"AIRBNB.sol\":3533:3544  rentals[id] */\n      dup2\n      mstore\n      0x20\n      add\n      swap1\n      dup2\n      mstore\n      0x20\n      add\n      0x00\n      keccak256\n        /* \"AIRBNB.sol\":3533:3556  rentals[id].datesBooked */\n      0x09\n      add\n        /* \"AIRBNB.sol\":3562:3573  newBookings */\n      dup3\n        /* \"AIRBNB.sol\":3574:3575  i */\n      dup3\n        /* \"AIRBNB.sol\":3562:3576  newBookings[i] */\n      dup2\n      mload\n      dup2\n      lt\n      tag_52\n      jumpi\n      tag_53\n      tag_54\n      jump\t// in\n    tag_53:\n    tag_52:\n      0x20\n      mul\n      0x20\n      add\n      add\n      mload\n        /* \"AIRBNB.sol\":3533:3577  rentals[id].datesBooked.push(newBookings[i]) */\n      swap1\n      dup1\n      0x01\n      dup2\n      sload\n      add\n      dup1\n      dup3\n      sstore\n      dup1\n      swap2\n      pop\n      pop\n      0x01\n      swap1\n      sub\n      swap1\n      0x00\n      mstore\n      keccak256(0x00, 0x20)\n      add\n      0x00\n      swap1\n      swap2\n      swap1\n      swap2\n      swap1\n      swap2\n      pop\n      swap1\n      dup1\n      mload\n      swap1\n      0x20\n      add\n      swap1\n      tag_56\n      swap3\n      swap2\n      swap1\n      tag_57\n      jump\t// in\n    tag_56:\n      pop\n        /* \"AIRBNB.sol\":3513:3516  i++ */\n      dup1\n      dup1\n      tag_58\n      swap1\n      tag_59\n      jump\t// in\n    tag_58:\n      swap2\n      pop\n      pop\n        /* \"AIRBNB.sol\":3472:3589  for (uint i = 0; i < newBookings.length; i++) {\r... */\n      jump(tag_49)\n    tag_50:\n      pop\n        /* \"AIRBNB.sol\":3611:3616  owner */\n      0x00\n      dup1\n      sload\n      swap1\n      0x0100\n      exp\n      swap1\n      div\n      0xffffffffffffffffffffffffffffffffffffffff\n      and\n        /* \"AIRBNB.sol\":3603:3626  payable(owner).transfer */\n      0xffffffffffffffffffffffffffffffffffffffff\n      and\n        /* \"AIRBNB.sol\":3603:3637  payable(owner).transfer(msg.value) */\n      0x08fc\n        /* \"AIRBNB.sol\":3627:3636  msg.value */\n      callvalue\n        /* \"AIRBNB.sol\":3603:3637  payable(owner).transfer(msg.value) */\n      swap1\n      dup2\n      iszero\n      mul\n      swap1\n      mload(0x40)\n      0x00\n      mload(0x40)\n      dup1\n      dup4\n      sub\n      dup2\n      dup6\n      dup9\n      dup9\n      call\n      swap4\n      pop\n      pop\n      pop\n      pop\n      iszero\n      dup1\n      iszero\n      tag_61\n      jumpi\n      returndatasize\n      0x00\n      dup1\n      returndatacopy\n      revert(0x00, returndatasize)\n    tag_61:\n      pop\n        /* \"AIRBNB.sol\":3653:3735  newDatesBooked(newBookings, id, msg.sender, rentals[id].city,  rentals[id].imgUrl) */\n      0xdfcc683ac35013d595a2db07bcb6601a1bbc6c91dad13117fd60299c875c61b4\n        /* \"AIRBNB.sol\":3668:3679  newBookings */\n      dup2\n        /* \"AIRBNB.sol\":3681:3683  id */\n      dup4\n        /* \"AIRBNB.sol\":3685:3695  msg.sender */\n      caller\n        /* \"AIRBNB.sol\":3697:3704  rentals */\n      0x02\n        /* \"AIRBNB.sol\":3697:3708  rentals[id] */\n      0x00\n        /* \"AIRBNB.sol\":3705:3707  id */\n      dup8\n        /* \"AIRBNB.sol\":3697:3708  rentals[id] */\n      dup2\n      mstore\n      0x20\n      add\n      swap1\n      dup2\n      mstore\n      0x20\n      add\n      0x00\n      keccak256\n        /* \"AIRBNB.sol\":3697:3713  rentals[id].city */\n      0x01\n      add\n        /* \"AIRBNB.sol\":3716:3723  rentals */\n      0x02\n        /* \"AIRBNB.sol\":3716:3727  rentals[id] */\n      0x00\n        /* \"AIRBNB.sol\":3724:3726  id */\n      dup9\n        /* \"AIRBNB.sol\":3716:3727  rentals[id] */\n      dup2\n      mstore\n      0x20\n      add\n      swap1\n      dup2\n      mstore\n      0x20\n      add\n      0x00\n      keccak256\n        /* \"AIRBNB.sol\":3716:3734  rentals[id].imgUrl */\n      0x06\n      add\n        /* \"AIRBNB.sol\":3653:3735  newDatesBooked(newBookings, id, msg.sender, rentals[id].city,  rentals[id].imgUrl) */\n      mload(0x40)\n      tag_62\n      swap6\n      swap5\n      swap4\n      swap3\n      swap2\n      swap1\n      tag_63\n      jump\t// in\n    tag_62:\n      mload(0x40)\n      dup1\n      swap2\n      sub\n      swap1\n      log1\n        /* \"AIRBNB.sol\":3070:3749  function addDatesBooked(uint256 id, string[] memory newBookings) public payable {\r... */\n      pop\n      pop\n      jump\t// out\n        /* \"AIRBNB.sol\":3757:4008  function getRental(uint256 id) public view returns (string memory, uint256, string[] memory){\r... */\n    tag_15:\n        /* \"AIRBNB.sol\":3809:3822  string memory */\n      0x60\n        /* \"AIRBNB.sol\":3824:3831  uint256 */\n      0x00\n        /* \"AIRBNB.sol\":3833:3848  string[] memory */\n      0x60\n        /* \"AIRBNB.sol\":3873:3880  counter */\n      sload(0x01)\n        /* \"AIRBNB.sol\":3868:3870  id */\n      dup5\n        /* \"AIRBNB.sol\":3868:3880  id < counter */\n      lt\n        /* \"AIRBNB.sol\":3860:3899  require(id < counter, \"No such Rental\") */\n      tag_65\n      jumpi\n      mload(0x40)\n      0x08c379a000000000000000000000000000000000000000000000000000000000\n      dup2\n      mstore\n      0x04\n      add\n      tag_66\n      swap1\n      tag_37\n      jump\t// in\n    tag_66:\n      mload(0x40)\n      dup1\n      swap2\n      sub\n      swap1\n      revert\n    tag_65:\n        /* \"AIRBNB.sol\":3912:3932  rentalInfo storage s */\n      0x00\n        /* \"AIRBNB.sol\":3935:3942  rentals */\n      0x02\n        /* \"AIRBNB.sol\":3935:3946  rentals[id] */\n      0x00\n        /* \"AIRBNB.sol\":3943:3945  id */\n      dup7\n        /* \"AIRBNB.sol\":3935:3946  rentals[id] */\n      dup2\n      mstore\n      0x20\n      add\n      swap1\n      dup2\n      mstore\n      0x20\n      add\n      0x00\n      keccak256\n        /* \"AIRBNB.sol\":3912:3946  rentalInfo storage s = rentals[id] */\n      swap1\n      pop\n        /* \"AIRBNB.sol\":3965:3966  s */\n      dup1\n        /* \"AIRBNB.sol\":3965:3971  s.name */\n      0x00\n      add\n        /* \"AIRBNB.sol\":3972:3973  s */\n      dup2\n        /* \"AIRBNB.sol\":3972:3985  s.pricePerDay */\n      0x08\n      add\n      sload\n        /* \"AIRBNB.sol\":3986:3987  s */\n      dup3\n        /* \"AIRBNB.sol\":3986:3999  s.datesBooked */\n      0x09\n      add\n        /* \"AIRBNB.sol\":3957:4000  return (s.name,s.pricePerDay,s.datesBooked) */\n      dup3\n      dup1\n      sload\n      tag_67\n      swap1\n      tag_68\n      jump\t// in\n    tag_67:\n      dup1\n      0x1f\n      add\n      0x20\n      dup1\n      swap2\n      div\n      mul\n      0x20\n      add\n      mload(0x40)\n      swap1\n      dup2\n      add\n      0x40\n      mstore\n      dup1\n      swap3\n      swap2\n      swap1\n      dup2\n      dup2\n      mstore\n      0x20\n      add\n      dup3\n      dup1\n      sload\n      tag_69\n      swap1\n      tag_68\n      jump\t// in\n    tag_69:\n      dup1\n      iszero\n      tag_70\n      jumpi\n      dup1\n      0x1f\n      lt\n      tag_71\n      jumpi\n      0x0100\n      dup1\n      dup4\n      sload\n      div\n      mul\n      dup4\n      mstore\n      swap2\n      0x20\n      add\n      swap2\n      jump(tag_70)\n    tag_71:\n      dup3\n      add\n      swap2\n      swap1\n      0x00\n      mstore\n      keccak256(0x00, 0x20)\n      swap1\n    tag_72:\n      dup2\n      sload\n      dup2\n      mstore\n      swap1\n      0x01\n      add\n      swap1\n      0x20\n      add\n      dup1\n      dup4\n      gt\n      tag_72\n      jumpi\n      dup3\n      swap1\n      sub\n      0x1f\n      and\n      dup3\n      add\n      swap2\n    tag_70:\n      pop\n      pop\n      pop\n      pop\n      pop\n      swap3\n      pop\n      dup1\n      dup1\n      sload\n      dup1\n      0x20\n      mul\n      0x20\n      add\n      mload(0x40)\n      swap1\n      dup2\n      add\n      0x40\n      mstore\n      dup1\n      swap3\n      swap2\n      swap1\n      dup2\n      dup2\n      mstore\n      0x20\n      add\n      0x00\n      swap1\n    tag_73:\n      dup3\n      dup3\n      lt\n      iszero\n      tag_74\n      jumpi\n      dup4\n      dup3\n      swap1\n      0x00\n      mstore\n      keccak256(0x00, 0x20)\n      add\n      dup1\n      sload\n      tag_76\n      swap1\n      tag_68\n      jump\t// in\n    tag_76:\n      dup1\n      0x1f\n      add\n      0x20\n      dup1\n      swap2\n      div\n      mul\n      0x20\n      add\n      mload(0x40)\n      swap1\n      dup2\n      add\n      0x40\n      mstore\n      dup1\n      swap3\n      swap2\n      swap1\n      dup2\n      dup2\n      mstore\n      0x20\n      add\n      dup3\n      dup1\n      sload\n      tag_77\n      swap1\n      tag_68\n      jump\t// in\n    tag_77:\n      dup1\n      iszero\n      tag_78\n      jumpi\n      dup1\n      0x1f\n      lt\n      tag_79\n      jumpi\n      0x0100\n      dup1\n      dup4\n      sload\n      div\n      mul\n      dup4\n      mstore\n      swap2\n      0x20\n      add\n      swap2\n      jump(tag_78)\n    tag_79:\n      dup3\n      add\n      swap2\n      swap1\n      0x00\n      mstore\n      keccak256(0x00, 0x20)\n      swap1\n    tag_80:\n      dup2\n      sload\n      dup2\n      mstore\n      swap1\n      0x01\n      add\n      swap1\n      0x20\n      add\n      dup1\n      dup4\n      gt\n      tag_80\n      jumpi\n      dup3\n      swap1\n      sub\n      0x1f\n      and\n      dup3\n      add\n      swap2\n    tag_78:\n      pop\n      pop\n      pop\n      pop\n      pop\n      dup2\n      mstore\n      0x20\n      add\n      swap1\n      0x01\n      add\n      swap1\n      jump(tag_73)\n    tag_74:\n      pop\n      pop\n      pop\n      pop\n      swap1\n      pop\n      swap4\n      pop\n      swap4\n      pop\n      swap4\n      pop\n      pop\n        /* \"AIRBNB.sol\":3757:4008  function getRental(uint256 id) public view returns (string memory, uint256, string[] memory){\r... */\n      swap2\n      swap4\n      swap1\n      swap3\n      pop\n      jump\t// out\n        /* \"AIRBNB.sol\":85:105  address public owner */\n    tag_20:\n      0x00\n      dup1\n      sload\n      swap1\n      0x0100\n      exp\n      swap1\n      div\n      0xffffffffffffffffffffffffffffffffffffffff\n      and\n      dup2\n      jump\t// out\n        /* \"AIRBNB.sol\":1191:2584  function addRentals(\r... */\n    tag_27:\n        /* \"AIRBNB.sol\":1578:1583  owner */\n      0x00\n      dup1\n      sload\n      swap1\n      0x0100\n      exp\n      swap1\n      div\n      0xffffffffffffffffffffffffffffffffffffffff\n      and\n        /* \"AIRBNB.sol\":1564:1583  msg.sender == owner */\n      0xffffffffffffffffffffffffffffffffffffffff\n      and\n        /* \"AIRBNB.sol\":1564:1574  msg.sender */\n      caller\n        /* \"AIRBNB.sol\":1564:1583  msg.sender == owner */\n      0xffffffffffffffffffffffffffffffffffffffff\n      and\n      eq\n        /* \"AIRBNB.sol\":1556:1635  require(msg.sender == owner, \"Only owner of smart contract can put up rentals\") */\n      tag_82\n      jumpi\n      mload(0x40)\n      0x08c379a000000000000000000000000000000000000000000000000000000000\n      dup2\n      mstore\n      0x04\n      add\n      tag_83\n      swap1\n      tag_84\n      jump\t// in\n    tag_83:\n      mload(0x40)\n      dup1\n      swap2\n      sub\n      swap1\n      revert\n    tag_82:\n        /* \"AIRBNB.sol\":1646:1674  rentalInfo storage newRental */\n      0x00\n        /* \"AIRBNB.sol\":1677:1684  rentals */\n      0x02\n        /* \"AIRBNB.sol\":1677:1693  rentals[counter] */\n      0x00\n        /* \"AIRBNB.sol\":1685:1692  counter */\n      sload(0x01)\n        /* \"AIRBNB.sol\":1677:1693  rentals[counter] */\n      dup2\n      mstore\n      0x20\n      add\n      swap1\n      dup2\n      mstore\n      0x20\n      add\n      0x00\n      keccak256\n        /* \"AIRBNB.sol\":1646:1693  rentalInfo storage newRental = rentals[counter] */\n      swap1\n      pop\n        /* \"AIRBNB.sol\":1721:1725  name */\n      dup11\n        /* \"AIRBNB.sol\":1704:1713  newRental */\n      dup2\n        /* \"AIRBNB.sol\":1704:1718  newRental.name */\n      0x00\n      add\n        /* \"AIRBNB.sol\":1704:1725  newRental.name = name */\n      swap1\n      dup1\n      mload\n      swap1\n      0x20\n      add\n      swap1\n      tag_85\n      swap3\n      swap2\n      swap1\n      tag_57\n      jump\t// in\n    tag_85:\n      pop\n        /* \"AIRBNB.sol\":1753:1757  city */\n      dup10\n        /* \"AIRBNB.sol\":1736:1745  newRental */\n      dup2\n        /* \"AIRBNB.sol\":1736:1750  newRental.city */\n      0x01\n      add\n        /* \"AIRBNB.sol\":1736:1757  newRental.city = city */\n      swap1\n      dup1\n      mload\n      swap1\n      0x20\n      add\n      swap1\n      tag_86\n      swap3\n      swap2\n      swap1\n      tag_57\n      jump\t// in\n    tag_86:\n      pop\n        /* \"AIRBNB.sol\":1784:1787  lat */\n      dup9\n        /* \"AIRBNB.sol\":1768:1777  newRental */\n      dup2\n        /* \"AIRBNB.sol\":1768:1781  newRental.lat */\n      0x02\n      add\n        /* \"AIRBNB.sol\":1768:1787  newRental.lat = lat */\n      swap1\n      dup1\n      mload\n      swap1\n      0x20\n      add\n      swap1\n      tag_87\n      swap3\n      swap2\n      swap1\n      tag_57\n      jump\t// in\n    tag_87:\n      pop\n        /* \"AIRBNB.sol\":1815:1819  long */\n      dup8\n        /* \"AIRBNB.sol\":1798:1807  newRental */\n      dup2\n        /* \"AIRBNB.sol\":1798:1812  newRental.long */\n      0x03\n      add\n        /* \"AIRBNB.sol\":1798:1819  newRental.long = long */\n      swap1\n      dup1\n      mload\n      swap1\n      0x20\n      add\n      swap1\n      tag_88\n      swap3\n      swap2\n      swap1\n      tag_57\n      jump\t// in\n    tag_88:\n      pop\n        /* \"AIRBNB.sol\":1857:1871  unoDescription */\n      dup7\n        /* \"AIRBNB.sol\":1830:1839  newRental */\n      dup2\n        /* \"AIRBNB.sol\":1830:1854  newRental.unoDescription */\n      0x04\n      add\n        /* \"AIRBNB.sol\":1830:1871  newRental.unoDescription = unoDescription */\n      swap1\n      dup1\n      mload\n      swap1\n      0x20\n      add\n      swap1\n      tag_89\n      swap3\n      swap2\n      swap1\n      tag_57\n      jump\t// in\n    tag_89:\n      pop\n        /* \"AIRBNB.sol\":1909:1923  dosDescription */\n      dup6\n        /* \"AIRBNB.sol\":1882:1891  newRental */\n      dup2\n        /* \"AIRBNB.sol\":1882:1906  newRental.dosDescription */\n      0x05\n      add\n        /* \"AIRBNB.sol\":1882:1923  newRental.dosDescription = dosDescription */\n      swap1\n      dup1\n      mload\n      swap1\n      0x20\n      add\n      swap1\n      tag_90\n      swap3\n      swap2\n      swap1\n      tag_57\n      jump\t// in\n    tag_90:\n      pop\n        /* \"AIRBNB.sol\":1953:1959  imgUrl */\n      dup5\n        /* \"AIRBNB.sol\":1934:1943  newRental */\n      dup2\n        /* \"AIRBNB.sol\":1934:1950  newRental.imgUrl */\n      0x06\n      add\n        /* \"AIRBNB.sol\":1934:1959  newRental.imgUrl = imgUrl */\n      swap1\n      dup1\n      mload\n      swap1\n      0x20\n      add\n      swap1\n      tag_91\n      swap3\n      swap2\n      swap1\n      tag_57\n      jump\t// in\n    tag_91:\n      pop\n        /* \"AIRBNB.sol\":1992:2001  maxGuests */\n      dup4\n        /* \"AIRBNB.sol\":1970:1979  newRental */\n      dup2\n        /* \"AIRBNB.sol\":1970:1989  newRental.maxGuests */\n      0x07\n      add\n        /* \"AIRBNB.sol\":1970:2001  newRental.maxGuests = maxGuests */\n      dup2\n      swap1\n      sstore\n      pop\n        /* \"AIRBNB.sol\":2036:2047  pricePerDay */\n      dup3\n        /* \"AIRBNB.sol\":2012:2021  newRental */\n      dup2\n        /* \"AIRBNB.sol\":2012:2033  newRental.pricePerDay */\n      0x08\n      add\n        /* \"AIRBNB.sol\":2012:2047  newRental.pricePerDay = pricePerDay */\n      dup2\n      swap1\n      sstore\n      pop\n        /* \"AIRBNB.sol\":2082:2093  datesBooked */\n      dup2\n        /* \"AIRBNB.sol\":2058:2067  newRental */\n      dup2\n        /* \"AIRBNB.sol\":2058:2079  newRental.datesBooked */\n      0x09\n      add\n        /* \"AIRBNB.sol\":2058:2093  newRental.datesBooked = datesBooked */\n      swap1\n      dup1\n      mload\n      swap1\n      0x20\n      add\n      swap1\n      tag_92\n      swap3\n      swap2\n      swap1\n      tag_93\n      jump\t// in\n    tag_92:\n      pop\n        /* \"AIRBNB.sol\":2119:2126  counter */\n      sload(0x01)\n        /* \"AIRBNB.sol\":2104:2113  newRental */\n      dup2\n        /* \"AIRBNB.sol\":2104:2116  newRental.id */\n      0x0a\n      add\n        /* \"AIRBNB.sol\":2104:2126  newRental.id = counter */\n      dup2\n      swap1\n      sstore\n      pop\n        /* \"AIRBNB.sol\":2156:2161  owner */\n      0x00\n      dup1\n      sload\n      swap1\n      0x0100\n      exp\n      swap1\n      div\n      0xffffffffffffffffffffffffffffffffffffffff\n      and\n        /* \"AIRBNB.sol\":2137:2146  newRental */\n      dup2\n        /* \"AIRBNB.sol\":2137:2153  newRental.renter */\n      0x0b\n      add\n      0x00\n        /* \"AIRBNB.sol\":2137:2161  newRental.renter = owner */\n      0x0100\n      exp\n      dup2\n      sload\n      dup2\n      0xffffffffffffffffffffffffffffffffffffffff\n      mul\n      not\n      and\n      swap1\n      dup4\n      0xffffffffffffffffffffffffffffffffffffffff\n      and\n      mul\n      or\n      swap1\n      sstore\n      pop\n        /* \"AIRBNB.sol\":2172:2181  rentalIds */\n      0x03\n        /* \"AIRBNB.sol\":2187:2194  counter */\n      sload(0x01)\n        /* \"AIRBNB.sol\":2172:2195  rentalIds.push(counter) */\n      swap1\n      dup1\n      0x01\n      dup2\n      sload\n      add\n      dup1\n      dup3\n      sstore\n      dup1\n      swap2\n      pop\n      pop\n      0x01\n      swap1\n      sub\n      swap1\n      0x00\n      mstore\n      keccak256(0x00, 0x20)\n      add\n      0x00\n      swap1\n      swap2\n      swap1\n      swap2\n      swap1\n      swap2\n      pop\n      sstore\n        /* \"AIRBNB.sol\":2211:2556  rentalCreated(\r... */\n      0xc06f078c3c74d235829af3e011ff5aae487c78ef8d3acca688417ed86ff14591\n        /* \"AIRBNB.sol\":2243:2247  name */\n      dup12\n        /* \"AIRBNB.sol\":2267:2271  city */\n      dup12\n        /* \"AIRBNB.sol\":2291:2294  lat */\n      dup12\n        /* \"AIRBNB.sol\":2314:2318  long */\n      dup12\n        /* \"AIRBNB.sol\":2338:2352  unoDescription */\n      dup12\n        /* \"AIRBNB.sol\":2372:2386  dosDescription */\n      dup12\n        /* \"AIRBNB.sol\":2406:2412  imgUrl */\n      dup12\n        /* \"AIRBNB.sol\":2432:2441  maxGuests */\n      dup12\n        /* \"AIRBNB.sol\":2461:2472  pricePerDay */\n      dup12\n        /* \"AIRBNB.sol\":2492:2503  datesBooked */\n      dup12\n        /* \"AIRBNB.sol\":2523:2530  counter */\n      sload(0x01)\n        /* \"AIRBNB.sol\":2550:2555  owner */\n      0x00\n      dup1\n      sload\n      swap1\n      0x0100\n      exp\n      swap1\n      div\n      0xffffffffffffffffffffffffffffffffffffffff\n      and\n        /* \"AIRBNB.sol\":2211:2556  rentalCreated(\r... */\n      mload(0x40)\n      tag_95\n      swap13\n      swap12\n      swap11\n      swap10\n      swap9\n      swap8\n      swap7\n      swap6\n      swap5\n      swap4\n      swap3\n      swap2\n      swap1\n      tag_96\n      jump\t// in\n    tag_95:\n      mload(0x40)\n      dup1\n      swap2\n      sub\n      swap1\n      log1\n        /* \"AIRBNB.sol\":2567:2574  counter */\n      0x01\n      0x00\n        /* \"AIRBNB.sol\":2567:2576  counter++ */\n      dup2\n      sload\n      dup1\n      swap3\n      swap2\n      swap1\n      tag_97\n      swap1\n      tag_59\n      jump\t// in\n    tag_97:\n      swap2\n      swap1\n      pop\n      sstore\n      pop\n        /* \"AIRBNB.sol\":1545:2584  {\r... */\n      pop\n        /* \"AIRBNB.sol\":1191:2584  function addRentals(\r... */\n      pop\n      pop\n      pop\n      pop\n      pop\n      pop\n      pop\n      pop\n      pop\n      pop\n      jump\t// out\n        /* \"AIRBNB.sol\":1154:1180  uint256[] public rentalIds */\n    tag_31:\n      0x03\n      dup2\n      dup2\n      sload\n      dup2\n      lt\n      tag_98\n      jumpi\n      0x00\n      dup1\n      revert\n    tag_98:\n      swap1\n      0x00\n      mstore\n      keccak256(0x00, 0x20)\n      add\n      0x00\n      swap2\n      pop\n      swap1\n      pop\n      sload\n      dup2\n      jump\t// out\n        /* \"AIRBNB.sol\":2592:3060  function checkBookings(uint256 id, string[] memory newBookings) private view returns (bool){\r... */\n    tag_39:\n        /* \"AIRBNB.sol\":2678:2682  bool */\n      0x00\n        /* \"AIRBNB.sol\":2709:2715  uint i */\n      dup1\n        /* \"AIRBNB.sol\":2718:2719  0 */\n      0x00\n        /* \"AIRBNB.sol\":2709:2719  uint i = 0 */\n      swap1\n      pop\n        /* \"AIRBNB.sol\":2704:3031  for (uint i = 0; i < newBookings.length; i++) {\r... */\n    tag_101:\n        /* \"AIRBNB.sol\":2725:2736  newBookings */\n      dup3\n        /* \"AIRBNB.sol\":2725:2743  newBookings.length */\n      mload\n        /* \"AIRBNB.sol\":2721:2722  i */\n      dup2\n        /* \"AIRBNB.sol\":2721:2743  i < newBookings.length */\n      lt\n        /* \"AIRBNB.sol\":2704:3031  for (uint i = 0; i < newBookings.length; i++) {\r... */\n      iszero\n      tag_102\n      jumpi\n        /* \"AIRBNB.sol\":2770:2776  uint j */\n      0x00\n        /* \"AIRBNB.sol\":2765:3020  for (uint j = 0; j < rentals[id].datesBooked.length; j++) {\r... */\n    tag_104:\n        /* \"AIRBNB.sol\":2786:2793  rentals */\n      0x02\n        /* \"AIRBNB.sol\":2786:2797  rentals[id] */\n      0x00\n        /* \"AIRBNB.sol\":2794:2796  id */\n      dup7\n        /* \"AIRBNB.sol\":2786:2797  rentals[id] */\n      dup2\n      mstore\n      0x20\n      add\n      swap1\n      dup2\n      mstore\n      0x20\n      add\n      0x00\n      keccak256\n        /* \"AIRBNB.sol\":2786:2809  rentals[id].datesBooked */\n      0x09\n      add\n        /* \"AIRBNB.sol\":2786:2816  rentals[id].datesBooked.length */\n      dup1\n      sload\n      swap1\n      pop\n        /* \"AIRBNB.sol\":2782:2783  j */\n      dup2\n        /* \"AIRBNB.sol\":2782:2816  j < rentals[id].datesBooked.length */\n      lt\n        /* \"AIRBNB.sol\":2765:3020  for (uint j = 0; j < rentals[id].datesBooked.length; j++) {\r... */\n      iszero\n      tag_105\n      jumpi\n        /* \"AIRBNB.sol\":2932:2943  newBookings */\n      dup4\n        /* \"AIRBNB.sol\":2944:2945  i */\n      dup3\n        /* \"AIRBNB.sol\":2932:2946  newBookings[i] */\n      dup2\n      mload\n      dup2\n      lt\n      tag_107\n      jumpi\n      tag_108\n      tag_54\n      jump\t// in\n    tag_108:\n    tag_107:\n      0x20\n      mul\n      0x20\n      add\n      add\n      mload\n        /* \"AIRBNB.sol\":2915:2947  abi.encodePacked(newBookings[i]) */\n      add(0x20, mload(0x40))\n      tag_109\n      swap2\n      swap1\n      tag_110\n      jump\t// in\n    tag_109:\n      mload(0x40)\n      0x20\n      dup2\n      dup4\n      sub\n      sub\n      dup2\n      mstore\n      swap1\n      0x40\n      mstore\n        /* \"AIRBNB.sol\":2905:2948  keccak256(abi.encodePacked(newBookings[i])) */\n      dup1\n      mload\n      swap1\n      0x20\n      add\n      keccak256\n        /* \"AIRBNB.sol\":2873:2880  rentals */\n      0x02\n        /* \"AIRBNB.sol\":2873:2884  rentals[id] */\n      0x00\n        /* \"AIRBNB.sol\":2881:2883  id */\n      dup8\n        /* \"AIRBNB.sol\":2873:2884  rentals[id] */\n      dup2\n      mstore\n      0x20\n      add\n      swap1\n      dup2\n      mstore\n      0x20\n      add\n      0x00\n      keccak256\n        /* \"AIRBNB.sol\":2873:2896  rentals[id].datesBooked */\n      0x09\n      add\n        /* \"AIRBNB.sol\":2897:2898  j */\n      dup3\n        /* \"AIRBNB.sol\":2873:2899  rentals[id].datesBooked[j] */\n      dup2\n      sload\n      dup2\n      lt\n      tag_111\n      jumpi\n      tag_112\n      tag_54\n      jump\t// in\n    tag_112:\n    tag_111:\n      swap1\n      0x00\n      mstore\n      keccak256(0x00, 0x20)\n      add\n        /* \"AIRBNB.sol\":2856:2900  abi.encodePacked(rentals[id].datesBooked[j]) */\n      add(0x20, mload(0x40))\n      tag_114\n      swap2\n      swap1\n      tag_115\n      jump\t// in\n    tag_114:\n      mload(0x40)\n      0x20\n      dup2\n      dup4\n      sub\n      sub\n      dup2\n      mstore\n      swap1\n      0x40\n      mstore\n        /* \"AIRBNB.sol\":2846:2901  keccak256(abi.encodePacked(rentals[id].datesBooked[j])) */\n      dup1\n      mload\n      swap1\n      0x20\n      add\n      keccak256\n        /* \"AIRBNB.sol\":2846:2948  keccak256(abi.encodePacked(rentals[id].datesBooked[j])) == keccak256(abi.encodePacked(newBookings[i])) */\n      eq\n        /* \"AIRBNB.sol\":2842:3005  if (keccak256(abi.encodePacked(rentals[id].datesBooked[j])) == keccak256(abi.encodePacked(newBookings[i]))) {\r... */\n      iszero\n      tag_116\n      jumpi\n        /* \"AIRBNB.sol\":2980:2985  false */\n      0x00\n        /* \"AIRBNB.sol\":2973:2985  return false */\n      swap3\n      pop\n      pop\n      pop\n      jump(tag_100)\n        /* \"AIRBNB.sol\":2842:3005  if (keccak256(abi.encodePacked(rentals[id].datesBooked[j])) == keccak256(abi.encodePacked(newBookings[i]))) {\r... */\n    tag_116:\n        /* \"AIRBNB.sol\":2818:2821  j++ */\n      dup1\n      dup1\n      tag_117\n      swap1\n      tag_59\n      jump\t// in\n    tag_117:\n      swap2\n      pop\n      pop\n        /* \"AIRBNB.sol\":2765:3020  for (uint j = 0; j < rentals[id].datesBooked.length; j++) {\r... */\n      jump(tag_104)\n    tag_105:\n      pop\n        /* \"AIRBNB.sol\":2745:2748  i++ */\n      dup1\n      dup1\n      tag_118\n      swap1\n      tag_59\n      jump\t// in\n    tag_118:\n      swap2\n      pop\n      pop\n        /* \"AIRBNB.sol\":2704:3031  for (uint i = 0; i < newBookings.length; i++) {\r... */\n      jump(tag_101)\n    tag_102:\n      pop\n        /* \"AIRBNB.sol\":3048:3052  true */\n      0x01\n        /* \"AIRBNB.sol\":3041:3052  return true */\n      swap1\n      pop\n        /* \"AIRBNB.sol\":2592:3060  function checkBookings(uint256 id, string[] memory newBookings) private view returns (bool){\r... */\n    tag_100:\n      swap3\n      swap2\n      pop\n      pop\n      jump\t// out\n    tag_57:\n      dup3\n      dup1\n      sload\n      tag_119\n      swap1\n      tag_68\n      jump\t// in\n    tag_119:\n      swap1\n      0x00\n      mstore\n      keccak256(0x00, 0x20)\n      swap1\n      0x1f\n      add\n      0x20\n      swap1\n      div\n      dup2\n      add\n      swap3\n      dup3\n      tag_121\n      jumpi\n      0x00\n      dup6\n      sstore\n      jump(tag_120)\n    tag_121:\n      dup3\n      0x1f\n      lt\n      tag_122\n      jumpi\n      dup1\n      mload\n      not(0xff)\n      and\n      dup4\n      dup1\n      add\n      or\n      dup6\n      sstore\n      jump(tag_120)\n    tag_122:\n      dup3\n      dup1\n      add\n      0x01\n      add\n      dup6\n      sstore\n      dup3\n      iszero\n      tag_120\n      jumpi\n      swap2\n      dup3\n      add\n    tag_123:\n      dup3\n      dup2\n      gt\n      iszero\n      tag_124\n      jumpi\n      dup3\n      mload\n      dup3\n      sstore\n      swap2\n      0x20\n      add\n      swap2\n      swap1\n      0x01\n      add\n      swap1\n      jump(tag_123)\n    tag_124:\n    tag_120:\n      pop\n      swap1\n      pop\n      tag_125\n      swap2\n      swap1\n      tag_126\n      jump\t// in\n    tag_125:\n      pop\n      swap1\n      jump\t// out\n    tag_93:\n      dup3\n      dup1\n      sload\n      dup3\n      dup3\n      sstore\n      swap1\n      0x00\n      mstore\n      keccak256(0x00, 0x20)\n      swap1\n      dup2\n      add\n      swap3\n      dup3\n      iszero\n      tag_127\n      jumpi\n      swap2\n      0x20\n      mul\n      dup3\n      add\n    tag_128:\n      dup3\n      dup2\n      gt\n      iszero\n      tag_129\n      jumpi\n      dup3\n      mload\n      dup3\n      swap1\n      dup1\n      mload\n      swap1\n      0x20\n      add\n      swap1\n      tag_130\n      swap3\n      swap2\n      swap1\n      tag_57\n      jump\t// in\n    tag_130:\n      pop\n      swap2\n      0x20\n      add\n      swap2\n      swap1\n      0x01\n      add\n      swap1\n      jump(tag_128)\n    tag_129:\n    tag_127:\n      pop\n      swap1\n      pop\n      tag_131\n      swap2\n      swap1\n      tag_132\n      jump\t// in\n    tag_131:\n      pop\n      swap1\n      jump\t// out\n    tag_126:\n    tag_133:\n      dup1\n      dup3\n      gt\n      iszero\n      tag_134\n      jumpi\n      0x00\n      dup2\n      0x00\n      swap1\n      sstore\n      pop\n      0x01\n      add\n      jump(tag_133)\n    tag_134:\n      pop\n      swap1\n      jump\t// out\n    tag_132:\n    tag_135:\n      dup1\n      dup3\n      gt\n      iszero\n      tag_136\n      jumpi\n      0x00\n      dup2\n      dup2\n      tag_137\n      swap2\n      swap1\n      tag_138\n      jump\t// in\n    tag_137:\n      pop\n      0x01\n      add\n      jump(tag_135)\n    tag_136:\n      pop\n      swap1\n      jump\t// out\n    tag_138:\n      pop\n      dup1\n      sload\n      tag_139\n      swap1\n      tag_68\n      jump\t// in\n    tag_139:\n      0x00\n      dup3\n      sstore\n      dup1\n      0x1f\n      lt\n      tag_141\n      jumpi\n      pop\n      jump(tag_140)\n    tag_141:\n      0x1f\n      add\n      0x20\n      swap1\n      div\n      swap1\n      0x00\n      mstore\n      keccak256(0x00, 0x20)\n      swap1\n      dup2\n      add\n      swap1\n      tag_142\n      swap2\n      swap1\n      tag_126\n      jump\t// in\n    tag_142:\n    tag_140:\n      pop\n      jump\t// out\n        /* \"#utility.yul\":23:980   */\n    tag_144:\n        /* \"#utility.yul\":129:134   */\n      0x00\n        /* \"#utility.yul\":154:245   */\n      tag_146\n        /* \"#utility.yul\":170:244   */\n      tag_147\n        /* \"#utility.yul\":237:243   */\n      dup5\n        /* \"#utility.yul\":170:244   */\n      tag_148\n      jump\t// in\n    tag_147:\n        /* \"#utility.yul\":154:245   */\n      tag_149\n      jump\t// in\n    tag_146:\n        /* \"#utility.yul\":145:245   */\n      swap1\n      pop\n        /* \"#utility.yul\":265:270   */\n      dup1\n        /* \"#utility.yul\":294:300   */\n      dup4\n        /* \"#utility.yul\":287:292   */\n      dup3\n        /* \"#utility.yul\":280:301   */\n      mstore\n        /* \"#utility.yul\":328:332   */\n      0x20\n        /* \"#utility.yul\":321:326   */\n      dup3\n        /* \"#utility.yul\":317:333   */\n      add\n        /* \"#utility.yul\":310:333   */\n      swap1\n      pop\n        /* \"#utility.yul\":354:360   */\n      dup3\n        /* \"#utility.yul\":404:407   */\n      dup6\n        /* \"#utility.yul\":396:400   */\n      0x20\n        /* \"#utility.yul\":388:394   */\n      dup7\n        /* \"#utility.yul\":384:401   */\n      mul\n        /* \"#utility.yul\":379:382   */\n      dup3\n        /* \"#utility.yul\":375:402   */\n      add\n        /* \"#utility.yul\":372:408   */\n      gt\n        /* \"#utility.yul\":369:512   */\n      iszero\n      tag_150\n      jumpi\n        /* \"#utility.yul\":423:502   */\n      tag_151\n      tag_152\n      jump\t// in\n    tag_151:\n        /* \"#utility.yul\":369:512   */\n    tag_150:\n        /* \"#utility.yul\":536:537   */\n      0x00\n        /* \"#utility.yul\":521:974   */\n    tag_153:\n        /* \"#utility.yul\":546:552   */\n      dup6\n        /* \"#utility.yul\":543:544   */\n      dup2\n        /* \"#utility.yul\":540:553   */\n      lt\n        /* \"#utility.yul\":521:974   */\n      iszero\n      tag_155\n      jumpi\n        /* \"#utility.yul\":628:631   */\n      dup2\n        /* \"#utility.yul\":615:632   */\n      calldataload\n        /* \"#utility.yul\":664:682   */\n      0xffffffffffffffff\n        /* \"#utility.yul\":651:662   */\n      dup2\n        /* \"#utility.yul\":648:683   */\n      gt\n        /* \"#utility.yul\":645:767   */\n      iszero\n      tag_156\n      jumpi\n        /* \"#utility.yul\":686:765   */\n      tag_157\n      tag_158\n      jump\t// in\n    tag_157:\n        /* \"#utility.yul\":645:767   */\n    tag_156:\n        /* \"#utility.yul\":810:821   */\n      dup1\n        /* \"#utility.yul\":802:808   */\n      dup7\n        /* \"#utility.yul\":798:822   */\n      add\n        /* \"#utility.yul\":848:895   */\n      tag_159\n        /* \"#utility.yul\":891:894   */\n      dup10\n        /* \"#utility.yul\":879:889   */\n      dup3\n        /* \"#utility.yul\":848:895   */\n      tag_160\n      jump\t// in\n    tag_159:\n        /* \"#utility.yul\":843:846   */\n      dup6\n        /* \"#utility.yul\":836:896   */\n      mstore\n        /* \"#utility.yul\":925:929   */\n      0x20\n        /* \"#utility.yul\":920:923   */\n      dup6\n        /* \"#utility.yul\":916:930   */\n      add\n        /* \"#utility.yul\":909:930   */\n      swap5\n      pop\n        /* \"#utility.yul\":959:963   */\n      0x20\n        /* \"#utility.yul\":954:957   */\n      dup5\n        /* \"#utility.yul\":950:964   */\n      add\n        /* \"#utility.yul\":943:964   */\n      swap4\n      pop\n        /* \"#utility.yul\":581:974   */\n      pop\n      pop\n        /* \"#utility.yul\":568:569   */\n      0x01\n        /* \"#utility.yul\":565:566   */\n      dup2\n        /* \"#utility.yul\":561:570   */\n      add\n        /* \"#utility.yul\":556:570   */\n      swap1\n      pop\n        /* \"#utility.yul\":521:974   */\n      jump(tag_153)\n    tag_155:\n        /* \"#utility.yul\":525:539   */\n      pop\n        /* \"#utility.yul\":135:980   */\n      pop\n      pop\n        /* \"#utility.yul\":23:980   */\n      swap4\n      swap3\n      pop\n      pop\n      pop\n      jump\t// out\n        /* \"#utility.yul\":986:1398   */\n    tag_161:\n        /* \"#utility.yul\":1064:1069   */\n      0x00\n        /* \"#utility.yul\":1089:1155   */\n      tag_163\n        /* \"#utility.yul\":1105:1154   */\n      tag_164\n        /* \"#utility.yul\":1147:1153   */\n      dup5\n        /* \"#utility.yul\":1105:1154   */\n      tag_165\n      jump\t// in\n    tag_164:\n        /* \"#utility.yul\":1089:1155   */\n      tag_149\n      jump\t// in\n    tag_163:\n        /* \"#utility.yul\":1080:1155   */\n      swap1\n      pop\n        /* \"#utility.yul\":1178:1184   */\n      dup3\n        /* \"#utility.yul\":1171:1176   */\n      dup2\n        /* \"#utility.yul\":1164:1185   */\n      mstore\n        /* \"#utility.yul\":1216:1220   */\n      0x20\n        /* \"#utility.yul\":1209:1214   */\n      dup2\n        /* \"#utility.yul\":1205:1221   */\n      add\n        /* \"#utility.yul\":1254:1257   */\n      dup5\n        /* \"#utility.yul\":1245:1251   */\n      dup5\n        /* \"#utility.yul\":1240:1243   */\n      dup5\n        /* \"#utility.yul\":1236:1252   */\n      add\n        /* \"#utility.yul\":1233:1258   */\n      gt\n        /* \"#utility.yul\":1230:1342   */\n      iszero\n      tag_166\n      jumpi\n        /* \"#utility.yul\":1261:1340   */\n      tag_167\n      tag_168\n      jump\t// in\n    tag_167:\n        /* \"#utility.yul\":1230:1342   */\n    tag_166:\n        /* \"#utility.yul\":1351:1392   */\n      tag_169\n        /* \"#utility.yul\":1385:1391   */\n      dup5\n        /* \"#utility.yul\":1380:1383   */\n      dup3\n        /* \"#utility.yul\":1375:1378   */\n      dup6\n        /* \"#utility.yul\":1351:1392   */\n      tag_170\n      jump\t// in\n    tag_169:\n        /* \"#utility.yul\":1070:1398   */\n      pop\n        /* \"#utility.yul\":986:1398   */\n      swap4\n      swap3\n      pop\n      pop\n      pop\n      jump\t// out\n        /* \"#utility.yul\":1420:1810   */\n    tag_171:\n        /* \"#utility.yul\":1501:1506   */\n      0x00\n        /* \"#utility.yul\":1550:1553   */\n      dup3\n        /* \"#utility.yul\":1543:1547   */\n      0x1f\n        /* \"#utility.yul\":1535:1541   */\n      dup4\n        /* \"#utility.yul\":1531:1548   */\n      add\n        /* \"#utility.yul\":1527:1554   */\n      slt\n        /* \"#utility.yul\":1517:1639   */\n      tag_173\n      jumpi\n        /* \"#utility.yul\":1558:1637   */\n      tag_174\n      tag_158\n      jump\t// in\n    tag_174:\n        /* \"#utility.yul\":1517:1639   */\n    tag_173:\n        /* \"#utility.yul\":1675:1681   */\n      dup2\n        /* \"#utility.yul\":1662:1682   */\n      calldataload\n        /* \"#utility.yul\":1700:1804   */\n      tag_175\n        /* \"#utility.yul\":1800:1803   */\n      dup5\n        /* \"#utility.yul\":1792:1798   */\n      dup3\n        /* \"#utility.yul\":1785:1789   */\n      0x20\n        /* \"#utility.yul\":1777:1783   */\n      dup7\n        /* \"#utility.yul\":1773:1790   */\n      add\n        /* \"#utility.yul\":1700:1804   */\n      tag_144\n      jump\t// in\n    tag_175:\n        /* \"#utility.yul\":1691:1804   */\n      swap2\n      pop\n        /* \"#utility.yul\":1507:1810   */\n      pop\n        /* \"#utility.yul\":1420:1810   */\n      swap3\n      swap2\n      pop\n      pop\n      jump\t// out\n        /* \"#utility.yul\":1830:2170   */\n    tag_160:\n        /* \"#utility.yul\":1886:1891   */\n      0x00\n        /* \"#utility.yul\":1935:1938   */\n      dup3\n        /* \"#utility.yul\":1928:1932   */\n      0x1f\n        /* \"#utility.yul\":1920:1926   */\n      dup4\n        /* \"#utility.yul\":1916:1933   */\n      add\n        /* \"#utility.yul\":1912:1939   */\n      slt\n        /* \"#utility.yul\":1902:2024   */\n      tag_177\n      jumpi\n        /* \"#utility.yul\":1943:2022   */\n      tag_178\n      tag_158\n      jump\t// in\n    tag_178:\n        /* \"#utility.yul\":1902:2024   */\n    tag_177:\n        /* \"#utility.yul\":2060:2066   */\n      dup2\n        /* \"#utility.yul\":2047:2067   */\n      calldataload\n        /* \"#utility.yul\":2085:2164   */\n      tag_179\n        /* \"#utility.yul\":2160:2163   */\n      dup5\n        /* \"#utility.yul\":2152:2158   */\n      dup3\n        /* \"#utility.yul\":2145:2149   */\n      0x20\n        /* \"#utility.yul\":2137:2143   */\n      dup7\n        /* \"#utility.yul\":2133:2150   */\n      add\n        /* \"#utility.yul\":2085:2164   */\n      tag_161\n      jump\t// in\n    tag_179:\n        /* \"#utility.yul\":2076:2164   */\n      swap2\n      pop\n        /* \"#utility.yul\":1892:2170   */\n      pop\n        /* \"#utility.yul\":1830:2170   */\n      swap3\n      swap2\n      pop\n      pop\n      jump\t// out\n        /* \"#utility.yul\":2176:2315   */\n    tag_180:\n        /* \"#utility.yul\":2222:2227   */\n      0x00\n        /* \"#utility.yul\":2260:2266   */\n      dup2\n        /* \"#utility.yul\":2247:2267   */\n      calldataload\n        /* \"#utility.yul\":2238:2267   */\n      swap1\n      pop\n        /* \"#utility.yul\":2276:2309   */\n      tag_182\n        /* \"#utility.yul\":2303:2308   */\n      dup2\n        /* \"#utility.yul\":2276:2309   */\n      tag_183\n      jump\t// in\n    tag_182:\n        /* \"#utility.yul\":2176:2315   */\n      swap3\n      swap2\n      pop\n      pop\n      jump\t// out\n        /* \"#utility.yul\":2321:5452   */\n    tag_26:\n        /* \"#utility.yul\":2566:2572   */\n      0x00\n        /* \"#utility.yul\":2574:2580   */\n      dup1\n        /* \"#utility.yul\":2582:2588   */\n      0x00\n        /* \"#utility.yul\":2590:2596   */\n      dup1\n        /* \"#utility.yul\":2598:2604   */\n      0x00\n        /* \"#utility.yul\":2606:2612   */\n      dup1\n        /* \"#utility.yul\":2614:2620   */\n      0x00\n        /* \"#utility.yul\":2622:2628   */\n      dup1\n        /* \"#utility.yul\":2630:2636   */\n      0x00\n        /* \"#utility.yul\":2638:2644   */\n      dup1\n        /* \"#utility.yul\":2687:2690   */\n      0x0140\n        /* \"#utility.yul\":2675:2684   */\n      dup12\n        /* \"#utility.yul\":2666:2673   */\n      dup14\n        /* \"#utility.yul\":2662:2685   */\n      sub\n        /* \"#utility.yul\":2658:2691   */\n      slt\n        /* \"#utility.yul\":2655:2775   */\n      iszero\n      tag_185\n      jumpi\n        /* \"#utility.yul\":2694:2773   */\n      tag_186\n      tag_187\n      jump\t// in\n    tag_186:\n        /* \"#utility.yul\":2655:2775   */\n    tag_185:\n        /* \"#utility.yul\":2842:2843   */\n      0x00\n        /* \"#utility.yul\":2831:2840   */\n      dup12\n        /* \"#utility.yul\":2827:2844   */\n      add\n        /* \"#utility.yul\":2814:2845   */\n      calldataload\n        /* \"#utility.yul\":2872:2890   */\n      0xffffffffffffffff\n        /* \"#utility.yul\":2864:2870   */\n      dup2\n        /* \"#utility.yul\":2861:2891   */\n      gt\n        /* \"#utility.yul\":2858:2975   */\n      iszero\n      tag_188\n      jumpi\n        /* \"#utility.yul\":2894:2973   */\n      tag_189\n      tag_190\n      jump\t// in\n    tag_189:\n        /* \"#utility.yul\":2858:2975   */\n    tag_188:\n        /* \"#utility.yul\":2999:3062   */\n      tag_191\n        /* \"#utility.yul\":3054:3061   */\n      dup14\n        /* \"#utility.yul\":3045:3051   */\n      dup3\n        /* \"#utility.yul\":3034:3043   */\n      dup15\n        /* \"#utility.yul\":3030:3052   */\n      add\n        /* \"#utility.yul\":2999:3062   */\n      tag_160\n      jump\t// in\n    tag_191:\n        /* \"#utility.yul\":2989:3062   */\n      swap11\n      pop\n        /* \"#utility.yul\":2785:3072   */\n      pop\n        /* \"#utility.yul\":3139:3141   */\n      0x20\n        /* \"#utility.yul\":3128:3137   */\n      dup12\n        /* \"#utility.yul\":3124:3142   */\n      add\n        /* \"#utility.yul\":3111:3143   */\n      calldataload\n        /* \"#utility.yul\":3170:3188   */\n      0xffffffffffffffff\n        /* \"#utility.yul\":3162:3168   */\n      dup2\n        /* \"#utility.yul\":3159:3189   */\n      gt\n        /* \"#utility.yul\":3156:3273   */\n      iszero\n      tag_192\n      jumpi\n        /* \"#utility.yul\":3192:3271   */\n      tag_193\n      tag_190\n      jump\t// in\n    tag_193:\n        /* \"#utility.yul\":3156:3273   */\n    tag_192:\n        /* \"#utility.yul\":3297:3360   */\n      tag_194\n        /* \"#utility.yul\":3352:3359   */\n      dup14\n        /* \"#utility.yul\":3343:3349   */\n      dup3\n        /* \"#utility.yul\":3332:3341   */\n      dup15\n        /* \"#utility.yul\":3328:3350   */\n      add\n        /* \"#utility.yul\":3297:3360   */\n      tag_160\n      jump\t// in\n    tag_194:\n        /* \"#utility.yul\":3287:3360   */\n      swap10\n      pop\n        /* \"#utility.yul\":3082:3370   */\n      pop\n        /* \"#utility.yul\":3437:3439   */\n      0x40\n        /* \"#utility.yul\":3426:3435   */\n      dup12\n        /* \"#utility.yul\":3422:3440   */\n      add\n        /* \"#utility.yul\":3409:3441   */\n      calldataload\n        /* \"#utility.yul\":3468:3486   */\n      0xffffffffffffffff\n        /* \"#utility.yul\":3460:3466   */\n      dup2\n        /* \"#utility.yul\":3457:3487   */\n      gt\n        /* \"#utility.yul\":3454:3571   */\n      iszero\n      tag_195\n      jumpi\n        /* \"#utility.yul\":3490:3569   */\n      tag_196\n      tag_190\n      jump\t// in\n    tag_196:\n        /* \"#utility.yul\":3454:3571   */\n    tag_195:\n        /* \"#utility.yul\":3595:3658   */\n      tag_197\n        /* \"#utility.yul\":3650:3657   */\n      dup14\n        /* \"#utility.yul\":3641:3647   */\n      dup3\n        /* \"#utility.yul\":3630:3639   */\n      dup15\n        /* \"#utility.yul\":3626:3648   */\n      add\n        /* \"#utility.yul\":3595:3658   */\n      tag_160\n      jump\t// in\n    tag_197:\n        /* \"#utility.yul\":3585:3658   */\n      swap9\n      pop\n        /* \"#utility.yul\":3380:3668   */\n      pop\n        /* \"#utility.yul\":3735:3737   */\n      0x60\n        /* \"#utility.yul\":3724:3733   */\n      dup12\n        /* \"#utility.yul\":3720:3738   */\n      add\n        /* \"#utility.yul\":3707:3739   */\n      calldataload\n        /* \"#utility.yul\":3766:3784   */\n      0xffffffffffffffff\n        /* \"#utility.yul\":3758:3764   */\n      dup2\n        /* \"#utility.yul\":3755:3785   */\n      gt\n        /* \"#utility.yul\":3752:3869   */\n      iszero\n      tag_198\n      jumpi\n        /* \"#utility.yul\":3788:3867   */\n      tag_199\n      tag_190\n      jump\t// in\n    tag_199:\n        /* \"#utility.yul\":3752:3869   */\n    tag_198:\n        /* \"#utility.yul\":3893:3956   */\n      tag_200\n        /* \"#utility.yul\":3948:3955   */\n      dup14\n        /* \"#utility.yul\":3939:3945   */\n      dup3\n        /* \"#utility.yul\":3928:3937   */\n      dup15\n        /* \"#utility.yul\":3924:3946   */\n      add\n        /* \"#utility.yul\":3893:3956   */\n      tag_160\n      jump\t// in\n    tag_200:\n        /* \"#utility.yul\":3883:3956   */\n      swap8\n      pop\n        /* \"#utility.yul\":3678:3966   */\n      pop\n        /* \"#utility.yul\":4033:4036   */\n      0x80\n        /* \"#utility.yul\":4022:4031   */\n      dup12\n        /* \"#utility.yul\":4018:4037   */\n      add\n        /* \"#utility.yul\":4005:4038   */\n      calldataload\n        /* \"#utility.yul\":4065:4083   */\n      0xffffffffffffffff\n        /* \"#utility.yul\":4057:4063   */\n      dup2\n        /* \"#utility.yul\":4054:4084   */\n      gt\n        /* \"#utility.yul\":4051:4168   */\n      iszero\n      tag_201\n      jumpi\n        /* \"#utility.yul\":4087:4166   */\n      tag_202\n      tag_190\n      jump\t// in\n    tag_202:\n        /* \"#utility.yul\":4051:4168   */\n    tag_201:\n        /* \"#utility.yul\":4192:4255   */\n      tag_203\n        /* \"#utility.yul\":4247:4254   */\n      dup14\n        /* \"#utility.yul\":4238:4244   */\n      dup3\n        /* \"#utility.yul\":4227:4236   */\n      dup15\n        /* \"#utility.yul\":4223:4245   */\n      add\n        /* \"#utility.yul\":4192:4255   */\n      tag_160\n      jump\t// in\n    tag_203:\n        /* \"#utility.yul\":4182:4255   */\n      swap7\n      pop\n        /* \"#utility.yul\":3976:4265   */\n      pop\n        /* \"#utility.yul\":4332:4335   */\n      0xa0\n        /* \"#utility.yul\":4321:4330   */\n      dup12\n        /* \"#utility.yul\":4317:4336   */\n      add\n        /* \"#utility.yul\":4304:4337   */\n      calldataload\n        /* \"#utility.yul\":4364:4382   */\n      0xffffffffffffffff\n        /* \"#utility.yul\":4356:4362   */\n      dup2\n        /* \"#utility.yul\":4353:4383   */\n      gt\n        /* \"#utility.yul\":4350:4467   */\n      iszero\n      tag_204\n      jumpi\n        /* \"#utility.yul\":4386:4465   */\n      tag_205\n      tag_190\n      jump\t// in\n    tag_205:\n        /* \"#utility.yul\":4350:4467   */\n    tag_204:\n        /* \"#utility.yul\":4491:4554   */\n      tag_206\n        /* \"#utility.yul\":4546:4553   */\n      dup14\n        /* \"#utility.yul\":4537:4543   */\n      dup3\n        /* \"#utility.yul\":4526:4535   */\n      dup15\n        /* \"#utility.yul\":4522:4544   */\n      add\n        /* \"#utility.yul\":4491:4554   */\n      tag_160\n      jump\t// in\n    tag_206:\n        /* \"#utility.yul\":4481:4554   */\n      swap6\n      pop\n        /* \"#utility.yul\":4275:4564   */\n      pop\n        /* \"#utility.yul\":4631:4634   */\n      0xc0\n        /* \"#utility.yul\":4620:4629   */\n      dup12\n        /* \"#utility.yul\":4616:4635   */\n      add\n        /* \"#utility.yul\":4603:4636   */\n      calldataload\n        /* \"#utility.yul\":4663:4681   */\n      0xffffffffffffffff\n        /* \"#utility.yul\":4655:4661   */\n      dup2\n        /* \"#utility.yul\":4652:4682   */\n      gt\n        /* \"#utility.yul\":4649:4766   */\n      iszero\n      tag_207\n      jumpi\n        /* \"#utility.yul\":4685:4764   */\n      tag_208\n      tag_190\n      jump\t// in\n    tag_208:\n        /* \"#utility.yul\":4649:4766   */\n    tag_207:\n        /* \"#utility.yul\":4790:4853   */\n      tag_209\n        /* \"#utility.yul\":4845:4852   */\n      dup14\n        /* \"#utility.yul\":4836:4842   */\n      dup3\n        /* \"#utility.yul\":4825:4834   */\n      dup15\n        /* \"#utility.yul\":4821:4843   */\n      add\n        /* \"#utility.yul\":4790:4853   */\n      tag_160\n      jump\t// in\n    tag_209:\n        /* \"#utility.yul\":4780:4853   */\n      swap5\n      pop\n        /* \"#utility.yul\":4574:4863   */\n      pop\n        /* \"#utility.yul\":4902:4905   */\n      0xe0\n        /* \"#utility.yul\":4929:4982   */\n      tag_210\n        /* \"#utility.yul\":4974:4981   */\n      dup14\n        /* \"#utility.yul\":4965:4971   */\n      dup3\n        /* \"#utility.yul\":4954:4963   */\n      dup15\n        /* \"#utility.yul\":4950:4972   */\n      add\n        /* \"#utility.yul\":4929:4982   */\n      tag_180\n      jump\t// in\n    tag_210:\n        /* \"#utility.yul\":4919:4982   */\n      swap4\n      pop\n        /* \"#utility.yul\":4873:4992   */\n      pop\n        /* \"#utility.yul\":5031:5034   */\n      0x0100\n        /* \"#utility.yul\":5058:5111   */\n      tag_211\n        /* \"#utility.yul\":5103:5110   */\n      dup14\n        /* \"#utility.yul\":5094:5100   */\n      dup3\n        /* \"#utility.yul\":5083:5092   */\n      dup15\n        /* \"#utility.yul\":5079:5101   */\n      add\n        /* \"#utility.yul\":5058:5111   */\n      tag_180\n      jump\t// in\n    tag_211:\n        /* \"#utility.yul\":5048:5111   */\n      swap3\n      pop\n        /* \"#utility.yul\":5002:5121   */\n      pop\n        /* \"#utility.yul\":5188:5191   */\n      0x0120\n        /* \"#utility.yul\":5177:5186   */\n      dup12\n        /* \"#utility.yul\":5173:5192   */\n      add\n        /* \"#utility.yul\":5160:5193   */\n      calldataload\n        /* \"#utility.yul\":5220:5238   */\n      0xffffffffffffffff\n        /* \"#utility.yul\":5212:5218   */\n      dup2\n        /* \"#utility.yul\":5209:5239   */\n      gt\n        /* \"#utility.yul\":5206:5323   */\n      iszero\n      tag_212\n      jumpi\n        /* \"#utility.yul\":5242:5321   */\n      tag_213\n      tag_190\n      jump\t// in\n    tag_213:\n        /* \"#utility.yul\":5206:5323   */\n    tag_212:\n        /* \"#utility.yul\":5347:5435   */\n      tag_214\n        /* \"#utility.yul\":5427:5434   */\n      dup14\n        /* \"#utility.yul\":5418:5424   */\n      dup3\n        /* \"#utility.yul\":5407:5416   */\n      dup15\n        /* \"#utility.yul\":5403:5425   */\n      add\n        /* \"#utility.yul\":5347:5435   */\n      tag_171\n      jump\t// in\n    tag_214:\n        /* \"#utility.yul\":5337:5435   */\n      swap2\n      pop\n        /* \"#utility.yul\":5131:5445   */\n      pop\n        /* \"#utility.yul\":2321:5452   */\n      swap3\n      swap6\n      swap9\n      swap12\n      swap2\n      swap5\n      swap8\n      swap11\n      pop\n      swap3\n      swap6\n      swap9\n      pop\n      jump\t// out\n        /* \"#utility.yul\":5458:5787   */\n    tag_14:\n        /* \"#utility.yul\":5517:5523   */\n      0x00\n        /* \"#utility.yul\":5566:5568   */\n      0x20\n        /* \"#utility.yul\":5554:5563   */\n      dup3\n        /* \"#utility.yul\":5545:5552   */\n      dup5\n        /* \"#utility.yul\":5541:5564   */\n      sub\n        /* \"#utility.yul\":5537:5569   */\n      slt\n        /* \"#utility.yul\":5534:5653   */\n      iszero\n      tag_216\n      jumpi\n        /* \"#utility.yul\":5572:5651   */\n      tag_217\n      tag_187\n      jump\t// in\n    tag_217:\n        /* \"#utility.yul\":5534:5653   */\n    tag_216:\n        /* \"#utility.yul\":5692:5693   */\n      0x00\n        /* \"#utility.yul\":5717:5770   */\n      tag_218\n        /* \"#utility.yul\":5762:5769   */\n      dup5\n        /* \"#utility.yul\":5753:5759   */\n      dup3\n        /* \"#utility.yul\":5742:5751   */\n      dup6\n        /* \"#utility.yul\":5738:5760   */\n      add\n        /* \"#utility.yul\":5717:5770   */\n      tag_180\n      jump\t// in\n    tag_218:\n        /* \"#utility.yul\":5707:5770   */\n      swap2\n      pop\n        /* \"#utility.yul\":5663:5780   */\n      pop\n        /* \"#utility.yul\":5458:5787   */\n      swap3\n      swap2\n      pop\n      pop\n      jump\t// out\n        /* \"#utility.yul\":5793:6497   */\n    tag_9:\n        /* \"#utility.yul\":5896:5902   */\n      0x00\n        /* \"#utility.yul\":5904:5910   */\n      dup1\n        /* \"#utility.yul\":5953:5955   */\n      0x40\n        /* \"#utility.yul\":5941:5950   */\n      dup4\n        /* \"#utility.yul\":5932:5939   */\n      dup6\n        /* \"#utility.yul\":5928:5951   */\n      sub\n        /* \"#utility.yul\":5924:5956   */\n      slt\n        /* \"#utility.yul\":5921:6040   */\n      iszero\n      tag_220\n      jumpi\n        /* \"#utility.yul\":5959:6038   */\n      tag_221\n      tag_187\n      jump\t// in\n    tag_221:\n        /* \"#utility.yul\":5921:6040   */\n    tag_220:\n        /* \"#utility.yul\":6079:6080   */\n      0x00\n        /* \"#utility.yul\":6104:6157   */\n      tag_222\n        /* \"#utility.yul\":6149:6156   */\n      dup6\n        /* \"#utility.yul\":6140:6146   */\n      dup3\n        /* \"#utility.yul\":6129:6138   */\n      dup7\n        /* \"#utility.yul\":6125:6147   */\n      add\n        /* \"#utility.yul\":6104:6157   */\n      tag_180\n      jump\t// in\n    tag_222:\n        /* \"#utility.yul\":6094:6157   */\n      swap3\n      pop\n        /* \"#utility.yul\":6050:6167   */\n      pop\n        /* \"#utility.yul\":6234:6236   */\n      0x20\n        /* \"#utility.yul\":6223:6232   */\n      dup4\n        /* \"#utility.yul\":6219:6237   */\n      add\n        /* \"#utility.yul\":6206:6238   */\n      calldataload\n        /* \"#utility.yul\":6265:6283   */\n      0xffffffffffffffff\n        /* \"#utility.yul\":6257:6263   */\n      dup2\n        /* \"#utility.yul\":6254:6284   */\n      gt\n        /* \"#utility.yul\":6251:6368   */\n      iszero\n      tag_223\n      jumpi\n        /* \"#utility.yul\":6287:6366   */\n      tag_224\n      tag_190\n      jump\t// in\n    tag_224:\n        /* \"#utility.yul\":6251:6368   */\n    tag_223:\n        /* \"#utility.yul\":6392:6480   */\n      tag_225\n        /* \"#utility.yul\":6472:6479   */\n      dup6\n        /* \"#utility.yul\":6463:6469   */\n      dup3\n        /* \"#utility.yul\":6452:6461   */\n      dup7\n        /* \"#utility.yul\":6448:6470   */\n      add\n        /* \"#utility.yul\":6392:6480   */\n      tag_171\n      jump\t// in\n    tag_225:\n        /* \"#utility.yul\":6382:6480   */\n      swap2\n      pop\n        /* \"#utility.yul\":6177:6490   */\n      pop\n        /* \"#utility.yul\":5793:6497   */\n      swap3\n      pop\n      swap3\n      swap1\n      pop\n      jump\t// out\n        /* \"#utility.yul\":6503:6699   */\n    tag_226:\n        /* \"#utility.yul\":6592:6602   */\n      0x00\n        /* \"#utility.yul\":6627:6693   */\n      tag_228\n        /* \"#utility.yul\":6689:6692   */\n      dup4\n        /* \"#utility.yul\":6681:6687   */\n      dup4\n        /* \"#utility.yul\":6627:6693   */\n      tag_229\n      jump\t// in\n    tag_228:\n        /* \"#utility.yul\":6613:6693   */\n      swap1\n      pop\n        /* \"#utility.yul\":6503:6699   */\n      swap3\n      swap2\n      pop\n      pop\n      jump\t// out\n        /* \"#utility.yul\":6705:6823   */\n    tag_230:\n        /* \"#utility.yul\":6792:6816   */\n      tag_232\n        /* \"#utility.yul\":6810:6815   */\n      dup2\n        /* \"#utility.yul\":6792:6816   */\n      tag_233\n      jump\t// in\n    tag_232:\n        /* \"#utility.yul\":6787:6790   */\n      dup3\n        /* \"#utility.yul\":6780:6817   */\n      mstore\n        /* \"#utility.yul\":6705:6823   */\n      pop\n      pop\n      jump\t// out\n        /* \"#utility.yul\":6857:7848   */\n    tag_234:\n        /* \"#utility.yul\":6996:6999   */\n      0x00\n        /* \"#utility.yul\":7025:7089   */\n      tag_236\n        /* \"#utility.yul\":7083:7088   */\n      dup3\n        /* \"#utility.yul\":7025:7089   */\n      tag_237\n      jump\t// in\n    tag_236:\n        /* \"#utility.yul\":7105:7201   */\n      tag_238\n        /* \"#utility.yul\":7194:7200   */\n      dup2\n        /* \"#utility.yul\":7189:7192   */\n      dup6\n        /* \"#utility.yul\":7105:7201   */\n      tag_239\n      jump\t// in\n    tag_238:\n        /* \"#utility.yul\":7098:7201   */\n      swap4\n      pop\n        /* \"#utility.yul\":7227:7230   */\n      dup4\n        /* \"#utility.yul\":7272:7276   */\n      0x20\n        /* \"#utility.yul\":7264:7270   */\n      dup3\n        /* \"#utility.yul\":7260:7277   */\n      mul\n        /* \"#utility.yul\":7255:7258   */\n      dup6\n        /* \"#utility.yul\":7251:7278   */\n      add\n        /* \"#utility.yul\":7302:7368   */\n      tag_240\n        /* \"#utility.yul\":7362:7367   */\n      dup6\n        /* \"#utility.yul\":7302:7368   */\n      tag_241\n      jump\t// in\n    tag_240:\n        /* \"#utility.yul\":7391:7398   */\n      dup1\n        /* \"#utility.yul\":7422:7423   */\n      0x00\n        /* \"#utility.yul\":7407:7803   */\n    tag_242:\n        /* \"#utility.yul\":7432:7438   */\n      dup6\n        /* \"#utility.yul\":7429:7430   */\n      dup2\n        /* \"#utility.yul\":7426:7439   */\n      lt\n        /* \"#utility.yul\":7407:7803   */\n      iszero\n      tag_244\n      jumpi\n        /* \"#utility.yul\":7503:7512   */\n      dup5\n        /* \"#utility.yul\":7497:7501   */\n      dup5\n        /* \"#utility.yul\":7493:7513   */\n      sub\n        /* \"#utility.yul\":7488:7491   */\n      dup10\n        /* \"#utility.yul\":7481:7514   */\n      mstore\n        /* \"#utility.yul\":7554:7560   */\n      dup2\n        /* \"#utility.yul\":7548:7561   */\n      mload\n        /* \"#utility.yul\":7582:7666   */\n      tag_245\n        /* \"#utility.yul\":7661:7665   */\n      dup6\n        /* \"#utility.yul\":7646:7659   */\n      dup3\n        /* \"#utility.yul\":7582:7666   */\n      tag_226\n      jump\t// in\n    tag_245:\n        /* \"#utility.yul\":7574:7666   */\n      swap5\n      pop\n        /* \"#utility.yul\":7689:7759   */\n      tag_246\n        /* \"#utility.yul\":7752:7758   */\n      dup4\n        /* \"#utility.yul\":7689:7759   */\n      tag_247\n      jump\t// in\n    tag_246:\n        /* \"#utility.yul\":7679:7759   */\n      swap3\n      pop\n        /* \"#utility.yul\":7788:7792   */\n      0x20\n        /* \"#utility.yul\":7783:7786   */\n      dup11\n        /* \"#utility.yul\":7779:7793   */\n      add\n        /* \"#utility.yul\":7772:7793   */\n      swap10\n      pop\n        /* \"#utility.yul\":7467:7803   */\n      pop\n        /* \"#utility.yul\":7454:7455   */\n      0x01\n        /* \"#utility.yul\":7451:7452   */\n      dup2\n        /* \"#utility.yul\":7447:7456   */\n      add\n        /* \"#utility.yul\":7442:7456   */\n      swap1\n      pop\n        /* \"#utility.yul\":7407:7803   */\n      jump(tag_242)\n    tag_244:\n        /* \"#utility.yul\":7411:7425   */\n      pop\n        /* \"#utility.yul\":7819:7823   */\n      dup3\n        /* \"#utility.yul\":7812:7823   */\n      swap8\n      pop\n        /* \"#utility.yul\":7839:7842   */\n      dup8\n        /* \"#utility.yul\":7832:7842   */\n      swap6\n      pop\n        /* \"#utility.yul\":7001:7848   */\n      pop\n      pop\n      pop\n      pop\n      pop\n        /* \"#utility.yul\":6857:7848   */\n      swap3\n      swap2\n      pop\n      pop\n      jump\t// out\n        /* \"#utility.yul\":7854:8198   */\n    tag_229:\n        /* \"#utility.yul\":7932:7935   */\n      0x00\n        /* \"#utility.yul\":7960:7999   */\n      tag_249\n        /* \"#utility.yul\":7993:7998   */\n      dup3\n        /* \"#utility.yul\":7960:7999   */\n      tag_250\n      jump\t// in\n    tag_249:\n        /* \"#utility.yul\":8015:8076   */\n      tag_251\n        /* \"#utility.yul\":8069:8075   */\n      dup2\n        /* \"#utility.yul\":8064:8067   */\n      dup6\n        /* \"#utility.yul\":8015:8076   */\n      tag_252\n      jump\t// in\n    tag_251:\n        /* \"#utility.yul\":8008:8076   */\n      swap4\n      pop\n        /* \"#utility.yul\":8085:8137   */\n      tag_253\n        /* \"#utility.yul\":8130:8136   */\n      dup2\n        /* \"#utility.yul\":8125:8128   */\n      dup6\n        /* \"#utility.yul\":8118:8122   */\n      0x20\n        /* \"#utility.yul\":8111:8116   */\n      dup7\n        /* \"#utility.yul\":8107:8123   */\n      add\n        /* \"#utility.yul\":8085:8137   */\n      tag_254\n      jump\t// in\n    tag_253:\n        /* \"#utility.yul\":8162:8191   */\n      tag_255\n        /* \"#utility.yul\":8184:8190   */\n      dup2\n        /* \"#utility.yul\":8162:8191   */\n      tag_256\n      jump\t// in\n    tag_255:\n        /* \"#utility.yul\":8157:8160   */\n      dup5\n        /* \"#utility.yul\":8153:8192   */\n      add\n        /* \"#utility.yul\":8146:8192   */\n      swap2\n      pop\n        /* \"#utility.yul\":7936:8198   */\n      pop\n        /* \"#utility.yul\":7854:8198   */\n      swap3\n      swap2\n      pop\n      pop\n      jump\t// out\n        /* \"#utility.yul\":8204:8568   */\n    tag_257:\n        /* \"#utility.yul\":8292:8295   */\n      0x00\n        /* \"#utility.yul\":8320:8359   */\n      tag_259\n        /* \"#utility.yul\":8353:8358   */\n      dup3\n        /* \"#utility.yul\":8320:8359   */\n      tag_250\n      jump\t// in\n    tag_259:\n        /* \"#utility.yul\":8375:8446   */\n      tag_260\n        /* \"#utility.yul\":8439:8445   */\n      dup2\n        /* \"#utility.yul\":8434:8437   */\n      dup6\n        /* \"#utility.yul\":8375:8446   */\n      tag_261\n      jump\t// in\n    tag_260:\n        /* \"#utility.yul\":8368:8446   */\n      swap4\n      pop\n        /* \"#utility.yul\":8455:8507   */\n      tag_262\n        /* \"#utility.yul\":8500:8506   */\n      dup2\n        /* \"#utility.yul\":8495:8498   */\n      dup6\n        /* \"#utility.yul\":8488:8492   */\n      0x20\n        /* \"#utility.yul\":8481:8486   */\n      dup7\n        /* \"#utility.yul\":8477:8493   */\n      add\n        /* \"#utility.yul\":8455:8507   */\n      tag_254\n      jump\t// in\n    tag_262:\n        /* \"#utility.yul\":8532:8561   */\n      tag_263\n        /* \"#utility.yul\":8554:8560   */\n      dup2\n        /* \"#utility.yul\":8532:8561   */\n      tag_256\n      jump\t// in\n    tag_263:\n        /* \"#utility.yul\":8527:8530   */\n      dup5\n        /* \"#utility.yul\":8523:8562   */\n      add\n        /* \"#utility.yul\":8516:8562   */\n      swap2\n      pop\n        /* \"#utility.yul\":8296:8568   */\n      pop\n        /* \"#utility.yul\":8204:8568   */\n      swap3\n      swap2\n      pop\n      pop\n      jump\t// out\n        /* \"#utility.yul\":8574:8951   */\n    tag_264:\n        /* \"#utility.yul\":8680:8683   */\n      0x00\n        /* \"#utility.yul\":8708:8747   */\n      tag_266\n        /* \"#utility.yul\":8741:8746   */\n      dup3\n        /* \"#utility.yul\":8708:8747   */\n      tag_250\n      jump\t// in\n    tag_266:\n        /* \"#utility.yul\":8763:8852   */\n      tag_267\n        /* \"#utility.yul\":8845:8851   */\n      dup2\n        /* \"#utility.yul\":8840:8843   */\n      dup6\n        /* \"#utility.yul\":8763:8852   */\n      tag_268\n      jump\t// in\n    tag_267:\n        /* \"#utility.yul\":8756:8852   */\n      swap4\n      pop\n        /* \"#utility.yul\":8861:8913   */\n      tag_269\n        /* \"#utility.yul\":8906:8912   */\n      dup2\n        /* \"#utility.yul\":8901:8904   */\n      dup6\n        /* \"#utility.yul\":8894:8898   */\n      0x20\n        /* \"#utility.yul\":8887:8892   */\n      dup7\n        /* \"#utility.yul\":8883:8899   */\n      add\n        /* \"#utility.yul\":8861:8913   */\n      tag_254\n      jump\t// in\n    tag_269:\n        /* \"#utility.yul\":8938:8944   */\n      dup1\n        /* \"#utility.yul\":8933:8936   */\n      dup5\n        /* \"#utility.yul\":8929:8945   */\n      add\n        /* \"#utility.yul\":8922:8945   */\n      swap2\n      pop\n        /* \"#utility.yul\":8684:8951   */\n      pop\n        /* \"#utility.yul\":8574:8951   */\n      swap3\n      swap2\n      pop\n      pop\n      jump\t// out\n        /* \"#utility.yul\":8981:9783   */\n    tag_270:\n        /* \"#utility.yul\":9066:9069   */\n      0x00\n        /* \"#utility.yul\":9103:9108   */\n      dup2\n        /* \"#utility.yul\":9097:9109   */\n      sload\n        /* \"#utility.yul\":9132:9168   */\n      tag_272\n        /* \"#utility.yul\":9158:9167   */\n      dup2\n        /* \"#utility.yul\":9132:9168   */\n      tag_68\n      jump\t// in\n    tag_272:\n        /* \"#utility.yul\":9184:9255   */\n      tag_273\n        /* \"#utility.yul\":9248:9254   */\n      dup2\n        /* \"#utility.yul\":9243:9246   */\n      dup7\n        /* \"#utility.yul\":9184:9255   */\n      tag_261\n      jump\t// in\n    tag_273:\n        /* \"#utility.yul\":9177:9255   */\n      swap5\n      pop\n        /* \"#utility.yul\":9286:9287   */\n      0x01\n        /* \"#utility.yul\":9275:9284   */\n      dup3\n        /* \"#utility.yul\":9271:9288   */\n      and\n        /* \"#utility.yul\":9302:9303   */\n      0x00\n        /* \"#utility.yul\":9297:9432   */\n      dup2\n      eq\n      tag_275\n      jumpi\n        /* \"#utility.yul\":9446:9447   */\n      0x01\n        /* \"#utility.yul\":9441:9777   */\n      dup2\n      eq\n      tag_276\n      jumpi\n        /* \"#utility.yul\":9264:9777   */\n      jump(tag_274)\n        /* \"#utility.yul\":9297:9432   */\n    tag_275:\n        /* \"#utility.yul\":9381:9385   */\n      0xff\n        /* \"#utility.yul\":9377:9386   */\n      not\n        /* \"#utility.yul\":9366:9375   */\n      dup4\n        /* \"#utility.yul\":9362:9387   */\n      and\n        /* \"#utility.yul\":9357:9360   */\n      dup7\n        /* \"#utility.yul\":9350:9388   */\n      mstore\n        /* \"#utility.yul\":9417:9421   */\n      0x20\n        /* \"#utility.yul\":9412:9415   */\n      dup7\n        /* \"#utility.yul\":9408:9422   */\n      add\n        /* \"#utility.yul\":9401:9422   */\n      swap4\n      pop\n        /* \"#utility.yul\":9297:9432   */\n      jump(tag_274)\n        /* \"#utility.yul\":9441:9777   */\n    tag_276:\n        /* \"#utility.yul\":9508:9546   */\n      tag_277\n        /* \"#utility.yul\":9540:9545   */\n      dup6\n        /* \"#utility.yul\":9508:9546   */\n      tag_278\n      jump\t// in\n    tag_277:\n        /* \"#utility.yul\":9568:9569   */\n      0x00\n        /* \"#utility.yul\":9582:9736   */\n    tag_279:\n        /* \"#utility.yul\":9596:9602   */\n      dup4\n        /* \"#utility.yul\":9593:9594   */\n      dup2\n        /* \"#utility.yul\":9590:9603   */\n      lt\n        /* \"#utility.yul\":9582:9736   */\n      iszero\n      tag_281\n      jumpi\n        /* \"#utility.yul\":9670:9677   */\n      dup2\n        /* \"#utility.yul\":9664:9678   */\n      sload\n        /* \"#utility.yul\":9660:9661   */\n      dup2\n        /* \"#utility.yul\":9655:9658   */\n      dup10\n        /* \"#utility.yul\":9651:9662   */\n      add\n        /* \"#utility.yul\":9644:9679   */\n      mstore\n        /* \"#utility.yul\":9720:9721   */\n      0x01\n        /* \"#utility.yul\":9711:9718   */\n      dup3\n        /* \"#utility.yul\":9707:9722   */\n      add\n        /* \"#utility.yul\":9696:9722   */\n      swap2\n      pop\n        /* \"#utility.yul\":9618:9622   */\n      0x20\n        /* \"#utility.yul\":9615:9616   */\n      dup2\n        /* \"#utility.yul\":9611:9623   */\n      add\n        /* \"#utility.yul\":9606:9623   */\n      swap1\n      pop\n        /* \"#utility.yul\":9582:9736   */\n      jump(tag_279)\n    tag_281:\n        /* \"#utility.yul\":9765:9766   */\n      dup1\n        /* \"#utility.yul\":9760:9763   */\n      dup9\n        /* \"#utility.yul\":9756:9767   */\n      add\n        /* \"#utility.yul\":9749:9767   */\n      swap6\n      pop\n        /* \"#utility.yul\":9448:9777   */\n      pop\n      pop\n        /* \"#utility.yul\":9264:9777   */\n    tag_274:\n      pop\n        /* \"#utility.yul\":9070:9783   */\n      pop\n      pop\n        /* \"#utility.yul\":8981:9783   */\n      swap3\n      swap2\n      pop\n      pop\n      jump\t// out\n        /* \"#utility.yul\":9813:10658   */\n    tag_282:\n        /* \"#utility.yul\":9916:9919   */\n      0x00\n        /* \"#utility.yul\":9953:9958   */\n      dup2\n        /* \"#utility.yul\":9947:9959   */\n      sload\n        /* \"#utility.yul\":9982:10018   */\n      tag_284\n        /* \"#utility.yul\":10008:10017   */\n      dup2\n        /* \"#utility.yul\":9982:10018   */\n      tag_68\n      jump\t// in\n    tag_284:\n        /* \"#utility.yul\":10034:10123   */\n      tag_285\n        /* \"#utility.yul\":10116:10122   */\n      dup2\n        /* \"#utility.yul\":10111:10114   */\n      dup7\n        /* \"#utility.yul\":10034:10123   */\n      tag_268\n      jump\t// in\n    tag_285:\n        /* \"#utility.yul\":10027:10123   */\n      swap5\n      pop\n        /* \"#utility.yul\":10154:10155   */\n      0x01\n        /* \"#utility.yul\":10143:10152   */\n      dup3\n        /* \"#utility.yul\":10139:10156   */\n      and\n        /* \"#utility.yul\":10170:10171   */\n      0x00\n        /* \"#utility.yul\":10165:10302   */\n      dup2\n      eq\n      tag_287\n      jumpi\n        /* \"#utility.yul\":10316:10317   */\n      0x01\n        /* \"#utility.yul\":10311:10652   */\n      dup2\n      eq\n      tag_288\n      jumpi\n        /* \"#utility.yul\":10132:10652   */\n      jump(tag_286)\n        /* \"#utility.yul\":10165:10302   */\n    tag_287:\n        /* \"#utility.yul\":10249:10253   */\n      0xff\n        /* \"#utility.yul\":10245:10254   */\n      not\n        /* \"#utility.yul\":10234:10243   */\n      dup4\n        /* \"#utility.yul\":10230:10255   */\n      and\n        /* \"#utility.yul\":10225:10228   */\n      dup7\n        /* \"#utility.yul\":10218:10256   */\n      mstore\n        /* \"#utility.yul\":10285:10291   */\n      dup2\n        /* \"#utility.yul\":10280:10283   */\n      dup7\n        /* \"#utility.yul\":10276:10292   */\n      add\n        /* \"#utility.yul\":10269:10292   */\n      swap4\n      pop\n        /* \"#utility.yul\":10165:10302   */\n      jump(tag_286)\n        /* \"#utility.yul\":10311:10652   */\n    tag_288:\n        /* \"#utility.yul\":10378:10416   */\n      tag_289\n        /* \"#utility.yul\":10410:10415   */\n      dup6\n        /* \"#utility.yul\":10378:10416   */\n      tag_278\n      jump\t// in\n    tag_289:\n        /* \"#utility.yul\":10438:10439   */\n      0x00\n        /* \"#utility.yul\":10452:10606   */\n    tag_290:\n        /* \"#utility.yul\":10466:10472   */\n      dup4\n        /* \"#utility.yul\":10463:10464   */\n      dup2\n        /* \"#utility.yul\":10460:10473   */\n      lt\n        /* \"#utility.yul\":10452:10606   */\n      iszero\n      tag_292\n      jumpi\n        /* \"#utility.yul\":10540:10547   */\n      dup2\n        /* \"#utility.yul\":10534:10548   */\n      sload\n        /* \"#utility.yul\":10530:10531   */\n      dup2\n        /* \"#utility.yul\":10525:10528   */\n      dup10\n        /* \"#utility.yul\":10521:10532   */\n      add\n        /* \"#utility.yul\":10514:10549   */\n      mstore\n        /* \"#utility.yul\":10590:10591   */\n      0x01\n        /* \"#utility.yul\":10581:10588   */\n      dup3\n        /* \"#utility.yul\":10577:10592   */\n      add\n        /* \"#utility.yul\":10566:10592   */\n      swap2\n      pop\n        /* \"#utility.yul\":10488:10492   */\n      0x20\n        /* \"#utility.yul\":10485:10486   */\n      dup2\n        /* \"#utility.yul\":10481:10493   */\n      add\n        /* \"#utility.yul\":10476:10493   */\n      swap1\n      pop\n        /* \"#utility.yul\":10452:10606   */\n      jump(tag_290)\n    tag_292:\n        /* \"#utility.yul\":10635:10641   */\n      dup4\n        /* \"#utility.yul\":10630:10633   */\n      dup9\n        /* \"#utility.yul\":10626:10642   */\n      add\n        /* \"#utility.yul\":10619:10642   */\n      swap6\n      pop\n        /* \"#utility.yul\":10318:10652   */\n      pop\n      pop\n        /* \"#utility.yul\":10132:10652   */\n    tag_286:\n      pop\n        /* \"#utility.yul\":9920:10658   */\n      pop\n      pop\n        /* \"#utility.yul\":9813:10658   */\n      swap3\n      swap2\n      pop\n      pop\n      jump\t// out\n        /* \"#utility.yul\":10664:11030   */\n    tag_293:\n        /* \"#utility.yul\":10806:10809   */\n      0x00\n        /* \"#utility.yul\":10827:10894   */\n      tag_295\n        /* \"#utility.yul\":10891:10893   */\n      0x0e\n        /* \"#utility.yul\":10886:10889   */\n      dup4\n        /* \"#utility.yul\":10827:10894   */\n      tag_261\n      jump\t// in\n    tag_295:\n        /* \"#utility.yul\":10820:10894   */\n      swap2\n      pop\n        /* \"#utility.yul\":10903:10996   */\n      tag_296\n        /* \"#utility.yul\":10992:10995   */\n      dup3\n        /* \"#utility.yul\":10903:10996   */\n      tag_297\n      jump\t// in\n    tag_296:\n        /* \"#utility.yul\":11021:11023   */\n      0x20\n        /* \"#utility.yul\":11016:11019   */\n      dup3\n        /* \"#utility.yul\":11012:11024   */\n      add\n        /* \"#utility.yul\":11005:11024   */\n      swap1\n      pop\n        /* \"#utility.yul\":10664:11030   */\n      swap2\n      swap1\n      pop\n      jump\t// out\n        /* \"#utility.yul\":11036:11402   */\n    tag_298:\n        /* \"#utility.yul\":11178:11181   */\n      0x00\n        /* \"#utility.yul\":11199:11266   */\n      tag_300\n        /* \"#utility.yul\":11263:11265   */\n      0x40\n        /* \"#utility.yul\":11258:11261   */\n      dup4\n        /* \"#utility.yul\":11199:11266   */\n      tag_261\n      jump\t// in\n    tag_300:\n        /* \"#utility.yul\":11192:11266   */\n      swap2\n      pop\n        /* \"#utility.yul\":11275:11368   */\n      tag_301\n        /* \"#utility.yul\":11364:11367   */\n      dup3\n        /* \"#utility.yul\":11275:11368   */\n      tag_302\n      jump\t// in\n    tag_301:\n        /* \"#utility.yul\":11393:11395   */\n      0x40\n        /* \"#utility.yul\":11388:11391   */\n      dup3\n        /* \"#utility.yul\":11384:11396   */\n      add\n        /* \"#utility.yul\":11377:11396   */\n      swap1\n      pop\n        /* \"#utility.yul\":11036:11402   */\n      swap2\n      swap1\n      pop\n      jump\t// out\n        /* \"#utility.yul\":11408:11774   */\n    tag_303:\n        /* \"#utility.yul\":11550:11553   */\n      0x00\n        /* \"#utility.yul\":11571:11638   */\n      tag_305\n        /* \"#utility.yul\":11635:11637   */\n      0x21\n        /* \"#utility.yul\":11630:11633   */\n      dup4\n        /* \"#utility.yul\":11571:11638   */\n      tag_261\n      jump\t// in\n    tag_305:\n        /* \"#utility.yul\":11564:11638   */\n      swap2\n      pop\n        /* \"#utility.yul\":11647:11740   */\n      tag_306\n        /* \"#utility.yul\":11736:11739   */\n      dup3\n        /* \"#utility.yul\":11647:11740   */\n      tag_307\n      jump\t// in\n    tag_306:\n        /* \"#utility.yul\":11765:11767   */\n      0x40\n        /* \"#utility.yul\":11760:11763   */\n      dup3\n        /* \"#utility.yul\":11756:11768   */\n      add\n        /* \"#utility.yul\":11749:11768   */\n      swap1\n      pop\n        /* \"#utility.yul\":11408:11774   */\n      swap2\n      swap1\n      pop\n      jump\t// out\n        /* \"#utility.yul\":11780:12146   */\n    tag_308:\n        /* \"#utility.yul\":11922:11925   */\n      0x00\n        /* \"#utility.yul\":11943:12010   */\n      tag_310\n        /* \"#utility.yul\":12007:12009   */\n      0x2f\n        /* \"#utility.yul\":12002:12005   */\n      dup4\n        /* \"#utility.yul\":11943:12010   */\n      tag_261\n      jump\t// in\n    tag_310:\n        /* \"#utility.yul\":11936:12010   */\n      swap2\n      pop\n        /* \"#utility.yul\":12019:12112   */\n      tag_311\n        /* \"#utility.yul\":12108:12111   */\n      dup3\n        /* \"#utility.yul\":12019:12112   */\n      tag_312\n      jump\t// in\n    tag_311:\n        /* \"#utility.yul\":12137:12139   */\n      0x40\n        /* \"#utility.yul\":12132:12135   */\n      dup3\n        /* \"#utility.yul\":12128:12140   */\n      add\n        /* \"#utility.yul\":12121:12140   */\n      swap1\n      pop\n        /* \"#utility.yul\":11780:12146   */\n      swap2\n      swap1\n      pop\n      jump\t// out\n        /* \"#utility.yul\":12152:12270   */\n    tag_313:\n        /* \"#utility.yul\":12239:12263   */\n      tag_315\n        /* \"#utility.yul\":12257:12262   */\n      dup2\n        /* \"#utility.yul\":12239:12263   */\n      tag_316\n      jump\t// in\n    tag_315:\n        /* \"#utility.yul\":12234:12237   */\n      dup3\n        /* \"#utility.yul\":12227:12264   */\n      mstore\n        /* \"#utility.yul\":12152:12270   */\n      pop\n      pop\n      jump\t// out\n        /* \"#utility.yul\":12276:12551   */\n    tag_110:\n        /* \"#utility.yul\":12408:12411   */\n      0x00\n        /* \"#utility.yul\":12430:12525   */\n      tag_318\n        /* \"#utility.yul\":12521:12524   */\n      dup3\n        /* \"#utility.yul\":12512:12518   */\n      dup5\n        /* \"#utility.yul\":12430:12525   */\n      tag_264\n      jump\t// in\n    tag_318:\n        /* \"#utility.yul\":12423:12525   */\n      swap2\n      pop\n        /* \"#utility.yul\":12542:12545   */\n      dup2\n        /* \"#utility.yul\":12535:12545   */\n      swap1\n      pop\n        /* \"#utility.yul\":12276:12551   */\n      swap3\n      swap2\n      pop\n      pop\n      jump\t// out\n        /* \"#utility.yul\":12557:12826   */\n    tag_115:\n        /* \"#utility.yul\":12686:12689   */\n      0x00\n        /* \"#utility.yul\":12708:12800   */\n      tag_320\n        /* \"#utility.yul\":12796:12799   */\n      dup3\n        /* \"#utility.yul\":12787:12793   */\n      dup5\n        /* \"#utility.yul\":12708:12800   */\n      tag_282\n      jump\t// in\n    tag_320:\n        /* \"#utility.yul\":12701:12800   */\n      swap2\n      pop\n        /* \"#utility.yul\":12817:12820   */\n      dup2\n        /* \"#utility.yul\":12810:12820   */\n      swap1\n      pop\n        /* \"#utility.yul\":12557:12826   */\n      swap3\n      swap2\n      pop\n      pop\n      jump\t// out\n        /* \"#utility.yul\":12832:13054   */\n    tag_22:\n        /* \"#utility.yul\":12925:12929   */\n      0x00\n        /* \"#utility.yul\":12963:12965   */\n      0x20\n        /* \"#utility.yul\":12952:12961   */\n      dup3\n        /* \"#utility.yul\":12948:12966   */\n      add\n        /* \"#utility.yul\":12940:12966   */\n      swap1\n      pop\n        /* \"#utility.yul\":12976:13047   */\n      tag_322\n        /* \"#utility.yul\":13044:13045   */\n      0x00\n        /* \"#utility.yul\":13033:13042   */\n      dup4\n        /* \"#utility.yul\":13029:13046   */\n      add\n        /* \"#utility.yul\":13020:13026   */\n      dup5\n        /* \"#utility.yul\":12976:13047   */\n      tag_230\n      jump\t// in\n    tag_322:\n        /* \"#utility.yul\":12832:13054   */\n      swap3\n      swap2\n      pop\n      pop\n      jump\t// out\n        /* \"#utility.yul\":13060:14085   */\n    tag_63:\n        /* \"#utility.yul\":13369:13373   */\n      0x00\n        /* \"#utility.yul\":13407:13410   */\n      0xa0\n        /* \"#utility.yul\":13396:13405   */\n      dup3\n        /* \"#utility.yul\":13392:13411   */\n      add\n        /* \"#utility.yul\":13384:13411   */\n      swap1\n      pop\n        /* \"#utility.yul\":13457:13466   */\n      dup2\n        /* \"#utility.yul\":13451:13455   */\n      dup2\n        /* \"#utility.yul\":13447:13467   */\n      sub\n        /* \"#utility.yul\":13443:13444   */\n      0x00\n        /* \"#utility.yul\":13432:13441   */\n      dup4\n        /* \"#utility.yul\":13428:13445   */\n      add\n        /* \"#utility.yul\":13421:13468   */\n      mstore\n        /* \"#utility.yul\":13485:13613   */\n      tag_324\n        /* \"#utility.yul\":13608:13612   */\n      dup2\n        /* \"#utility.yul\":13599:13605   */\n      dup9\n        /* \"#utility.yul\":13485:13613   */\n      tag_234\n      jump\t// in\n    tag_324:\n        /* \"#utility.yul\":13477:13613   */\n      swap1\n      pop\n        /* \"#utility.yul\":13623:13695   */\n      tag_325\n        /* \"#utility.yul\":13691:13693   */\n      0x20\n        /* \"#utility.yul\":13680:13689   */\n      dup4\n        /* \"#utility.yul\":13676:13694   */\n      add\n        /* \"#utility.yul\":13667:13673   */\n      dup8\n        /* \"#utility.yul\":13623:13695   */\n      tag_313\n      jump\t// in\n    tag_325:\n        /* \"#utility.yul\":13705:13777   */\n      tag_326\n        /* \"#utility.yul\":13773:13775   */\n      0x40\n        /* \"#utility.yul\":13762:13771   */\n      dup4\n        /* \"#utility.yul\":13758:13776   */\n      add\n        /* \"#utility.yul\":13749:13755   */\n      dup7\n        /* \"#utility.yul\":13705:13777   */\n      tag_230\n      jump\t// in\n    tag_326:\n        /* \"#utility.yul\":13824:13833   */\n      dup2\n        /* \"#utility.yul\":13818:13822   */\n      dup2\n        /* \"#utility.yul\":13814:13834   */\n      sub\n        /* \"#utility.yul\":13809:13811   */\n      0x60\n        /* \"#utility.yul\":13798:13807   */\n      dup4\n        /* \"#utility.yul\":13794:13812   */\n      add\n        /* \"#utility.yul\":13787:13835   */\n      mstore\n        /* \"#utility.yul\":13852:13927   */\n      tag_327\n        /* \"#utility.yul\":13922:13926   */\n      dup2\n        /* \"#utility.yul\":13913:13919   */\n      dup6\n        /* \"#utility.yul\":13852:13927   */\n      tag_270\n      jump\t// in\n    tag_327:\n        /* \"#utility.yul\":13844:13927   */\n      swap1\n      pop\n        /* \"#utility.yul\":13975:13984   */\n      dup2\n        /* \"#utility.yul\":13969:13973   */\n      dup2\n        /* \"#utility.yul\":13965:13985   */\n      sub\n        /* \"#utility.yul\":13959:13962   */\n      0x80\n        /* \"#utility.yul\":13948:13957   */\n      dup4\n        /* \"#utility.yul\":13944:13963   */\n      add\n        /* \"#utility.yul\":13937:13986   */\n      mstore\n        /* \"#utility.yul\":14003:14078   */\n      tag_328\n        /* \"#utility.yul\":14073:14077   */\n      dup2\n        /* \"#utility.yul\":14064:14070   */\n      dup5\n        /* \"#utility.yul\":14003:14078   */\n      tag_270\n      jump\t// in\n    tag_328:\n        /* \"#utility.yul\":13995:14078   */\n      swap1\n      pop\n        /* \"#utility.yul\":13060:14085   */\n      swap7\n      swap6\n      pop\n      pop\n      pop\n      pop\n      pop\n      pop\n      jump\t// out\n        /* \"#utility.yul\":14091:16364   */\n    tag_96:\n        /* \"#utility.yul\":14704:14708   */\n      0x00\n        /* \"#utility.yul\":14742:14745   */\n      0x0180\n        /* \"#utility.yul\":14731:14740   */\n      dup3\n        /* \"#utility.yul\":14727:14746   */\n      add\n        /* \"#utility.yul\":14719:14746   */\n      swap1\n      pop\n        /* \"#utility.yul\":14792:14801   */\n      dup2\n        /* \"#utility.yul\":14786:14790   */\n      dup2\n        /* \"#utility.yul\":14782:14802   */\n      sub\n        /* \"#utility.yul\":14778:14779   */\n      0x00\n        /* \"#utility.yul\":14767:14776   */\n      dup4\n        /* \"#utility.yul\":14763:14780   */\n      add\n        /* \"#utility.yul\":14756:14803   */\n      mstore\n        /* \"#utility.yul\":14820:14898   */\n      tag_330\n        /* \"#utility.yul\":14893:14897   */\n      dup2\n        /* \"#utility.yul\":14884:14890   */\n      dup16\n        /* \"#utility.yul\":14820:14898   */\n      tag_257\n      jump\t// in\n    tag_330:\n        /* \"#utility.yul\":14812:14898   */\n      swap1\n      pop\n        /* \"#utility.yul\":14945:14954   */\n      dup2\n        /* \"#utility.yul\":14939:14943   */\n      dup2\n        /* \"#utility.yul\":14935:14955   */\n      sub\n        /* \"#utility.yul\":14930:14932   */\n      0x20\n        /* \"#utility.yul\":14919:14928   */\n      dup4\n        /* \"#utility.yul\":14915:14933   */\n      add\n        /* \"#utility.yul\":14908:14956   */\n      mstore\n        /* \"#utility.yul\":14973:15051   */\n      tag_331\n        /* \"#utility.yul\":15046:15050   */\n      dup2\n        /* \"#utility.yul\":15037:15043   */\n      dup15\n        /* \"#utility.yul\":14973:15051   */\n      tag_257\n      jump\t// in\n    tag_331:\n        /* \"#utility.yul\":14965:15051   */\n      swap1\n      pop\n        /* \"#utility.yul\":15098:15107   */\n      dup2\n        /* \"#utility.yul\":15092:15096   */\n      dup2\n        /* \"#utility.yul\":15088:15108   */\n      sub\n        /* \"#utility.yul\":15083:15085   */\n      0x40\n        /* \"#utility.yul\":15072:15081   */\n      dup4\n        /* \"#utility.yul\":15068:15086   */\n      add\n        /* \"#utility.yul\":15061:15109   */\n      mstore\n        /* \"#utility.yul\":15126:15204   */\n      tag_332\n        /* \"#utility.yul\":15199:15203   */\n      dup2\n        /* \"#utility.yul\":15190:15196   */\n      dup14\n        /* \"#utility.yul\":15126:15204   */\n      tag_257\n      jump\t// in\n    tag_332:\n        /* \"#utility.yul\":15118:15204   */\n      swap1\n      pop\n        /* \"#utility.yul\":15251:15260   */\n      dup2\n        /* \"#utility.yul\":15245:15249   */\n      dup2\n        /* \"#utility.yul\":15241:15261   */\n      sub\n        /* \"#utility.yul\":15236:15238   */\n      0x60\n        /* \"#utility.yul\":15225:15234   */\n      dup4\n        /* \"#utility.yul\":15221:15239   */\n      add\n        /* \"#utility.yul\":15214:15262   */\n      mstore\n        /* \"#utility.yul\":15279:15357   */\n      tag_333\n        /* \"#utility.yul\":15352:15356   */\n      dup2\n        /* \"#utility.yul\":15343:15349   */\n      dup13\n        /* \"#utility.yul\":15279:15357   */\n      tag_257\n      jump\t// in\n    tag_333:\n        /* \"#utility.yul\":15271:15357   */\n      swap1\n      pop\n        /* \"#utility.yul\":15405:15414   */\n      dup2\n        /* \"#utility.yul\":15399:15403   */\n      dup2\n        /* \"#utility.yul\":15395:15415   */\n      sub\n        /* \"#utility.yul\":15389:15392   */\n      0x80\n        /* \"#utility.yul\":15378:15387   */\n      dup4\n        /* \"#utility.yul\":15374:15393   */\n      add\n        /* \"#utility.yul\":15367:15416   */\n      mstore\n        /* \"#utility.yul\":15433:15511   */\n      tag_334\n        /* \"#utility.yul\":15506:15510   */\n      dup2\n        /* \"#utility.yul\":15497:15503   */\n      dup12\n        /* \"#utility.yul\":15433:15511   */\n      tag_257\n      jump\t// in\n    tag_334:\n        /* \"#utility.yul\":15425:15511   */\n      swap1\n      pop\n        /* \"#utility.yul\":15559:15568   */\n      dup2\n        /* \"#utility.yul\":15553:15557   */\n      dup2\n        /* \"#utility.yul\":15549:15569   */\n      sub\n        /* \"#utility.yul\":15543:15546   */\n      0xa0\n        /* \"#utility.yul\":15532:15541   */\n      dup4\n        /* \"#utility.yul\":15528:15547   */\n      add\n        /* \"#utility.yul\":15521:15570   */\n      mstore\n        /* \"#utility.yul\":15587:15665   */\n      tag_335\n        /* \"#utility.yul\":15660:15664   */\n      dup2\n        /* \"#utility.yul\":15651:15657   */\n      dup11\n        /* \"#utility.yul\":15587:15665   */\n      tag_257\n      jump\t// in\n    tag_335:\n        /* \"#utility.yul\":15579:15665   */\n      swap1\n      pop\n        /* \"#utility.yul\":15713:15722   */\n      dup2\n        /* \"#utility.yul\":15707:15711   */\n      dup2\n        /* \"#utility.yul\":15703:15723   */\n      sub\n        /* \"#utility.yul\":15697:15700   */\n      0xc0\n        /* \"#utility.yul\":15686:15695   */\n      dup4\n        /* \"#utility.yul\":15682:15701   */\n      add\n        /* \"#utility.yul\":15675:15724   */\n      mstore\n        /* \"#utility.yul\":15741:15819   */\n      tag_336\n        /* \"#utility.yul\":15814:15818   */\n      dup2\n        /* \"#utility.yul\":15805:15811   */\n      dup10\n        /* \"#utility.yul\":15741:15819   */\n      tag_257\n      jump\t// in\n    tag_336:\n        /* \"#utility.yul\":15733:15819   */\n      swap1\n      pop\n        /* \"#utility.yul\":15829:15902   */\n      tag_337\n        /* \"#utility.yul\":15897:15900   */\n      0xe0\n        /* \"#utility.yul\":15886:15895   */\n      dup4\n        /* \"#utility.yul\":15882:15901   */\n      add\n        /* \"#utility.yul\":15873:15879   */\n      dup9\n        /* \"#utility.yul\":15829:15902   */\n      tag_313\n      jump\t// in\n    tag_337:\n        /* \"#utility.yul\":15912:15985   */\n      tag_338\n        /* \"#utility.yul\":15980:15983   */\n      0x0100\n        /* \"#utility.yul\":15969:15978   */\n      dup4\n        /* \"#utility.yul\":15965:15984   */\n      add\n        /* \"#utility.yul\":15956:15962   */\n      dup8\n        /* \"#utility.yul\":15912:15985   */\n      tag_313\n      jump\t// in\n    tag_338:\n        /* \"#utility.yul\":16033:16042   */\n      dup2\n        /* \"#utility.yul\":16027:16031   */\n      dup2\n        /* \"#utility.yul\":16023:16043   */\n      sub\n        /* \"#utility.yul\":16017:16020   */\n      0x0120\n        /* \"#utility.yul\":16006:16015   */\n      dup4\n        /* \"#utility.yul\":16002:16021   */\n      add\n        /* \"#utility.yul\":15995:16044   */\n      mstore\n        /* \"#utility.yul\":16061:16189   */\n      tag_339\n        /* \"#utility.yul\":16184:16188   */\n      dup2\n        /* \"#utility.yul\":16175:16181   */\n      dup7\n        /* \"#utility.yul\":16061:16189   */\n      tag_234\n      jump\t// in\n    tag_339:\n        /* \"#utility.yul\":16053:16189   */\n      swap1\n      pop\n        /* \"#utility.yul\":16199:16273   */\n      tag_340\n        /* \"#utility.yul\":16268:16271   */\n      0x0140\n        /* \"#utility.yul\":16257:16266   */\n      dup4\n        /* \"#utility.yul\":16253:16272   */\n      add\n        /* \"#utility.yul\":16243:16250   */\n      dup6\n        /* \"#utility.yul\":16199:16273   */\n      tag_313\n      jump\t// in\n    tag_340:\n        /* \"#utility.yul\":16283:16357   */\n      tag_341\n        /* \"#utility.yul\":16352:16355   */\n      0x0160\n        /* \"#utility.yul\":16341:16350   */\n      dup4\n        /* \"#utility.yul\":16337:16356   */\n      add\n        /* \"#utility.yul\":16327:16334   */\n      dup5\n        /* \"#utility.yul\":16283:16357   */\n      tag_230\n      jump\t// in\n    tag_341:\n        /* \"#utility.yul\":14091:16364   */\n      swap14\n      swap13\n      pop\n      pop\n      pop\n      pop\n      pop\n      pop\n      pop\n      pop\n      pop\n      pop\n      pop\n      pop\n      pop\n      jump\t// out\n        /* \"#utility.yul\":16370:17094   */\n    tag_17:\n        /* \"#utility.yul\":16609:16613   */\n      0x00\n        /* \"#utility.yul\":16647:16649   */\n      0x60\n        /* \"#utility.yul\":16636:16645   */\n      dup3\n        /* \"#utility.yul\":16632:16650   */\n      add\n        /* \"#utility.yul\":16624:16650   */\n      swap1\n      pop\n        /* \"#utility.yul\":16696:16705   */\n      dup2\n        /* \"#utility.yul\":16690:16694   */\n      dup2\n        /* \"#utility.yul\":16686:16706   */\n      sub\n        /* \"#utility.yul\":16682:16683   */\n      0x00\n        /* \"#utility.yul\":16671:16680   */\n      dup4\n        /* \"#utility.yul\":16667:16684   */\n      add\n        /* \"#utility.yul\":16660:16707   */\n      mstore\n        /* \"#utility.yul\":16724:16802   */\n      tag_343\n        /* \"#utility.yul\":16797:16801   */\n      dup2\n        /* \"#utility.yul\":16788:16794   */\n      dup7\n        /* \"#utility.yul\":16724:16802   */\n      tag_257\n      jump\t// in\n    tag_343:\n        /* \"#utility.yul\":16716:16802   */\n      swap1\n      pop\n        /* \"#utility.yul\":16812:16884   */\n      tag_344\n        /* \"#utility.yul\":16880:16882   */\n      0x20\n        /* \"#utility.yul\":16869:16878   */\n      dup4\n        /* \"#utility.yul\":16865:16883   */\n      add\n        /* \"#utility.yul\":16856:16862   */\n      dup6\n        /* \"#utility.yul\":16812:16884   */\n      tag_313\n      jump\t// in\n    tag_344:\n        /* \"#utility.yul\":16931:16940   */\n      dup2\n        /* \"#utility.yul\":16925:16929   */\n      dup2\n        /* \"#utility.yul\":16921:16941   */\n      sub\n        /* \"#utility.yul\":16916:16918   */\n      0x40\n        /* \"#utility.yul\":16905:16914   */\n      dup4\n        /* \"#utility.yul\":16901:16919   */\n      add\n        /* \"#utility.yul\":16894:16942   */\n      mstore\n        /* \"#utility.yul\":16959:17087   */\n      tag_345\n        /* \"#utility.yul\":17082:17086   */\n      dup2\n        /* \"#utility.yul\":17073:17079   */\n      dup5\n        /* \"#utility.yul\":16959:17087   */\n      tag_234\n      jump\t// in\n    tag_345:\n        /* \"#utility.yul\":16951:17087   */\n      swap1\n      pop\n        /* \"#utility.yul\":16370:17094   */\n      swap5\n      swap4\n      pop\n      pop\n      pop\n      pop\n      jump\t// out\n        /* \"#utility.yul\":17100:17519   */\n    tag_37:\n        /* \"#utility.yul\":17266:17270   */\n      0x00\n        /* \"#utility.yul\":17304:17306   */\n      0x20\n        /* \"#utility.yul\":17293:17302   */\n      dup3\n        /* \"#utility.yul\":17289:17307   */\n      add\n        /* \"#utility.yul\":17281:17307   */\n      swap1\n      pop\n        /* \"#utility.yul\":17353:17362   */\n      dup2\n        /* \"#utility.yul\":17347:17351   */\n      dup2\n        /* \"#utility.yul\":17343:17363   */\n      sub\n        /* \"#utility.yul\":17339:17340   */\n      0x00\n        /* \"#utility.yul\":17328:17337   */\n      dup4\n        /* \"#utility.yul\":17324:17341   */\n      add\n        /* \"#utility.yul\":17317:17364   */\n      mstore\n        /* \"#utility.yul\":17381:17512   */\n      tag_347\n        /* \"#utility.yul\":17507:17511   */\n      dup2\n        /* \"#utility.yul\":17381:17512   */\n      tag_293\n      jump\t// in\n    tag_347:\n        /* \"#utility.yul\":17373:17512   */\n      swap1\n      pop\n        /* \"#utility.yul\":17100:17519   */\n      swap2\n      swap1\n      pop\n      jump\t// out\n        /* \"#utility.yul\":17525:17944   */\n    tag_48:\n        /* \"#utility.yul\":17691:17695   */\n      0x00\n        /* \"#utility.yul\":17729:17731   */\n      0x20\n        /* \"#utility.yul\":17718:17727   */\n      dup3\n        /* \"#utility.yul\":17714:17732   */\n      add\n        /* \"#utility.yul\":17706:17732   */\n      swap1\n      pop\n        /* \"#utility.yul\":17778:17787   */\n      dup2\n        /* \"#utility.yul\":17772:17776   */\n      dup2\n        /* \"#utility.yul\":17768:17788   */\n      sub\n        /* \"#utility.yul\":17764:17765   */\n      0x00\n        /* \"#utility.yul\":17753:17762   */\n      dup4\n        /* \"#utility.yul\":17749:17766   */\n      add\n        /* \"#utility.yul\":17742:17789   */\n      mstore\n        /* \"#utility.yul\":17806:17937   */\n      tag_349\n        /* \"#utility.yul\":17932:17936   */\n      dup2\n        /* \"#utility.yul\":17806:17937   */\n      tag_298\n      jump\t// in\n    tag_349:\n        /* \"#utility.yul\":17798:17937   */\n      swap1\n      pop\n        /* \"#utility.yul\":17525:17944   */\n      swap2\n      swap1\n      pop\n      jump\t// out\n        /* \"#utility.yul\":17950:18369   */\n    tag_42:\n        /* \"#utility.yul\":18116:18120   */\n      0x00\n        /* \"#utility.yul\":18154:18156   */\n      0x20\n        /* \"#utility.yul\":18143:18152   */\n      dup3\n        /* \"#utility.yul\":18139:18157   */\n      add\n        /* \"#utility.yul\":18131:18157   */\n      swap1\n      pop\n        /* \"#utility.yul\":18203:18212   */\n      dup2\n        /* \"#utility.yul\":18197:18201   */\n      dup2\n        /* \"#utility.yul\":18193:18213   */\n      sub\n        /* \"#utility.yul\":18189:18190   */\n      0x00\n        /* \"#utility.yul\":18178:18187   */\n      dup4\n        /* \"#utility.yul\":18174:18191   */\n      add\n        /* \"#utility.yul\":18167:18214   */\n      mstore\n        /* \"#utility.yul\":18231:18362   */\n      tag_351\n        /* \"#utility.yul\":18357:18361   */\n      dup2\n        /* \"#utility.yul\":18231:18362   */\n      tag_303\n      jump\t// in\n    tag_351:\n        /* \"#utility.yul\":18223:18362   */\n      swap1\n      pop\n        /* \"#utility.yul\":17950:18369   */\n      swap2\n      swap1\n      pop\n      jump\t// out\n        /* \"#utility.yul\":18375:18794   */\n    tag_84:\n        /* \"#utility.yul\":18541:18545   */\n      0x00\n        /* \"#utility.yul\":18579:18581   */\n      0x20\n        /* \"#utility.yul\":18568:18577   */\n      dup3\n        /* \"#utility.yul\":18564:18582   */\n      add\n        /* \"#utility.yul\":18556:18582   */\n      swap1\n      pop\n        /* \"#utility.yul\":18628:18637   */\n      dup2\n        /* \"#utility.yul\":18622:18626   */\n      dup2\n        /* \"#utility.yul\":18618:18638   */\n      sub\n        /* \"#utility.yul\":18614:18615   */\n      0x00\n        /* \"#utility.yul\":18603:18612   */\n      dup4\n        /* \"#utility.yul\":18599:18616   */\n      add\n        /* \"#utility.yul\":18592:18639   */\n      mstore\n        /* \"#utility.yul\":18656:18787   */\n      tag_353\n        /* \"#utility.yul\":18782:18786   */\n      dup2\n        /* \"#utility.yul\":18656:18787   */\n      tag_308\n      jump\t// in\n    tag_353:\n        /* \"#utility.yul\":18648:18787   */\n      swap1\n      pop\n        /* \"#utility.yul\":18375:18794   */\n      swap2\n      swap1\n      pop\n      jump\t// out\n        /* \"#utility.yul\":18800:19022   */\n    tag_33:\n        /* \"#utility.yul\":18893:18897   */\n      0x00\n        /* \"#utility.yul\":18931:18933   */\n      0x20\n        /* \"#utility.yul\":18920:18929   */\n      dup3\n        /* \"#utility.yul\":18916:18934   */\n      add\n        /* \"#utility.yul\":18908:18934   */\n      swap1\n      pop\n        /* \"#utility.yul\":18944:19015   */\n      tag_355\n        /* \"#utility.yul\":19012:19013   */\n      0x00\n        /* \"#utility.yul\":19001:19010   */\n      dup4\n        /* \"#utility.yul\":18997:19014   */\n      add\n        /* \"#utility.yul\":18988:18994   */\n      dup5\n        /* \"#utility.yul\":18944:19015   */\n      tag_313\n      jump\t// in\n    tag_355:\n        /* \"#utility.yul\":18800:19022   */\n      swap3\n      swap2\n      pop\n      pop\n      jump\t// out\n        /* \"#utility.yul\":19028:19157   */\n    tag_149:\n        /* \"#utility.yul\":19062:19068   */\n      0x00\n        /* \"#utility.yul\":19089:19109   */\n      tag_357\n      tag_358\n      jump\t// in\n    tag_357:\n        /* \"#utility.yul\":19079:19109   */\n      swap1\n      pop\n        /* \"#utility.yul\":19118:19151   */\n      tag_359\n        /* \"#utility.yul\":19146:19150   */\n      dup3\n        /* \"#utility.yul\":19138:19144   */\n      dup3\n        /* \"#utility.yul\":19118:19151   */\n      tag_360\n      jump\t// in\n    tag_359:\n        /* \"#utility.yul\":19028:19157   */\n      swap2\n      swap1\n      pop\n      jump\t// out\n        /* \"#utility.yul\":19163:19238   */\n    tag_358:\n        /* \"#utility.yul\":19196:19202   */\n      0x00\n        /* \"#utility.yul\":19229:19231   */\n      0x40\n        /* \"#utility.yul\":19223:19232   */\n      mload\n        /* \"#utility.yul\":19213:19232   */\n      swap1\n      pop\n        /* \"#utility.yul\":19163:19238   */\n      swap1\n      jump\t// out\n        /* \"#utility.yul\":19244:19565   */\n    tag_148:\n        /* \"#utility.yul\":19331:19335   */\n      0x00\n        /* \"#utility.yul\":19421:19439   */\n      0xffffffffffffffff\n        /* \"#utility.yul\":19413:19419   */\n      dup3\n        /* \"#utility.yul\":19410:19440   */\n      gt\n        /* \"#utility.yul\":19407:19463   */\n      iszero\n      tag_363\n      jumpi\n        /* \"#utility.yul\":19443:19461   */\n      tag_364\n      tag_365\n      jump\t// in\n    tag_364:\n        /* \"#utility.yul\":19407:19463   */\n    tag_363:\n        /* \"#utility.yul\":19493:19497   */\n      0x20\n        /* \"#utility.yul\":19485:19491   */\n      dup3\n        /* \"#utility.yul\":19481:19498   */\n      mul\n        /* \"#utility.yul\":19473:19498   */\n      swap1\n      pop\n        /* \"#utility.yul\":19553:19557   */\n      0x20\n        /* \"#utility.yul\":19547:19551   */\n      dup2\n        /* \"#utility.yul\":19543:19558   */\n      add\n        /* \"#utility.yul\":19535:19558   */\n      swap1\n      pop\n        /* \"#utility.yul\":19244:19565   */\n      swap2\n      swap1\n      pop\n      jump\t// out\n        /* \"#utility.yul\":19571:19879   */\n    tag_165:\n        /* \"#utility.yul\":19633:19637   */\n      0x00\n        /* \"#utility.yul\":19723:19741   */\n      0xffffffffffffffff\n        /* \"#utility.yul\":19715:19721   */\n      dup3\n        /* \"#utility.yul\":19712:19742   */\n      gt\n        /* \"#utility.yul\":19709:19765   */\n      iszero\n      tag_367\n      jumpi\n        /* \"#utility.yul\":19745:19763   */\n      tag_368\n      tag_365\n      jump\t// in\n    tag_368:\n        /* \"#utility.yul\":19709:19765   */\n    tag_367:\n        /* \"#utility.yul\":19783:19812   */\n      tag_369\n        /* \"#utility.yul\":19805:19811   */\n      dup3\n        /* \"#utility.yul\":19783:19812   */\n      tag_256\n      jump\t// in\n    tag_369:\n        /* \"#utility.yul\":19775:19812   */\n      swap1\n      pop\n        /* \"#utility.yul\":19867:19871   */\n      0x20\n        /* \"#utility.yul\":19861:19865   */\n      dup2\n        /* \"#utility.yul\":19857:19872   */\n      add\n        /* \"#utility.yul\":19849:19872   */\n      swap1\n      pop\n        /* \"#utility.yul\":19571:19879   */\n      swap2\n      swap1\n      pop\n      jump\t// out\n        /* \"#utility.yul\":19885:20027   */\n    tag_241:\n        /* \"#utility.yul\":19962:19966   */\n      0x00\n        /* \"#utility.yul\":19985:19988   */\n      dup2\n        /* \"#utility.yul\":19977:19988   */\n      swap1\n      pop\n        /* \"#utility.yul\":20015:20019   */\n      0x20\n        /* \"#utility.yul\":20010:20013   */\n      dup3\n        /* \"#utility.yul\":20006:20020   */\n      add\n        /* \"#utility.yul\":19998:20020   */\n      swap1\n      pop\n        /* \"#utility.yul\":19885:20027   */\n      swap2\n      swap1\n      pop\n      jump\t// out\n        /* \"#utility.yul\":20033:20174   */\n    tag_278:\n        /* \"#utility.yul\":20082:20086   */\n      0x00\n        /* \"#utility.yul\":20105:20108   */\n      dup2\n        /* \"#utility.yul\":20097:20108   */\n      swap1\n      pop\n        /* \"#utility.yul\":20128:20131   */\n      dup2\n        /* \"#utility.yul\":20125:20126   */\n      0x00\n        /* \"#utility.yul\":20118:20132   */\n      mstore\n        /* \"#utility.yul\":20162:20166   */\n      0x20\n        /* \"#utility.yul\":20159:20160   */\n      0x00\n        /* \"#utility.yul\":20149:20167   */\n      keccak256\n        /* \"#utility.yul\":20141:20167   */\n      swap1\n      pop\n        /* \"#utility.yul\":20033:20174   */\n      swap2\n      swap1\n      pop\n      jump\t// out\n        /* \"#utility.yul\":20180:20304   */\n    tag_237:\n        /* \"#utility.yul\":20257:20263   */\n      0x00\n        /* \"#utility.yul\":20291:20296   */\n      dup2\n        /* \"#utility.yul\":20285:20297   */\n      mload\n        /* \"#utility.yul\":20275:20297   */\n      swap1\n      pop\n        /* \"#utility.yul\":20180:20304   */\n      swap2\n      swap1\n      pop\n      jump\t// out\n        /* \"#utility.yul\":20310:20409   */\n    tag_250:\n        /* \"#utility.yul\":20362:20368   */\n      0x00\n        /* \"#utility.yul\":20396:20401   */\n      dup2\n        /* \"#utility.yul\":20390:20402   */\n      mload\n        /* \"#utility.yul\":20380:20402   */\n      swap1\n      pop\n        /* \"#utility.yul\":20310:20409   */\n      swap2\n      swap1\n      pop\n      jump\t// out\n        /* \"#utility.yul\":20415:20538   */\n    tag_247:\n        /* \"#utility.yul\":20495:20499   */\n      0x00\n        /* \"#utility.yul\":20527:20531   */\n      0x20\n        /* \"#utility.yul\":20522:20525   */\n      dup3\n        /* \"#utility.yul\":20518:20532   */\n      add\n        /* \"#utility.yul\":20510:20532   */\n      swap1\n      pop\n        /* \"#utility.yul\":20415:20538   */\n      swap2\n      swap1\n      pop\n      jump\t// out\n        /* \"#utility.yul\":20544:20738   */\n    tag_239:\n        /* \"#utility.yul\":20653:20664   */\n      0x00\n        /* \"#utility.yul\":20687:20693   */\n      dup3\n        /* \"#utility.yul\":20682:20685   */\n      dup3\n        /* \"#utility.yul\":20675:20694   */\n      mstore\n        /* \"#utility.yul\":20727:20731   */\n      0x20\n        /* \"#utility.yul\":20722:20725   */\n      dup3\n        /* \"#utility.yul\":20718:20732   */\n      add\n        /* \"#utility.yul\":20703:20732   */\n      swap1\n      pop\n        /* \"#utility.yul\":20544:20738   */\n      swap3\n      swap2\n      pop\n      pop\n      jump\t// out\n        /* \"#utility.yul\":20744:20903   */\n    tag_252:\n        /* \"#utility.yul\":20818:20829   */\n      0x00\n        /* \"#utility.yul\":20852:20858   */\n      dup3\n        /* \"#utility.yul\":20847:20850   */\n      dup3\n        /* \"#utility.yul\":20840:20859   */\n      mstore\n        /* \"#utility.yul\":20892:20896   */\n      0x20\n        /* \"#utility.yul\":20887:20890   */\n      dup3\n        /* \"#utility.yul\":20883:20897   */\n      add\n        /* \"#utility.yul\":20868:20897   */\n      swap1\n      pop\n        /* \"#utility.yul\":20744:20903   */\n      swap3\n      swap2\n      pop\n      pop\n      jump\t// out\n        /* \"#utility.yul\":20909:21078   */\n    tag_261:\n        /* \"#utility.yul\":20993:21004   */\n      0x00\n        /* \"#utility.yul\":21027:21033   */\n      dup3\n        /* \"#utility.yul\":21022:21025   */\n      dup3\n        /* \"#utility.yul\":21015:21034   */\n      mstore\n        /* \"#utility.yul\":21067:21071   */\n      0x20\n        /* \"#utility.yul\":21062:21065   */\n      dup3\n        /* \"#utility.yul\":21058:21072   */\n      add\n        /* \"#utility.yul\":21043:21072   */\n      swap1\n      pop\n        /* \"#utility.yul\":20909:21078   */\n      swap3\n      swap2\n      pop\n      pop\n      jump\t// out\n        /* \"#utility.yul\":21084:21232   */\n    tag_268:\n        /* \"#utility.yul\":21186:21197   */\n      0x00\n        /* \"#utility.yul\":21223:21226   */\n      dup2\n        /* \"#utility.yul\":21208:21226   */\n      swap1\n      pop\n        /* \"#utility.yul\":21084:21232   */\n      swap3\n      swap2\n      pop\n      pop\n      jump\t// out\n        /* \"#utility.yul\":21238:21586   */\n    tag_44:\n        /* \"#utility.yul\":21278:21285   */\n      0x00\n        /* \"#utility.yul\":21301:21321   */\n      tag_380\n        /* \"#utility.yul\":21319:21320   */\n      dup3\n        /* \"#utility.yul\":21301:21321   */\n      tag_316\n      jump\t// in\n    tag_380:\n        /* \"#utility.yul\":21296:21321   */\n      swap2\n      pop\n        /* \"#utility.yul\":21335:21355   */\n      tag_381\n        /* \"#utility.yul\":21353:21354   */\n      dup4\n        /* \"#utility.yul\":21335:21355   */\n      tag_316\n      jump\t// in\n    tag_381:\n        /* \"#utility.yul\":21330:21355   */\n      swap3\n      pop\n        /* \"#utility.yul\":21523:21524   */\n      dup2\n        /* \"#utility.yul\":21455:21521   */\n      0xffffffffffffffffffffffffffffffffffffffffffffffffffffffffffffffff\n        /* \"#utility.yul\":21451:21525   */\n      div\n        /* \"#utility.yul\":21448:21449   */\n      dup4\n        /* \"#utility.yul\":21445:21526   */\n      gt\n        /* \"#utility.yul\":21440:21441   */\n      dup3\n        /* \"#utility.yul\":21433:21442   */\n      iszero\n        /* \"#utility.yul\":21426:21443   */\n      iszero\n        /* \"#utility.yul\":21422:21527   */\n      and\n        /* \"#utility.yul\":21419:21550   */\n      iszero\n      tag_382\n      jumpi\n        /* \"#utility.yul\":21530:21548   */\n      tag_383\n      tag_384\n      jump\t// in\n    tag_383:\n        /* \"#utility.yul\":21419:21550   */\n    tag_382:\n        /* \"#utility.yul\":21578:21579   */\n      dup3\n        /* \"#utility.yul\":21575:21576   */\n      dup3\n        /* \"#utility.yul\":21571:21580   */\n      mul\n        /* \"#utility.yul\":21560:21580   */\n      swap1\n      pop\n        /* \"#utility.yul\":21238:21586   */\n      swap3\n      swap2\n      pop\n      pop\n      jump\t// out\n        /* \"#utility.yul\":21592:21688   */\n    tag_233:\n        /* \"#utility.yul\":21629:21636   */\n      0x00\n        /* \"#utility.yul\":21658:21682   */\n      tag_386\n        /* \"#utility.yul\":21676:21681   */\n      dup3\n        /* \"#utility.yul\":21658:21682   */\n      tag_387\n      jump\t// in\n    tag_386:\n        /* \"#utility.yul\":21647:21682   */\n      swap1\n      pop\n        /* \"#utility.yul\":21592:21688   */\n      swap2\n      swap1\n      pop\n      jump\t// out\n        /* \"#utility.yul\":21694:21820   */\n    tag_387:\n        /* \"#utility.yul\":21731:21738   */\n      0x00\n        /* \"#utility.yul\":21771:21813   */\n      0xffffffffffffffffffffffffffffffffffffffff\n        /* \"#utility.yul\":21764:21769   */\n      dup3\n        /* \"#utility.yul\":21760:21814   */\n      and\n        /* \"#utility.yul\":21749:21814   */\n      swap1\n      pop\n        /* \"#utility.yul\":21694:21820   */\n      swap2\n      swap1\n      pop\n      jump\t// out\n        /* \"#utility.yul\":21826:21903   */\n    tag_316:\n        /* \"#utility.yul\":21863:21870   */\n      0x00\n        /* \"#utility.yul\":21892:21897   */\n      dup2\n        /* \"#utility.yul\":21881:21897   */\n      swap1\n      pop\n        /* \"#utility.yul\":21826:21903   */\n      swap2\n      swap1\n      pop\n      jump\t// out\n        /* \"#utility.yul\":21909:22063   */\n    tag_170:\n        /* \"#utility.yul\":21993:21999   */\n      dup3\n        /* \"#utility.yul\":21988:21991   */\n      dup2\n        /* \"#utility.yul\":21983:21986   */\n      dup4\n        /* \"#utility.yul\":21970:22000   */\n      calldatacopy\n        /* \"#utility.yul\":22055:22056   */\n      0x00\n        /* \"#utility.yul\":22046:22052   */\n      dup4\n        /* \"#utility.yul\":22041:22044   */\n      dup4\n        /* \"#utility.yul\":22037:22053   */\n      add\n        /* \"#utility.yul\":22030:22057   */\n      mstore\n        /* \"#utility.yul\":21909:22063   */\n      pop\n      pop\n      pop\n      jump\t// out\n        /* \"#utility.yul\":22069:22376   */\n    tag_254:\n        /* \"#utility.yul\":22137:22138   */\n      0x00\n        /* \"#utility.yul\":22147:22260   */\n    tag_392:\n        /* \"#utility.yul\":22161:22167   */\n      dup4\n        /* \"#utility.yul\":22158:22159   */\n      dup2\n        /* \"#utility.yul\":22155:22168   */\n      lt\n        /* \"#utility.yul\":22147:22260   */\n      iszero\n      tag_394\n      jumpi\n        /* \"#utility.yul\":22246:22247   */\n      dup1\n        /* \"#utility.yul\":22241:22244   */\n      dup3\n        /* \"#utility.yul\":22237:22248   */\n      add\n        /* \"#utility.yul\":22231:22249   */\n      mload\n        /* \"#utility.yul\":22227:22228   */\n      dup2\n        /* \"#utility.yul\":22222:22225   */\n      dup5\n        /* \"#utility.yul\":22218:22229   */\n      add\n        /* \"#utility.yul\":22211:22250   */\n      mstore\n        /* \"#utility.yul\":22183:22185   */\n      0x20\n        /* \"#utility.yul\":22180:22181   */\n      dup2\n        /* \"#utility.yul\":22176:22186   */\n      add\n        /* \"#utility.yul\":22171:22186   */\n      swap1\n      pop\n        /* \"#utility.yul\":22147:22260   */\n      jump(tag_392)\n    tag_394:\n        /* \"#utility.yul\":22278:22284   */\n      dup4\n        /* \"#utility.yul\":22275:22276   */\n      dup2\n        /* \"#utility.yul\":22272:22285   */\n      gt\n        /* \"#utility.yul\":22269:22370   */\n      iszero\n      tag_395\n      jumpi\n        /* \"#utility.yul\":22358:22359   */\n      0x00\n        /* \"#utility.yul\":22349:22355   */\n      dup5\n        /* \"#utility.yul\":22344:22347   */\n      dup5\n        /* \"#utility.yul\":22340:22356   */\n      add\n        /* \"#utility.yul\":22333:22360   */\n      mstore\n        /* \"#utility.yul\":22269:22370   */\n    tag_395:\n        /* \"#utility.yul\":22118:22376   */\n      pop\n        /* \"#utility.yul\":22069:22376   */\n      pop\n      pop\n      pop\n      jump\t// out\n        /* \"#utility.yul\":22382:22702   */\n    tag_68:\n        /* \"#utility.yul\":22426:22432   */\n      0x00\n        /* \"#utility.yul\":22463:22464   */\n      0x02\n        /* \"#utility.yul\":22457:22461   */\n      dup3\n        /* \"#utility.yul\":22453:22465   */\n      div\n        /* \"#utility.yul\":22443:22465   */\n      swap1\n      pop\n        /* \"#utility.yul\":22510:22511   */\n      0x01\n        /* \"#utility.yul\":22504:22508   */\n      dup3\n        /* \"#utility.yul\":22500:22512   */\n      and\n        /* \"#utility.yul\":22531:22549   */\n      dup1\n        /* \"#utility.yul\":22521:22602   */\n      tag_397\n      jumpi\n        /* \"#utility.yul\":22587:22591   */\n      0x7f\n        /* \"#utility.yul\":22579:22585   */\n      dup3\n        /* \"#utility.yul\":22575:22592   */\n      and\n        /* \"#utility.yul\":22565:22592   */\n      swap2\n      pop\n        /* \"#utility.yul\":22521:22602   */\n    tag_397:\n        /* \"#utility.yul\":22649:22651   */\n      0x20\n        /* \"#utility.yul\":22641:22647   */\n      dup3\n        /* \"#utility.yul\":22638:22652   */\n      lt\n        /* \"#utility.yul\":22618:22636   */\n      dup2\n        /* \"#utility.yul\":22615:22653   */\n      eq\n        /* \"#utility.yul\":22612:22696   */\n      iszero\n      tag_398\n      jumpi\n        /* \"#utility.yul\":22668:22686   */\n      tag_399\n      tag_400\n      jump\t// in\n    tag_399:\n        /* \"#utility.yul\":22612:22696   */\n    tag_398:\n        /* \"#utility.yul\":22433:22702   */\n      pop\n        /* \"#utility.yul\":22382:22702   */\n      swap2\n      swap1\n      pop\n      jump\t// out\n        /* \"#utility.yul\":22708:22989   */\n    tag_360:\n        /* \"#utility.yul\":22791:22818   */\n      tag_402\n        /* \"#utility.yul\":22813:22817   */\n      dup3\n        /* \"#utility.yul\":22791:22818   */\n      tag_256\n      jump\t// in\n    tag_402:\n        /* \"#utility.yul\":22783:22789   */\n      dup2\n        /* \"#utility.yul\":22779:22819   */\n      add\n        /* \"#utility.yul\":22921:22927   */\n      dup2\n        /* \"#utility.yul\":22909:22919   */\n      dup2\n        /* \"#utility.yul\":22906:22928   */\n      lt\n        /* \"#utility.yul\":22885:22903   */\n      0xffffffffffffffff\n        /* \"#utility.yul\":22873:22883   */\n      dup3\n        /* \"#utility.yul\":22870:22904   */\n      gt\n        /* \"#utility.yul\":22867:22929   */\n      or\n        /* \"#utility.yul\":22864:22952   */\n      iszero\n      tag_403\n      jumpi\n        /* \"#utility.yul\":22932:22950   */\n      tag_404\n      tag_365\n      jump\t// in\n    tag_404:\n        /* \"#utility.yul\":22864:22952   */\n    tag_403:\n        /* \"#utility.yul\":22972:22982   */\n      dup1\n        /* \"#utility.yul\":22968:22970   */\n      0x40\n        /* \"#utility.yul\":22961:22983   */\n      mstore\n        /* \"#utility.yul\":22751:22989   */\n      pop\n        /* \"#utility.yul\":22708:22989   */\n      pop\n      pop\n      jump\t// out\n        /* \"#utility.yul\":22995:23228   */\n    tag_59:\n        /* \"#utility.yul\":23034:23037   */\n      0x00\n        /* \"#utility.yul\":23057:23081   */\n      tag_406\n        /* \"#utility.yul\":23075:23080   */\n      dup3\n        /* \"#utility.yul\":23057:23081   */\n      tag_316\n      jump\t// in\n    tag_406:\n        /* \"#utility.yul\":23048:23081   */\n      swap2\n      pop\n        /* \"#utility.yul\":23103:23169   */\n      0xffffffffffffffffffffffffffffffffffffffffffffffffffffffffffffffff\n        /* \"#utility.yul\":23096:23101   */\n      dup3\n        /* \"#utility.yul\":23093:23170   */\n      eq\n        /* \"#utility.yul\":23090:23193   */\n      iszero\n      tag_407\n      jumpi\n        /* \"#utility.yul\":23173:23191   */\n      tag_408\n      tag_384\n      jump\t// in\n    tag_408:\n        /* \"#utility.yul\":23090:23193   */\n    tag_407:\n        /* \"#utility.yul\":23220:23221   */\n      0x01\n        /* \"#utility.yul\":23213:23218   */\n      dup3\n        /* \"#utility.yul\":23209:23222   */\n      add\n        /* \"#utility.yul\":23202:23222   */\n      swap1\n      pop\n        /* \"#utility.yul\":22995:23228   */\n      swap2\n      swap1\n      pop\n      jump\t// out\n        /* \"#utility.yul\":23234:23414   */\n    tag_384:\n        /* \"#utility.yul\":23282:23359   */\n      0x4e487b7100000000000000000000000000000000000000000000000000000000\n        /* \"#utility.yul\":23279:23280   */\n      0x00\n        /* \"#utility.yul\":23272:23360   */\n      mstore\n        /* \"#utility.yul\":23379:23383   */\n      0x11\n        /* \"#utility.yul\":23376:23377   */\n      0x04\n        /* \"#utility.yul\":23369:23384   */\n      mstore\n        /* \"#utility.yul\":23403:23407   */\n      0x24\n        /* \"#utility.yul\":23400:23401   */\n      0x00\n        /* \"#utility.yul\":23393:23408   */\n      revert\n        /* \"#utility.yul\":23420:23600   */\n    tag_400:\n        /* \"#utility.yul\":23468:23545   */\n      0x4e487b7100000000000000000000000000000000000000000000000000000000\n        /* \"#utility.yul\":23465:23466   */\n      0x00\n        /* \"#utility.yul\":23458:23546   */\n      mstore\n        /* \"#utility.yul\":23565:23569   */\n      0x22\n        /* \"#utility.yul\":23562:23563   */\n      0x04\n        /* \"#utility.yul\":23555:23570   */\n      mstore\n        /* \"#utility.yul\":23589:23593   */\n      0x24\n        /* \"#utility.yul\":23586:23587   */\n      0x00\n        /* \"#utility.yul\":23579:23594   */\n      revert\n        /* \"#utility.yul\":23606:23786   */\n    tag_54:\n        /* \"#utility.yul\":23654:23731   */\n      0x4e487b7100000000000000000000000000000000000000000000000000000000\n        /* \"#utility.yul\":23651:23652   */\n      0x00\n        /* \"#utility.yul\":23644:23732   */\n      mstore\n        /* \"#utility.yul\":23751:23755   */\n      0x32\n        /* \"#utility.yul\":23748:23749   */\n      0x04\n        /* \"#utility.yul\":23741:23756   */\n      mstore\n        /* \"#utility.yul\":23775:23779   */\n      0x24\n        /* \"#utility.yul\":23772:23773   */\n      0x00\n        /* \"#utility.yul\":23765:23780   */\n      revert\n        /* \"#utility.yul\":23792:23972   */\n    tag_365:\n        /* \"#utility.yul\":23840:23917   */\n      0x4e487b7100000000000000000000000000000000000000000000000000000000\n        /* \"#utility.yul\":23837:23838   */\n      0x00\n        /* \"#utility.yul\":23830:23918   */\n      mstore\n        /* \"#utility.yul\":23937:23941   */\n      0x41\n        /* \"#utility.yul\":23934:23935   */\n      0x04\n        /* \"#utility.yul\":23927:23942   */\n      mstore\n        /* \"#utility.yul\":23961:23965   */\n      0x24\n        /* \"#utility.yul\":23958:23959   */\n      0x00\n        /* \"#utility.yul\":23951:23966   */\n      revert\n        /* \"#utility.yul\":23978:24095   */\n    tag_158:\n        /* \"#utility.yul\":24087:24088   */\n      0x00\n        /* \"#utility.yul\":24084:24085   */\n      dup1\n        /* \"#utility.yul\":24077:24089   */\n      revert\n        /* \"#utility.yul\":24101:24218   */\n    tag_152:\n        /* \"#utility.yul\":24210:24211   */\n      0x00\n        /* \"#utility.yul\":24207:24208   */\n      dup1\n        /* \"#utility.yul\":24200:24212   */\n      revert\n        /* \"#utility.yul\":24224:24341   */\n    tag_168:\n        /* \"#utility.yul\":24333:24334   */\n      0x00\n        /* \"#utility.yul\":24330:24331   */\n      dup1\n        /* \"#utility.yul\":24323:24335   */\n      revert\n        /* \"#utility.yul\":24347:24464   */\n    tag_190:\n        /* \"#utility.yul\":24456:24457   */\n      0x00\n        /* \"#utility.yul\":24453:24454   */\n      dup1\n        /* \"#utility.yul\":24446:24458   */\n      revert\n        /* \"#utility.yul\":24470:24587   */\n    tag_187:\n        /* \"#utility.yul\":24579:24580   */\n      0x00\n        /* \"#utility.yul\":24576:24577   */\n      dup1\n        /* \"#utility.yul\":24569:24581   */\n      revert\n        /* \"#utility.yul\":24593:24695   */\n    tag_256:\n        /* \"#utility.yul\":24634:24640   */\n      0x00\n        /* \"#utility.yul\":24685:24687   */\n      0x1f\n        /* \"#utility.yul\":24681:24688   */\n      not\n        /* \"#utility.yul\":24676:24678   */\n      0x1f\n        /* \"#utility.yul\":24669:24674   */\n      dup4\n        /* \"#utility.yul\":24665:24679   */\n      add\n        /* \"#utility.yul\":24661:24689   */\n      and\n        /* \"#utility.yul\":24651:24689   */\n      swap1\n      pop\n        /* \"#utility.yul\":24593:24695   */\n      swap2\n      swap1\n      pop\n      jump\t// out\n        /* \"#utility.yul\":24701:24865   */\n    tag_297:\n        /* \"#utility.yul\":24841:24857   */\n      0x4e6f20737563682052656e74616c000000000000000000000000000000000000\n        /* \"#utility.yul\":24837:24838   */\n      0x00\n        /* \"#utility.yul\":24829:24835   */\n      dup3\n        /* \"#utility.yul\":24825:24839   */\n      add\n        /* \"#utility.yul\":24818:24858   */\n      mstore\n        /* \"#utility.yul\":24701:24865   */\n      pop\n      jump\t// out\n        /* \"#utility.yul\":24871:25122   */\n    tag_302:\n        /* \"#utility.yul\":25011:25045   */\n      0x506c65617365207375626d6974207468652061736b696e672070726963652069\n        /* \"#utility.yul\":25007:25008   */\n      0x00\n        /* \"#utility.yul\":24999:25005   */\n      dup3\n        /* \"#utility.yul\":24995:25009   */\n      add\n        /* \"#utility.yul\":24988:25046   */\n      mstore\n        /* \"#utility.yul\":25080:25114   */\n      0x6e206f7264657220746f20636f6d706c65746520746865207075726368617365\n        /* \"#utility.yul\":25075:25077   */\n      0x20\n        /* \"#utility.yul\":25067:25073   */\n      dup3\n        /* \"#utility.yul\":25063:25078   */\n      add\n        /* \"#utility.yul\":25056:25115   */\n      mstore\n        /* \"#utility.yul\":24871:25122   */\n      pop\n      jump\t// out\n        /* \"#utility.yul\":25128:25348   */\n    tag_307:\n        /* \"#utility.yul\":25268:25302   */\n      0x416c726561647920426f6f6b656420466f722052657175657374656420446174\n        /* \"#utility.yul\":25264:25265   */\n      0x00\n        /* \"#utility.yul\":25256:25262   */\n      dup3\n        /* \"#utility.yul\":25252:25266   */\n      add\n        /* \"#utility.yul\":25245:25303   */\n      mstore\n        /* \"#utility.yul\":25337:25340   */\n      0x6500000000000000000000000000000000000000000000000000000000000000\n        /* \"#utility.yul\":25332:25334   */\n      0x20\n        /* \"#utility.yul\":25324:25330   */\n      dup3\n        /* \"#utility.yul\":25320:25335   */\n      add\n        /* \"#utility.yul\":25313:25341   */\n      mstore\n        /* \"#utility.yul\":25128:25348   */\n      pop\n      jump\t// out\n        /* \"#utility.yul\":25354:25588   */\n    tag_312:\n        /* \"#utility.yul\":25494:25528   */\n      0x4f6e6c79206f776e6572206f6620736d61727420636f6e74726163742063616e\n        /* \"#utility.yul\":25490:25491   */\n      0x00\n        /* \"#utility.yul\":25482:25488   */\n      dup3\n        /* \"#utility.yul\":25478:25492   */\n      add\n        /* \"#utility.yul\":25471:25529   */\n      mstore\n        /* \"#utility.yul\":25563:25580   */\n      0x207075742075702072656e74616c730000000000000000000000000000000000\n        /* \"#utility.yul\":25558:25560   */\n      0x20\n        /* \"#utility.yul\":25550:25556   */\n      dup3\n        /* \"#utility.yul\":25546:25561   */\n      add\n        /* \"#utility.yul\":25539:25581   */\n      mstore\n        /* \"#utility.yul\":25354:25588   */\n      pop\n      jump\t// out\n        /* \"#utility.yul\":25594:25716   */\n    tag_183:\n        /* \"#utility.yul\":25667:25691   */\n      tag_424\n        /* \"#utility.yul\":25685:25690   */\n      dup2\n        /* \"#utility.yul\":25667:25691   */\n      tag_316\n      jump\t// in\n    tag_424:\n        /* \"#utility.yul\":25660:25665   */\n      dup2\n        /* \"#utility.yul\":25657:25692   */\n      eq\n        /* \"#utility.yul\":25647:25710   */\n      tag_425\n      jumpi\n        /* \"#utility.yul\":25706:25707   */\n      0x00\n        /* \"#utility.yul\":25703:25704   */\n      dup1\n        /* \"#utility.yul\":25696:25708   */\n      revert\n        /* \"#utility.yul\":25647:25710   */\n    tag_425:\n        /* \"#utility.yul\":25594:25716   */\n      pop\n      jump\t// out\n\n    auxdata: 0xa264697066735822122065d07dfb9799348d5d5d76a003eeeeb7e263e01a8a04cc506bc486373961f27764736f6c63430008070033\n}\n",
				"bytecode": {
					"linkReferences": {},
					"object": "608060405234801561001057600080fd5b506000600181905550336000806101000a81548173ffffffffffffffffffffffffffffffffffffffff021916908373ffffffffffffffffffffffffffffffffffffffff16021790555061189d806100686000396000f3fe60806040526004361061004a5760003560e01c80632a23bb721461004f578063652bd29e1461006b5780638da5cb5b146100aa578063deb38e79146100d5578063ebfa74c9146100fe575b600080fd5b61006960048036038101906100649190610e14565b61013b565b005b34801561007757600080fd5b50610092600480360381019061008d9190610de7565b61039d565b6040516100a1939291906112e8565b60405180910390f35b3480156100b657600080fd5b506100bf610578565b6040516100cc9190611173565b60405180910390f35b3480156100e157600080fd5b506100fc60048036038101906100f79190610c28565b61059c565b005b34801561010a57600080fd5b5061012560048036038101906101209190610de7565b61084a565b60405161013291906113ad565b60405180910390f35b600154821061017f576040517f08c379a00000000000000000000000000000000000000000000000000000000081526004016101769061132d565b60405180910390fd5b610189828261086e565b6101c8576040517f08c379a00000000000000000000000000000000000000000000000000000000081526004016101bf9061136d565b60405180910390fd5b8051670de0b6b3a764000060026000858152602001908152602001600020600801546101f491906114d0565b6101fe91906114d0565b341461023f576040517f08c379a00000000000000000000000000000000000000000000000000000000081526004016102369061134d565b60405180910390fd5b60005b81518110156102c85760026000848152602001908152602001600020600901828281518110610274576102736116b2565b5b60200260200101519080600181540180825580915050600190039060005260206000200160009091909190915090805190602001906102b4929190610980565b5080806102c09061160b565b915050610242565b5060008054906101000a900473ffffffffffffffffffffffffffffffffffffffff1673ffffffffffffffffffffffffffffffffffffffff166108fc349081150290604051600060405180830381858888f1935050505015801561032f573d6000803e3d6000fd5b507fdfcc683ac35013d595a2db07bcb6601a1bbc6c91dad13117fd60299c875c61b4818333600260008781526020019081526020016000206001016002600088815260200190815260200160002060060160405161039195949392919061118e565b60405180910390a15050565b60606000606060015484106103e7576040517f08c379a00000000000000000000000000000000000000000000000000000000081526004016103de9061132d565b60405180910390fd5b600060026000868152602001908152602001600020905080600001816008015482600901828054610417906115a8565b80601f0160208091040260200160405190810160405280929190818152602001828054610443906115a8565b80156104905780601f1061046557610100808354040283529160200191610490565b820191906000526020600020905b81548152906001019060200180831161047357829003601f168201915b5050505050925080805480602002602001604051908101604052809291908181526020016000905b828210156105645783829060005260206000200180546104d7906115a8565b80601f0160208091040260200160405190810160405280929190818152602001828054610503906115a8565b80156105505780601f1061052557610100808354040283529160200191610550565b820191906000526020600020905b81548152906001019060200180831161053357829003601f168201915b5050505050815260200190600101906104b8565b505050509050935093509350509193909250565b60008054906101000a900473ffffffffffffffffffffffffffffffffffffffff1681565b60008054906101000a900473ffffffffffffffffffffffffffffffffffffffff1673ffffffffffffffffffffffffffffffffffffffff163373ffffffffffffffffffffffffffffffffffffffff161461062a576040517f08c379a00000000000000000000000000000000000000000000000000000000081526004016106219061138d565b60405180910390fd5b600060026000600154815260200190815260200160002090508a81600001908051906020019061065b929190610980565b5089816001019080519060200190610674929190610980565b508881600201908051906020019061068d929190610980565b50878160030190805190602001906106a6929190610980565b50868160040190805190602001906106bf929190610980565b50858160050190805190602001906106d8929190610980565b50848160060190805190602001906106f1929190610980565b508381600701819055508281600801819055508181600901908051906020019061071c929190610a06565b5060015481600a018190555060008054906101000a900473ffffffffffffffffffffffffffffffffffffffff1681600b0160006101000a81548173ffffffffffffffffffffffffffffffffffffffff021916908373ffffffffffffffffffffffffffffffffffffffff160217905550600360015490806001815401808255809150506001900390600052602060002001600090919091909150557fc06f078c3c74d235829af3e011ff5aae487c78ef8d3acca688417ed86ff145918b8b8b8b8b8b8b8b8b8b60015460008054906101000a900473ffffffffffffffffffffffffffffffffffffffff1660405161081d9c9b9a999897969594939291906111f6565b60405180910390a1600160008154809291906108389061160b565b91905055505050505050505050505050565b6003818154811061085a57600080fd5b906000526020600020016000915090505481565b600080600090505b82518110156109745760005b6002600086815260200190815260200160002060090180549050811015610960578382815181106108b6576108b56116b2565b5b60200260200101516040516020016108ce9190611145565b6040516020818303038152906040528051906020012060026000878152602001908152602001600020600901828154811061090c5761090b6116b2565b5b90600052602060002001604051602001610926919061115c565b60405160208183030381529060405280519060200120141561094d5760009250505061097a565b80806109589061160b565b915050610882565b50808061096c9061160b565b915050610876565b50600190505b92915050565b82805461098c906115a8565b90600052602060002090601f0160209004810192826109ae57600085556109f5565b82601f106109c757805160ff19168380011785556109f5565b828001600101855582156109f5579182015b828111156109f45782518255916020019190600101906109d9565b5b509050610a029190610a66565b5090565b828054828255906000526020600020908101928215610a55579160200282015b82811115610a54578251829080519060200190610a44929190610980565b5091602001919060010190610a26565b5b509050610a629190610a83565b5090565b5b80821115610a7f576000816000905550600101610a67565b5090565b5b80821115610aa35760008181610a9a9190610aa7565b50600101610a84565b5090565b508054610ab3906115a8565b6000825580601f10610ac55750610ae4565b601f016020900490600052602060002090810190610ae39190610a66565b5b50565b6000610afa610af5846113ed565b6113c8565b90508083825260208201905082856020860282011115610b1d57610b1c611715565b5b60005b85811015610b6b57813567ffffffffffffffff811115610b4357610b42611710565b5b808601610b508982610be5565b85526020850194506020840193505050600181019050610b20565b5050509392505050565b6000610b88610b8384611419565b6113c8565b905082815260208101848484011115610ba457610ba361171a565b5b610baf848285611566565b509392505050565b600082601f830112610bcc57610bcb611710565b5b8135610bdc848260208601610ae7565b91505092915050565b600082601f830112610bfa57610bf9611710565b5b8135610c0a848260208601610b75565b91505092915050565b600081359050610c2281611850565b92915050565b6000806000806000806000806000806101408b8d031215610c4c57610c4b611724565b5b60008b013567ffffffffffffffff811115610c6a57610c6961171f565b5b610c768d828e01610be5565b9a505060208b013567ffffffffffffffff811115610c9757610c9661171f565b5b610ca38d828e01610be5565b99505060408b013567ffffffffffffffff811115610cc457610cc361171f565b5b610cd08d828e01610be5565b98505060608b013567ffffffffffffffff811115610cf157610cf061171f565b5b610cfd8d828e01610be5565b97505060808b013567ffffffffffffffff811115610d1e57610d1d61171f565b5b610d2a8d828e01610be5565b96505060a08b013567ffffffffffffffff811115610d4b57610d4a61171f565b5b610d578d828e01610be5565b95505060c08b013567ffffffffffffffff811115610d7857610d7761171f565b5b610d848d828e01610be5565b94505060e0610d958d828e01610c13565b935050610100610da78d828e01610c13565b9250506101208b013567ffffffffffffffff811115610dc957610dc861171f565b5b610dd58d828e01610bb7565b9150509295989b9194979a5092959850565b600060208284031215610dfd57610dfc611724565b5b6000610e0b84828501610c13565b91505092915050565b60008060408385031215610e2b57610e2a611724565b5b6000610e3985828601610c13565b925050602083013567ffffffffffffffff811115610e5a57610e5961171f565b5b610e6685828601610bb7565b9150509250929050565b6000610e7c8383610f08565b905092915050565b610e8d8161152a565b82525050565b6000610e9e8261146f565b610ea88185611492565b935083602082028501610eba8561144a565b8060005b85811015610ef65784840389528151610ed78582610e70565b9450610ee283611485565b925060208a01995050600181019050610ebe565b50829750879550505050505092915050565b6000610f138261147a565b610f1d81856114a3565b9350610f2d818560208601611575565b610f3681611729565b840191505092915050565b6000610f4c8261147a565b610f5681856114b4565b9350610f66818560208601611575565b610f6f81611729565b840191505092915050565b6000610f858261147a565b610f8f81856114c5565b9350610f9f818560208601611575565b80840191505092915050565b60008154610fb8816115a8565b610fc281866114b4565b94506001821660008114610fdd5760018114610fef57611022565b60ff1983168652602086019350611022565b610ff88561145a565b60005b8381101561101a57815481890152600182019150602081019050610ffb565b808801955050505b50505092915050565b60008154611038816115a8565b61104281866114c5565b9450600182166000811461105d576001811461106e576110a1565b60ff198316865281860193506110a1565b6110778561145a565b60005b838110156110995781548189015260018201915060208101905061107a565b838801955050505b50505092915050565b60006110b7600e836114b4565b91506110c28261173a565b602082019050919050565b60006110da6040836114b4565b91506110e582611763565b604082019050919050565b60006110fd6021836114b4565b9150611108826117b2565b604082019050919050565b6000611120602f836114b4565b915061112b82611801565b604082019050919050565b61113f8161155c565b82525050565b60006111518284610f7a565b915081905092915050565b6000611168828461102b565b915081905092915050565b60006020820190506111886000830184610e84565b92915050565b600060a08201905081810360008301526111a88188610e93565b90506111b76020830187611136565b6111c46040830186610e84565b81810360608301526111d68185610fab565b905081810360808301526111ea8184610fab565b90509695505050505050565b6000610180820190508181036000830152611211818f610f41565b90508181036020830152611225818e610f41565b90508181036040830152611239818d610f41565b9050818103606083015261124d818c610f41565b90508181036080830152611261818b610f41565b905081810360a0830152611275818a610f41565b905081810360c08301526112898189610f41565b905061129860e0830188611136565b6112a6610100830187611136565b8181036101208301526112b98186610e93565b90506112c9610140830185611136565b6112d7610160830184610e84565b9d9c50505050505050505050505050565b600060608201905081810360008301526113028186610f41565b90506113116020830185611136565b81810360408301526113238184610e93565b9050949350505050565b60006020820190508181036000830152611346816110aa565b9050919050565b60006020820190508181036000830152611366816110cd565b9050919050565b60006020820190508181036000830152611386816110f0565b9050919050565b600060208201905081810360008301526113a681611113565b9050919050565b60006020820190506113c26000830184611136565b92915050565b60006113d26113e3565b90506113de82826115da565b919050565b6000604051905090565b600067ffffffffffffffff821115611408576114076116e1565b5b602082029050602081019050919050565b600067ffffffffffffffff821115611434576114336116e1565b5b61143d82611729565b9050602081019050919050565b6000819050602082019050919050565b60008190508160005260206000209050919050565b600081519050919050565b600081519050919050565b6000602082019050919050565b600082825260208201905092915050565b600082825260208201905092915050565b600082825260208201905092915050565b600081905092915050565b60006114db8261155c565b91506114e68361155c565b9250817fffffffffffffffffffffffffffffffffffffffffffffffffffffffffffffffff048311821515161561151f5761151e611654565b5b828202905092915050565b60006115358261153c565b9050919050565b600073ffffffffffffffffffffffffffffffffffffffff82169050919050565b6000819050919050565b82818337600083830152505050565b60005b83811015611593578082015181840152602081019050611578565b838111156115a2576000848401525b50505050565b600060028204905060018216806115c057607f821691505b602082108114156115d4576115d3611683565b5b50919050565b6115e382611729565b810181811067ffffffffffffffff82111715611602576116016116e1565b5b80604052505050565b60006116168261155c565b91507fffffffffffffffffffffffffffffffffffffffffffffffffffffffffffffffff82141561164957611648611654565b5b600182019050919050565b7f4e487b7100000000000000000000000000000000000000000000000000000000600052601160045260246000fd5b7f4e487b7100000000000000000000000000000000000000000000000000000000600052602260045260246000fd5b7f4e487b7100000000000000000000000000000000000000000000000000000000600052603260045260246000fd5b7f4e487b7100000000000000000000000000000000000000000000000000000000600052604160045260246000fd5b600080fd5b600080fd5b600080fd5b600080fd5b600080fd5b6000601f19601f8301169050919050565b7f4e6f20737563682052656e74616c000000000000000000000000000000000000600082015250565b7f506c65617365207375626d6974207468652061736b696e67207072696365206960008201527f6e206f7264657220746f20636f6d706c65746520746865207075726368617365602082015250565b7f416c726561647920426f6f6b656420466f72205265717565737465642044617460008201527f6500000000000000000000000000000000000000000000000000000000000000602082015250565b7f4f6e6c79206f776e6572206f6620736d61727420636f6e74726163742063616e60008201527f207075742075702072656e74616c730000000000000000000000000000000000602082015250565b6118598161155c565b811461186457600080fd5b5056fea264697066735822122065d07dfb9799348d5d5d76a003eeeeb7e263e01a8a04cc506bc486373961f27764736f6c63430008070033",
					"opcodes": "PUSH1 0x80 PUSH1 0x40 MSTORE CALLVALUE DUP1 ISZERO PUSH2 0x10 JUMPI PUSH1 0x0 DUP1 REVERT JUMPDEST POP PUSH1 0x0 PUSH1 0x1 DUP2 SWAP1 SSTORE POP CALLER PUSH1 0x0 DUP1 PUSH2 0x100 EXP DUP2 SLOAD DUP2 PUSH20 0xFFFFFFFFFFFFFFFFFFFFFFFFFFFFFFFFFFFFFFFF MUL NOT AND SWAP1 DUP4 PUSH20 0xFFFFFFFFFFFFFFFFFFFFFFFFFFFFFFFFFFFFFFFF AND MUL OR SWAP1 SSTORE POP PUSH2 0x189D DUP1 PUSH2 0x68 PUSH1 0x0 CODECOPY PUSH1 0x0 RETURN INVALID PUSH1 0x80 PUSH1 0x40 MSTORE PUSH1 0x4 CALLDATASIZE LT PUSH2 0x4A JUMPI PUSH1 0x0 CALLDATALOAD PUSH1 0xE0 SHR DUP1 PUSH4 0x2A23BB72 EQ PUSH2 0x4F JUMPI DUP1 PUSH4 0x652BD29E EQ PUSH2 0x6B JUMPI DUP1 PUSH4 0x8DA5CB5B EQ PUSH2 0xAA JUMPI DUP1 PUSH4 0xDEB38E79 EQ PUSH2 0xD5 JUMPI DUP1 PUSH4 0xEBFA74C9 EQ PUSH2 0xFE JUMPI JUMPDEST PUSH1 0x0 DUP1 REVERT JUMPDEST PUSH2 0x69 PUSH1 0x4 DUP1 CALLDATASIZE SUB DUP2 ADD SWAP1 PUSH2 0x64 SWAP2 SWAP1 PUSH2 0xE14 JUMP JUMPDEST PUSH2 0x13B JUMP JUMPDEST STOP JUMPDEST CALLVALUE DUP1 ISZERO PUSH2 0x77 JUMPI PUSH1 0x0 DUP1 REVERT JUMPDEST POP PUSH2 0x92 PUSH1 0x4 DUP1 CALLDATASIZE SUB DUP2 ADD SWAP1 PUSH2 0x8D SWAP2 SWAP1 PUSH2 0xDE7 JUMP JUMPDEST PUSH2 0x39D JUMP JUMPDEST PUSH1 0x40 MLOAD PUSH2 0xA1 SWAP4 SWAP3 SWAP2 SWAP1 PUSH2 0x12E8 JUMP JUMPDEST PUSH1 0x40 MLOAD DUP1 SWAP2 SUB SWAP1 RETURN JUMPDEST CALLVALUE DUP1 ISZERO PUSH2 0xB6 JUMPI PUSH1 0x0 DUP1 REVERT JUMPDEST POP PUSH2 0xBF PUSH2 0x578 JUMP JUMPDEST PUSH1 0x40 MLOAD PUSH2 0xCC SWAP2 SWAP1 PUSH2 0x1173 JUMP JUMPDEST PUSH1 0x40 MLOAD DUP1 SWAP2 SUB SWAP1 RETURN JUMPDEST CALLVALUE DUP1 ISZERO PUSH2 0xE1 JUMPI PUSH1 0x0 DUP1 REVERT JUMPDEST POP PUSH2 0xFC PUSH1 0x4 DUP1 CALLDATASIZE SUB DUP2 ADD SWAP1 PUSH2 0xF7 SWAP2 SWAP1 PUSH2 0xC28 JUMP JUMPDEST PUSH2 0x59C JUMP JUMPDEST STOP JUMPDEST CALLVALUE DUP1 ISZERO PUSH2 0x10A JUMPI PUSH1 0x0 DUP1 REVERT JUMPDEST POP PUSH2 0x125 PUSH1 0x4 DUP1 CALLDATASIZE SUB DUP2 ADD SWAP1 PUSH2 0x120 SWAP2 SWAP1 PUSH2 0xDE7 JUMP JUMPDEST PUSH2 0x84A JUMP JUMPDEST PUSH1 0x40 MLOAD PUSH2 0x132 SWAP2 SWAP1 PUSH2 0x13AD JUMP JUMPDEST PUSH1 0x40 MLOAD DUP1 SWAP2 SUB SWAP1 RETURN JUMPDEST PUSH1 0x1 SLOAD DUP3 LT PUSH2 0x17F JUMPI PUSH1 0x40 MLOAD PUSH32 0x8C379A000000000000000000000000000000000000000000000000000000000 DUP2 MSTORE PUSH1 0x4 ADD PUSH2 0x176 SWAP1 PUSH2 0x132D JUMP JUMPDEST PUSH1 0x40 MLOAD DUP1 SWAP2 SUB SWAP1 REVERT JUMPDEST PUSH2 0x189 DUP3 DUP3 PUSH2 0x86E JUMP JUMPDEST PUSH2 0x1C8 JUMPI PUSH1 0x40 MLOAD PUSH32 0x8C379A000000000000000000000000000000000000000000000000000000000 DUP2 MSTORE PUSH1 0x4 ADD PUSH2 0x1BF SWAP1 PUSH2 0x136D JUMP JUMPDEST PUSH1 0x40 MLOAD DUP1 SWAP2 SUB SWAP1 REVERT JUMPDEST DUP1 MLOAD PUSH8 0xDE0B6B3A7640000 PUSH1 0x2 PUSH1 0x0 DUP6 DUP2 MSTORE PUSH1 0x20 ADD SWAP1 DUP2 MSTORE PUSH1 0x20 ADD PUSH1 0x0 KECCAK256 PUSH1 0x8 ADD SLOAD PUSH2 0x1F4 SWAP2 SWAP1 PUSH2 0x14D0 JUMP JUMPDEST PUSH2 0x1FE SWAP2 SWAP1 PUSH2 0x14D0 JUMP JUMPDEST CALLVALUE EQ PUSH2 0x23F JUMPI PUSH1 0x40 MLOAD PUSH32 0x8C379A000000000000000000000000000000000000000000000000000000000 DUP2 MSTORE PUSH1 0x4 ADD PUSH2 0x236 SWAP1 PUSH2 0x134D JUMP JUMPDEST PUSH1 0x40 MLOAD DUP1 SWAP2 SUB SWAP1 REVERT JUMPDEST PUSH1 0x0 JUMPDEST DUP2 MLOAD DUP2 LT ISZERO PUSH2 0x2C8 JUMPI PUSH1 0x2 PUSH1 0x0 DUP5 DUP2 MSTORE PUSH1 0x20 ADD SWAP1 DUP2 MSTORE PUSH1 0x20 ADD PUSH1 0x0 KECCAK256 PUSH1 0x9 ADD DUP3 DUP3 DUP2 MLOAD DUP2 LT PUSH2 0x274 JUMPI PUSH2 0x273 PUSH2 0x16B2 JUMP JUMPDEST JUMPDEST PUSH1 0x20 MUL PUSH1 0x20 ADD ADD MLOAD SWAP1 DUP1 PUSH1 0x1 DUP2 SLOAD ADD DUP1 DUP3 SSTORE DUP1 SWAP2 POP POP PUSH1 0x1 SWAP1 SUB SWAP1 PUSH1 0x0 MSTORE PUSH1 0x20 PUSH1 0x0 KECCAK256 ADD PUSH1 0x0 SWAP1 SWAP2 SWAP1 SWAP2 SWAP1 SWAP2 POP SWAP1 DUP1 MLOAD SWAP1 PUSH1 0x20 ADD SWAP1 PUSH2 0x2B4 SWAP3 SWAP2 SWAP1 PUSH2 0x980 JUMP JUMPDEST POP DUP1 DUP1 PUSH2 0x2C0 SWAP1 PUSH2 0x160B JUMP JUMPDEST SWAP2 POP POP PUSH2 0x242 JUMP JUMPDEST POP PUSH1 0x0 DUP1 SLOAD SWAP1 PUSH2 0x100 EXP SWAP1 DIV PUSH20 0xFFFFFFFFFFFFFFFFFFFFFFFFFFFFFFFFFFFFFFFF AND PUSH20 0xFFFFFFFFFFFFFFFFFFFFFFFFFFFFFFFFFFFFFFFF AND PUSH2 0x8FC CALLVALUE SWAP1 DUP2 ISZERO MUL SWAP1 PUSH1 0x40 MLOAD PUSH1 0x0 PUSH1 0x40 MLOAD DUP1 DUP4 SUB DUP2 DUP6 DUP9 DUP9 CALL SWAP4 POP POP POP POP ISZERO DUP1 ISZERO PUSH2 0x32F JUMPI RETURNDATASIZE PUSH1 0x0 DUP1 RETURNDATACOPY RETURNDATASIZE PUSH1 0x0 REVERT JUMPDEST POP PUSH32 0xDFCC683AC35013D595A2DB07BCB6601A1BBC6C91DAD13117FD60299C875C61B4 DUP2 DUP4 CALLER PUSH1 0x2 PUSH1 0x0 DUP8 DUP2 MSTORE PUSH1 0x20 ADD SWAP1 DUP2 MSTORE PUSH1 0x20 ADD PUSH1 0x0 KECCAK256 PUSH1 0x1 ADD PUSH1 0x2 PUSH1 0x0 DUP9 DUP2 MSTORE PUSH1 0x20 ADD SWAP1 DUP2 MSTORE PUSH1 0x20 ADD PUSH1 0x0 KECCAK256 PUSH1 0x6 ADD PUSH1 0x40 MLOAD PUSH2 0x391 SWAP6 SWAP5 SWAP4 SWAP3 SWAP2 SWAP1 PUSH2 0x118E JUMP JUMPDEST PUSH1 0x40 MLOAD DUP1 SWAP2 SUB SWAP1 LOG1 POP POP JUMP JUMPDEST PUSH1 0x60 PUSH1 0x0 PUSH1 0x60 PUSH1 0x1 SLOAD DUP5 LT PUSH2 0x3E7 JUMPI PUSH1 0x40 MLOAD PUSH32 0x8C379A000000000000000000000000000000000000000000000000000000000 DUP2 MSTORE PUSH1 0x4 ADD PUSH2 0x3DE SWAP1 PUSH2 0x132D JUMP JUMPDEST PUSH1 0x40 MLOAD DUP1 SWAP2 SUB SWAP1 REVERT JUMPDEST PUSH1 0x0 PUSH1 0x2 PUSH1 0x0 DUP7 DUP2 MSTORE PUSH1 0x20 ADD SWAP1 DUP2 MSTORE PUSH1 0x20 ADD PUSH1 0x0 KECCAK256 SWAP1 POP DUP1 PUSH1 0x0 ADD DUP2 PUSH1 0x8 ADD SLOAD DUP3 PUSH1 0x9 ADD DUP3 DUP1 SLOAD PUSH2 0x417 SWAP1 PUSH2 0x15A8 JUMP JUMPDEST DUP1 PUSH1 0x1F ADD PUSH1 0x20 DUP1 SWAP2 DIV MUL PUSH1 0x20 ADD PUSH1 0x40 MLOAD SWAP1 DUP2 ADD PUSH1 0x40 MSTORE DUP1 SWAP3 SWAP2 SWAP1 DUP2 DUP2 MSTORE PUSH1 0x20 ADD DUP3 DUP1 SLOAD PUSH2 0x443 SWAP1 PUSH2 0x15A8 JUMP JUMPDEST DUP1 ISZERO PUSH2 0x490 JUMPI DUP1 PUSH1 0x1F LT PUSH2 0x465 JUMPI PUSH2 0x100 DUP1 DUP4 SLOAD DIV MUL DUP4 MSTORE SWAP2 PUSH1 0x20 ADD SWAP2 PUSH2 0x490 JUMP JUMPDEST DUP3 ADD SWAP2 SWAP1 PUSH1 0x0 MSTORE PUSH1 0x20 PUSH1 0x0 KECCAK256 SWAP1 JUMPDEST DUP2 SLOAD DUP2 MSTORE SWAP1 PUSH1 0x1 ADD SWAP1 PUSH1 0x20 ADD DUP1 DUP4 GT PUSH2 0x473 JUMPI DUP3 SWAP1 SUB PUSH1 0x1F AND DUP3 ADD SWAP2 JUMPDEST POP POP POP POP POP SWAP3 POP DUP1 DUP1 SLOAD DUP1 PUSH1 0x20 MUL PUSH1 0x20 ADD PUSH1 0x40 MLOAD SWAP1 DUP2 ADD PUSH1 0x40 MSTORE DUP1 SWAP3 SWAP2 SWAP1 DUP2 DUP2 MSTORE PUSH1 0x20 ADD PUSH1 0x0 SWAP1 JUMPDEST DUP3 DUP3 LT ISZERO PUSH2 0x564 JUMPI DUP4 DUP3 SWAP1 PUSH1 0x0 MSTORE PUSH1 0x20 PUSH1 0x0 KECCAK256 ADD DUP1 SLOAD PUSH2 0x4D7 SWAP1 PUSH2 0x15A8 JUMP JUMPDEST DUP1 PUSH1 0x1F ADD PUSH1 0x20 DUP1 SWAP2 DIV MUL PUSH1 0x20 ADD PUSH1 0x40 MLOAD SWAP1 DUP2 ADD PUSH1 0x40 MSTORE DUP1 SWAP3 SWAP2 SWAP1 DUP2 DUP2 MSTORE PUSH1 0x20 ADD DUP3 DUP1 SLOAD PUSH2 0x503 SWAP1 PUSH2 0x15A8 JUMP JUMPDEST DUP1 ISZERO PUSH2 0x550 JUMPI DUP1 PUSH1 0x1F LT PUSH2 0x525 JUMPI PUSH2 0x100 DUP1 DUP4 SLOAD DIV MUL DUP4 MSTORE SWAP2 PUSH1 0x20 ADD SWAP2 PUSH2 0x550 JUMP JUMPDEST DUP3 ADD SWAP2 SWAP1 PUSH1 0x0 MSTORE PUSH1 0x20 PUSH1 0x0 KECCAK256 SWAP1 JUMPDEST DUP2 SLOAD DUP2 MSTORE SWAP1 PUSH1 0x1 ADD SWAP1 PUSH1 0x20 ADD DUP1 DUP4 GT PUSH2 0x533 JUMPI DUP3 SWAP1 SUB PUSH1 0x1F AND DUP3 ADD SWAP2 JUMPDEST POP POP POP POP POP DUP2 MSTORE PUSH1 0x20 ADD SWAP1 PUSH1 0x1 ADD SWAP1 PUSH2 0x4B8 JUMP JUMPDEST POP POP POP POP SWAP1 POP SWAP4 POP SWAP4 POP SWAP4 POP POP SWAP2 SWAP4 SWAP1 SWAP3 POP JUMP JUMPDEST PUSH1 0x0 DUP1 SLOAD SWAP1 PUSH2 0x100 EXP SWAP1 DIV PUSH20 0xFFFFFFFFFFFFFFFFFFFFFFFFFFFFFFFFFFFFFFFF AND DUP2 JUMP JUMPDEST PUSH1 0x0 DUP1 SLOAD SWAP1 PUSH2 0x100 EXP SWAP1 DIV PUSH20 0xFFFFFFFFFFFFFFFFFFFFFFFFFFFFFFFFFFFFFFFF AND PUSH20 0xFFFFFFFFFFFFFFFFFFFFFFFFFFFFFFFFFFFFFFFF AND CALLER PUSH20 0xFFFFFFFFFFFFFFFFFFFFFFFFFFFFFFFFFFFFFFFF AND EQ PUSH2 0x62A JUMPI PUSH1 0x40 MLOAD PUSH32 0x8C379A000000000000000000000000000000000000000000000000000000000 DUP2 MSTORE PUSH1 0x4 ADD PUSH2 0x621 SWAP1 PUSH2 0x138D JUMP JUMPDEST PUSH1 0x40 MLOAD DUP1 SWAP2 SUB SWAP1 REVERT JUMPDEST PUSH1 0x0 PUSH1 0x2 PUSH1 0x0 PUSH1 0x1 SLOAD DUP2 MSTORE PUSH1 0x20 ADD SWAP1 DUP2 MSTORE PUSH1 0x20 ADD PUSH1 0x0 KECCAK256 SWAP1 POP DUP11 DUP2 PUSH1 0x0 ADD SWAP1 DUP1 MLOAD SWAP1 PUSH1 0x20 ADD SWAP1 PUSH2 0x65B SWAP3 SWAP2 SWAP1 PUSH2 0x980 JUMP JUMPDEST POP DUP10 DUP2 PUSH1 0x1 ADD SWAP1 DUP1 MLOAD SWAP1 PUSH1 0x20 ADD SWAP1 PUSH2 0x674 SWAP3 SWAP2 SWAP1 PUSH2 0x980 JUMP JUMPDEST POP DUP9 DUP2 PUSH1 0x2 ADD SWAP1 DUP1 MLOAD SWAP1 PUSH1 0x20 ADD SWAP1 PUSH2 0x68D SWAP3 SWAP2 SWAP1 PUSH2 0x980 JUMP JUMPDEST POP DUP8 DUP2 PUSH1 0x3 ADD SWAP1 DUP1 MLOAD SWAP1 PUSH1 0x20 ADD SWAP1 PUSH2 0x6A6 SWAP3 SWAP2 SWAP1 PUSH2 0x980 JUMP JUMPDEST POP DUP7 DUP2 PUSH1 0x4 ADD SWAP1 DUP1 MLOAD SWAP1 PUSH1 0x20 ADD SWAP1 PUSH2 0x6BF SWAP3 SWAP2 SWAP1 PUSH2 0x980 JUMP JUMPDEST POP DUP6 DUP2 PUSH1 0x5 ADD SWAP1 DUP1 MLOAD SWAP1 PUSH1 0x20 ADD SWAP1 PUSH2 0x6D8 SWAP3 SWAP2 SWAP1 PUSH2 0x980 JUMP JUMPDEST POP DUP5 DUP2 PUSH1 0x6 ADD SWAP1 DUP1 MLOAD SWAP1 PUSH1 0x20 ADD SWAP1 PUSH2 0x6F1 SWAP3 SWAP2 SWAP1 PUSH2 0x980 JUMP JUMPDEST POP DUP4 DUP2 PUSH1 0x7 ADD DUP2 SWAP1 SSTORE POP DUP3 DUP2 PUSH1 0x8 ADD DUP2 SWAP1 SSTORE POP DUP2 DUP2 PUSH1 0x9 ADD SWAP1 DUP1 MLOAD SWAP1 PUSH1 0x20 ADD SWAP1 PUSH2 0x71C SWAP3 SWAP2 SWAP1 PUSH2 0xA06 JUMP JUMPDEST POP PUSH1 0x1 SLOAD DUP2 PUSH1 0xA ADD DUP2 SWAP1 SSTORE POP PUSH1 0x0 DUP1 SLOAD SWAP1 PUSH2 0x100 EXP SWAP1 DIV PUSH20 0xFFFFFFFFFFFFFFFFFFFFFFFFFFFFFFFFFFFFFFFF AND DUP2 PUSH1 0xB ADD PUSH1 0x0 PUSH2 0x100 EXP DUP2 SLOAD DUP2 PUSH20 0xFFFFFFFFFFFFFFFFFFFFFFFFFFFFFFFFFFFFFFFF MUL NOT AND SWAP1 DUP4 PUSH20 0xFFFFFFFFFFFFFFFFFFFFFFFFFFFFFFFFFFFFFFFF AND MUL OR SWAP1 SSTORE POP PUSH1 0x3 PUSH1 0x1 SLOAD SWAP1 DUP1 PUSH1 0x1 DUP2 SLOAD ADD DUP1 DUP3 SSTORE DUP1 SWAP2 POP POP PUSH1 0x1 SWAP1 SUB SWAP1 PUSH1 0x0 MSTORE PUSH1 0x20 PUSH1 0x0 KECCAK256 ADD PUSH1 0x0 SWAP1 SWAP2 SWAP1 SWAP2 SWAP1 SWAP2 POP SSTORE PUSH32 0xC06F078C3C74D235829AF3E011FF5AAE487C78EF8D3ACCA688417ED86FF14591 DUP12 DUP12 DUP12 DUP12 DUP12 DUP12 DUP12 DUP12 DUP12 DUP12 PUSH1 0x1 SLOAD PUSH1 0x0 DUP1 SLOAD SWAP1 PUSH2 0x100 EXP SWAP1 DIV PUSH20 0xFFFFFFFFFFFFFFFFFFFFFFFFFFFFFFFFFFFFFFFF AND PUSH1 0x40 MLOAD PUSH2 0x81D SWAP13 SWAP12 SWAP11 SWAP10 SWAP9 SWAP8 SWAP7 SWAP6 SWAP5 SWAP4 SWAP3 SWAP2 SWAP1 PUSH2 0x11F6 JUMP JUMPDEST PUSH1 0x40 MLOAD DUP1 SWAP2 SUB SWAP1 LOG1 PUSH1 0x1 PUSH1 0x0 DUP2 SLOAD DUP1 SWAP3 SWAP2 SWAP1 PUSH2 0x838 SWAP1 PUSH2 0x160B JUMP JUMPDEST SWAP2 SWAP1 POP SSTORE POP POP POP POP POP POP POP POP POP POP POP POP JUMP JUMPDEST PUSH1 0x3 DUP2 DUP2 SLOAD DUP2 LT PUSH2 0x85A JUMPI PUSH1 0x0 DUP1 REVERT JUMPDEST SWAP1 PUSH1 0x0 MSTORE PUSH1 0x20 PUSH1 0x0 KECCAK256 ADD PUSH1 0x0 SWAP2 POP SWAP1 POP SLOAD DUP2 JUMP JUMPDEST PUSH1 0x0 DUP1 PUSH1 0x0 SWAP1 POP JUMPDEST DUP3 MLOAD DUP2 LT ISZERO PUSH2 0x974 JUMPI PUSH1 0x0 JUMPDEST PUSH1 0x2 PUSH1 0x0 DUP7 DUP2 MSTORE PUSH1 0x20 ADD SWAP1 DUP2 MSTORE PUSH1 0x20 ADD PUSH1 0x0 KECCAK256 PUSH1 0x9 ADD DUP1 SLOAD SWAP1 POP DUP2 LT ISZERO PUSH2 0x960 JUMPI DUP4 DUP3 DUP2 MLOAD DUP2 LT PUSH2 0x8B6 JUMPI PUSH2 0x8B5 PUSH2 0x16B2 JUMP JUMPDEST JUMPDEST PUSH1 0x20 MUL PUSH1 0x20 ADD ADD MLOAD PUSH1 0x40 MLOAD PUSH1 0x20 ADD PUSH2 0x8CE SWAP2 SWAP1 PUSH2 0x1145 JUMP JUMPDEST PUSH1 0x40 MLOAD PUSH1 0x20 DUP2 DUP4 SUB SUB DUP2 MSTORE SWAP1 PUSH1 0x40 MSTORE DUP1 MLOAD SWAP1 PUSH1 0x20 ADD KECCAK256 PUSH1 0x2 PUSH1 0x0 DUP8 DUP2 MSTORE PUSH1 0x20 ADD SWAP1 DUP2 MSTORE PUSH1 0x20 ADD PUSH1 0x0 KECCAK256 PUSH1 0x9 ADD DUP3 DUP2 SLOAD DUP2 LT PUSH2 0x90C JUMPI PUSH2 0x90B PUSH2 0x16B2 JUMP JUMPDEST JUMPDEST SWAP1 PUSH1 0x0 MSTORE PUSH1 0x20 PUSH1 0x0 KECCAK256 ADD PUSH1 0x40 MLOAD PUSH1 0x20 ADD PUSH2 0x926 SWAP2 SWAP1 PUSH2 0x115C JUMP JUMPDEST PUSH1 0x40 MLOAD PUSH1 0x20 DUP2 DUP4 SUB SUB DUP2 MSTORE SWAP1 PUSH1 0x40 MSTORE DUP1 MLOAD SWAP1 PUSH1 0x20 ADD KECCAK256 EQ ISZERO PUSH2 0x94D JUMPI PUSH1 0x0 SWAP3 POP POP POP PUSH2 0x97A JUMP JUMPDEST DUP1 DUP1 PUSH2 0x958 SWAP1 PUSH2 0x160B JUMP JUMPDEST SWAP2 POP POP PUSH2 0x882 JUMP JUMPDEST POP DUP1 DUP1 PUSH2 0x96C SWAP1 PUSH2 0x160B JUMP JUMPDEST SWAP2 POP POP PUSH2 0x876 JUMP JUMPDEST POP PUSH1 0x1 SWAP1 POP JUMPDEST SWAP3 SWAP2 POP POP JUMP JUMPDEST DUP3 DUP1 SLOAD PUSH2 0x98C SWAP1 PUSH2 0x15A8 JUMP JUMPDEST SWAP1 PUSH1 0x0 MSTORE PUSH1 0x20 PUSH1 0x0 KECCAK256 SWAP1 PUSH1 0x1F ADD PUSH1 0x20 SWAP1 DIV DUP2 ADD SWAP3 DUP3 PUSH2 0x9AE JUMPI PUSH1 0x0 DUP6 SSTORE PUSH2 0x9F5 JUMP JUMPDEST DUP3 PUSH1 0x1F LT PUSH2 0x9C7 JUMPI DUP1 MLOAD PUSH1 0xFF NOT AND DUP4 DUP1 ADD OR DUP6 SSTORE PUSH2 0x9F5 JUMP JUMPDEST DUP3 DUP1 ADD PUSH1 0x1 ADD DUP6 SSTORE DUP3 ISZERO PUSH2 0x9F5 JUMPI SWAP2 DUP3 ADD JUMPDEST DUP3 DUP2 GT ISZERO PUSH2 0x9F4 JUMPI DUP3 MLOAD DUP3 SSTORE SWAP2 PUSH1 0x20 ADD SWAP2 SWAP1 PUSH1 0x1 ADD SWAP1 PUSH2 0x9D9 JUMP JUMPDEST JUMPDEST POP SWAP1 POP PUSH2 0xA02 SWAP2 SWAP1 PUSH2 0xA66 JUMP JUMPDEST POP SWAP1 JUMP JUMPDEST DUP3 DUP1 SLOAD DUP3 DUP3 SSTORE SWAP1 PUSH1 0x0 MSTORE PUSH1 0x20 PUSH1 0x0 KECCAK256 SWAP1 DUP2 ADD SWAP3 DUP3 ISZERO PUSH2 0xA55 JUMPI SWAP2 PUSH1 0x20 MUL DUP3 ADD JUMPDEST DUP3 DUP2 GT ISZERO PUSH2 0xA54 JUMPI DUP3 MLOAD DUP3 SWAP1 DUP1 MLOAD SWAP1 PUSH1 0x20 ADD SWAP1 PUSH2 0xA44 SWAP3 SWAP2 SWAP1 PUSH2 0x980 JUMP JUMPDEST POP SWAP2 PUSH1 0x20 ADD SWAP2 SWAP1 PUSH1 0x1 ADD SWAP1 PUSH2 0xA26 JUMP JUMPDEST JUMPDEST POP SWAP1 POP PUSH2 0xA62 SWAP2 SWAP1 PUSH2 0xA83 JUMP JUMPDEST POP SWAP1 JUMP JUMPDEST JUMPDEST DUP1 DUP3 GT ISZERO PUSH2 0xA7F JUMPI PUSH1 0x0 DUP2 PUSH1 0x0 SWAP1 SSTORE POP PUSH1 0x1 ADD PUSH2 0xA67 JUMP JUMPDEST POP SWAP1 JUMP JUMPDEST JUMPDEST DUP1 DUP3 GT ISZERO PUSH2 0xAA3 JUMPI PUSH1 0x0 DUP2 DUP2 PUSH2 0xA9A SWAP2 SWAP1 PUSH2 0xAA7 JUMP JUMPDEST POP PUSH1 0x1 ADD PUSH2 0xA84 JUMP JUMPDEST POP SWAP1 JUMP JUMPDEST POP DUP1 SLOAD PUSH2 0xAB3 SWAP1 PUSH2 0x15A8 JUMP JUMPDEST PUSH1 0x0 DUP3 SSTORE DUP1 PUSH1 0x1F LT PUSH2 0xAC5 JUMPI POP PUSH2 0xAE4 JUMP JUMPDEST PUSH1 0x1F ADD PUSH1 0x20 SWAP1 DIV SWAP1 PUSH1 0x0 MSTORE PUSH1 0x20 PUSH1 0x0 KECCAK256 SWAP1 DUP2 ADD SWAP1 PUSH2 0xAE3 SWAP2 SWAP1 PUSH2 0xA66 JUMP JUMPDEST JUMPDEST POP JUMP JUMPDEST PUSH1 0x0 PUSH2 0xAFA PUSH2 0xAF5 DUP5 PUSH2 0x13ED JUMP JUMPDEST PUSH2 0x13C8 JUMP JUMPDEST SWAP1 POP DUP1 DUP4 DUP3 MSTORE PUSH1 0x20 DUP3 ADD SWAP1 POP DUP3 DUP6 PUSH1 0x20 DUP7 MUL DUP3 ADD GT ISZERO PUSH2 0xB1D JUMPI PUSH2 0xB1C PUSH2 0x1715 JUMP JUMPDEST JUMPDEST PUSH1 0x0 JUMPDEST DUP6 DUP2 LT ISZERO PUSH2 0xB6B JUMPI DUP2 CALLDATALOAD PUSH8 0xFFFFFFFFFFFFFFFF DUP2 GT ISZERO PUSH2 0xB43 JUMPI PUSH2 0xB42 PUSH2 0x1710 JUMP JUMPDEST JUMPDEST DUP1 DUP7 ADD PUSH2 0xB50 DUP10 DUP3 PUSH2 0xBE5 JUMP JUMPDEST DUP6 MSTORE PUSH1 0x20 DUP6 ADD SWAP5 POP PUSH1 0x20 DUP5 ADD SWAP4 POP POP POP PUSH1 0x1 DUP2 ADD SWAP1 POP PUSH2 0xB20 JUMP JUMPDEST POP POP POP SWAP4 SWAP3 POP POP POP JUMP JUMPDEST PUSH1 0x0 PUSH2 0xB88 PUSH2 0xB83 DUP5 PUSH2 0x1419 JUMP JUMPDEST PUSH2 0x13C8 JUMP JUMPDEST SWAP1 POP DUP3 DUP2 MSTORE PUSH1 0x20 DUP2 ADD DUP5 DUP5 DUP5 ADD GT ISZERO PUSH2 0xBA4 JUMPI PUSH2 0xBA3 PUSH2 0x171A JUMP JUMPDEST JUMPDEST PUSH2 0xBAF DUP5 DUP3 DUP6 PUSH2 0x1566 JUMP JUMPDEST POP SWAP4 SWAP3 POP POP POP JUMP JUMPDEST PUSH1 0x0 DUP3 PUSH1 0x1F DUP4 ADD SLT PUSH2 0xBCC JUMPI PUSH2 0xBCB PUSH2 0x1710 JUMP JUMPDEST JUMPDEST DUP2 CALLDATALOAD PUSH2 0xBDC DUP5 DUP3 PUSH1 0x20 DUP7 ADD PUSH2 0xAE7 JUMP JUMPDEST SWAP2 POP POP SWAP3 SWAP2 POP POP JUMP JUMPDEST PUSH1 0x0 DUP3 PUSH1 0x1F DUP4 ADD SLT PUSH2 0xBFA JUMPI PUSH2 0xBF9 PUSH2 0x1710 JUMP JUMPDEST JUMPDEST DUP2 CALLDATALOAD PUSH2 0xC0A DUP5 DUP3 PUSH1 0x20 DUP7 ADD PUSH2 0xB75 JUMP JUMPDEST SWAP2 POP POP SWAP3 SWAP2 POP POP JUMP JUMPDEST PUSH1 0x0 DUP2 CALLDATALOAD SWAP1 POP PUSH2 0xC22 DUP2 PUSH2 0x1850 JUMP JUMPDEST SWAP3 SWAP2 POP POP JUMP JUMPDEST PUSH1 0x0 DUP1 PUSH1 0x0 DUP1 PUSH1 0x0 DUP1 PUSH1 0x0 DUP1 PUSH1 0x0 DUP1 PUSH2 0x140 DUP12 DUP14 SUB SLT ISZERO PUSH2 0xC4C JUMPI PUSH2 0xC4B PUSH2 0x1724 JUMP JUMPDEST JUMPDEST PUSH1 0x0 DUP12 ADD CALLDATALOAD PUSH8 0xFFFFFFFFFFFFFFFF DUP2 GT ISZERO PUSH2 0xC6A JUMPI PUSH2 0xC69 PUSH2 0x171F JUMP JUMPDEST JUMPDEST PUSH2 0xC76 DUP14 DUP3 DUP15 ADD PUSH2 0xBE5 JUMP JUMPDEST SWAP11 POP POP PUSH1 0x20 DUP12 ADD CALLDATALOAD PUSH8 0xFFFFFFFFFFFFFFFF DUP2 GT ISZERO PUSH2 0xC97 JUMPI PUSH2 0xC96 PUSH2 0x171F JUMP JUMPDEST JUMPDEST PUSH2 0xCA3 DUP14 DUP3 DUP15 ADD PUSH2 0xBE5 JUMP JUMPDEST SWAP10 POP POP PUSH1 0x40 DUP12 ADD CALLDATALOAD PUSH8 0xFFFFFFFFFFFFFFFF DUP2 GT ISZERO PUSH2 0xCC4 JUMPI PUSH2 0xCC3 PUSH2 0x171F JUMP JUMPDEST JUMPDEST PUSH2 0xCD0 DUP14 DUP3 DUP15 ADD PUSH2 0xBE5 JUMP JUMPDEST SWAP9 POP POP PUSH1 0x60 DUP12 ADD CALLDATALOAD PUSH8 0xFFFFFFFFFFFFFFFF DUP2 GT ISZERO PUSH2 0xCF1 JUMPI PUSH2 0xCF0 PUSH2 0x171F JUMP JUMPDEST JUMPDEST PUSH2 0xCFD DUP14 DUP3 DUP15 ADD PUSH2 0xBE5 JUMP JUMPDEST SWAP8 POP POP PUSH1 0x80 DUP12 ADD CALLDATALOAD PUSH8 0xFFFFFFFFFFFFFFFF DUP2 GT ISZERO PUSH2 0xD1E JUMPI PUSH2 0xD1D PUSH2 0x171F JUMP JUMPDEST JUMPDEST PUSH2 0xD2A DUP14 DUP3 DUP15 ADD PUSH2 0xBE5 JUMP JUMPDEST SWAP7 POP POP PUSH1 0xA0 DUP12 ADD CALLDATALOAD PUSH8 0xFFFFFFFFFFFFFFFF DUP2 GT ISZERO PUSH2 0xD4B JUMPI PUSH2 0xD4A PUSH2 0x171F JUMP JUMPDEST JUMPDEST PUSH2 0xD57 DUP14 DUP3 DUP15 ADD PUSH2 0xBE5 JUMP JUMPDEST SWAP6 POP POP PUSH1 0xC0 DUP12 ADD CALLDATALOAD PUSH8 0xFFFFFFFFFFFFFFFF DUP2 GT ISZERO PUSH2 0xD78 JUMPI PUSH2 0xD77 PUSH2 0x171F JUMP JUMPDEST JUMPDEST PUSH2 0xD84 DUP14 DUP3 DUP15 ADD PUSH2 0xBE5 JUMP JUMPDEST SWAP5 POP POP PUSH1 0xE0 PUSH2 0xD95 DUP14 DUP3 DUP15 ADD PUSH2 0xC13 JUMP JUMPDEST SWAP4 POP POP PUSH2 0x100 PUSH2 0xDA7 DUP14 DUP3 DUP15 ADD PUSH2 0xC13 JUMP JUMPDEST SWAP3 POP POP PUSH2 0x120 DUP12 ADD CALLDATALOAD PUSH8 0xFFFFFFFFFFFFFFFF DUP2 GT ISZERO PUSH2 0xDC9 JUMPI PUSH2 0xDC8 PUSH2 0x171F JUMP JUMPDEST JUMPDEST PUSH2 0xDD5 DUP14 DUP3 DUP15 ADD PUSH2 0xBB7 JUMP JUMPDEST SWAP2 POP POP SWAP3 SWAP6 SWAP9 SWAP12 SWAP2 SWAP5 SWAP8 SWAP11 POP SWAP3 SWAP6 SWAP9 POP JUMP JUMPDEST PUSH1 0x0 PUSH1 0x20 DUP3 DUP5 SUB SLT ISZERO PUSH2 0xDFD JUMPI PUSH2 0xDFC PUSH2 0x1724 JUMP JUMPDEST JUMPDEST PUSH1 0x0 PUSH2 0xE0B DUP5 DUP3 DUP6 ADD PUSH2 0xC13 JUMP JUMPDEST SWAP2 POP POP SWAP3 SWAP2 POP POP JUMP JUMPDEST PUSH1 0x0 DUP1 PUSH1 0x40 DUP4 DUP6 SUB SLT ISZERO PUSH2 0xE2B JUMPI PUSH2 0xE2A PUSH2 0x1724 JUMP JUMPDEST JUMPDEST PUSH1 0x0 PUSH2 0xE39 DUP6 DUP3 DUP7 ADD PUSH2 0xC13 JUMP JUMPDEST SWAP3 POP POP PUSH1 0x20 DUP4 ADD CALLDATALOAD PUSH8 0xFFFFFFFFFFFFFFFF DUP2 GT ISZERO PUSH2 0xE5A JUMPI PUSH2 0xE59 PUSH2 0x171F JUMP JUMPDEST JUMPDEST PUSH2 0xE66 DUP6 DUP3 DUP7 ADD PUSH2 0xBB7 JUMP JUMPDEST SWAP2 POP POP SWAP3 POP SWAP3 SWAP1 POP JUMP JUMPDEST PUSH1 0x0 PUSH2 0xE7C DUP4 DUP4 PUSH2 0xF08 JUMP JUMPDEST SWAP1 POP SWAP3 SWAP2 POP POP JUMP JUMPDEST PUSH2 0xE8D DUP2 PUSH2 0x152A JUMP JUMPDEST DUP3 MSTORE POP POP JUMP JUMPDEST PUSH1 0x0 PUSH2 0xE9E DUP3 PUSH2 0x146F JUMP JUMPDEST PUSH2 0xEA8 DUP2 DUP6 PUSH2 0x1492 JUMP JUMPDEST SWAP4 POP DUP4 PUSH1 0x20 DUP3 MUL DUP6 ADD PUSH2 0xEBA DUP6 PUSH2 0x144A JUMP JUMPDEST DUP1 PUSH1 0x0 JUMPDEST DUP6 DUP2 LT ISZERO PUSH2 0xEF6 JUMPI DUP5 DUP5 SUB DUP10 MSTORE DUP2 MLOAD PUSH2 0xED7 DUP6 DUP3 PUSH2 0xE70 JUMP JUMPDEST SWAP5 POP PUSH2 0xEE2 DUP4 PUSH2 0x1485 JUMP JUMPDEST SWAP3 POP PUSH1 0x20 DUP11 ADD SWAP10 POP POP PUSH1 0x1 DUP2 ADD SWAP1 POP PUSH2 0xEBE JUMP JUMPDEST POP DUP3 SWAP8 POP DUP8 SWAP6 POP POP POP POP POP POP SWAP3 SWAP2 POP POP JUMP JUMPDEST PUSH1 0x0 PUSH2 0xF13 DUP3 PUSH2 0x147A JUMP JUMPDEST PUSH2 0xF1D DUP2 DUP6 PUSH2 0x14A3 JUMP JUMPDEST SWAP4 POP PUSH2 0xF2D DUP2 DUP6 PUSH1 0x20 DUP7 ADD PUSH2 0x1575 JUMP JUMPDEST PUSH2 0xF36 DUP2 PUSH2 0x1729 JUMP JUMPDEST DUP5 ADD SWAP2 POP POP SWAP3 SWAP2 POP POP JUMP JUMPDEST PUSH1 0x0 PUSH2 0xF4C DUP3 PUSH2 0x147A JUMP JUMPDEST PUSH2 0xF56 DUP2 DUP6 PUSH2 0x14B4 JUMP JUMPDEST SWAP4 POP PUSH2 0xF66 DUP2 DUP6 PUSH1 0x20 DUP7 ADD PUSH2 0x1575 JUMP JUMPDEST PUSH2 0xF6F DUP2 PUSH2 0x1729 JUMP JUMPDEST DUP5 ADD SWAP2 POP POP SWAP3 SWAP2 POP POP JUMP JUMPDEST PUSH1 0x0 PUSH2 0xF85 DUP3 PUSH2 0x147A JUMP JUMPDEST PUSH2 0xF8F DUP2 DUP6 PUSH2 0x14C5 JUMP JUMPDEST SWAP4 POP PUSH2 0xF9F DUP2 DUP6 PUSH1 0x20 DUP7 ADD PUSH2 0x1575 JUMP JUMPDEST DUP1 DUP5 ADD SWAP2 POP POP SWAP3 SWAP2 POP POP JUMP JUMPDEST PUSH1 0x0 DUP2 SLOAD PUSH2 0xFB8 DUP2 PUSH2 0x15A8 JUMP JUMPDEST PUSH2 0xFC2 DUP2 DUP7 PUSH2 0x14B4 JUMP JUMPDEST SWAP5 POP PUSH1 0x1 DUP3 AND PUSH1 0x0 DUP2 EQ PUSH2 0xFDD JUMPI PUSH1 0x1 DUP2 EQ PUSH2 0xFEF JUMPI PUSH2 0x1022 JUMP JUMPDEST PUSH1 0xFF NOT DUP4 AND DUP7 MSTORE PUSH1 0x20 DUP7 ADD SWAP4 POP PUSH2 0x1022 JUMP JUMPDEST PUSH2 0xFF8 DUP6 PUSH2 0x145A JUMP JUMPDEST PUSH1 0x0 JUMPDEST DUP4 DUP2 LT ISZERO PUSH2 0x101A JUMPI DUP2 SLOAD DUP2 DUP10 ADD MSTORE PUSH1 0x1 DUP3 ADD SWAP2 POP PUSH1 0x20 DUP2 ADD SWAP1 POP PUSH2 0xFFB JUMP JUMPDEST DUP1 DUP9 ADD SWAP6 POP POP POP JUMPDEST POP POP POP SWAP3 SWAP2 POP POP JUMP JUMPDEST PUSH1 0x0 DUP2 SLOAD PUSH2 0x1038 DUP2 PUSH2 0x15A8 JUMP JUMPDEST PUSH2 0x1042 DUP2 DUP7 PUSH2 0x14C5 JUMP JUMPDEST SWAP5 POP PUSH1 0x1 DUP3 AND PUSH1 0x0 DUP2 EQ PUSH2 0x105D JUMPI PUSH1 0x1 DUP2 EQ PUSH2 0x106E JUMPI PUSH2 0x10A1 JUMP JUMPDEST PUSH1 0xFF NOT DUP4 AND DUP7 MSTORE DUP2 DUP7 ADD SWAP4 POP PUSH2 0x10A1 JUMP JUMPDEST PUSH2 0x1077 DUP6 PUSH2 0x145A JUMP JUMPDEST PUSH1 0x0 JUMPDEST DUP4 DUP2 LT ISZERO PUSH2 0x1099 JUMPI DUP2 SLOAD DUP2 DUP10 ADD MSTORE PUSH1 0x1 DUP3 ADD SWAP2 POP PUSH1 0x20 DUP2 ADD SWAP1 POP PUSH2 0x107A JUMP JUMPDEST DUP4 DUP9 ADD SWAP6 POP POP POP JUMPDEST POP POP POP SWAP3 SWAP2 POP POP JUMP JUMPDEST PUSH1 0x0 PUSH2 0x10B7 PUSH1 0xE DUP4 PUSH2 0x14B4 JUMP JUMPDEST SWAP2 POP PUSH2 0x10C2 DUP3 PUSH2 0x173A JUMP JUMPDEST PUSH1 0x20 DUP3 ADD SWAP1 POP SWAP2 SWAP1 POP JUMP JUMPDEST PUSH1 0x0 PUSH2 0x10DA PUSH1 0x40 DUP4 PUSH2 0x14B4 JUMP JUMPDEST SWAP2 POP PUSH2 0x10E5 DUP3 PUSH2 0x1763 JUMP JUMPDEST PUSH1 0x40 DUP3 ADD SWAP1 POP SWAP2 SWAP1 POP JUMP JUMPDEST PUSH1 0x0 PUSH2 0x10FD PUSH1 0x21 DUP4 PUSH2 0x14B4 JUMP JUMPDEST SWAP2 POP PUSH2 0x1108 DUP3 PUSH2 0x17B2 JUMP JUMPDEST PUSH1 0x40 DUP3 ADD SWAP1 POP SWAP2 SWAP1 POP JUMP JUMPDEST PUSH1 0x0 PUSH2 0x1120 PUSH1 0x2F DUP4 PUSH2 0x14B4 JUMP JUMPDEST SWAP2 POP PUSH2 0x112B DUP3 PUSH2 0x1801 JUMP JUMPDEST PUSH1 0x40 DUP3 ADD SWAP1 POP SWAP2 SWAP1 POP JUMP JUMPDEST PUSH2 0x113F DUP2 PUSH2 0x155C JUMP JUMPDEST DUP3 MSTORE POP POP JUMP JUMPDEST PUSH1 0x0 PUSH2 0x1151 DUP3 DUP5 PUSH2 0xF7A JUMP JUMPDEST SWAP2 POP DUP2 SWAP1 POP SWAP3 SWAP2 POP POP JUMP JUMPDEST PUSH1 0x0 PUSH2 0x1168 DUP3 DUP5 PUSH2 0x102B JUMP JUMPDEST SWAP2 POP DUP2 SWAP1 POP SWAP3 SWAP2 POP POP JUMP JUMPDEST PUSH1 0x0 PUSH1 0x20 DUP3 ADD SWAP1 POP PUSH2 0x1188 PUSH1 0x0 DUP4 ADD DUP5 PUSH2 0xE84 JUMP JUMPDEST SWAP3 SWAP2 POP POP JUMP JUMPDEST PUSH1 0x0 PUSH1 0xA0 DUP3 ADD SWAP1 POP DUP2 DUP2 SUB PUSH1 0x0 DUP4 ADD MSTORE PUSH2 0x11A8 DUP2 DUP9 PUSH2 0xE93 JUMP JUMPDEST SWAP1 POP PUSH2 0x11B7 PUSH1 0x20 DUP4 ADD DUP8 PUSH2 0x1136 JUMP JUMPDEST PUSH2 0x11C4 PUSH1 0x40 DUP4 ADD DUP7 PUSH2 0xE84 JUMP JUMPDEST DUP2 DUP2 SUB PUSH1 0x60 DUP4 ADD MSTORE PUSH2 0x11D6 DUP2 DUP6 PUSH2 0xFAB JUMP JUMPDEST SWAP1 POP DUP2 DUP2 SUB PUSH1 0x80 DUP4 ADD MSTORE PUSH2 0x11EA DUP2 DUP5 PUSH2 0xFAB JUMP JUMPDEST SWAP1 POP SWAP7 SWAP6 POP POP POP POP POP POP JUMP JUMPDEST PUSH1 0x0 PUSH2 0x180 DUP3 ADD SWAP1 POP DUP2 DUP2 SUB PUSH1 0x0 DUP4 ADD MSTORE PUSH2 0x1211 DUP2 DUP16 PUSH2 0xF41 JUMP JUMPDEST SWAP1 POP DUP2 DUP2 SUB PUSH1 0x20 DUP4 ADD MSTORE PUSH2 0x1225 DUP2 DUP15 PUSH2 0xF41 JUMP JUMPDEST SWAP1 POP DUP2 DUP2 SUB PUSH1 0x40 DUP4 ADD MSTORE PUSH2 0x1239 DUP2 DUP14 PUSH2 0xF41 JUMP JUMPDEST SWAP1 POP DUP2 DUP2 SUB PUSH1 0x60 DUP4 ADD MSTORE PUSH2 0x124D DUP2 DUP13 PUSH2 0xF41 JUMP JUMPDEST SWAP1 POP DUP2 DUP2 SUB PUSH1 0x80 DUP4 ADD MSTORE PUSH2 0x1261 DUP2 DUP12 PUSH2 0xF41 JUMP JUMPDEST SWAP1 POP DUP2 DUP2 SUB PUSH1 0xA0 DUP4 ADD MSTORE PUSH2 0x1275 DUP2 DUP11 PUSH2 0xF41 JUMP JUMPDEST SWAP1 POP DUP2 DUP2 SUB PUSH1 0xC0 DUP4 ADD MSTORE PUSH2 0x1289 DUP2 DUP10 PUSH2 0xF41 JUMP JUMPDEST SWAP1 POP PUSH2 0x1298 PUSH1 0xE0 DUP4 ADD DUP9 PUSH2 0x1136 JUMP JUMPDEST PUSH2 0x12A6 PUSH2 0x100 DUP4 ADD DUP8 PUSH2 0x1136 JUMP JUMPDEST DUP2 DUP2 SUB PUSH2 0x120 DUP4 ADD MSTORE PUSH2 0x12B9 DUP2 DUP7 PUSH2 0xE93 JUMP JUMPDEST SWAP1 POP PUSH2 0x12C9 PUSH2 0x140 DUP4 ADD DUP6 PUSH2 0x1136 JUMP JUMPDEST PUSH2 0x12D7 PUSH2 0x160 DUP4 ADD DUP5 PUSH2 0xE84 JUMP JUMPDEST SWAP14 SWAP13 POP POP POP POP POP POP POP POP POP POP POP POP POP JUMP JUMPDEST PUSH1 0x0 PUSH1 0x60 DUP3 ADD SWAP1 POP DUP2 DUP2 SUB PUSH1 0x0 DUP4 ADD MSTORE PUSH2 0x1302 DUP2 DUP7 PUSH2 0xF41 JUMP JUMPDEST SWAP1 POP PUSH2 0x1311 PUSH1 0x20 DUP4 ADD DUP6 PUSH2 0x1136 JUMP JUMPDEST DUP2 DUP2 SUB PUSH1 0x40 DUP4 ADD MSTORE PUSH2 0x1323 DUP2 DUP5 PUSH2 0xE93 JUMP JUMPDEST SWAP1 POP SWAP5 SWAP4 POP POP POP POP JUMP JUMPDEST PUSH1 0x0 PUSH1 0x20 DUP3 ADD SWAP1 POP DUP2 DUP2 SUB PUSH1 0x0 DUP4 ADD MSTORE PUSH2 0x1346 DUP2 PUSH2 0x10AA JUMP JUMPDEST SWAP1 POP SWAP2 SWAP1 POP JUMP JUMPDEST PUSH1 0x0 PUSH1 0x20 DUP3 ADD SWAP1 POP DUP2 DUP2 SUB PUSH1 0x0 DUP4 ADD MSTORE PUSH2 0x1366 DUP2 PUSH2 0x10CD JUMP JUMPDEST SWAP1 POP SWAP2 SWAP1 POP JUMP JUMPDEST PUSH1 0x0 PUSH1 0x20 DUP3 ADD SWAP1 POP DUP2 DUP2 SUB PUSH1 0x0 DUP4 ADD MSTORE PUSH2 0x1386 DUP2 PUSH2 0x10F0 JUMP JUMPDEST SWAP1 POP SWAP2 SWAP1 POP JUMP JUMPDEST PUSH1 0x0 PUSH1 0x20 DUP3 ADD SWAP1 POP DUP2 DUP2 SUB PUSH1 0x0 DUP4 ADD MSTORE PUSH2 0x13A6 DUP2 PUSH2 0x1113 JUMP JUMPDEST SWAP1 POP SWAP2 SWAP1 POP JUMP JUMPDEST PUSH1 0x0 PUSH1 0x20 DUP3 ADD SWAP1 POP PUSH2 0x13C2 PUSH1 0x0 DUP4 ADD DUP5 PUSH2 0x1136 JUMP JUMPDEST SWAP3 SWAP2 POP POP JUMP JUMPDEST PUSH1 0x0 PUSH2 0x13D2 PUSH2 0x13E3 JUMP JUMPDEST SWAP1 POP PUSH2 0x13DE DUP3 DUP3 PUSH2 0x15DA JUMP JUMPDEST SWAP2 SWAP1 POP JUMP JUMPDEST PUSH1 0x0 PUSH1 0x40 MLOAD SWAP1 POP SWAP1 JUMP JUMPDEST PUSH1 0x0 PUSH8 0xFFFFFFFFFFFFFFFF DUP3 GT ISZERO PUSH2 0x1408 JUMPI PUSH2 0x1407 PUSH2 0x16E1 JUMP JUMPDEST JUMPDEST PUSH1 0x20 DUP3 MUL SWAP1 POP PUSH1 0x20 DUP2 ADD SWAP1 POP SWAP2 SWAP1 POP JUMP JUMPDEST PUSH1 0x0 PUSH8 0xFFFFFFFFFFFFFFFF DUP3 GT ISZERO PUSH2 0x1434 JUMPI PUSH2 0x1433 PUSH2 0x16E1 JUMP JUMPDEST JUMPDEST PUSH2 0x143D DUP3 PUSH2 0x1729 JUMP JUMPDEST SWAP1 POP PUSH1 0x20 DUP2 ADD SWAP1 POP SWAP2 SWAP1 POP JUMP JUMPDEST PUSH1 0x0 DUP2 SWAP1 POP PUSH1 0x20 DUP3 ADD SWAP1 POP SWAP2 SWAP1 POP JUMP JUMPDEST PUSH1 0x0 DUP2 SWAP1 POP DUP2 PUSH1 0x0 MSTORE PUSH1 0x20 PUSH1 0x0 KECCAK256 SWAP1 POP SWAP2 SWAP1 POP JUMP JUMPDEST PUSH1 0x0 DUP2 MLOAD SWAP1 POP SWAP2 SWAP1 POP JUMP JUMPDEST PUSH1 0x0 DUP2 MLOAD SWAP1 POP SWAP2 SWAP1 POP JUMP JUMPDEST PUSH1 0x0 PUSH1 0x20 DUP3 ADD SWAP1 POP SWAP2 SWAP1 POP JUMP JUMPDEST PUSH1 0x0 DUP3 DUP3 MSTORE PUSH1 0x20 DUP3 ADD SWAP1 POP SWAP3 SWAP2 POP POP JUMP JUMPDEST PUSH1 0x0 DUP3 DUP3 MSTORE PUSH1 0x20 DUP3 ADD SWAP1 POP SWAP3 SWAP2 POP POP JUMP JUMPDEST PUSH1 0x0 DUP3 DUP3 MSTORE PUSH1 0x20 DUP3 ADD SWAP1 POP SWAP3 SWAP2 POP POP JUMP JUMPDEST PUSH1 0x0 DUP2 SWAP1 POP SWAP3 SWAP2 POP POP JUMP JUMPDEST PUSH1 0x0 PUSH2 0x14DB DUP3 PUSH2 0x155C JUMP JUMPDEST SWAP2 POP PUSH2 0x14E6 DUP4 PUSH2 0x155C JUMP JUMPDEST SWAP3 POP DUP2 PUSH32 0xFFFFFFFFFFFFFFFFFFFFFFFFFFFFFFFFFFFFFFFFFFFFFFFFFFFFFFFFFFFFFFFF DIV DUP4 GT DUP3 ISZERO ISZERO AND ISZERO PUSH2 0x151F JUMPI PUSH2 0x151E PUSH2 0x1654 JUMP JUMPDEST JUMPDEST DUP3 DUP3 MUL SWAP1 POP SWAP3 SWAP2 POP POP JUMP JUMPDEST PUSH1 0x0 PUSH2 0x1535 DUP3 PUSH2 0x153C JUMP JUMPDEST SWAP1 POP SWAP2 SWAP1 POP JUMP JUMPDEST PUSH1 0x0 PUSH20 0xFFFFFFFFFFFFFFFFFFFFFFFFFFFFFFFFFFFFFFFF DUP3 AND SWAP1 POP SWAP2 SWAP1 POP JUMP JUMPDEST PUSH1 0x0 DUP2 SWAP1 POP SWAP2 SWAP1 POP JUMP JUMPDEST DUP3 DUP2 DUP4 CALLDATACOPY PUSH1 0x0 DUP4 DUP4 ADD MSTORE POP POP POP JUMP JUMPDEST PUSH1 0x0 JUMPDEST DUP4 DUP2 LT ISZERO PUSH2 0x1593 JUMPI DUP1 DUP3 ADD MLOAD DUP2 DUP5 ADD MSTORE PUSH1 0x20 DUP2 ADD SWAP1 POP PUSH2 0x1578 JUMP JUMPDEST DUP4 DUP2 GT ISZERO PUSH2 0x15A2 JUMPI PUSH1 0x0 DUP5 DUP5 ADD MSTORE JUMPDEST POP POP POP POP JUMP JUMPDEST PUSH1 0x0 PUSH1 0x2 DUP3 DIV SWAP1 POP PUSH1 0x1 DUP3 AND DUP1 PUSH2 0x15C0 JUMPI PUSH1 0x7F DUP3 AND SWAP2 POP JUMPDEST PUSH1 0x20 DUP3 LT DUP2 EQ ISZERO PUSH2 0x15D4 JUMPI PUSH2 0x15D3 PUSH2 0x1683 JUMP JUMPDEST JUMPDEST POP SWAP2 SWAP1 POP JUMP JUMPDEST PUSH2 0x15E3 DUP3 PUSH2 0x1729 JUMP JUMPDEST DUP2 ADD DUP2 DUP2 LT PUSH8 0xFFFFFFFFFFFFFFFF DUP3 GT OR ISZERO PUSH2 0x1602 JUMPI PUSH2 0x1601 PUSH2 0x16E1 JUMP JUMPDEST JUMPDEST DUP1 PUSH1 0x40 MSTORE POP POP POP JUMP JUMPDEST PUSH1 0x0 PUSH2 0x1616 DUP3 PUSH2 0x155C JUMP JUMPDEST SWAP2 POP PUSH32 0xFFFFFFFFFFFFFFFFFFFFFFFFFFFFFFFFFFFFFFFFFFFFFFFFFFFFFFFFFFFFFFFF DUP3 EQ ISZERO PUSH2 0x1649 JUMPI PUSH2 0x1648 PUSH2 0x1654 JUMP JUMPDEST JUMPDEST PUSH1 0x1 DUP3 ADD SWAP1 POP SWAP2 SWAP1 POP JUMP JUMPDEST PUSH32 0x4E487B7100000000000000000000000000000000000000000000000000000000 PUSH1 0x0 MSTORE PUSH1 0x11 PUSH1 0x4 MSTORE PUSH1 0x24 PUSH1 0x0 REVERT JUMPDEST PUSH32 0x4E487B7100000000000000000000000000000000000000000000000000000000 PUSH1 0x0 MSTORE PUSH1 0x22 PUSH1 0x4 MSTORE PUSH1 0x24 PUSH1 0x0 REVERT JUMPDEST PUSH32 0x4E487B7100000000000000000000000000000000000000000000000000000000 PUSH1 0x0 MSTORE PUSH1 0x32 PUSH1 0x4 MSTORE PUSH1 0x24 PUSH1 0x0 REVERT JUMPDEST PUSH32 0x4E487B7100000000000000000000000000000000000000000000000000000000 PUSH1 0x0 MSTORE PUSH1 0x41 PUSH1 0x4 MSTORE PUSH1 0x24 PUSH1 0x0 REVERT JUMPDEST PUSH1 0x0 DUP1 REVERT JUMPDEST PUSH1 0x0 DUP1 REVERT JUMPDEST PUSH1 0x0 DUP1 REVERT JUMPDEST PUSH1 0x0 DUP1 REVERT JUMPDEST PUSH1 0x0 DUP1 REVERT JUMPDEST PUSH1 0x0 PUSH1 0x1F NOT PUSH1 0x1F DUP4 ADD AND SWAP1 POP SWAP2 SWAP1 POP JUMP JUMPDEST PUSH32 0x4E6F20737563682052656E74616C000000000000000000000000000000000000 PUSH1 0x0 DUP3 ADD MSTORE POP JUMP JUMPDEST PUSH32 0x506C65617365207375626D6974207468652061736B696E672070726963652069 PUSH1 0x0 DUP3 ADD MSTORE PUSH32 0x6E206F7264657220746F20636F6D706C65746520746865207075726368617365 PUSH1 0x20 DUP3 ADD MSTORE POP JUMP JUMPDEST PUSH32 0x416C726561647920426F6F6B656420466F722052657175657374656420446174 PUSH1 0x0 DUP3 ADD MSTORE PUSH32 0x6500000000000000000000000000000000000000000000000000000000000000 PUSH1 0x20 DUP3 ADD MSTORE POP JUMP JUMPDEST PUSH32 0x4F6E6C79206F776E6572206F6620736D61727420636F6E74726163742063616E PUSH1 0x0 DUP3 ADD MSTORE PUSH32 0x207075742075702072656E74616C730000000000000000000000000000000000 PUSH1 0x20 DUP3 ADD MSTORE POP JUMP JUMPDEST PUSH2 0x1859 DUP2 PUSH2 0x155C JUMP JUMPDEST DUP2 EQ PUSH2 0x1864 JUMPI PUSH1 0x0 DUP1 REVERT JUMPDEST POP JUMP INVALID LOG2 PUSH5 0x6970667358 0x22 SLT KECCAK256 PUSH6 0xD07DFB979934 DUP14 0x5D 0x5D PUSH23 0xA003EEEEB7E263E01A8A04CC506BC486373961F2776473 PUSH16 0x6C634300080700330000000000000000 "
				},
				"gasEstimates": {
					"creation": {
						"codeDepositCost": "1260200",
						"executionCost": "30588",
						"totalCost": "1290788"
					},
					"external": {
						"addDatesBooked(uint256,string[])": "infinite",
						"addRentals(string,string,string,string,string,string,string,uint256,uint256,string[])": "infinite",
						"getRental(uint256)": "infinite",
						"owner()": "2533",
						"rentalIds(uint256)": "infinite"
					},
					"internal": {
						"checkBookings(uint256,string memory[] memory)": "infinite"
					}
				},
				"methodIdentifiers": {
					"addDatesBooked(uint256,string[])": "2a23bb72",
					"addRentals(string,string,string,string,string,string,string,uint256,uint256,string[])": "deb38e79",
					"getRental(uint256)": "652bd29e",
					"owner()": "8da5cb5b",
					"rentalIds(uint256)": "ebfa74c9"
				}
			},
			"storageLayout": {
				"storage": [
					{
						"astId": 3,
						"contract": "AIRBNB.sol:airbnb",
						"label": "owner",
						"offset": 0,
						"slot": "0",
						"type": "t_address"
					},
					{
						"astId": 5,
						"contract": "AIRBNB.sol:airbnb",
						"label": "counter",
						"offset": 0,
						"slot": "1",
						"type": "t_uint256"
					},
					{
						"astId": 89,
						"contract": "AIRBNB.sol:airbnb",
						"label": "rentals",
						"offset": 0,
						"slot": "2",
						"type": "t_mapping(t_uint256,t_struct(rentalInfo)44_storage)"
					},
					{
						"astId": 92,
						"contract": "AIRBNB.sol:airbnb",
						"label": "rentalIds",
						"offset": 0,
						"slot": "3",
						"type": "t_array(t_uint256)dyn_storage"
					}
				],
				"types": {
					"t_address": {
						"encoding": "inplace",
						"label": "address",
						"numberOfBytes": "20"
					},
					"t_array(t_string_storage)dyn_storage": {
						"base": "t_string_storage",
						"encoding": "dynamic_array",
						"label": "string[]",
						"numberOfBytes": "32"
					},
					"t_array(t_uint256)dyn_storage": {
						"base": "t_uint256",
						"encoding": "dynamic_array",
						"label": "uint256[]",
						"numberOfBytes": "32"
					},
					"t_mapping(t_uint256,t_struct(rentalInfo)44_storage)": {
						"encoding": "mapping",
						"key": "t_uint256",
						"label": "mapping(uint256 => struct airbnb.rentalInfo)",
						"numberOfBytes": "32",
						"value": "t_struct(rentalInfo)44_storage"
					},
					"t_string_storage": {
						"encoding": "bytes",
						"label": "string",
						"numberOfBytes": "32"
					},
					"t_struct(rentalInfo)44_storage": {
						"encoding": "inplace",
						"label": "struct airbnb.rentalInfo",
						"members": [
							{
								"astId": 20,
								"contract": "AIRBNB.sol:airbnb",
								"label": "name",
								"offset": 0,
								"slot": "0",
								"type": "t_string_storage"
							},
							{
								"astId": 22,
								"contract": "AIRBNB.sol:airbnb",
								"label": "city",
								"offset": 0,
								"slot": "1",
								"type": "t_string_storage"
							},
							{
								"astId": 24,
								"contract": "AIRBNB.sol:airbnb",
								"label": "lat",
								"offset": 0,
								"slot": "2",
								"type": "t_string_storage"
							},
							{
								"astId": 26,
								"contract": "AIRBNB.sol:airbnb",
								"label": "long",
								"offset": 0,
								"slot": "3",
								"type": "t_string_storage"
							},
							{
								"astId": 28,
								"contract": "AIRBNB.sol:airbnb",
								"label": "unoDescription",
								"offset": 0,
								"slot": "4",
								"type": "t_string_storage"
							},
							{
								"astId": 30,
								"contract": "AIRBNB.sol:airbnb",
								"label": "dosDescription",
								"offset": 0,
								"slot": "5",
								"type": "t_string_storage"
							},
							{
								"astId": 32,
								"contract": "AIRBNB.sol:airbnb",
								"label": "imgUrl",
								"offset": 0,
								"slot": "6",
								"type": "t_string_storage"
							},
							{
								"astId": 34,
								"contract": "AIRBNB.sol:airbnb",
								"label": "maxGuests",
								"offset": 0,
								"slot": "7",
								"type": "t_uint256"
							},
							{
								"astId": 36,
								"contract": "AIRBNB.sol:airbnb",
								"label": "pricePerDay",
								"offset": 0,
								"slot": "8",
								"type": "t_uint256"
							},
							{
								"astId": 39,
								"contract": "AIRBNB.sol:airbnb",
								"label": "datesBooked",
								"offset": 0,
								"slot": "9",
								"type": "t_array(t_string_storage)dyn_storage"
							},
							{
								"astId": 41,
								"contract": "AIRBNB.sol:airbnb",
								"label": "id",
								"offset": 0,
								"slot": "10",
								"type": "t_uint256"
							},
							{
								"astId": 43,
								"contract": "AIRBNB.sol:airbnb",
								"label": "renter",
								"offset": 0,
								"slot": "11",
								"type": "t_address"
							}
						],
						"numberOfBytes": "384"
					},
					"t_uint256": {
						"encoding": "inplace",
						"label": "uint256",
						"numberOfBytes": "32"
					}
				}
			},
			"userdoc": {
				"kind": "user",
				"methods": {},
				"version": 1
			}
		}
	}
}